:020000040800F2
:100000000000022045890008A90D0008AB0D00087A
:10001000AD0D0008AF0D0008B10D00080000000094
:1000200000000000000000000000000071850008D2
:10003000B30D00080000000011860008FD7E0008D6
:100040009989000899890008998900089989000808
:1000500099890008998900089989000899890008F8
:1000600099890008998900089989000899890008E8
:1000700099890008998900089989000899890008D8
:1000800099890008998900089989000899890008C8
:1000900099890008998900089989000899890008B8
:1000A00099890008B50D0008998900089989000808
:1000B0009989000899890008998900089989000898
:1000C0009989000899890008998900089989000888
:1000D0009989000899890008998900089989000878
:1000E0009989000899890008000000009989000892
:1000F0009989000899890008998900089989000858
:100100009989000899890008998900089989000847
:100110009989000899890008998900089989000837
:100120009989000899890008998900089989000827
:100130009989000899890008998900089989000817
:1001400000000000000000000000000000000000AF
:1001500099890008998900089989000899890008F7
:1001600099890008998900089989000899890008E7
:100170009989000899890008998900080000000001
:1001800099890008998900089989000899890008C7
:1001900099890008998900089989000899890008B7
:1001A00099890008998900089989000899890008A7
:1001B0009989000899890008998900089989000897
:1001C0009989000899890008998900089989000887
:1001D0009989000899890008998900089989000877
:1001E0009989000899890008998900089989000867
:1001F0009989000899890008998900089989000857
:100200009989000899890008998900089989000846
:100210009989000899890008998900089989000836
:100220009989000899890008998900080000000050
:100230009989000899890008000000009989000840
:100240009989000899890008998900089989000806
:1002500099890008998900089989000899890008F6
:1002600099890008998900089989000899890008E6
:100270009989000899890008998900080000000000
:1002800099890008998900089989000800000000F0
:0802900000000000998900083C
:1002A00010F8012B11F8013B012A28BF9A42F7D020
:1002B000D01A7047034613F8012B002AFBD1181AF5
:1002C000013870470000000000000000000000003E
:1002D00001F0FF01102A2BDB10F0070F08D010F8F7
:1002E000013B013A8B422DD010F0070F42B3F6D1FB
:1002F000F0B441EA012141EA014122F007047FF014
:1003000000070023F0E80256083C85EA010586EA6A
:10031000010685FA47F5A3FA87F586FA47F6A5FAA6
:1003200087F68EB9EED1F0BC01F0FF0102F00702B2
:1003300032B110F8013B013A83EA010313B1F8D15D
:100340000020704701387047002D06BF354603383E
:10035000073815F0010F07D1013015F4807F02BF77
:10036000013015F4C03F0130F0BC0138704700BFC8
:1003700053B94AB9002908BF00281CBF4FF0FF310C
:100380004FF0FF3000F00CB8ADF1080C6DE904CE71
:100390000AF04EFADDF804E0DDE9022304B070470C
:1003A000704700BF0348044B834202D0034B03B1A4
:1003B00018477047740000207400002000000000FF
:1003C0000548064B1B1AD90F01EBA301491002D0B7
:1003D000034B03B1184770477400002074000020DD
:1003E0000000000010B5064C237843B9FFF7DAFF90
:1003F000044B13B10448AFF300800123237010BDF8
:10040000340100200000000050AB000808B5054B87
:100410001BB105490548AFF30080BDE80840FFF770
:10042000CFBF00BF000000003801002050AB000823
:1004300030B585B00024009401940294039401F037
:100440002DFE01238DF800308DF8014001941F220C
:100450008DF8082087228DF809208DF80A408DF844
:100460000B408DF80C308DF80D308DF80E408DF866
:100470000F40684601F030FE042001F01DFE05B07B
:1004800030BD000010B582B004468DF807004FF073
:10049000FF3301220DF10701024805F026FD204639
:1004A00002B010BDE402002008B50268034B9A4276
:1004B00000D008BD03F066FEFBE700BF000001406E
:1004C00072B6FEE700B59DB04C22002109A808F0E5
:1004D00033FE2022002101A808F02EFE022003F0A6
:1004E000F7FD00230093244BDA6A22F00102DA625E
:1004F000DB6A03F001030093204B9A6942F4404207
:100500009A619B6903F440430093009B1B4B9B69DA
:1005100013F4005FFAD0012209924FF480330A935A
:1005200002231293139314926422159216930422B9
:10053000179218930C23199300231A931B9309A85D
:1005400001F0F6FDA0B93F2301930323029303902A
:10055000082304934023059306934FF48062079287
:100560000893022101A802F037FA18B91DB000BDA6
:10057000FFF7A6FFFFF7A4FF000400580048025849
:1005800000B583B0FFF754FF03F0CCFDFFF79AFFEF
:1005900000F056F800F088F900F0B2FA00F0F0FA36
:1005A00000F082FB1F4B1868002302221946806866
:1005B00008F0A2FB1C4808F097FB02F013F906466E
:1005C00002F054FB054602F073FB044602F082FB86
:1005D000009023462A463146144808F01DFB01F0DE
:1005E000CDFC20B1124808F07FFBFFF769FF1148EE
:1005F00008F07AFB4FF4486001F04BF920B10E4847
:1006000008F072FBFFF75CFF4FF448610B4808F0FD
:1006100003FB01F045F807F07DFC00F035F907F029
:10062000A5FCFEE72400002074AB00088CAB00089A
:10063000CCAB0008ECAB000824AC00084CAC0008C4
:100640002DE9F04F8FB009AD002409940A940B9462
:100650000C940D946B4BD3F8E02042F00402C3F8E5
:10066000E020D3F8E02002F004020192019AD3F8CE
:10067000E02042F02002C3F8E020D3F8E02002F0AE
:1006800020020292029AD3F8E02042F08002C3F8DE
:10069000E020D3F8E02002F080020392039AD3F81E
:1006A000E02042F00102C3F8E020D3F8E02002F09D
:1006B00001020492049AD3F8E02042F04002C3F809
:1006C000E020D3F8E02002F040020592059AD3F82A
:1006D000E02042F01002C3F8E020D3F8E02002F05E
:1006E00010020692069AD3F8E02042F00202C3F804
:1006F000E020D3F8E02002F002020792079AD3F834
:10070000E02042F00802C3F8E020D3F8E03003F024
:1007100008030893089BDFF8F8900122102148464F
:1007200003F0C6FCDFF8ECA001224821504603F09C
:10073000BFFCDFF8E4802246E021404603F0B8FC2D
:10074000DFF8D8B022460321584603F0B1FC4BF63F
:10075000C06309930A940B9429462B4803F088FB45
:100760004FF4507309930A940B942946274803F0D9
:100770007FFB4FF4807309930A940B9429464846F3
:1007800003F076FB042309930A9401260B9629466D
:10079000504603F06DFB482309930A960B940327F8
:1007A0000C972946504603F063FB4FF0100ACDF832
:1007B00024A00A960B940C972946484603F058FB50
:1007C000182309930A940B942946404603F050FBE2
:1007D000E02309930A960B940C972946404603F0B0
:1007E00047FB09970A960B940C942946584603F048
:1007F0003FFB504603F0FCFC202003F0F9FC0FB057
:10080000BDE8F08F00440258001802580008025852
:1008100000000258000C0258000402580010025850
:10082000F8B5154808F060FA0026354619E000F0E2
:1008300043FFA31BB3F57A7F10D3104E012130463E
:1008400003F03CFC0221304603F038FC6F1C2246CA
:1008500029460B4808F0E0F926463D46012007F0FE
:1008600045FC03F09BFC044601F0EAF80028DED0CA
:10087000044808F039FADAE784AC0008001002589E
:10088000CCAC0008A0AC000808B5044A002104481C
:1008900007F0CBFB034B186008BD00BFE0B10008B8
:1008A000210800085001002008B50F480F4B0360D5
:1008B0000F4B00221A7080215970E1219970DA7073
:1008C0001A715A714360012303720A4BC3600A4BC9
:1008D00003614FF4C063436103F0E4FE00B908BD57
:1008E000FFF7EEFDFBE700BF5C0100200080024047
:1008F0005401002074000020D400002070B58CB09A
:1009000000230793089309930A930B930268384BCB
:100910009A4201D00CB070BD364BD3F8D82042F4C7
:100920000042C3F8D820D3F8D82002F40042019244
:10093000019AD3F8D82042F48032C3F8D820D3F8F3
:10094000D82002F480320292029AD3F8D82042F4DE
:100950000032C3F8D820D3F8D82002F40032039232
:10096000039AD3F8E02042F00402C3F8E020D3F861
:10097000E02002F004020492049AD3F8E02042F04E
:100980000102C3F8E020D3F8E02002F00102059252
:10099000059AD3F8E02042F00202C3F8E020D3F831
:1009A000E03003F002030693069B322307930224F0
:1009B00008940A940B250B9507A90F4803F058FAE1
:1009C000862307930894002609960A940B9507A995
:1009D0000A4803F04DFA4FF46053079308940996C0
:1009E0000A940B9507A9064803F042FA92E700BF64
:1009F00000800240004402580008025800000258DB
:100A000000040258F0B5B9B0002333933493359302
:100A100036933793334B1B680BB139B0F0BD314B74
:100A200001221A6002ACC0220021204608F084FB9B
:100A30004FF080720023CDE90223204602F08EFAA7
:100A400000284BD1284BD3F8D42042F48052C3F86D
:100A5000D420D3F8D43003F480530193019B4FF298
:100A60003F033393022734970026359603253695A6
:100A70000C23379333AC21461C4803F0F9F93F238C
:100A800033933497359636950C233793214618487F
:100A900003F0EEF94FF6807333933497359636951D
:100AA0000C2337932146134803F0E2F94FF63373D2
:100AB00033933497359636950C23379321460E4859
:100AC00003F0D6F98023339334973596369509236E
:100AD00037932146094803F0CBF99EE7FFF7F0FC76
:100AE000B0E700BF0C020020004402580014025876
:100AF0000018025800100258000C02580008025852
:100B000000B589B001A9002201924A608A60CA60DA
:100B10000A614A618A611648164B036003F58273C5
:100B200043608260C26002614FF0100CC0F814C0D4
:100B30008261C261026242628262C2620263426395
:100B40008263C26302640F23019302934FF03C0E51
:100B5000CDF80CE00493CDF814C01123069303F0F4
:100B6000F7FE08B909B000BDFFF7AAFCFAE700BF1D
:100B7000100200200040005208B5FFF743FF08BDF7
:100B800008B51448144B03604FF4800343600023FE
:100B900083600722C26003614FF0807242614FF0B0
:100BA000806282614FF08052C2610362436283625D
:100BB000C36243638363C363036443648364C36442
:100BC00003654365836503F087FF00B908BDFFF740
:100BD00077FCFBE75C0200200030014070B5BAB042
:100BE0000446002135913691379138913991C022D0
:100BF00004A808F0A1FA2268274B9A4201D03AB023
:100C000070BD4FF480520023CDE9042304A802F004
:100C1000A5F900283CD1214BD3F8F02042F48052B2
:100C2000C3F8F020D3F8F02002F480520192019A28
:100C3000D3F8E02042F00102C3F8E020D3F8E0202E
:100C400002F001020292029AD3F8E02042F0080278
:100C5000C3F8E020D3F8E03003F008030393039BCC
:100C60006023359302253695002437943894052661
:100C7000399635A90A4803F0FBF880233593369559
:100C800037943894399635A9064803F0F1F8B6E759
:100C9000FFF716FCBFE700BF0030014000440258D8
:100CA00000000258000C025808B51748174B0360A3
:100CB0004FF4E133436000238360C36003610C227F
:100CC00042618361C36103624362836205F079FA22
:100CD00070B900210C4805F0F0FA60B900210A480B
:100CE00005F010FB50B9084805F0C8FA48B908BD2E
:100CF000FFF7E6FBEDE7FFF7E3FBEFE7FFF7E0FBCE
:100D0000F1E7FFF7DDFBF2E7E4020020001001400D
:100D100010B5B8B004460021339134913591369125
:100D20003791C02202A808F007FA22681B4B9A42AA
:100D300001D038B010BD01220023CDE9022302A862
:100D400002F00CF938BB164BD3F8F02042F0100239
:100D5000C3F8F020D3F8F02002F010020092009ABD
:100D6000D3F8E02042F00102C3F8E020D3F8E030ED
:100D700003F001030193019B4FF4C06333930223FB
:100D800034930023359336930723379333A90548CB
:100D900003F06EF8CDE7FFF793FBD4E700100140B6
:100DA0000044025800000258FEE7FEE7FEE7FEE7B7
:100DB000FEE7704708B5024804F04CFB08BD00BFD1
:100DC000DC4E002000B583B00A4BD3F8F42042F08B
:100DD0000202C3F8F420D3F8F43003F002030193C5
:100DE000019B00220F216FF0010001F043F903B0D5
:100DF00000BD00BF00440258002818BF002A04D0DC
:100E000008B503461046984708BD704700E001301A
:100E100010B10378202BFAD07047000038B5044693
:100E20000D46184AFFF7E8FF174A29462046FFF704
:100E3000E3FF164A29462046FFF7DEFF144A2946FB
:100E40002046FFF7D9FF134A29462046FFF7D4FF73
:100E5000114A29462046FFF7CFFF104A294620466F
:100E6000FFF7CAFF0E4A29462046FFF7C5FF0D4A85
:100E700029462046FFF7C0FF0B4A29462046FFF7C8
:100E8000BBFF38BDF8AC000808AD000814AD000881
:100E900020AD000830AD000844AD000878AD000872
:100EA000ACAD000800AE000814AE000830B589B043
:100EB00005460B46054A2021684607F0D1FF6946E2
:100EC000284608F061F909B030BD00BF50AE0008F7
:100ED00038B514461D46FFF7E9FF002C18BF00285F
:100EE00028D04DB33A2108F02FF9014618B301314B
:100EF00000E0013108782028FBD022281ED10131E2
:100F00004FF0000C04E0013104F80C000CF1010C6E
:100F10000878002818BF222802D06B1E6345F2D83B
:100F2000002304F80C300B78222B01D0002002E0C3
:100F3000012000E0002038BD2846FCE70020FAE749
:100F40000CB470B5B2B006460D4636AB53F8042B60
:100F5000019302ACC021204608F04EF822462946F3
:100F60003046FFF749FF32B0BDE8704002B070472D
:100F70002DE9F0418CB006460F4600F029FE0346ED
:100F80001C4A39463046FFF7DBFF01241FE0DFF83B
:100F90007080204600F0F2FD05469DF8200000F02C
:100FA00029FEBDF82230BDF82420BDF82C10069192
:100FB0000A99059104920393029001950094434687
:100FC0000D4A39463046FFF7BBFF0134E4B20D2C21
:100FD00008D8214608A800F0DDFD012CD7D0DFF8A5
:100FE0002480D6E7054A39463046FFF705FF0CB0A6
:100FF000BDE8F0815CAE000884AE0008ECAE0008ED
:1010000010AE000858AE000800B583B033B9044BE9
:101010000092044AFFF794FF03B000BD024BF7E7CC
:10102000F4AE000804AF0008FCAE000870B588B04C
:1010300005460E4600F0CCFD03461C4A31462846C4
:10104000FFF77EFF012406E0194A31462846FFF7E4
:10105000D3FE0134E4B20D2C25D8214604A800F0BB
:1010600099FD204600F08AFD00902346114A314642
:101070002846FFF765FF9DF810000028E4D000F037
:10108000B9FD0346BDF81220BDF81410BDF81C00D0
:1010900003900698029001910092074A3146284633
:1010A000FFF74EFFD0E708B070BD00BF1CAF0008CF
:1010B00004AD00083CAF00084CAF000800B583B099
:1010C0003BB9054B00931346044AFFF739FF03B0C1
:1010D00000BD034BF6E700BF8CAF000894AF0008DB
:1010E00090AF000808B500F0B8FB08BD08B500F0E7
:1010F000A7FB08BD08B500F03FFC08BD08B500F02F
:1011000044FC08BD10B582B0BDF814C0CDF804C0D1
:10111000049C009400F060FC02B010BD10B51446B1
:10112000FFF7C4FE002C18BF002810D03A2108F0A9
:101130000BF858B101300378202B01D10130FAE7C8
:101140000A22002107F09AFC2060012010BD002037
:10115000FCE700B583B0019201AAFFF7DFFF019819
:1011600003B000BDF0B58DB004460E4617461023FF
:1011700008AA8849FFF7ACFE40B3874908A8FFF7E3
:101180008FF848B3854908A8FFF78AF848B384491F
:1011900008A8FFF785F850B3824908A8FFF780F840
:1011A000002836D0804908A8FFF77AF828B17F498F
:1011B00008A8FFF775F8002860D107AA7C492046E7
:1011C000FFF7ACFF00283CD101231BE0794A3946E8
:1011D0003046FFF711FE1AE039463046FFF7C8FEE9
:1011E00015E0754A39463046FFF706FE0FE04FF42A
:1011F000486272492046FFF7ACFF069080B2FFF7C5
:1012000071FF034608AA39463046FFF7FDFE0DB0D0
:10121000F0BD07AA66492046FFF780FF08B9012301
:10122000F0E706AA65492046FFF778FF08B90123D1
:10123000E8E7BDF818109DF81C00FFF757FF0346BC
:10124000E0E741F294125D492046FFF782FF0690E5
:1012500064225B492046FFF77CFF054640F6B83222
:1012600058492046FFF775FF83B22A46BDF818108B
:101270009DF81C00FFF73EFF0346C3E7524908A84C
:10128000FFF70EF820B1514908A8FFF709F820BB75
:1012900007AA47492046FFF741FF08B90123B1E7F4
:1012A0004FF47A7245492046FFF753FF06906422B7
:1012B00043492046FFF74DFF054640F6B832414905
:1012C0002046FFF746FF83B22A46BDF818109DF866
:1012D0001C00FFF713FF034694E73D4908A8FEF7FB
:1012E000DFFF90B13B4908A8FEF7DAFF00284BD199
:1012F00007AA2F492046FFF711FF002840D09DF88C
:101300001C0000F04BFB03467CE702AA3249204652
:10131000FFF704FF08B9012374E703AA2F49204609
:10132000FFF7FCFE08B901236CE704AA2C4920460C
:10133000FFF7F4FE08B9012364E705AA294920460E
:10134000FFF7ECFE08B901235CE764221C49204644
:10135000FFF7FFFE054640F6B8321A492046FFF770
:10136000F8FE80B201900095BDF814309DF8102071
:10137000BDF80C109DF80800FFF7C4FE034641E7D6
:1013800000F04EFB03463DE7174A39463046FFF76B
:1013900033FD3CE7A4AF0008D0AF0008D8AF000889
:1013A0002CB0000834B0000838B000083CB0000889
:1013B0009CB00008A8AF0008E0AF0008A8B0000883
:1013C0004CB0000858B0000868B000086CB00008C5
:1013D0007CB00008ACB0000884B0000890B00008F1
:1013E00098B00008A4B00008B4B0000870B58EB082
:1013F00004460D4616468949FEF752FF20B188493A
:101400002046FEF74DFF28B931462846FFF706FD76
:101410000EB070BD83492046FEF742FFC0B10622E0
:101420008149204607F09EFEB8B94FF448630C93FB
:101430000CAA7E49204607F045FDBDF83000FFF7B5
:1014400051FE0346784A31462846FFF737FEDFE76C
:1014500031462846FFF7EAFDDAE70CAB0DAA7449DE
:10146000204607F02FFD022825D00322714920468F
:1014700007F078FE60B303226F49204607F072FE42
:10148000002851D005226D49204607F06BFE002848
:1014900076D005226A49204607F064FE002800F055
:1014A000A1802378002BB3D02346664A31462846D4
:1014B000FFF746FDACE7BDF830109DF83400FFF7AC
:1014C00015FE0346604A31462846FFF7F7FD9FE7C1
:1014D0000D9041F294130B9364230A9340F6B833B2
:1014E000099309AB01930AAB00930BAB0DAA5749C3
:1014F000204607F0E7FC00280FDDBDF824300A9AEB
:10150000BDF82C109DF83400FFF7F4FD0346504A57
:1015100031462846FFF7D2FD7AE701234C4A31468F
:101520002846FFF7CBFD73E70D904FF47A730B93CA
:1015300064230A9340F6B833099309AB01930AABCD
:1015400000930BAB0DAA4349204607F0BBFC0028D3
:101550000FDDBDF824300A9ABDF82C109DF8340038
:10156000FFF7CCFD03463C4A31462846FFF7A6FD6F
:101570004EE70123384A31462846FFF79FFD47E7EB
:1015800064230A9340F6B833099309AB03930AAB7B
:10159000029308AB019307AB009306AB05AA2F4952
:1015A000204607F08FFC032815DDBDF82430019399
:1015B0000A9B0093BDF820309DF81C20BDF8181040
:1015C0009DF81400FFF79EFD0346254A3146284644
:1015D000FFF774FD1CE70123214A31462846FFF737
:1015E0006DFD15E70DAA1F49204607F06BFC012889
:1015F00008D000F015FA0346114A31462846FFF795
:101600005DFD05E79DF8340000F0C8F903460C4A7B
:1016100031462846FFF752FDFAE600BFD8AF000872
:10162000DCB00008D0AF00082CB00008E0B0000823
:10163000ECB00008F8B000080CB1000820B10008B8
:10164000ACB000084CB1000834B00008FCB0000891
:1016500038B0000810B1000868B0000828B10008D0
:101660007CB0000840B1000838B50C461546FFF7BD
:10167000CDFB30B102787B2A04D02A462146FFF701
:10168000B5FE38BD2A462146FFF76CFDF9E700009C
:1016900008B50146014807F0BFFA08BD60B100086F
:1016A00008B5034B00221A80024807F01DFB08BD55
:1016B0007803002064B1000830B583B0002403E053
:1016C000184B1B88D3B901341F2C28D800230122C2
:1016D0000DF10701144804F07BFC00BB9DF80730B6
:1016E0000A2B18BF0D2BEBD00E4A12889E2A0FD85A
:1016F000501C0C4908800D498B54E4E70B48002529
:10170000C5542A460A49FFF7AFFF064B1D80DAE7AA
:10171000044B00221A80074807F0E6FAD3E703B02B
:1017200030BD00BF78030020E40200207C030020CD
:1017300091160008A0B100080138C0B20C2801D8E9
:101740000120704700207047A0F5FA7080B241F286
:101750009413984201D80120704700207047000080
:1017600001380B494FEA001C01EB0012002301F87D
:101770000C305380938093609381064A42F8203066
:10178000054A42F820304FF00002044B1A547047CB
:1017900094040020600400202C0400201C0400207D
:1017A000884210D009D9431A002A18BF934209D998
:1017B000884204D3821A90B270470B1AF4E710449F
:1017C00080B270470846704741F28733984209D883
:1017D000C0EB004000F6C410044BA3FB0030C0F384
:1017E0000F3070474FF6FF70704700BF5917B7D1E1
:1017F000F8B504460E461546FFF79EFFD0B13046B9
:10180000FFF7A2FF10B901231F4615E03046FFF78E
:10181000DBFF0146631ED8B200F04EFB074658B905
:10182000601E064B23F810600DB92F4604E000F04F
:10183000C3FA01E001231F463846F8BD64050020C5
:1018400038B505460122FFF7D3FF044608B120460C
:1018500038BD2846FFF784FFF9E738B50546FFF79E
:1018600073FFA0B101240D2C0CD80022294620467C
:10187000FFF7BEFF034640B92046FFF771FF013472
:10188000E4B2F0E700F098FA0023184638BD0123CF
:10189000FBE708B5FFF7E1FF08BD00002DE9F84FB1
:1018A000054682460C460F4616469846BDF8283037
:1018B0009946FFF741FF002849D02046FFF744FF33
:1018C000002849D06C1E2301264AD35C7BB9264BE5
:1018D00033F8143035461E46BB4228BF012D3ED09A
:1018E000BB4298BF022D07D101231D4631E01D4B9D
:1018F00003EB04139B88EDE702F050FC8346194983
:10190000220101EB04138D545F809E80C3F8088090
:101910004946A3F80C90154B43F824000023144AC1
:1019200042F82430134A135511B100231D4610E02C
:10193000012239465046FFF75BFF054618B90C4BAC
:1019400043F824B005E05046FFF70AFF01E0012309
:101950001D462846BDE8F88F01231D46F9E70123FF
:101960001D46F6E794040020640500206004002072
:101970002C0400201C04002000B583B00093134603
:101980000122FFF78BFF03B000BD00B583B00093C9
:1019900013460222FFF782FF03B000BD38B50446AC
:1019A0000546FFF7C9FE88B12046631E1A010949A2
:1019B0008C5C64B101EB031301229988FFF718FFD7
:1019C000044620B92846FFF7CBFE00E0012420465C
:1019D00038BD00BF940400202DE9F0411D46BDF83C
:1019E0001C30904218BFA94204D801231F46384634
:1019F000BDE8F081804614461E46069AFFF7BCFFFC
:101A000007460028F3D13346069A29462046FFF7B9
:101A1000BCFF07460028EAD04046FFF7BFFFE6E7D5
:101A200010B501240D2C07D82046FFF7B7FF034659
:101A300018B90134E4B2F5E70023184610BD0000E0
:101A40002DE9F0410646012500271CE0464901EB3F
:101A50000411498833E01A463EE0444B43F82460C1
:101A6000434B1B5D2BB9404A02EB0412528842459E
:101A700048D02BB13C4B03EB04139B8843454AD021
:101A800001270135EDB20D2D68D86C1EE4B223019B
:101A9000354AD35C002BF4D0344B53F8243013B9BF
:101AA000324B43F82460314B53F82420B21A304BA8
:101AB0001B5D002BCAD02C4901EB041189882D48ED
:101AC00030F8140088422AD0274B03EB04139B897B
:101AD000002BC0D003FB02F20BB1002AD1D041F29F
:101AE00088339A4200D91A46FFF75AFE80460022F0
:101AF00001462846FFF77CFE07460028ADD0384651
:101B0000BDE8F0811C4A52F82420002AB1D11A4ABB
:101B100042F82460ADE72846FFF722FEB0E7134AFB
:101B200042F82460B3B9144B53F8243013B9124B64
:101B300043F824600C4B03EB04139B68002BA0D0EC
:101B40000D4A52F82420B21A93429AD8084B012227
:101B50001A5596E72846FFF703FE92E7002FCED0EE
:101B600000F02AF90027CAE794040020600400204E
:101B70001C040020640500202C04002010B504463D
:101B8000FFF7DAFD18B1601E014B33F8100010BDED
:101B90006405002030B585B004460D46002300934F
:101BA0000193029303930846FFF7C6FD48B1691EEF
:101BB000064B03EB01130FCB84E80F00204605B062
:101BC00030BD20606060A060E060F7E79404002012
:101BD0000023184601E00133DBB20C2B07D81A01B1
:101BE00003498A5C002AF6D00130C0B2F3E770479F
:101BF00094040020012803D0022803D10248704732
:101C00000248704702487047BCB10008B8B10008EC
:101C1000C0B100080A4B1B6803B1704710B506F04D
:101C2000C9F90446064B1B681BB1204606F0D7F9DC
:101C300010BD184606F06AFA014B1860F5E700BFC0
:101C40008005002008B506F07FF9022801D00020A9
:101C500008BDFFF7DFFF054B186828B1044B196872
:101C600006F0A4FA0028F3D00320F1E78005002055
:101C70000000002008B506F067F9022800D008BD72
:101C8000034B18680028FAD006F0C1FAF7E700BF46
:101C90008005002070B5002918BF002803D101235A
:101CA0001E46304670BD05460C46FFF7CBFF064684
:101CB0000028F6D102461021094802F0F9F9094B33
:101CC0001B6822462946084802F0CEFF064601223C
:101CD0001021034802F0ECF9FFF7CCFFE1E700BF69
:101CE00000000258000000205C020020F0B583B024
:101CF000002918BF002821D0144606460D4612B907
:101D000001231F461CE0FFF79DFF0746C0B90246AE
:101D100010210D4802F0CCF90C4B1B6800932346B0
:101D20002A4631460A4803F0FFF8074601221021EF
:101D3000054802F0BDF9FFF79DFF01E001231F46B2
:101D4000384603B0F0BD00BF00000258000000207C
:101D50005C02002008B502460821024802F0A8F9FA
:101D600008BD00BF000C025808B50020FFF7F2FFC5
:101D7000012002F019FA0120FFF7ECFF012002F028
:101D800013FA08BD08B502464021024802F090F956
:101D900008BD00BF000C025808B5012210210548FB
:101DA00002F086F90120FFF7D5FF0120FFF7EAFFD7
:101DB00008BD00BF0000025808B50020FFF7E2FF91
:101DC000012002F0F1F90120FFF7DCFF08BD0A282D
:101DD00009D809280FD202280FD9042801D00020E1
:101DE0007047012070470C2809D00E2801D0002030
:101DF0007047012070470120704701207047012083
:101E0000704700F00F0040EA001343EA002343EA62
:101E10000030704700F0800001F03F010843187067
:101E2000110A59709A70704710B582B001AC234600
:101E300000F08000FFF7EEFF03212046FFF72AFFA6
:101E4000014B187002B010BD8405002010B582B09F
:101E50000023ADF800304FF000028DF8022010F0A2
:101E6000800F00D1802001AC23460022FFF7D2FF73
:101E7000032269462046FFF739FF0E4B187010B158
:101E8000002002B010BD234602460146FFF7C2FF04
:101E9000032269462046FFF729FF064B187030B928
:101EA0009DF801309DF8020040EA0320E9E7002098
:101EB000E7E700BF8405002008B50F2803D90120FB
:101EC000054B187008BD10300A46C1B20020FFF75C
:101ED000ABFF014B1870F5E78405002010B50446F0
:101EE00004218020FFF7B2FF0246094B187848B959
:101EF0004CB122F4804292B204210020FFF794FFFB
:101F0000034B187010BD42F4804292B2F4E700BF58
:101F10008405002038B50446FFF759FF98B12046E4
:101F2000FFF76FFF05460024032C10D804F10A01C7
:101F30002A46C9B20020FFF777FF064B187040B958
:101F40000134E4B2F0E70120024B187001E0014BCC
:101F5000187838BD8405002008B50020FFF7DAFFA7
:101F600008BD000008B5024609210020FFF75CFF0C
:101F7000014B187008BD00BF8405002008B5FFF7AD
:101F80000BFFFFF7F1FE40F6842203210020FFF74C
:101F90004BFF0C4B187000B108BD0120FFF79EFFEE
:101FA000084B18700028F7D1012002F0FDF8FFF768
:101FB000D3FF044B18700028EED1FFF7D3FF014B7D
:101FC0001870E9E784050020002807DB00F01F02F5
:101FD000400901239340024A42F82030704700BF75
:101FE00000E100E0002804DB0901C9B2044B1954E8
:101FF000704700F00F000901C9B2024B1954704735
:1020000000E400E014ED00E000B500F00700A0F1EE
:10201000030CBCF1040F07D8C0F1070E04300628EA
:1020200006D84FF0000C03E04FF0040E4FF0000C08
:102030004FF0FF3303FA0EF021EA000101FA0CF130
:1020400003FA0CF322EA030241EA020000BD000099
:102050000649CB6823F4E0631B041B0C000200F468
:10206000E0600343024A1A43CA60704700ED00E093
:102070000000FA0510B50446054BD868C0F30220ED
:10208000FFF7C2FF01462046FFF7ACFF10BD00BFBF
:1020900000ED00E008B5FFF797FF08BDBFF35F8FC5
:1020A000044B5A6A22F480325A620022C3F8942008
:1020B000704700BF00ED00E040F00100054BC3F8A1
:1020C00094005A6A42F480325A62BFF34F8FBFF3D2
:1020D0006F8F704700ED00E04378144AC2F89830E3
:1020E000D2F8A03023F00103C2F8A0304368C2F850
:1020F0009C30017BC37A1B0643EA0173817A43EA71
:10210000C143417B43EA8143817B43EA4143C17B35
:1021100043EA0143417A43EA0123017A43EA410356
:1021200001780B43C2F8A030704700BF00ED00E01B
:10213000002800F03A8338B50446036813F0010F15
:1021400025D0944A136903F03803926A102B15D0F6
:10215000182B0FD06368B3F5803F3FD0002B53D1CD
:102160008C4B1A6822F480321A601A6822F480229A
:102170001A6038E002F00302022AEBD1854B1B689B
:1021800013F4003F03D06368002B00F01083236832
:1021900013F0020F00F0A1807E4A1369926A13F0D7
:1021A00038035AD0182B55D0E368002B00F0DE809E
:1021B00078490A6822F0190213430B6001F0EEFF20
:1021C0000546744B1B6813F0040F40F0AD8001F01E
:1021D000E5FF401B0228F4D90320EFE26D4A1368A3
:1021E00043F48033136063682BB301F0D7FF0546D7
:1021F000684B1B6813F4003FC9D101F0CFFF401BAF
:102200006428F5D90320D9E2B3F5A02F09D0614B9A
:102210001A6822F480321A601A6822F480221A6046
:10222000E1E75C4B1A6842F480221A601A6842F4B3
:1022300080321A60D7E701F0B1FF0546554B1B68A5
:1022400013F4003FA3D001F0A9FF401B6428F5D987
:102250000320B3E212F0030FA6D14E4B1B6813F01C
:10226000040F03D0E368002B00F0A382494A1368EF
:1022700023F01903E1680B43136001F08FFF05465B
:10228000444B1B6813F0040F06D101F087FF401B7D
:102290000228F5D9032091E201F09AFF41F20303ED
:1022A000984212D82269402A07D03A494B6823F451
:1022B0007C3343EA02334B600FE0364A536823F421
:1022C0007C3343F40033536007E0324A536823F011
:1022D000FE43216943EA01635360236813F0100F42
:1022E00000F088802B4A136903F03803926A082BA8
:1022F00056D0182B50D0E369002B00F0B880254A47
:10230000136843F08003136001F048FF0546214B3A
:102310001B6813F4807F40F0888001F03FFF401B72
:102320000228F4D9032049E201F052FF41F20303ED
:10233000984212D82269402A07D016494B6823F4E4
:102340007C3343EA02334B60C7E7124A536823F4F5
:102350007C3343F400335360BFE70E4A536823F0E5
:10236000FE43216943EA01635360B6E7094A1368F3
:1023700023F00103136001F011FF0546054B1B68B4
:1023800013F0040FA9D001F009FF401B0228F5D972
:10239000032013E20044025802F00302012AAAD1EA
:1023A000994B1B6813F4807F03D0E369802B40F0C6
:1023B000028201F00DFF41F20303984212D8226A13
:1023C000202A07D090494B6823F0F84343EA826300
:1023D0004B600FE08C4A536823F0F84343F080438E
:1023E000536007E0884AD36823F07C53216A43EAAC
:1023F0000163D360236813F0080F60D06369002B7A
:1024000049D0814A536F43F00103536701F0C6FE80
:1024100005467D4B5B6F13F0020F50D101F0BEFEFD
:10242000401B0228F5D90320C8E101F0D1FE41F29A
:102430000303984212D8226A202A07D072494B68B7
:1024400023F0F84343EA82634B60D3E76E4A536854
:1024500023F0F84343F080435360CBE76A4AD368E4
:1024600023F07C53216A43EA0163D360C2E7664AE2
:10247000136823F08003136001F090FE0546624B61
:102480001B6813F4807FB5D001F088FE401B022842
:10249000F5D9032092E15C4A536F23F0010353679F
:1024A00001F07CFE0546584B5B6F13F0020F06D01F
:1024B00001F074FE401B0228F5D903207EE1236859
:1024C00013F0200F29D0A3699BB14F4A136843F43E
:1024D0008053136001F062FE05464B4B1B6813F4FA
:1024E000005F1AD101F05AFE401B0228F5D90320E3
:1024F00064E1454A136823F48053136001F04EFEF3
:102500000546414B1B6813F4005F06D001F046FE00
:10251000401B0228F5D9032050E1236813F0040F73
:1025200021D1636A002B00F04881374A126902F01A
:102530003802182A00F0EF80022B7AD0324A136852
:1025400023F08073136001F029FE04462E4B1B68B4
:1025500013F0007F00F0DD8001F020FE001B022858
:10256000F4D903202AE1294A136843F480731360E5
:1025700001F014FE0546254B1B6813F4807F06D13D
:1025800001F00CFE401B6428F5D9032016E1A36876
:10259000012B0AD00BBB1C4B1A6F22F001021A67E9
:1025A0001A6F22F004021A6704E0174A136F43F00F
:1025B00001031367A3685BB301F0F0FD0546124BFE
:1025C0001B6F13F0020FACD101F0E8FD401B41F28C
:1025D00088339842F3D90320F0E0052B09D00A4B49
:1025E0001A6F22F001021A671A6F22F004021A67AA
:1025F000E0E7054B1A6F42F004021A671A6F42F0C7
:1026000001021A67D6E700BF00440258004802588A
:1026100001F0C4FD0546714B1B6F13F0020F80D013
:1026200001F0BCFD401B41F288339842F3D90320EE
:10263000C4E06A4A136823F08073136001F0AEFDB2
:102640000546664B1B6813F0007F06D001F0A6FD1F
:10265000401B0228F5D90320B0E0604B996A604A1C
:102660000A40A16AE06A41EA00110A439A62226BB9
:10267000013AC2F30802616B0139490289B20A4387
:10268000A16B0139090401F4FE010A43E16B013930
:10269000090601F0FE410A431A63DA6A22F00102D8
:1026A000DA625A6B6FF3CF02A16C42EAC1025A633D
:1026B000DA6A22F00C02216C0A43DA62DA6A22F04A
:1026C0000202616C0A43DA62DA6A42F48032DA6248
:1026D000DA6A42F40032DA62DA6A42F48022DA62BA
:1026E000DA6A42F00102DA621A6842F080721A6015
:1026F00001F054FD0446394B1B6813F0007F06D1EE
:1027000001F04CFD001B0228F5D9032056E0002003
:1027100054E0002052E0314A916A106B012B4ED0F8
:1027200001F00303A26A93424BD1C1F30511E36A9E
:10273000994248D1C0F30802236B013B9A4244D12D
:10274000C0F34622636B013B9A4240D1C0F306427C
:10275000A36B013B9A423CD1C0F30660E36B013BA3
:10276000984238D11D4B5B6BC3F3CC03A26C9A42E9
:1027700001D1002022E0194AD36A23F00103D36279
:1027800001F00CFD054601F009FDA842FBD0134AFB
:10279000536B6FF3CF03A16C43EAC1035363D36A56
:1027A00043F00103D362002008E0012070470120BC
:1027B00004E0012002E0012000E0184638BD0120BD
:1027C000FCE70120FAE70120F8E70120F6E7012005
:1027D000F4E70120F2E70120F0E700BF00440258CF
:1027E0000CFCFFFF744B1B6903F03803102B00F047
:1027F000DD80182B0FD0002B40F0DA806E4B1B6869
:1028000013F0200F00F0D6806B4B1B68C3F3C1039D
:102810006A48D8407047684B9A6A02F00302D3F8BE
:1028200028C0CCF30510D96A01F001015B6BC3F33A
:10283000CC0301FB03F307EE903AF8EE677A1CF441
:102840007C7F00F0B880012A4AD0022A74D0002A86
:1028500040F08F80584B1B6813F0200F23D056494F
:102860000A68C2F3C102554BD34007EE103AF8EEA6
:10287000476A07EE100AB8EE476A86EE867A0B6B57
:10288000C3F3080306EE903AF8EE666A9FED4C6AD1
:1028900067EE867A76EEA77AF7EE006A77EEA67A8A
:1028A00027EE277A38E007EE100AF8EE476A9FED28
:1028B000456A86EE267A404B1B6BC3F3080306EE8F
:1028C000903AF8EE666A9FED3E6A67EE867A76EE9B
:1028D000A77AF7EE006A77EEA67A27EE277A1BE052
:1028E00007EE100AF8EE476A9FED376A86EE267A01
:1028F000314B1B6BC3F3080306EE903AF8EE666AA1
:102900009FED2F6A67EE867A76EEA77AF7EE006A79
:1029100077EEA67A27EE277A274B1B6BC3F3462365
:10292000013307EE903AF8EE677AC7EE276AFCEEBD
:10293000E67A17EE900A704707EE100AF8EE476A3B
:102940009FED226A86EE267A1B4B1B6BC3F30803AE
:1029500006EE903AF8EE666A9FED196A67EE867A9F
:1029600076EEA77AF7EE006A77EEA67A27EE277A58
:10297000D2E707EE100AF8EE476A9FED136A86EE7B
:10298000267A0D4B1B6BC3F3080306EE903AF8EE64
:10299000666A9FED0B6A67EE867A76EEA77AF7EEA7
:1029A000006A77EEA67A27EE277AB5E708487047DF
:1029B0000848704701487047004402580090D0030F
:1029C000000000390024744C0024744A0024F44AA6
:1029D00000127A0000093D00002800F0328170B535
:1029E0000D4604469B4B1B6803F00F038B420BD232
:1029F000984A136823F00F030B431360136803F026
:102A00000F038B4240F01F81236813F0040F0CD09A
:102A10002269914B9B6903F070039A4205D98E4954
:102A20008B6923F070031A438A61236813F0080F3F
:102A30000CD06269884BDB6903F070039A4205D9B8
:102A40008549CB6923F070031A43CA61236813F0E8
:102A5000100F0CD0A269804BDB6903F4E0639A424B
:102A600005D97D49CB6923F4E0631A43CA61236821
:102A700013F0200F0CD0E269774B1B6A03F0700350
:102A80009A4205D974490B6A23F070031A430A620B
:102A9000236813F0020F0CD0E2686F4B9B6903F0C0
:102AA0000F039A4205D96C498B6923F00F031A432F
:102AB0008A61236813F0010F41D0674A936923F4B8
:102AC0007063A1680B4393616368022B0AD0032BE8
:102AD00027D0012B2CD0604A126812F0040F06D1C7
:102AE0000120ADE0126812F4003F00F0AE805A49B8
:102AF0000A6922F0070213430B6101F04FFB0646FF
:102B0000554B1B6903F038036268B3EBC20F16D054
:102B100001F044FB801B41F288339842F0D9032036
:102B20008EE04D4A126812F0007FE0D1012087E06C
:102B3000494A126812F4807FD9D1012080E02368CD
:102B400013F0020F0CD0E268434B9B6903F00F03B4
:102B50009A4205D240498B6923F00F031A438A61D8
:102B60003C4B1B6803F00F03AB420AD9394A136888
:102B700023F00F032B431360136803F00F03AB42E2
:102B800065D1236813F0040F0CD02269324B9B6986
:102B900003F070039A4205D22F498B6923F070032A
:102BA0001A438A61236813F0080F0CD062692A4B1C
:102BB000DB6903F070039A4205D22749CB6923F001
:102BC00070031A43CA61236813F0100F0CD0A26976
:102BD000214BDB6903F4E0639A4205D21E49CB69BD
:102BE00023F4E0631A43CA61236813F0200F0CD06A
:102BF000E269194B1B6A03F070039A4205D2164929
:102C00000B6A23F070031A430A62FFF7EBFD1249C7
:102C10008B69C3F30323114AD35C03F01F03D8402D
:102C20008B6903F00F03D35C03F01F0320FA03F357
:102C30000B4A13600B4B18600B4B186805F03AFEFB
:102C400070BD012070470120FAE70120F8E701205C
:102C5000F6E700BF00200052004402582CB20008E2
:102C60000C000020100000200800002008B5FFF72D
:102C7000B9FD0B4A9369C3F303230A49CB5C03F004
:102C80001F0320FA03F3926902F00F02885C00F040
:102C90001F0023FA00F0044A1060044A136008BDC4
:102CA000004402582CB200080C0000201000002044
:102CB00008B5FFF7DBFF054BDB69C3F30213044ADA
:102CC000D35C03F01F03D84008BD00BF0044025886
:102CD0002CB2000808B5FFF7C9FF054BDB69C3F349
:102CE0000223044AD35C03F01F03D84008BD00BF91
:102CF000004402582CB200083F230360114B1A69AC
:102D000002F0070242609A6902F4706282609A6976
:102D100002F00F02C2609A6902F070020261DA6981
:102D200002F070024261DA6902F4E06282611B6AB9
:102D300003F07003C361044B1B6803F00F030B60C7
:102D4000704700BF0044025800200052404B9B6A6D
:102D500003F00303032B79D070B505460E463C4AB9
:102D6000136823F08063136001F018FA0446384BAF
:102D70001B6813F0006F06D001F010FA031B022B42
:102D8000F5D9032070BD324B9A6A22F47C3229684F
:102D900042EA01329A626A68013AC2F30802A968FB
:102DA0000139490289B20A43E9680139090401F489
:102DB000FE010A4329690139090601F0FE410A436F
:102DC0009A63DA6A22F0C00269690A43DA62DA6A4F
:102DD00022F02002A9690A43DA62DA6A22F01002BC
:102DE000DA62DA6B6FF3CF02E96942EAC102DA63B1
:102DF000DA6A42F01002DA62C6B9154AD36A43F4BD
:102E00000023D362124A136843F08063136001F019
:102E1000C5F904460E4B1B6813F0006F14D101F086
:102E2000BDF9001B0228F5D90320ABE7012E05D020
:102E3000074AD36A43F40013D362E3E7044AD36A30
:102E400043F48013D362DDE700209BE70120704745
:102E500000440258404B9B6A03F00303032B79D0D4
:102E600070B505460E463C4A136823F08053136044
:102E700001F094F90446384B1B6813F0005F06D04C
:102E800001F08CF9031B022BF5D9032070BD324BE6
:102E90009A6A22F07C72296842EA01529A626A6850
:102EA000013AC2F30802A9680139490289B20A430A
:102EB000E9680139090401F4FE010A43296901396D
:102EC000090601F0FE410A431A64DA6A22F44062FC
:102ED00069690A43DA62DA6A22F40072A9690A436C
:102EE000DA62DA6A22F48072DA625A6C6FF3CF0225
:102EF000E96942EAC1025A64DA6A42F48072DA622B
:102F0000C6B9154AD36A43F48003D362124A1368E0
:102F100043F08053136001F041F904460E4B1B68E7
:102F200013F0005F14D101F039F9001B0228F5D924
:102F30000320ABE7012E05D0074AD36A43F0807324
:102F4000D362E3E7044AD36A43F40003D362DDE7C4
:102F500000209BE70120704700440258F8B5044662
:102F6000036813F0006F30D0836EB3F5001F26D0D6
:102F70000ED8ABB1B3F5801F07D102210830FFF79F
:102F8000E5FE054695B12E4621E0012635461EE0B8
:102F9000B3F5401F01D1002508E00126354616E0B3
:102FA0009B4AD36A43F40033D3620025984A136DD9
:102FB00023F44013A16E0B431365002607E00221A2
:102FC0002830FFF747FF0546DCE700263546236833
:102FD00013F4807F1BD0A36D022B30D00CD843B3E9
:102FE000012B06D1002104F10800FFF7AFFE0546D2
:102FF00005E0012635460AE0033B012B26D845BBF8
:10300000834A136D23F00703A16D0B4313652368F7
:1030100013F4007F37D0E36D802B49D01ED82BB33B
:10302000402B18D1002104F10800FFF78FFE054660
:1030300021E0774AD36A43F40033D362DFE700210B
:1030400004F12800FFF706FF0546D8E701263546BC
:10305000DDE72E46DBE70126354614E0C02B0AD01B
:10306000B3F5807F07D0012635460CE0684AD36A65
:1030700043F40033D36215BB654A136D23F4E07348
:10308000E16D0B431365236813F4806F3CD0D4F8D3
:10309000A830B3F5800F2FD016D8F3B1B3F5001FC9
:1030A0000FD1002104F10800FFF750FE054619E09A
:1030B000002104F12800FFF7CDFE0546DBE72E4690
:1030C000E1E7012635461FE0B3F5C00F0AD0B3F59E
:1030D000000F07D00126354616E04D4AD36A43F467
:1030E0000033D3627DB94A4A936D23F46003D4F868
:1030F000A8100B43936507E0002104F12800FFF7B7
:10310000A9FE0546EEE72E46236813F4006F2BD088
:10311000D4F8AC30B3F1007F53D00DD8ABB1B3F1DC
:10312000807F06D1002104F10800FFF70FFE05465D
:1031300010E00126354617E0B3F1407F0AD0B3F125
:10314000806F07D0012635460EE0314AD36A43F43A
:103150000033D362002D3BD12D4A936D23F0E06301
:10316000D4F8AC100B439365236813F0007F13D0A1
:10317000E36C202B36D030D833B1102B2AD1244A1F
:10318000D36A43F40033D3629DBB214AD36C23F04E
:103190003003E16C0B43D364236813F4805F47D0A2
:1031A000236EB3F5005F00F08E8027D893B3B3F59C
:1031B000805F20D1002104F10800FFF7C7FD05461C
:1031C0002DE0002104F12800FFF744FE0546C1E789
:1031D0002E46C9E701263546DEE7302BD4D001263E
:1031E0003546D9E7022104F10800FFF7AFFD054697
:1031F000CAE72E46D0E70126354619E0B3F5405F11
:103200000DD0B3F5804F0AD00126354610E000BF3F
:1032100000440258484AD36A43F40033D362002D75
:1032200058D1454A136D23F4E043216E0B431365D7
:10323000236813F4005F17D0636EB3F5003F5AD0D4
:103240004DD843B1B3F5803F46D1012104F10800C8
:10325000FFF77CFD0546002D54D1374A136D23F44A
:10326000E023616E0B431365236813F4804F19D07C
:10327000D4F8B030B3F1005F55D048D843B1B3F1C2
:10328000805F41D1012104F10800FFF75FFD054691
:10329000002D4FD1284A936D23F0E043D4F8B010AD
:1032A0000B439365236813F4004F56D0236FB3F19B
:1032B000805F43D0B3F1005F00F07A81002B42D0F1
:1032C0000126354649E0002104F12800FFF7C2FD40
:1032D0000546A4E72E46ABE701263546C4E7B3F51D
:1032E000802FB8D0B3F5A02FB5D0B3F5403FB2D002
:1032F00001263546B8E7012104F12800FFF7AAFDB1
:103300000546A8E72E46AFE701263546CAE7B3F1E2
:10331000804FBDD0B3F1A04FBAD0B3F1405FB7D06A
:1033200001263546BEE7012104F12800FFF792FD92
:103330000546ADE72E46B5E700440258AA4AD36ACF
:1033400043F40033D362002D40F03981A64A136D57
:1033500023F04053216F0B431365236813F0807FE4
:1033600018D0A36C022B00F0358100F22D813BB107
:10337000012B40F026819C4AD36A43F40033D36288
:10338000002D40F02E81984AD36C23F00303A16CEA
:103390000B43D364236813F4800F40F02781236824
:1033A00013F0010F19D0E36F102B00F0928100F29F
:1033B000848143B1082B40F07D81012104F1080094
:1033C000FFF7C4FC0546002D40F08A81864A536D04
:1033D00023F03803E16F0B435365236813F0020FAA
:1033E00019D0A36F022B00F0878100F27E8143B1D8
:1033F000012B40F07781012104F10800FFF7A6FCC2
:103400000546002D40F07F81774A536D23F0070376
:10341000A16F0B435365236813F0040F1BD0D4F83E
:103420009430022B00F07B8100F2728143B1012BBA
:1034300040F06B81012104F10800FFF787FC05468D
:10344000002D40F07381684A936D23F00703D4F890
:1034500094100B439365236813F0200F1DD0D4F80C
:103460009030B3F1005F00F0758100F264814BB1E0
:10347000B3F1805F40F05C81002104F10800FFF7A8
:1034800065FC0546002D40F06C81574A536D23F0D2
:10349000E043D4F890100B435365236813F0400FBA
:1034A0001DD0D4F89C30B3F5006F00F06E8100F2AF
:1034B0005D814BB1B3F5806F40F05581002104F17F
:1034C0000800FFF743FC0546002D40F06581464AA1
:1034D000936D23F4E053D4F89C100B439365236859
:1034E00013F0800F1DD0D4F8A030B3F5804F00F05A
:1034F000678100F256814BB1B3F5005F40F04E8119
:10350000002104F10800FFF721FC0546002D40F0E2
:103510005E81354A936D23F46043D4F8A0100B43C9
:103520009365236813F0080F0DD0D4F88430B3F5F9
:10353000805F00F04E812C4A536D23F44053D4F841
:1035400084100B435365236813F0100F0DD0D4F88B
:103550009830B3F5807F00F04681234A936D23F4C1
:103560004073D4F898100B439365236813F4002F2D
:1035700000F04E81D4F8A430B3F5803F00F03D81D7
:10358000B3F5003F08D0002B40F03E81194604F10E
:103590000800FFF7DBFB0546002D40F03881124A9A
:1035A000936D23F44033D4F8A4100B4393652FE1BB
:1035B000012104F10800FFF7C9FB0546C3E62E46CA
:1035C000CBE601263546E5E6032B3FF4D9AE0126CE
:1035D0003546DFE6022104F10800FFF7B7FB054698
:1035E000CEE62E46D6E600BF00440258AD4A136828
:1035F00043F48073136000F0D1FD0746A94B1B68AC
:1036000013F4807F05D100F0C9FDC01B6428F5D9F3
:103610000325002D4AD1A44B1B6FD4F8B42053408E
:1036200013F4407F0CD0A04B1A6F22F44072196F34
:1036300041F480311967196F21F4803119671A67D5
:10364000D4F8B430B3F5807F15D08DBBD4F8B43046
:1036500003F44072B2F5407F1ED0934A136923F4FD
:103660007C53136190490B6FD4F8B420C2F30B0262
:1036700013430B6793E600F091FD07468A4B1B6FDF
:1036800013F0020FE1D100F089FDC01B41F2883335
:103690009842F3D90325D8E78348026922F47C5283
:1036A000824901EA131313430361DBE72E4676E6F2
:1036B0002E4674E6012635468FE6202B3FF483AE76
:1036C000282B3FF480AE182B3FF47DAE0126354603
:1036D00083E6012104F12800FFF7BCFB054672E6F2
:1036E0002E467AE60126354695E6033B022B7FF609
:1036F00088AE012635468EE6012104F12800FFF749
:10370000A9FB05467DE62E4685E601263546A2E65E
:10371000033B022B7FF694AE012635469BE6012142
:1037200004F12800FFF796FB054689E62E4692E64F
:1037300001263546B1E6B3F1804F3FF4A3AEB3F1B5
:10374000A04F3FF49FAEB3F1405F3FF49BAE012624
:103750003546A2E6022104F12800FFF77BFB05466F
:1037600090E62E4699E601263546B8E6B3F5805F29
:103770003FF4AAAEB3F5A05F3FF4A6AEB3F5406F39
:103780003FF4A2AE01263546A9E6022104F1280045
:10379000FFF760FB054697E62E46A0E60126354674
:1037A000BFE6B3F5004F3FF4B1AEB3F5204F3FF4A1
:1037B000ADAEB3F5C04F3FF4A9AE01263546B0E635
:1037C000022104F12800FFF745FB05469EE62E4640
:1037D000A7E6022104F12800FFF73CFB00283FF494
:1037E000AAAE0126A7E6022104F12800FFF732FB6A
:1037F00000283FF4B2AE0126AFE6022104F1280012
:10380000FFF728FB0546C7E60126354600E02E46B1
:10381000236813F4802F18D0D4F88830B3F5001F34
:103820001FD0B3F5401F07D0B3F5801F20D11E4A2B
:10383000D36A43F40033D362EDB91B4A536D23F4CA
:103840004013D4F888100B435365236813F4803F6A
:103850002FD0236D8BB1B3F5803F1CD001263546A8
:1038600027E0012104F12800FFF7F4FA0546E3E719
:1038700001263546E9E72E46E7E70B4AD36A43F4CB
:103880000033D362A5B9084AD36C23F48033216D89
:103890000B43D3640DE0022104F10800FFF756FA50
:1038A0000546EFE70048025800440258CFFFFF00EA
:1038B0002E46236813F0005F11D1236813F4003FF4
:1038C00028D0D4F88030B3F5807F14D010D9B3F568
:1038D000007F15D0B3F5407F12D001261AE00221F7
:1038E00004F12800FFF7B6FA0028E6D00126E4E745
:1038F00033B101260EE0544AD36A43F40033D36255
:10390000002D69D1504A536D23F44073D4F88010D0
:103910000B435365236813F4801F06D04A4A136D86
:1039200023F00043616F0B431365236813F0805F3E
:1039300007D0454A136923F48043D4F8B8100B43E9
:103940001361236813F4001F06D03F4A136D23F060
:103950008073E16E0B431365236813F0804F09D029
:10396000394B1A6922F400421A611A69D4F8BC1062
:103970000A431A612368002B06DA334AD36C23F01A
:103980004053616D0B43D364236813F4000F07D0D9
:103990002D4A536D23F44003D4F88C100B43536528
:1039A000636813F0010F19D1636813F0020F1ED181
:1039B000636813F0040F23D1636813F0080F28D154
:1039C000636813F0100F2DD1636813F0200F32D10C
:1039D00006B101263046F8BD2E469BE7002104F1D2
:1039E0000800FFF7B3F90028DED00646DCE7012126
:1039F00004F10800FFF7AAF90028D9D00646D7E756
:103A0000022104F10800FFF7A1F90028D4D00646EE
:103A1000D2E7002104F12800FFF71CFA0028CFD0DC
:103A20000646CDE7012104F12800FFF713FA00282C
:103A3000CAD00646C8E7022104F12800FFF70AFAB7
:103A40000028C5D00126C5E70044025808B5FFF795
:103A50000DF9054B1B6AC3F30213044AD35C03F050
:103A60001F03D84008BD00BF004402582CB2000814
:103A700000B5794B9A6AD3F828C0CCF3053ED96AD1
:103A8000C1F30011DB6BC3F3CC0301FB03F31CF4A4
:103A90007C3F00F0DB8002F0030207EE903AF8EE84
:103AA000677A012A4BD0022A00F09680002A40F063
:103AB000B080694B1B6813F0200F23D066490A6859
:103AC000C2F3C102654BD34007EE103AF8EE476AE5
:103AD00007EE10EAB8EE476A86EE867A8B6BC3F380
:103AE000080306EE903AF8EE666A9FED5D6A67EEAF
:103AF000867A76EEA77AF7EE006A77EEA67A27EE58
:103B0000277A38E007EE10EAF8EE476A9FED556A2B
:103B100086EE267A504B9B6BC3F3080306EE903A71
:103B2000F8EE666A9FED4E6A67EE867A76EEA77AC1
:103B3000F7EE006A77EEA67A27EE277A1BE007EE0B
:103B400010EAF8EE476A9FED486A86EE267A424B05
:103B50009B6BC3F3080306EE903AF8EE666A9FED9E
:103B6000406A67EE867A76EEA77AF7EE006A77EE1D
:103B7000A67A27EE277A384A936BC3F3462307EEDB
:103B8000903AF8EE677AF7EE006A77EEA67A87EE5B
:103B9000276ABCEEC66A80ED006A936BC3F30643E6
:103BA00007EE903AF8EE677A77EEA67A87EE276A04
:103BB000BCEEC66A80ED016A936BC3F3066307EE41
:103BC000903AF8EE677A77EEA67AC7EE276AFCEEAF
:103BD000E66AC0ED026A00BD07EE10EAF8EE476A39
:103BE0009FED226A86EE267A1B4B9B6BC3F308037C
:103BF00006EE903AF8EE666A9FED196A67EE867AED
:103C000076EEA77AF7EE006A77EEA67A27EE277AA5
:103C1000B1E707EE10EAF8EE476A9FED136A86EE09
:103C2000267A0D4B9B6BC3F3080306EE903AF8EE31
:103C3000666A9FED0B6A67EE867A76EEA77AF7EEF4
:103C4000006A77EEA67A27EE277A94E700230360CE
:103C500043608360BFE700BF004402580090D00378
:103C6000000000390024744C0024744A0024F44AF3
:103C700000B5794B9A6AD3F828C0CCF3055ED96AAF
:103C8000C1F300215B6CC3F3CC0301FB03F31CF015
:103C90007C7F00F0DB8002F0030207EE903AF8EE42
:103CA000677A012A4BD0022A00F09680002A40F061
:103CB000B080694B1B6813F0200F23D066490A6857
:103CC000C2F3C102654BD34007EE103AF8EE476AE3
:103CD00007EE10EAB8EE476A86EE867A0B6CC3F3FD
:103CE000080306EE903AF8EE666A9FED5D6A67EEAD
:103CF000867A76EEA77AF7EE006A77EEA67A27EE56
:103D0000277A38E007EE10EAF8EE476A9FED556A29
:103D100086EE267A504B1B6CC3F3080306EE903AEE
:103D2000F8EE666A9FED4E6A67EE867A76EEA77ABF
:103D3000F7EE006A77EEA67A27EE277A1BE007EE09
:103D400010EAF8EE476A9FED486A86EE267A424B03
:103D50001B6CC3F3080306EE903AF8EE666A9FED1B
:103D6000406A67EE867A76EEA77AF7EE006A77EE1B
:103D7000A67A27EE277A384A136CC3F3462307EE58
:103D8000903AF8EE677AF7EE006A77EEA67A87EE59
:103D9000276ABCEEC66A80ED006A136CC3F3064363
:103DA00007EE903AF8EE677A77EEA67A87EE276A02
:103DB000BCEEC66A80ED016A136CC3F3066307EEBE
:103DC000903AF8EE677A77EEA67AC7EE276AFCEEAD
:103DD000E66AC0ED026A00BD07EE10EAF8EE476A37
:103DE0009FED226A86EE267A1B4B1B6CC3F30803F9
:103DF00006EE903AF8EE666A9FED196A67EE867AEB
:103E000076EEA77AF7EE006A77EEA67A27EE277AA3
:103E1000B1E707EE10EAF8EE476A9FED136A86EE07
:103E2000267A0D4B1B6CC3F3080306EE903AF8EEAE
:103E3000666A9FED0B6A67EE867A76EEA77AF7EEF2
:103E4000006A77EEA67A27EE277A94E700230360CC
:103E500043608360BFE700BF004402580090D00376
:103E6000000000390024744C0024744A0024F44AF1
:103E700070B582B0002376E085684FEA430E0324D4
:103E800004FA0EF425EA0405CC6804FA0EF42C4377
:103E90008460446824EA0C044D68C5F3001C0CFAE5
:103EA00003FC4CEA0404446072E08C68012C75D178
:103EB00082E0DD08083550F8254003F0070C4FEA92
:103EC0008C0C4FF00F0E0EFA0CFE24EA0E0E0C694D
:103ED00004FA0CF444EA0E0440F8254073E0092487
:103EE00000E0002404FA0EF42C430CF1020C6D4D9A
:103EF00045F82C404FF0B04424686FEA020C24EAE5
:103F000002054E6816F4801F01D042EA04054FF006
:103F1000B044256064680CEA04054E6816F4001F7E
:103F200001D042EA04054FF0B0446560D4F8844003
:103F30000CEA04054E6816F4003F01D042EA04057D
:103F40004FF0B044C4F88450D4F880400CEA040523
:103F50004E6816F4803F01D042EA04054FF0B042AB
:103F6000C2F8805001330A6832FA03F400F09780F7
:103F70004FF0010C0CFA03FC1CEA0202F2D04C6870
:103F800004F0030E0EF1FF3EBEF1010F7FF674AF99
:103F90004C6804F0030CBCF1030F86D0C5685C00CC
:103FA0004FF0030C0CFA04FC25EA0C0E8D6805FAA0
:103FB00004FC4CEA0E04C4604C6804F0030CBCF131
:103FC000020F3FF476AF05685C004FF0030C0CFA6B
:103FD00004FC25EA0C0E4D6805F0030C0CFA04FCF9
:103FE0004CEA0E0404604C6814F4403FBAD02E4CE6
:103FF000D4F8F45045F00205C4F8F450D4F8F44075
:1040000004F002040194019C4FEA930C0CF10205A8
:10401000244C54F8255003F0030E4FEA8E0E0F2463
:1040200004FA0EF425EA0405204CA0423FF459AFEF
:1040300004F58064A04222D004F58064A04220D020
:1040400004F58064A0421ED004F58064A0421CD018
:1040500004F58064A0421AD004F58064A04218D010
:1040600004F58064A04216D004F58064A04214D008
:1040700004F58064A0423FF432AF0A2432E7012401
:1040800030E702242EE703242CE704242AE7052442
:1040900028E7062426E7072424E7082422E702B0BD
:1040A00070BD00BF000400580044025800000258D0
:1040B0000AB181617047090481617047436901EA6F
:1040C000030221EA030141EA0241816170470000D5
:1040D000134BDB6813F0040F07D1114BDB6803F0BF
:1040E000070383421AD00120704710B50C4AD368E9
:1040F00023F007030343D36000F050F80446084B55
:104100005B6813F4005F07D100F048F8001BB0F5BE
:104110007A7FF4D9012000E0002010BD0020704714
:104120000048025810B50320FDF792FFFEF75AFB36
:1041300010498B69C3F303230F4AD35C03F01F03B9
:10414000D8408B6903F00F03D35C03F01F0320FA00
:1041500003F30A4A13600A4B18600F2004F0AAFB0D
:1041600018B101231C46204610BD0446FCF72AFE68
:10417000F9E700BF004402582CB200080C000020F0
:1041800010000020034B1B78034A11680B44136096
:10419000704700BF0400002088050020014B18680C
:1041A000704700BF8805002038B50446FFF7F6FFCA
:1041B0000546B4F1FF3F02D0044B1B781C44FFF7C7
:1041C000EDFF401BA042FAD338BD00BF0400002021
:1041D000014B1868000C70470010005C034A5368DC
:1041E00023F4600303435360704700BF000400588A
:1041F00082B0094BD3F8F42042F00202C3F8F42055
:10420000D3F8F43003F002030193019B034A53688F
:104210000343536002B07047004402580004005842
:1042200010B58B680A6813430A7943EAC2630A7BB4
:1042300043EAC2534A7B43EA82538A7B43EA4253AE
:10424000CA7B43EA02530A7C002A40F0BD804FF447
:10425000002213434A7C002A40F0B8804FF4003219
:1042600013438A7C43EA02434A6913438A6913432E
:104270000A7F43EA02334A7F43EAC2238A7F002A45
:1042800040F0A6804FF480621343CA7F43EA422382
:1042900091F82020002A40F09D804FF48072134353
:1042A0004A6A134391F8282043EA0213CA6A134367
:1042B000D0F800C0DCF8002022F07F4222F47B021C
:1042C00022F4FE4222F07C021343CCF80030CA6B89
:1042D00091F838301B0643EA426391F8302043EAF4
:1042E000824391F8312043EA424391F83220002A78
:1042F00072D14FF4803213434A6B1343D0F800C09D
:10430000DCF8042022F07C5222F4EF2222F4FF6237
:1043100022F007021343CCF8043091F840204B6C94
:1043200043EA0222D0F800C0DCF80CE02D4B0EEA84
:1043300003031343CCF80C3091F854200B6D43EA7F
:10434000420391F84C20002A48D1802213438A6C02
:1043500043EA0243D0F800C0DCF8702022F0F202F9
:104360001204120C1343CCF8703091F8562091F8D7
:10437000553042EA4302D0F800C0DCF8903023F018
:1043800003031343CCF890300268D2F8003D23F0C9
:1043900072038C6D2343C2F8003DCB6D91F8602011
:1043A000F2B94022134391F8612043EA021391F8D5
:1043B000622043EAC2030168D1F8302D22F07B026B
:1043C0001343C1F8303D10BD002242E7002247E709
:1043D000002259E7002262E700228CE70022B5E7BD
:1043E0000022DFE7F0FEFFFF10B5026802F5805201
:1043F000D2F800C0244B0CEA03030C68234313607B
:104400000A798B6843EA02330A7B43EAC2320368C3
:1044100003F5805CDCF804E01C4B0EEA0303134355
:10442000CCF804304A7B0B6A43EA024C026802F57E
:104430008052D2F800E1164B0EEA030343EA0C0364
:10444000C2F800310B690A7D43EA02134A7F43EA4E
:104450000232036803F5805CDCF804E10D4B0EEAE0
:1044600003031343CCF804310B7F896941EAC3711C
:10447000026802F58052D2F80801074B03400B4353
:10448000C2F8083110BD00BFFD87FFFFFE2FFFFF00
:1044900000C0FEFFEFEFC0FFFFFFC07F70B5A2B00E
:1044A000064601258DF83350002412948DF84140C2
:1044B0008DF843408DF828508DF856508DF83250C5
:1044C0008DF84C408DF884504FF400530F938DF8C5
:1044D0005C4018948DF885408DF886404FF4C36396
:1044E00016938DF830400B948DF835508DF836408A
:1044F0008DF840401D941B9414948DF864408DF801
:104500007A408DF84250202320938DF844508DF846
:1045100055404FF0405309934FF480430E938DF86C
:10452000314002231F938DF878408DF879408DF843
:1045300054408DF834501A948DF8705009A9FFF743
:104540006FFE8DF80450029500948DF81C408DF894
:104550000D408DF80C404FF4001306938DF8144075
:1045600004938DF81D404FF4067308936946304656
:10457000FFF73AFF22B070BD00B5002211E0D0F87D
:104580000CC002EB42034FEAC30E0CEBC303002145
:104590004CF80E1059609960D960911D40F8213097
:1045A0000132032AEBD900238362036803F58053A9
:1045B0000322C3F82C21C268036803F58053C3F8B3
:1045C0001421C268036803F58053C3F8202100BD9D
:1045D00000B5002114E0D0F810C001EB41034FEA10
:1045E000C30E0CEBC30300224CF80E205A609A60F5
:1045F000DA601A615A6101F1120240F82230013189
:104600000329E8D90023C36503668366C36683650F
:10461000036803F580530322C3F83021026903685D
:1046200003F58053C3F81C21036903F148020368B2
:1046300003F58053C3F8282100BD000038B50546B6
:104640000368D3F8004224F47064FEF70FFB104BAC
:10465000984205D844F400742B68C3F8004238BD72
:104660000C4B984202D244F44074F5E70A4B98424E
:10467000F2D90A4B984202D844F48074ECE7084B14
:10468000984202D844F48064E6E744F4A064E3E787
:10469000BF0E160200879303FFE0F5057FD1F008F7
:1046A0007FB2E60E002800F0A78030B583B0044644
:1046B000D0F884309BB3514BD3F8F42042F002027F
:1046C000C3F8F420D3F8F43003F002030193019B04
:1046D000237A53BB1846FFF781FD494B5B6823687B
:1046E00003F580531A6842F001021A60FFF756FD85
:1046F0000546236803F580531B6813F0010F19D09A
:10470000FFF74CFD401BB0F5FA7FF2D90423C4F843
:104710008830E023C4F88430012003B030BD20236A
:10472000C0F88430FCF7EAF8C5E74FF40000FFF763
:1047300055FDD2E72046FFF781FFFEF797FA314B90
:10474000A3FB00239B0C2268013BC2F8DC3020460F
:10475000FFF7A4FE226802F58052D2F8003123F45C
:10476000E01343F40023C2F80031626912F0030F32
:1047700006D00120C4F88800E023C4F88430CCE7D8
:10478000216801F58051D1F808316FF34E0343EAF7
:104790004203C1F808312046FFF7EEFE2046FFF73E
:1047A00017FF636859791B79226843EA0123C2F82D
:1047B00000336268D17893781B0443EA016351782F
:1047C00043EA0123117822680B43C2F804332268BC
:1047D000D2F80C170C4B0B43C2F80C372268D2F8F6
:1047E00010170A4B0B43C2F810370020C4F888009A
:1047F0001023C4F8843090E7012070470044025829
:104800000004005883DE1B436000020C00C0200C33
:1048100000B50A6850F8223023F0010340F8223036
:104820008B68082B33D04FF0000C4A6842EA0C0228
:104830001343CA6813430A6913434A6913438A69D5
:104840001343CA6913430A6A13434A6A13438A6AC1
:104850001343CA6A13430A6B1A434B6B1A438B6B9D
:104860001A43D1F800C050F82CE00F4B0EEA0303B6
:10487000134340F82C300B6BB3F5801F0AD00B6844
:104880001BB103684A6B13430360002000BD4FF067
:10489000400CCAE70A68002AF1D0026822F48012AC
:1048A00013430360EBE700BF8004C0FF10B40B6844
:1048B0004C6843EA04138C6843EA0423CC6843EA57
:1048C00004430C6904F1FF3C43EA0C534C69A4F126
:1048D000020C43EA0C6301328C69234340F8223016
:1048E000036813F4801F0BD0426822F470020B6936
:1048F000013B42EA0352436823F4700313434360CD
:10490000002010BC704700009446B3F5804F05D0DE
:104910006FF0704340F822300020704710B450F818
:1049200022300A4A1A400B684C6843EA04138C6828
:1049300043EA04238C692343C96843EA01431343D0
:1049400040F82C30002010BC704700BF0000F0CFB2
:1049500068B370B50D461646044690F845300BB363
:10496000214651F8080BFFF753FFA268294620683B
:10497000FFF79CFFE36AA26831466068FFF7C4FF57
:104980002268A16852F8213043F0010342F8213037
:10499000084A136843F000431360012384F845304C
:1049A000002070BD80F84430FCF7E6F8D8E701201D
:1049B000704700BF0040005202685369916941F09E
:1049C0000801916101688A6942F010028A610168F8
:1049D0000A6822F001020A600168D1F810C0274A73
:1049E0000CEA02020A6101688A6822F440428A6085
:1049F00090F88120042A0DD013F0200F0AD0D0F8AF
:104A0000842042F08002C0F8842001688A6942F064
:104A100020028A6190F88120032A0DD013F0400F04
:104A20000AD0D0F8842042F00402C0F88420016843
:104A30008A6942F040028A6113F4007F0AD0D0F8FC
:104A4000842042F00102C0F8842001688A6942F49F
:104A500000728A6113F4807F0AD0D0F8843043F06A
:104A60000803C0F884300268936943F4807393614B
:104A70000023A0F86230A0F86A30704790FCFFFF76
:104A8000C36B5B09C0680830C00803FB00007047B7
:104A90002DE9F04107460E4615461C46DDF8188004
:104AA00000E0B4B13B685B6936EA03030CBF012345
:104AB0000023AB420AD1FFF771FBA0EB0800A04234
:104AC000EFD3B4F1FF3FECD0032000E00020BDE8BD
:104AD000F0810320FBE70000002800F0B78070B5EC
:104AE00004460023836205685C4B5D4A9D4218BF03
:104AF000954214BF012300231E4606D0594B9D4208
:104B000003D0C3680F2B00F2A3802046FFF7B8FF45
:104B10002EB1544B9D4202D0082800F29B804F4A90
:104B20004F4B9D4218BF954203D003F580639D42D1
:104B300002D1102800F2908094F88130F3B1022362
:104B400084F881302268136823F00103136023681E
:104B50009A6802F4F812A169B1F1806F14D0636809
:104B600013F4800F23D0E368062B20D921680B684B
:104B700023F48073206D03430B601DE084F88030C4
:104B80002046FCF72BF8DAE76168B1F5800F06D014
:104B90000029E4D1A16BB1F1805FE0D102E0A06B0C
:104BA0000028F5D1196841F480511960D7E72168D0
:104BB0000B6823F480730B60E369A16A0B43134312
:104BC000E26B1343E16822680B439360636B626A94
:104BD0001343A26B1343A26913432269134362690F
:104BE0001343226A134362681343E26C1343A268BF
:104BF0001343A26C1343A16D22680B43D360636817
:104C00006BB92268936823F4C05343F40063936044
:104C10002268936823F4C06343F48063936022683E
:104C2000136D23F001031365636813F4800F06D03E
:104C30002268D36823F00043616D0B43D3600020EA
:104C4000C4F88400012384F8813070BD01207047CE
:104C50000120FAE70120F8E70120F6E700300140E3
:104C600000380040003C00402DE9F04782B0044687
:104C7000894690461D4603689A46FFF78FFA94F8D6
:104C80008130012B40F049810646DFB24946424659
:104C9000002A18BF002900F0418194F88030012BD0
:104CA00000F04081012384F88030032384F88130B0
:104CB0000023C4F88430C4F85C90A4F86080A4F8A1
:104CC00062806366A4F86830A4F86A30636723677B
:104CD000A368B3F5C02F1CD02268D36823F4C02387
:104CE00043F40033D360226853686FF30F034146E7
:104CF000194351602268136843F00103136063682D
:104D0000B3F5800F0BD0E3680F2B1BD8072B4DD8C2
:104D1000ACE02268136843F400631360E3E72268A1
:104D2000136843F400731360EDE7E26D12681A62D2
:104D3000E36D0433E365B4F8622092B2013A92B2B3
:104D4000A4F86220B4F862309BB2002B00F0C98056
:104D500023685A6912F0020FE7D1FFF71FFA801B90
:104D6000A84202D3B5F1FF3F01D1002DEAD1204680
:104D7000FFF722FED4F8843043F48073C4F8843003
:104D8000012384F88130002384F880300327C5E0B4
:104D9000E36D1B88AAF82030E36D0233E365B4F8B5
:104DA00062309BB2013B9BB2A4F86230B4F862302F
:104DB0009BB2002B00F095802268536913F0020F1C
:104DC00015D0B4F862309BB2012BE1D9E36B002B14
:104DD000DED0E36D1B681362E36D0433E365B4F862
:104DE00062309BB2023B9BB2A4F86230DEE7FFF771
:104DF000D5F9801BA84202D3B5F1FF3F01D1002DA8
:104E0000D4D12046FFF7D8FDD4F8843043F4807322
:104E1000C4F88430012384F88130002384F8803082
:104E200003277BE0B4F862309BB2012B10D9E36B0F
:104E300073B1E36D1B88AAF82030E36D0233E3659C
:104E4000B4F862309BB2023B9BB2A4F862300DE032
:104E5000E36D1B7882F82030E36D0133E365B4F82D
:104E600062309BB2013B9BB2A4F86230B4F862306E
:104E70009BB2002B35D02268536913F0020F15D076
:104E8000B4F862309BB2032BCCD9E36B402BC9D969
:104E9000E36D1B681362E36D0433E365B4F86230BD
:104EA0009BB2043B9BB2A4F86230DFE7FFF776F9D0
:104EB000801BA84202D3B5F1FF3F01D1002DD5D10F
:104EC0002046FFF779FDD4F8843043F48073C4F8AA
:104ED0008430012384F88130002384F88030032754
:104EE0001CE000962B46002208212046FFF7D0FD4B
:104EF00028B1D4F8843043F02003C4F8843020462D
:104F0000FFF75AFD012384F88130002384F88030B4
:104F1000D4F8843013B91F4600E00227384602B0A7
:104F2000BDE8F0870227F9E72DE9F04F83B004468A
:104F3000884692461D46D0F80090C66BC6F34F16C1
:104F4000FFF72CF994F88130012B40F02E820136C6
:104F5000B6B28346DFB25246002A18BFB8F1000F3E
:104F600000F02482002D00F0218294F88030012B83
:104F700000F02082012384F88030052384F88130FA
:104F80000023C4F88430C4F864A0A4F86A50A4F8DC
:104F90006850C4F85C80A4F86250A4F8605023679D
:104FA00063672268D36823F4C023D36022689C49D6
:104FB0009C4B9A4218BF8A4209D003F580639A42FB
:104FC00002D04FF0080804E04FF0100801E04FF065
:104FD000100853686FF30F032B4353602268136864
:104FE00043F0010313606368B3F5800F06D0E368F4
:104FF0000F2B7AD94FEA9809A8461FE02268136858
:1050000043F400731360F2E723685A69B8F1000FA4
:1050100014D0596911F0010F32D0626E1B6B13600E
:10502000636E04336366B4F86A309BB2013B9BB293
:10503000A4F86A30B4F86A801FFA88F845EA0803D1
:105040009BB2002B00F0948123685A6912F0020F82
:10505000DAD0002DD8D005EB09029045D4D2E26D0C
:1050600012681A62E36D0433E365B4F862309BB2F0
:10507000013B9BB2A4F86230B4F86250ADB2C3E712
:10508000B04514D212F4004F11D0626E1B6B136046
:10509000636E04336366B4F86A309BB2013B9BB223
:1050A000A4F86A30B4F86A801FFA88F8C6E7FFF7F8
:1050B00075F85B46C01A0C9B984202D3B3F1FF3FD0
:1050C00002D10C9B002BB9D12046FFF775FCD4F818
:1050D000843043F48073C4F88430012384F8813031
:1050E000002384F88030032760E1072B40F23E81E3
:1050F0004FEA58039A46A8461AE023685A69B8F15D
:10510000000F15D05B6913F0010F34D0636EB9F84E
:1051100030201A80636E02336366B4F86A309BB243
:10512000013B9BB2A4F86A30B4F86A801FFA88F891
:1051300045EA08039BB2002B00F01A8123685B69E3
:1051400013F0020FD9D0002DD7D05346EB18984555
:10515000D3D2E36D1B88A9F82030E36D0233E365F9
:10516000B4F862309BB2013B9BB2A4F86230B4F851
:105170006250ADB2C1E7B0451BD212F4004F18D057
:10518000636EB9F830201A80636E9A1C6266B9F8B3
:1051900030205A80636E02336366B4F86A309BB283
:1051A000023B9BB2A4F86A30B4F86A801FFA88F810
:1051B000BEE7B8F1010F15D112F4005F12D0636E93
:1051C000B9F830201A80636E02336366B4F86A302F
:1051D0009BB2013B9BB2A4F86A30B4F86A801FFA14
:1051E00088F8A5E7FEF7DAFF5B46C01A0C9B9842E9
:1051F00002D3B3F1FF3F02D10C9B002B98D1204684
:10520000FFF7DAFBD4F8843043F48073C4F88430B9
:10521000012384F88130002384F880300327C5E01F
:10522000003001400038004023685A69B9F1000F8E
:1052300015D0596911F0010F34D0626E93F83030F7
:105240001370636E01336366B4F86A309BB2013B3E
:105250009BB2A4F86A30B4F86A901FFA89F945EA5B
:1052600009039BB2002B00F0838023685A6912F077
:10527000020FD9D0002DD7D005EB08029145D3D22B
:10528000E26D127883F82020E36D0133E365B4F812
:1052900062309BB2013B9BB2A4F86230B4F862501A
:1052A000ADB2C1E7B1452AD212F4004F27D0626EE9
:1052B00093F830301370636E5A1C6266226892F85D
:1052C00030205A70636E5A1C6266226892F8302051
:1052D0005A70636E5A1C6266226892F830205A70C7
:1052E000636E01336366B4F86A309BB2043B9BB2D1
:1052F000A4F86A30B4F86A901FFA89F9AFE7B9F1F7
:10530000030F15D812F4C04F12D0626E93F83030EC
:105310001370636E01336366B4F86A309BB2013B6D
:105320009BB2A4F86A30B4F86A901FFA89F996E73C
:10533000FEF734FF5B46C01A0C9B984202D3B3F1D0
:10534000FF3F02D10C9B002B89D12046FFF734FB95
:10535000D4F8843043F48073C4F88430012384F893
:105360008130002384F8803003271FE0A94676E7C8
:10537000CDF800B00C9B002208212046FFF788FBE7
:1053800028B1D4F8843043F02003C4F88430204698
:10539000FFF712FB012384F88130002384F880306A
:1053A000D4F8843013B91F4600E00227384603B012
:1053B000BDE8F08F0227F9E77047000090F83D3014
:1053C000012B3AD1022380F83D300268D36843F0C4
:1053D0000103D36003681B4AB3F1804F18BF9342A7
:1053E0001DD0A2F57C42934219D002F5806293420F
:1053F00015D002F58062934211D002F578429342B3
:105400000DD0A2F56C42934209D002F5943293423A
:1054100005D01A6842F001021A60002070479968AE
:10542000094A0A40062A18BFB2F5803F07D01A6819
:1054300042F001021A6000207047012070470020EE
:10544000704700BF0000014007000100704770472F
:105450007047704770B504460368DE681D6915F033
:10546000020F10D016F0020F0DD06FF002021A6179
:105470000123037703689B6913F0030F67D0FFF7DD
:10548000E6FF0023237715F0040F12D016F0040F67
:105490000FD023686FF004021A6102232377236878
:1054A0009B6913F4407F58D02046FFF7D0FF0023BC
:1054B000237715F0080F12D016F0080F0FD02368CD
:1054C0006FF008021A61042323772368DB6913F065
:1054D000030F49D02046FFF7BAFF0023237715F0CA
:1054E000100F12D016F0100F0FD023686FF01002BB
:1054F0001A61082323772368DB6913F4407F3AD0CD
:105500002046FFF7A4FF0023237715F0010F02D0F8
:1055100016F0010F36D115F0800F02D115F4005F9F
:1055200002D016F0800F35D115F4807F02D016F02E
:10553000800F37D115F0400F02D016F0400F39D14F
:1055400015F0200F02D016F0200F3BD170BDFFF7F1
:105550007DFF2046FFF77CFF93E72046FFF776FFAD
:105560002046FFF775FFA2E72046FFF76FFF2046B2
:10557000FFF76EFFB1E72046FFF768FF2046FFF711
:1055800067FFC0E723686FF001021A612046FAF74F
:105590008BFFC0E723686FF402521A61204600F0C7
:1055A000DCF8C1E723686FF480721A61204600F0CE
:1055B000D5F8BFE723686FF040021A612046FFF775
:1055C00048FFBDE723686FF020021A61204600F013
:1055D000C3F8BBE710B58C460368414A904214BF3C
:1055E00000220122B0F1804F14BF114642F00101A8
:1055F000F1B9DFF8F4E0704514BF4FF0000E4FF042
:10560000010E384CA04213D0BEF1000F10D10EF1A4
:10561000804E0EF5823E704514BF4FF0000E4FF0E5
:10562000010E04F50064A04202D0BEF1000F04D0C8
:1056300023F07003DCF80440234319BB2A49884255
:1056400014BF00210121DFF89CE070451AD0C9B9D0
:1056500001F1804101F58231884214BF002101210E
:105660000EF5006E70450DD061B92049884214BF17
:10567000002101210EF59A3E704503D011B91C4955
:10568000884204D123F44073DCF80C100B4323F060
:105690008003DCF814100B43DCF80810C162DCF85E
:1056A000001081621349884208BF42F0010262B9CA
:1056B0000E4A904214BF0022012201F57051884227
:1056C00003D012B90A4A904202D1DCF810200263DA
:1056D000026842F00402026001224261036010BDD0
:1056E0000000014000040040000800400044014068
:1056F000004801400004014060B310B5044690F832
:105700003D3013B3022384F83D30214651F8040B99
:10571000FFF760FF012384F8483084F83E3084F8B6
:105720003F3084F8403084F8413084F8423084F8C7
:10573000433084F8443084F8453084F8463084F8A7
:10574000473084F83D30002010BD80F83C30FFF732
:1057500033FED7E70120704770477047704700005D
:10576000026852E8003F23F4907342E800310029B8
:10577000F6D1026802F1080353E8001F0D4B0B40FD
:10578000083242E800310029F3D1C36E012B06D064
:105790002023C0F88C300023C3664367704702683B
:1057A00052E8003F23F0100342E800310029F6D10F
:1057B000EEE700BFFEFFFFEF30B587B00446836819
:1057C0000269134342691343C269134301680868BD
:1057D0009C4A02401A430A602268536823F44053EB
:1057E000E1680B435360A1692268974B9A4201D04C
:1057F000236A19439068954B03400B4393602268DA
:10580000D36A23F00F03616A0B43D3622368904A83
:1058100093421DD08F4A934235D08F4A93424DD048
:105820008E4A934265D08E4A93427DD08D4A9342F0
:1058300000F095808C4A934200F0AC808B4A9342F2
:1058400000F0C280804A934200F0D880802212E1AA
:10585000874A526D02F03802182A00F0EB800AD80D
:10586000082A00F0E980102A00F0E880002A40F0C1
:10587000E7800122FFE0202A00F0FC80282A40F087
:1058800034814022F7E07A4A526D02F00702032A7F
:1058900000F02D810AD8012A00F02B81022A00F0A5
:1058A0002A81002A00F0E7808022E4E0042A00F048
:1058B0002481052A40F023814022DCE06C4A526DAD
:1058C00002F00702032A00F01C810AD8012A00F026
:1058D0001A81022A00F01981002A00F0CC8080226F
:1058E000C9E0042A00F01381052A40F01281402209
:1058F000C1E05F4A526D02F00702032A00F00B81FB
:105900000AD8012A00F00981022A00F00881002A41
:1059100000F0B1808022AEE0042A00F00281052A66
:1059200040F001814022A6E0514A526D02F0070288
:10593000032A00F0FA800AD8012A00F0F880022A2F
:1059400000F0F780002A00F09680802293E0042A7D
:1059500000F0F180052A40F0F08040228BE0444ABC
:10596000526D02F03802182A00F0E9800AD8082A9D
:1059700000F0E780102A00F0E680002A40F0E58081
:10598000012278E0202A00F0E280282A40F0E1801D
:10599000402270E0364A526D02F00702032A00F0FE
:1059A000DA8009D8012A00F0D880022A00F0D780D6
:1059B000002A60D080225EE0042A00F0D280052A0E
:1059C00040F0D180402256E0294A526D02F0070291
:1059D000032A00F0CA8009D8012A00F0C880022AF0
:1059E00000F0C780002A46D0802244E0042A00F05C
:1059F000C280052A40F0C18040223CE002F50E3210
:105A0000926D02F00702032A00F0B9800AD8012A39
:105A100000F0B780022A00F0B680002A40F0B5807E
:105A2000022228E0042A00F0B280052A40F0B1806A
:105A3000402220E010221EE004221CE008221AE08E
:105A4000802218E0F369FFCF000C0058FFF4FF112B
:105A5000001001400044004000480040004C00405D
:105A6000005000400014014000780040007C0040DD
:105A70000044025820229F498B4200F08C80E0694C
:105A8000B0F5004F00F0E480082A00F05B8100F2DE
:105A90003D81012A00F04E81042A00F04E81002A47
:105AA00040F02681FDF704F9A8B1626A924B33F801
:105AB0001230B0FBF3F0636800EB5300B0FBF3F07F
:105AC000A0F110024FF6EF739A4200F24F81236863
:105AD00080B2D86000200123A4F86A30A4F86830AE
