:020000040800F2
:1000000000000220C9580108E50C0008E70C0008B0
:10001000E90C0008EB0C0008ED0C000800000000E3
:1000200000000000000000000000000061B90008AE
:10003000EF0C00080000000001BA000815AF00082E
:100040001D5901081D5901081D5901081D590108B4
:100050001D5901081D5901081D5901081D590108A4
:100060001D5901081D5901081D5901081D59010894
:100070001D5901081D5901081D5901081D59010884
:100080001D5901081D5901081D5901081D59010874
:100090001D5901081D5901081D5901081D59010864
:1000A0001D590108F10C00081D5901081D590108CE
:1000B0001D5901081D5901081D5901081D59010844
:1000C0001D5901081D5901081D5901081D59010834
:1000D0001D5901081D5901081D5901081D59010824
:1000E0001D5901081D590108000000001D59010893
:1000F0001D5901081D5901081D5901081D59010804
:100100001D5901081D5901081D5901081D590108F3
:100110001D5901081D5901081D5901081D590108E3
:100120001D5901081D5901081D5901081D590108D3
:100130001D5901081D5901081D5901081D590108C3
:1001400000000000000000000000000000000000AF
:100150001D5901081D5901081D5901081D590108A3
:100160001D5901081D5901081D5901081D59010893
:100170001D5901081D5901081D5901080000000002
:100180001D5901081D5901081D5901081D59010873
:100190001D5901081D5901081D5901081D59010863
:1001A0001D5901081D5901081D5901081D59010853
:1001B0001D5901081D5901081D5901081D59010843
:1001C0001D5901081D5901081D5901081D59010833
:1001D0001D5901081D5901081D5901081D59010823
:1001E0001D5901081D5901081D5901081D59010813
:1001F0001D5901081D5901081D5901081D59010803
:100200001D5901081D5901081D5901081D590108F2
:100210001D5901081D5901081D5901081D590108E2
:100220001D5901081D5901081D5901080000000051
:100230001D5901081D590108000000001D59010841
:100240001D5901081D5901081D5901081D590108B2
:100250001D5901081D5901081D5901081D590108A2
:100260001D5901081D5901081D5901081D59010892
:100270001D5901081D5901081D5901080000000001
:100280001D5901081D5901081D59010800000000F1
:08029000000000001D590108E7
:1002A00010F8012B11F8013B012A28BF9A42F7D020
:1002B000D01A7047034613F8012B002AFBD1181AF5
:1002C000013870470000000000000000000000003E
:1002D00001F0FF01102A2BDB10F0070F08D010F8F7
:1002E000013B013A8B422DD010F0070F42B3F6D1FB
:1002F000F0B441EA012141EA014122F007047FF014
:1003000000070023F0E80256083C85EA010586EA6A
:10031000010685FA47F5A3FA87F586FA47F6A5FAA6
:1003200087F68EB9EED1F0BC01F0FF0102F00702B2
:1003300032B110F8013B013A83EA010313B1F8D15D
:100340000020704701387047002D06BF354603383E
:10035000073815F0010F07D1013015F4807F02BF77
:10036000013015F4C03F0130F0BC0138704700BFC8
:1003700053B94AB9002908BF00281CBF4FF0FF310C
:100380004FF0FF3000F00CB8ADF1080C6DE904CE71
:1003900017F0E4FADDF804E0DDE9022304B0704769
:1003A000704700BF0348044B834202D0034B03B1A4
:1003B00018477047800000208000002000000000E7
:1003C0000548064B1B1AD90F01EBA301491002D0B7
:1003D000034B03B1184770478000002080000020C5
:1003E0000000000010B5064C237843B9FFF7DAFF90
:1003F000044B13B10448AFF300800123237010BDF8
:1004000080000020000000007C7C010808B5054B3E
:100410001BB105490548AFF30080BDE80840FFF770
:10042000CFBF00BF00000000840000207C7C0108DA
:1004300070B584B00024009401940294039403F0F6
:1004400001FF01258DF800508DF8014001941F2314
:100450008DF8083087238DF809308DF80A408DF823
:100460000B408DF80C508DF80D508DF80E408DF826
:100470000F40684603F004FF8DF800508DF80150DE
:100480004FF0C043019313238DF808308DF80940D5
:100490008DF80A4003238DF80B308DF80C508DF841
:1004A0000D408DF80E408DF80F40684603F0E8FED1
:1004B000042003F0D5FE04B070BD000010B582B07A
:1004C00004468DF807004FF0FF3301220DF10701BC
:1004D000024808F0BAFA204602B010BD78010020A8
:1004E00008B50268034B9A4200D008BD05F024FF0E
:1004F000FBE700BF0000014072B6FEE700B59DB00B
:100500004C22002109A815F0C6FE2022002101A8D6
:1005100015F0C1FE022005F0B5FE00230093244B28
:10052000DA6A22F00102DA62DB6A03F00103009367
:10053000204B9A6942F440429A619B6903F440431C
:100540000093009B1B4B9B6913F4005FFAD00122C0
:1005500009924FF480330A93022312931393149257
:100560006422159216930422179218930C23199360
:1005700000231A931B9309A803F0AEFEA0B93F23F2
:1005800001930323029303900823049340230593CC
:1005900006934FF4806207920893022101A804F0A9
:1005A000EFFA18B91DB000BDFFF7A6FFFFF7A4FFD3
:1005B000000400580048025800B583B0FFF738FF28
:1005C00005F08AFEFFF79AFF00F070F800F032FAAB
:1005D00000F072FA00F006FB14F0A4FC2A4B186835
:1005E000002302221946806815F00CFC274815F0FC
:1005F00001FC04F0CBF9064604F00CFC054604F0BF
:100600002BFC044604F03AFC009023462A4631466F
:100610001F4815F087FB03F031FB10234FF48012C5
:100620004FF0C0411B4815F07DFB03F07BFD20B16E
:10063000194815F0DFFBFFF75FFF184815F0DAFBEC
:100640004FF4486002F0A9FD20B1154815F0D2FB27
:10065000FFF752FF4FF44861124815F063FB4FF467
:10066000486000F071FC03F083F940B902F0A0FB90
:100670000AF05CFC00F050F90AF084FCFEE70A483E
:1006800015F0B8FBF2E700BF30000020EC7C010859
:10069000047D0108447D01088C7D0108AC7D0108C2
:1006A000E47D01080C7E0108447E01082DE9F04F2D
:1006B0008FB009AD002409940A940B940C940D9406
:1006C0006A4BD3F8E02042F00402C3F8E020D3F8EC
:1006D000E02002F004020192019AD3F8E02042F0F7
:1006E0002002C3F8E020D3F8E02002F020020292BA
:1006F000029AD3F8E02042F08002C3F8E020D3F859
:10070000E02002F080020392039AD3F8E02042F046
:100710000102C3F8E020D3F8E02002F001020492C5
:10072000049AD3F8E02042F04002C3F8E020D3F866
:10073000E02002F040020592059AD3F8E02042F052
:100740001002C3F8E020D3F8E02002F01002069275
:10075000069AD3F8E02042F00202C3F8E020D3F872
:10076000E02002F002020792079AD3F8E02042F05C
:100770000802C3F8E020D3F8E03003F00803089340
:10078000089BDFF8F8A001221021504605F06BFD10
:10079000DFF8EC9022464821484605F064FDDFF87A
:1007A000E4802246E021404605F05DFD224603211B
:1007B0002F4805F058FD4FF0100BCDF824B001265E
:1007C0000A960B9403270C972946504605F024FC03
:1007D0004BF6C06309930A940B942946254805F00B
:1007E0001BFC4FF4507309930A940B94294622483A
:1007F00005F012FC4FF4807309930A940B94294678
:10080000504605F009FC042309930A940B962946E7
:10081000484605F001FC482309930A960B940C976F
:100820002946484605F0F8FB182309930A940B94CF
:100830002946404605F0F0FBE02309930A960B9405
:100840000C972946404605F0E7FB09970A960B945A
:100850000C942946064805F0DFFB584605F0A2FD3A
:10086000202005F09FFD0FB0BDE8F08F0044025836
:1008700000100258001802580008025800000258E0
:10088000000C025800040258F8B50BF0ADFD1D48ED
:1008900015F0B0FA02F0A6FB0026354622E020460D
:1008A00002F062FF48BB204600F08AFB02F08CFA9F
:1008B00003F0E2F8A31BB3F57A7F10D3124E0121A7
:1008C000304605F0D6FC0221304605F0D2FC6F1C04
:1008D000224629460D4815F025FA26463D460120B8
:1008E0000AF01FFC05F034FD044602F02DFD00283F
:1008F000D5D0074815F07EFAD1E7064815F07AFA08
:10090000D1E700BF687E010800100258DC7E0108B4
:10091000847E0108B07E010808B5044A002104481D
:100920000AF099FB034B186008BD00BF80B70108AF
:10093000890800089C000020F0B5B9B0002333936B
:100940003493359336933793334B1B680BB139B0DF
:10095000F0BD314B01221A6002ACC02200212046BA
:1009600015F099FC4FF080720023CDE90223204658
:1009700004F0C8FB00284BD1284BD3F8D42042F414
:100980008052C3F8D420D3F8D43003F480530193B9
:10099000019B4FF23F03339302273497002635968D
:1009A000032536950C23379333AC21461C4805F0BC
:1009B00033FB3F2333933497359636950C23379387
:1009C0002146184805F028FB4FF68073339334977F
:1009D000359636950C2337932146134805F01CFBBA
:1009E0004FF6337333933497359636950C233793FC
:1009F00021460E4805F010FB80233393349735963B
:100A00003695092337932146094805F005FB9EE7F3
:100A1000FFF772FDB0E700BFA000002000440258BD
:100A2000001402580018025800100258000C025816
:100A30000008025800B589B001A9002201924A605D
:100A40008A60CA600A614A618A611748174B03606D
:100A500003F5827343608260C26002614FF0100C44
:100A6000C0F814C08261C26102624FF480534362D5
:100A70008262C262026342638263C26302640F23C2
:100A8000019302934FF03C0ECDF80CE00493CDF8A7
:100A900014C01123069306F00BFD08B909B000BD80
:100AA000FFF72AFDFAE700BFA40000200040005233
:100AB00008B5FFF741FF08BD08B51548154B0360A1
:100AC0004FF480034360002383600722C260036108
:100AD0004FF0807242614FF0806282614FF080522D
:100AE000C261036243628362C3624FF08042426329
:100AF0008363C363036443648364C36403654365BE
:100B0000836506F099FD00B908BDFFF7F5FCFBE72A
:100B1000F00000200030014070B5BAB0044600215A
:100B200035913691379138913991C02204A815F04A
:100B3000B2FB2268274B9A4201D03AB070BD4FF405
:100B400080520023CDE9042304A804F0DBFA002836
:100B50003CD1214BD3F8F02042F48052C3F8F0206E
:100B6000D3F8F02002F480520192019AD3F8E020E9
:100B700042F00102C3F8E020D3F8E02002F00102C5
:100B80000292029AD3F8E02042F00802C3F8E02073
:100B9000D3F8E03003F008030393039B60233593FD
:100BA000022536950024379438940526399635A9C0
:100BB0000A4805F031FA80233593369537943894F6
:100BC000399635A9064805F027FAB6E7FFF794FCF1
:100BD000BFE700BF00300140004402580000025847
:100BE000000C025808B51748174B03604FF4E13367
:100BF000436000238360C36003610C224261836110
:100C0000C36103624362836208F08BF870B900210C
:100C10000C4808F002F960B900210A4808F022F9EE
:100C200050B9084808F0DAF848B908BDFFF764FC85
:100C3000EDE7FFF761FCEFE7FFF75EFCF1E7FFF799
:100C40005BFCF2E7780100200010014010B5B8B05D
:100C50000446002133913491359136913791C02269
:100C600002A815F018FB22681B4B9A4201D038B03D
:100C700010BD01220023CDE9022302A804F042FAAC
:100C800038BB164BD3F8F02042F01002C3F8F02026
:100C9000D3F8F02002F010020092009AD3F8E0207E
:100CA00042F00102C3F8E020D3F8E03003F0010382
:100CB0000193019B4FF4C0633393022334930023C9
:100CC000359336930723379333A9054805F0A4F9E4
:100CD000CDE7FFF711FCD4E70010014000440258B3
:100CE00000000258FEE7FEE7FEE7FEE7FEE770477A
:100CF00008B5024807F05EF908BD00BF344E002079
:100D000000B583B00A4BD3F8F42042F00202C3F8D6
:100D1000F420D3F8F43003F002030193019B002286
:100D20000F216FF0010003F079FA03B000BD00BF9E
:100D30000044025800B58DB000230793089309932F
:100D40000A930B930268384B9A4201D00DB000BD54
:100D5000364BD3F8D82042F40042C3F8D820D3F859
:100D6000D82002F400420192019AD3F8D82042F42C
:100D70008032C3F8D820D3F8D82002F4803202920F
:100D8000029AD3F8D82042F40032C3F8D820D3F81E
:100D9000D82002F400320392039AD3F8E02042F004
:100DA0000102C3F8E020D3F8E02002F0010204922F
:100DB000049AD3F8E02042F00202C3F8E020D3F80E
:100DC000E02002F002020592059AD3F8E02042F0FA
:100DD0000402C3F8E020D3F8E03003F004030693E4
:100DE000069B862307930223089303230A930B236E
:100DF0000B9307A90E4805F00FF93223079307A9B3
:100E00000C4805F009F94FF46053079307A90A4805
:100E100005F002F9002205213D2003F0FFF93D20F5
:100E200003F00CFA92E700BF008002400044025831
:100E30000000025800080258000402582DE9F04151
:100E400080460F4616461D460A4C2C22002120469D
:100E500015F021FA0123237084F80180A770E57052
:100E6000A680BDF81830E38005F072FAA060BDE8F6
:100E7000F08100BF0C02002008B52C22002102489E
:100E800015F009FA08BD00BF0C02002010B5044699
:100E90008446DFF820E0BEE80F00ACE80F00BEE8B3
:100EA0000F00ACE80F009EE807008CE80700204622
:100EB00010BD00BF0C020020022805D0032805D079
:100EC000012805D10348704703487047034870471D
:100ED00003487047087F01080C7F0108107F010854
:100EE000187F010800B308B50146104B1B782BB1E1
:100EF0000E4BDA680132DA601B7C03B108BD0B4887
:100F0000012303744B68436182689B1A83610B68F9
:100F1000C3610B7A80F820304A7A80F821200A31A8
:100F2000223015F06AFAE9E7704700BF0C02002092
:100F3000A0F5FA7080B241F29413984201D80120D2
:100F4000704700207047000038B50546FFF7F0FFF6
:100F500010B94FF448631D46054CA58102F0FEFF11
:100F6000607018B90122024B9A7038BD0022FAE76E
:100F70003C02002038B504460546FFF7D9FF18B9F2
:100F800001231C46204638BD0A4B9C8101221A7061
:100F900002F0E2FB02F0C8F9204602F0E2F8044653
:100FA00020B92946044814F0BDFEEBE7034814F0CD
:100FB00021FFE7E73C0200204C7F0108207F010869
:100FC00038B5134B1B68C31A312B00D838BD054602
:100FD0000F4B186002F0C2FF0146B0B901230D4A61
:100FE00051709370002BF1D0D378002BEED10123F8
:100FF000D37053680133536014469560064814F06B
:10100000F9FEA089FFF7B6FFE0E70023E7E700BF9E
:10101000380200203C020020787F010808B5044B0C
:1010200000221A70DA70034814F0E4FE08BD00BF15
:101030003C020020AC7F0108034B1B780BB9012058
:1010400070470020704700BF3C0200208446034BDD
:101050000FCB8CE80F006046704700BF3C020020B9
:10106000002818BF002A04D008B503461046984748
:1010700008BD704700E0013010B10378202BFAD092
:101080007047000038B504460D464D4AFFF7E8FFAB
:101090004C4A29462046FFF7E3FF4B4A29462046A3
:1010A000FFF7DEFF494A29462046FFF7D9FF484AA5
:1010B00029462046FFF7D4FF464A29462046FFF737
:1010C000CFFF454A29462046FFF7CAFF434A294633
:1010D0002046FFF7C5FF424A29462046FFF7C0FFDA
:1010E000404A29462046FFF7BBFF3F4A2946204693
:1010F000FFF7B6FF3D4A29462046FFF7B1FF3C4ABD
:1011000029462046FFF7ACFF3A4A29462046FFF71A
:10111000A7FF394A29462046FFF7A2FF374A29464A
:101120002046FFF79DFF364A29462046FFF798FFE5
:10113000344A29462046FFF793FF334A2946204682
:10114000FFF78EFF314A29462046FFF789FF304AD4
:1011500029462046FFF784FF2E4A29462046FFF7FE
:101160007FFF2D4A29462046FFF77AFF2B4A294662
:101170002046FFF775FF2A4A29462046FFF770FFF1
:10118000284A29462046FFF76BFF274A2946204672
:10119000FFF766FF254A29462046FFF761FF244AEC
:1011A00029462046FFF75CFF224A29462046FFF7E2
:1011B00057FF214A29462046FFF752FF38BD00BF9E
:1011C000CC7F0108DC7F0108E87F0108F47F01087B
:1011D00004800108188001084C8001088080010803
:1011E000D4800108E4800108F48001082C81010802
:1011F00068810108A4810108B4810108D481010833
:10120000048201081C8201083482010868820108F6
:1012100078820108A8820108B8820108C882010802
:10122000D8820108F08201080483010824830108A0
:10123000348301084C8301086083010870B50646B9
:101240000D46144602F05EF929460144091B01F5DA
:10125000FA73B3F57A7F01D9012070BD09B2304627
:1012600002F010F9F9E738B505460C46FFF7E4FE41
:1012700030B102F071FA2146284601F065FF38BD11
:101280000220FCE72DE9F04182B005460C46884675
:1012900017461E46FFF7D0FEA8B102F05DFA3346AE
:1012A0003A462146284601F0EBFF044618B1204695
:1012B00002B0BDE8F0810346009042462946012075
:1012C000FFF7BCFDF3E702231C46F0E72DE9F041F0
:1012D00082B005460C46884617461E46FFF7ACFE10
:1012E000A8B102F039FA33463A462146284601F0C1
:1012F000D0FF044618B1204602B0BDE8F081034695
:101300000090424629460220FFF798FDF3E70223AA
:101310001C46F0E72DE9F04182B007460E4615461F
:101320001C469846FFF788FED8B102F015FABDF8C2
:1013300024300193089B009323462A4631463846C1
:1013400001F0CEFF044618B1204602B0BDE8F0819E
:10135000CDF800802B46324639460320FFF76EFD5C
:10136000F2E702231C46EFE70CB470B5ADF5027D41
:1013700006460D4686AB53F8042B019302AC4FF49E
:101380000071204614F0BEFE224629463046FFF783
:1013900067FE0DF5027DBDE8704002B070470000A9
:1013A0002DE9F0479AB004460D4615A802F044FA1C
:1013B00011A8FFF74BFE02F0DBF882469DF844606F
:1013C000BDF850709DF846909DF84780129A0A9299
:1013D0009DF855100B919DF8540002F03FFA9DF8CE
:1013E0005630BDF864200992189A08920793069027
:1013F0000B9905910A9A0492CDF80C80CDF80890CB
:10140000019700965346204A29462046FFF7ACFF35
:10141000012625E0DFF87C90304602F07FF8074691
:10142000304602F06FF880469DF8340002F0B2F8C2
:10143000BDF83630BDF83820BDF8401007910F993F
:101440000691059204930390CDF8088001970096C9
:101450004B460E4A29462046FFF786FF0136F6B274
:101460000D2E08D831460DA802F064F8012ED1D017
:10147000DFF82490D0E7064A29462046FFF7F0FD22
:101480001AB0BDE8F08700BFD0830108A48401082A
:1014900018850108A0810108A48A010870B58AB0E6
:1014A00006460D4606A8FFF7D1FDBDF824309DF88D
:1014B00019209DF81A109DF81B00089C0594079CA4
:1014C000049403900291019200939DF81830034A0E
:1014D00029463046FFF748FF0AB070BD2085010855
:1014E00000B583B033B9044B0092044AFFF73CFFC8
:1014F00003B000BD024BF7E7B0850108C0850108C5
:10150000B885010870B58CB005460E4608A8FFF7EF
:101510009DFD02F02DF803462C4A31462846FFF780
:1015200023FFBDF82C309DF822209DF82310099848
:1015300003900291019200939DF82030244A314695
:101540002846FFF711FF012410E0204601F0DAFFE2
:101550000346204A31462846FFF706FF1BE01E4A95
:1015600031462846FFF77CFD0134E4B20D2C2AD821
:10157000214604A801F0DEFF204601F0CFFF0090D5
:101580002346164A31462846FFF7EEFE204601F074
:10159000B9FF0028D9D19DF810000028DFD001F054
:1015A000F9FF0346BDF81220BDF81410BDF81C0069
:1015B00003900698029001910092094A314628460C
:1015C000FFF7D2FECBE70CB070BD00BFD885010895
:1015D000F88501085C860108D08101084C86010865
:1015E0006886010870B58AB006460D4605A802F067
:1015F00023F99DF815409DF8140002F02FF99DF88D
:101600001630BDF824200392089A029201930090AC
:101610002346034A29463046FFF7A6FE0AB070BDAE
:10162000A886010870B582B006460D460A4AFFF743
:1016300017FD01240BE0204601F064FF00902346D3
:10164000064A29463046FFF78FFE0134E4B20D2CDE
:10165000F1D902B070BD00BFE4860108F086010830
:1016600070B58AB006460D4606A8FFF7EFFCBDF838
:1016700024309DF819209DF81A109DF81B00089C35
:101680000594079C049403900291019200939DF8A5
:101690001830034A29463046FFF766FE0AB070BD8F
:1016A0000887010800B583B03BB9054B009313468A
:1016B000044AFFF759FE03B000BD034BF6E700BF35
:1016C0009C990108848701088087010830B589B09A
:1016D00005460B46054A2021684614F047FC69463A
:1016E000284614F000FE09B030BD00BF9487010801
:1016F00010B51446FFF7EAFF002C18BF002810D0E1
:101700003A2114F0D0FD58B101300378202B01D1DB
:101710000130FAE70A22002114F0BCF92060012010
:1017200010BD0020FCE738B514461D46FFF7CEFF7C
:10173000002C18BF002828D04DB33A2114F0B3FD77
:10174000014618B3013100E0013108782028FBD0B0
:1017500022281ED101314FF0000C04E0013104F8C1
:101760000C000CF1010C0878002818BF222802D0C8
:101770006B1E6345F2D8002304F80C300B78222B43
:1017800001D0002002E0012000E0002038BD284602
:10179000FCE70020FAE710B50446FFF74DFC28B13E
:1017A00001F0DAFF204601F0DCFC10BD0220FCE76E
:1017B000F0B593B005460E4609A802F0F3F90D9B6B
:1017C0009DF83C209DF83D700E9907910697059273
:1017D000049303930C9B02930B9B01930A9B00932E
:1017E0009DF82430104A31462846FFF7BDFD0024FD
:1017F0000DE00E4B04F148026A4412F80A2C0092E4
:101800000B4A31462846FFF7AFFD0134E4B2A74248
:1018100003D9002CEDD0074BECE7074A31462846A8
:10182000FFF71EFC13B0F0BD9C870108A0810108E2
:1018300038880108A48A010840880108F0B591B0F1
:1018400006460F4607A802F0ADF99DF835500C9BEF
:10185000059304950B9B03930A9B0293099B0193A9
:10186000089B00939DF81C30114A39463046FFF71B
:101870007BFD002408E00F4A00920F4A39463046AB
:10188000FFF772FD0134E4B2A54209D904F1400327
:101890006B4413F80A3C621CAA42ECD0074AEBE7FF
:1018A000074A39463046FFF7DBFB11B0F0BD00BFF9
:1018B00048880108A0810108A48801085C900108FB
:1018C000D0810108F0B59DB005460E4611A8FFF77E
:1018D000DDFA9DF844300F939DF84500FFF7ECFAD0
:1018E0009DF84620BDF848109DF847C0BDF84AE075
:1018F0009DF854309DF864409DF865700D970C94E8
:10190000189C0B940A94179C0994169C08940793AE
:10191000149B0693CDF814E0CDF810C00391029209
:10192000139B019300900F9B104A31462846FFF706
:101930001BFD00240DE00E4B04F170026A4412F806
:101940000A2C00920B4A31462846FFF70DFD013460
:10195000E4B2A74203D9002CEDD0074BECE7074ACD
:1019600031462846FFF77CFB1DB0F0BDAC8801086E
:10197000A081010838880108A48A0108408801086C
:10198000F0B595B005460E4609A8FFF77FFA9DF819
:1019900024709DF82500FFF78FFA9DF826C0BDF84A
:1019A00028209DF82710BDF82AE09DF834400794C0
:1019B0000C9B0693CDF814E004910392CDF808C077
:1019C0000B9B019300903B46194A31462846FFF78E
:1019D000CBFC34B9174A31462846FFF741FB15B016
:1019E000F0BD9DF844309DF8457003970293109B1D
:1019F00001930F9B00930E9B0F4A31462846FFF739
:101A0000B3FC002408E00D4A00920D4A31462846F6
:101A1000FFF7AAFC0134E4B2A742DBD904F150037A
:101A20006B4413F80A3C621CBA42ECD0054AEBE75F
:101A3000D8890108D0810108408A0108A0810108E5
:101A4000A48801085C900108F0B58FB004460D46EB
:101A5000164604A802F068F9002E37D11C4B049AF0
:101A6000019200921B4A29462046FFF77DFC059B08
:101A70001F469DF818609DF8340002F06BF9019044
:101A800000963B46144A29462046FFF76DFC089B0A
:101A900002930B9B01930A9B0093079B0F4A2946D5
:101AA0002046FFF761FC099B00930D4A294620461A
:101AB000FFF75AFCBDF832300093BDF83030094AC8
:101AC00029462046FFF750FC0FB0F0BD064BC6E795
:101AD000B0850108748A0108A88A0108DC8A010817
:101AE000108B01083C8B0108B88501082DE9F043F3
:101AF00093B08146884608A802F016F9089F099D10
:101B00009DF828609DF84440204602F023F90C9B84
:101B100006930F9B05930E9B04930B9B03930290DC
:101B2000019600953B460E4A41464846FFF71CFC8D
:101B3000012C07D00B4A41464846FFF791FA13B0F3
:101B4000BDE8F083BDF84030BDF84220019200931B
:101B50000D9B054A41464846FFF706FCEAE700BFF1
:101B60005C8B0108D0810108C08B010810B51446B8
:101B7000FFF7ACFD002C18BF002810D03A2114F05C
:101B800092FB58B101300378202B01D10130FAE7E4
:101B90000A22002113F0F8FF2060012010BD002070
:101BA000FCE700B583B0019201AAFFF7DFFF0198BF
:101BB00003B000BD2DE9F04198B004460E4617462B
:101BC000102314AAA349FFF7AEFD00282AD0A2498A
:101BD00014A8FEF765FB00282AD0A04914A8FEF738
:101BE0005FFB50B39E4914A8FEF75AFB58B39D49BA
:101BF00014A8FEF755FB002839D09B4914A8FEF71E
:101C00004FFB28B1994914A8FEF74AFB002865D17B
:101C10000FAA97492046FFF7A9FF002841D10123C9
:101C20001C461BE0934A39463046FFF719FA1BE081
:101C300039463046FFF7B4FB16E08F4A3946304646
:101C4000FFF70EFA10E04FF448628C492046FFF788
:101C5000A8FF0E9080B2FFF79EFD0446234614AA0B
:101C600039463046FFF73CFC18B0BDE8F0810FAABA
:101C70007F492046FFF77AFF10B901231C46EDE7A4
:101C80000EAA7E492046FFF771FF10B901231C46BA
:101C9000E4E7BDF838109DF83C00FFF7E4FA04468D
:101CA000DCE741F2941275492046FFF77AFF0E9067
:101CB000642273492046FFF774FF054640F6B832A8
:101CC00070492046FFF76DFF83B22A46BDF83810F1
:101CD0009DF83C00FFF7D6FA0446BFE76A4914A80E
:101CE000FEF7DEFA20B1694914A8FEF7D9FA28BB3D
:101CF0000FAA5F492046FFF739FF10B901231C46A0
:101D0000ACE74FF47A725D492046FFF74AFF0E9028
:101D100064225B492046FFF744FF054640F6B8328F
:101D200058492046FFF73DFF83B22A46BDF83810D8
:101D30009DF83C00FFF7CAFA04468FE7544914A8FF
:101D4000FEF7AEFA002846D0524914A8FEF7A8FACA
:101D5000002800F0B980504914A8FEF7A1FA002825
:101D600000F060814D4914A8FEF79AFA002800F0AF
:101D70005E814B4914A8FEF793FA002800F03582E3
:101D8000484914A8FEF78CFA002800F085824649DD
:101D900014A8FEF785FA002800F0E882434914A849
:101DA000FEF77EFA002800F00283414914A8FEF7EE
:101DB00077FA002800F058833E4914A8FEF770FA1D
:101DC000002840F09083FFF737F9002840F0778330
:101DD00002231C4642E705AA37492046FFF7C6FE04
:101DE00010B901231C4639E706AA34492046FFF7FB
:101DF000BDFE10B901231C4630E708AA3049204631
:101E0000FFF7B4FE10B901231C4627E70AAA2D49A3
:101E10002046FFF7ABFE10B901231C461EE76422E3
:101E200017492046FFF7BDFE054640F6B832154972
:101E30002046FFF7B6FE80B201900095BDF828302D
:101E40009DF82020BDF818109DF81400FFF762FAE5
:101E5000044603E7F48B010864900108208C010814
:101E6000B08C0108B88C0108BC8C0108C08C01083A
:101E7000208D0108F88B0108288C01082C8D0108A1
:101E8000D08C0108DC8C0108EC8C0108F08C010876
:101E9000008D0108308D01088C8D0108988D010896
:101EA000008E0108188E01083C8E0108408E010842
:101EB000608E010870900108088D0108148D0108DA
:101EC0001C8D0108288D0108102310AA9E49204668
:101ED000FFF729FC002800F00D839C4910A8FEF7AD
:101EE000DFF9D0B99A4910A8FEF7DAF9E0B19949BB
:101EF00010A8FEF7D5F9002842D0974910A8FEF7A0
:101F0000CFF9002868D0914910A8FEF7C9F9002838
:101F100000F0838001231C46A0E6FFF78DF800281F
:101F2000E0D102231C4699E60FAA8C492046FFF710
:101F30001DFE10B901231C4690E608AA88492046D8
:101F4000FFF714FE10B901231C4687E60AAA85494B
:101F50002046FFF70BFE10B901231C467EE64FF426
:101F60007A7281492046FFF71CFE0346BDF82820FF
:101F7000BDF820109DF83C0001F044FB04466DE6DE
:101F80000FAA76492046FFF7F1FD10B901231C4640
:101F900064E608AA75492046FFF7E8FD10B9012359
:101FA0001C465BE60AAA72492046FFF7DFFD10B91E
:101FB00001231C4652E64FF47A726B492046FFF724
:101FC000F0FD0346BDF82820BDF820109DF83C0028
:101FD00001F048FB044641E608AA64492046FFF7A1
:101FE000C5FD10B901231C4638E60AAA60492046FF
:101FF000FFF7BCFD10B901231C462FE64FF47A729F
:1020000059492046FFF7CDFD0246BDF82810BDF81E
:10201000200001F067FB044620E601F09DFB002351
:102020001C461BE601F098FB00231C4616E6102315
:102030000AAA50492046FFF776FB002800F0D2801C
:102040004D490AA8FEF72CF9A8B14C490AA8FEF799
:1020500027F9002836D04A490AA8FEF721F90028B6
:1020600050D048490AA8FEF71BF9002800F0A480C8
:1020700001231C46F2E5444A39463046FEF7F0FF9C
:1020800001231A4611E0414B1D461446104601F04B
:1020900039FA019000942B463D4A39463046FFF705
:1020A00063F923460133DBB21A460D2A04D8012A0C
:1020B000E9D0384B1D46E8E7374A39463046FEF747
:1020C000CFFFD1E5FEF7B8FF10B902231C46C5E5E6
:1020D0000FAA22492046FFF749FD10B901231C46EB
:1020E000BCE508AA21492046FFF702FB10B90123ED
:1020F0001C46B3E5BDF920109DF83C0001F0C2F983
:102100000446ABE5FEF798FF10B902231C46A5E58F
:102110000FAA12492046FFF729FD10B901231C46DA
:102120009CE506AA1D492046FFF720FD10B90123B2
:102130001C4693E508AA1A492046FFF717FD88BBFD
:1021400001231C468AE500BF388D0108408D010837
:10215000488D01085C8D0108808D0108208D0108E3
:10216000288D0108148D0108508D0108648D010827
:10217000708D01089C8D010864900108B88C0108DD
:10218000E08D010870900108A48D0108A08101086C
:10219000C08D0108A48A010818850108E88D01088E
:1021A000F48D0108BDF82020BDF818109DF83C0002
:1021B000FFF744F8044651E5FEF73EFF10B902234D
:1021C0001C464BE50FAA95492046FFF7CFFC044675
:1021D00028B19DF83C0001F075F904463EE501F098
:1021E00077F93BE501231C4638E5102310AA8C49FA
:1021F0002046FFF798FA002800F08081894910A84E
:10220000FEF74EF838B1884910A8FEF749F888B1B2
:1022100001231C4622E50EAA84492046FFF7A6FCAE
:1022200010B901231C4619E5BDF83800FFF7B3FAD1
:10223000044613E5FEF700FF10B902231C460DE526
:102240000FAA76492046FFF791FC10B901231C46DE
:1022500004E508AA76492046FFF788FC10B9012357
:102260001C46FBE40AAA73492046FFF77FFC10B91D
:1022700001231C46F2E44FF47A726F492046FFF7BF
:1022800090FC0346BDF82820BDF820109DF83C00C6
:1022900001F0B8F90446E1E410230AAA6749204690
:1022A000FFF741FA00285ED065490AA8FDF7F8FF5C
:1022B00038B164490AA8FDF7F3FF38B101231C4681
:1022C000CCE439463046FFF773FACDE40690079028
:1022D00003AA5D492046FFF749FC10B901231C46BB
:1022E000BCE404AA59492046FFF740FC002837D037
:1022F000049B082B02D901231C46AFE40022544959
:102300002046FFF74EFC804600231D46049B9D425D
:102310001AD22B464F4A082108A813F027FE05AA17
:1023200008A92046FFF722FC58B1059BFF2B08D8CF
:1023300005F160026A4402F8483C6B1CDBB21D46A2
:10234000E4E701231C4689E40398424632B10121A7
:10235000DBB206AA01F036FB04467FE44146F7E70C
:1023600001231C467AE401231C4677E410230AAAC1
:1023700032492046FFF7D7F9B0B131490AA8FDF735
:102380008FFF38B134490AA8FDF78AFF38B101231D
:102390001C4663E439463046FFF794FA64E4FEF7DE
:1023A0006BFD00231C4659E401231C4656E4102310
:1023B0000AAA22492046FFF7B6F960B320490AA8C5
:1023C000FDF76EFFA8B125490AA8FDF769FF20B106
:1023D00023490AA8FDF764FF80B94FF44862134906
:1023E0002046FFF7DEFB0E9080B2FEF7C3FD0446E9
:1023F00034E439463046FFF751F835E419490AA864
:10240000FDF74EFF10B101231C4627E4FEF706FE40
:1024100000231C4622E401231C461FE4208D0108F2
:10242000388D0108088E0108108E01082C8D0108D6
:10243000288D0108148D0108508D01089C8D01081C
:10244000649001081C8E0108248E0108288E010862
:102450002C8E0108388E010870900108408D01080B
:10246000488E0108588E010810230AAA25492046E3
:10247000FFF759F948B124490AA8FDF711FF40B107
:1024800022490AA8FDF70CFF50B101231C46FFF7B3
:10249000E5BB024639463046FFF7D6FAFFF7E4BB04
:1024A0004FF480321A492046FFF77BFB01F0F8FB1E
:1024B000024639463046FFF7C7FAFFF7D5BB01F0B1
:1024C0004BF90FAA13492046FFF750FB30B19DF896
:1024D0003C0000F0E7FE0446FFF7C0BB00F024FF1D
:1024E0000446FFF7BBBB0C4A39463046FEF7B8FD41
:1024F000FFF7BABB01231C46FFF7B0BB01231C4604
:10250000FFF7ACBB9C8D010864900108008E0108A8
:10251000688E0108208D0108708E010830B589B0E1
:102520000446002305930393049305AB009306AB85
:1025300007AA1D4913F04CFD01282DDD079BB3F5BB
:10254000006F2CD2069B082B2BD8059BE01800248B
:1025500006E004F120026A4402F8143C0134E4B2BB
:10256000069B9C4211D2FEF785FD054658B10378C3
:102570004BB1102202A913F007FB03460298A842B0
:1025800001D0FF2BE5D9012007E0DBB203AA00212F
:10259000079801F017FA00E0012009B030BD0120D2
:1025A000FBE70120F9E700BF988E010870B594B0F1
:1025B00004460E461546AB49FDF772FE20B1AA4906
:1025C0002046FDF76DFE28B929463046FEF75AFD34
:1025D00014B070BDA5492046FDF762FEC0B10622C9
:1025E000A349204613F06DFEB8B94FF44863129327
:1025F00012AAA049204613F0EBFCBDF84800FFF7F3
:10260000CAF803469A4A29463046FFF74BF8DFE7F7
:1026100029463046FEF776FFDAE712AB13AA964951
:10262000204613F0D5FC022800F0B780032293491E
:10263000204613F046FE002800F0BC80032290499B
:10264000204613F03EFE002800F0E08005228D4970
:10265000204613F036FE002800F04A818A492046C1
:10266000FDF71EFE002800F0758188492046FDF721
:1026700017FE002800F073810C228549204613F0D4
:1026800020FE002800F074810E228249204613F0BB
:1026900018FE002800F099810A227F49204613F095
:1026A00010FE002800F0BA817C492046FDF7F8FDB5
:1026B000002800F0E08108227949204613F001FE4D
:1026C000002800F0DD8109227649204613F0F9FD4B
:1026D000002800F0FB8109227349204613F0F1FD28
:1026E000002800F01D820C227049204613F0E9FDFD
:1026F000002800F03A820A226D49204613F0E1FDDD
:10270000002800F04B826B492046FDF7C9FD0028E8
:1027100000F08C8209226849204613F0D2FD00287F
:1027200000F0898265492046FDF7BAFD002800F0D7
:102730008C8263492046FDF7B3FD002800F08A82B1
:1027400060492046FDF7ACFD002800F08C8209228C
:102750005D49204613F0B5FD38B10E225B49204695
:1027600013F0AFFD002840F083824FF448631293CA
:1027700012AA5749204613F02BFC12AA55492046AD
:1027800013F026FCBDF84800FEF7F4FB0346524A5E
:1027900029463046FEF786FF1AE7BDF848109DF837
:1027A0004C00FEF760FD03464C4A29463046FEF7D2
:1027B00079FF0DE7139041F2941311936423109362
:1027C00040F6B8330F930FAB019310AB009311ABEE
:1027D00013AA4349204613F0FBFB00280FDDBDF888
:1027E0003C30109ABDF844109DF84C00FEF74AFDAD
:1027F00003463C4A29463046FEF754FFE8E60123EB
:10280000384A29463046FEF74DFFE1E613904FF473
:102810007A7311936423109340F6B8330F930FAB80
:10282000019310AB009311AB13AA2F49204613F06C
:10283000CFFB00280FDDBDF83C30109ABDF84410E6
:102840009DF84C00FEF742FD0346284A29463046D3
:10285000FEF728FFBCE60123244A29463046FEF74E
:1028600021FFB5E6208C0108AC8E010864900108B8
:10287000B08C0108B08E0108BC8E0108C88E01081A
:10288000DC8E0108F08E0108108F01081C8F0108F2
:10289000288F0108548F01087C8F0108A08F010840
:1028A000AC8F0108C88F0108E88F01080490010867
:1028B0002490010848900108549001086090010894
:1028C0006C900108789001088490010890900108AC
:1028D000A0900108B0900108408E0108B88C010852
:1028E000CC8E0108BC8C0108E08E0108EC8C01083C
:1028F0006423109340F6B8330F930FAB039310ABE0
:10290000029307AB019306AB009305AB04AAB2494F
:10291000204613F05DFB032815DDBDF83C30019324
:10292000109B0093BDF81C309DF81820BDF81410C2
:102930009DF81000FEF7EEFC0346A84A29463046F3
:10294000FEF7B0FE44E60123A44A29463046FEF7CE
:10295000A9FE3DE629463046FEF744FE38E600F083
:10296000FBFE00239E4A29463046FEF79BFE2FE6DB
:10297000FEF762FB90B10AAB01930DAB00930EAB77
:1029800013AA9849204613F023FB04280DD00123F5
:10299000934A29463046FEF785FE19E60223904AFF
:1029A00029463046FEF77EFE12E60A9BBDF834202B
:1029B000BDF838109DF84C0000F024FE0346884A0C
:1029C00029463046FEF76EFE02E6FEF735FB80B183
:1029D0000AAB00930BAB0CAA8349204613F0F8FA1C
:1029E00003280DD001237E4A29463046FEF75AFEC1
:1029F000EEE502237A4A29463046FEF753FEE7E524
:102A00000A9ABDF82C10BDF8300000F06BFE0346AA
:102A1000734A29463046FEF745FED9E5FEF70CFB22
:102A200090B10AAB01930BAB00930CAB13AA6F49A7
:102A3000204613F0CDFA04280DD00123684A294618
:102A40003046FEF72FFEC3E50223654A294630468D
:102A5000FEF728FEBCE50A9BBDF82C20BDF830101F
:102A60009DF84C0000F0FEFD03465D4A29463046C5
:102A7000FEF718FEACE529463046FEF7D3FDA7E584
:102A8000FEF7DAFA70B109AB13AA5949204613F0E0
:102A90009FFA02280DD00123564A29463046FEF7F8
:102AA00001FE95E50223534A29463046FEF7FAFD1A
:102AB0008EE5BDF924109DF84C0000F0E3FC0346C0
:102AC0004C4A29463046FEF7EDFD81E5FEF7B4FAA3
:102AD00080B108AB009311AB13AA4749204613F00D
:102AE00077FA03280DD00123424A29463046FEF7E3
:102AF000D9FD6DE502233F4A29463046FEF7D2FD57
:102B000066E5BDF82020BDF844109DF84C00FEF7A6
:102B100095FB0346374A29463046FEF7C3FD57E585
:102B2000FEF78AFA78B113AA3449204613F050FA16
:102B300001280FD000F0CCFC00232E4A2946304655
:102B4000FEF7B0FD44E502232A4A29463046FEF747
:102B5000A9FD3DE59DF84C0000F0B4FC0346254A74
:102B600029463046FEF79EFD32E512AA244920464A
:102B700013F02EFA012806D00123224A29463046B6
:102B8000FEF790FD24E5BDF84800FEF704FE03467D
:102B90001C4A29463046FEF785FD19E5FEF74CFA3A
:102BA00090B10AAB01930DAB00930EAB13AA16497B
:102BB000204613F00DFA042828D00123114A294693
:102BC0003046FEF76FFD03E502230E4A29463046E4
:102BD000FEF768FDFCE400BFF88E0108008D0108D7
:102BE000308D0108388F0108648F0108888F010833
:102BF000B88F0108988D0108D48F0108F48F01085F
:102C000014900108008E0108309001080A9BBDF85D
:102C10003420BDF838109DF84C0000F0F3FC03465A
:102C2000494A29463046FEF73DFDD1E42946304663
:102C3000FEF704FECCE42046FFF770FC0346434A4F
:102C400029463046FEF72EFDC2E429463046FEF7FF
:102C500097FEBDE4FEF710F900233D4A29463046B1
:102C6000FEF720FDB4E429463046FEF7F9FCAFE458
:102C700038492046FDF714FBD8B137492046FDF707
:102C80000FFBF8B109223549204613F01AFBF0B1C9
:102C900005223349204613F014FB70B32378002B30
:102CA0003FF496AC23462F4A29463046FEF75CFB9C
:102CB0008EE4FEF7B3F900232B4A29463046FEF78F
:102CC000F1FC85E429463046FEF710FF80E44FF41E
:102CD0008033079307AA2549204613F079F907980E
:102CE00000F0DEFF0346224A29463046FEF7DAFCB2
:102CF00029463046FEF7FAFE6AE4FEF79DF988B1F0
:102D000000F02AFD13AA1B49204613F061F901289F
:102D10000FD000F009FB0346114A29463046FEF762
:102D2000C1FC55E402230E4A29463046FEF7BAFCA0
:102D30004EE49DF84C0000F0B5FA0346084A2946D7
:102D40003046FEF7AFFC43E4008E0108188E010800
:102D50003C8E0108C4900108D4900108E09001085D
:102D600070900108FC900108408E0108EC90010869
:102D7000608E0108F88F010838B50C461546FEF73D
:102D800079F930B102787B2A04D02A462146FFF730
:102D90000DFC38BD2A462146FEF70CFFF9E700007E
:102DA00008B50146014812F0BDFF08BDA88801081A
:102DB00008B5034B00221A80024813F01BF808BD27
:102DC0004C0200201091010830B583B0002403E0CC
:102DD000184B1B88D3B901341F2C28D8002301229B
:102DE0000DF10701144805F0A3FE00BB9DF8073064
:102DF0000A2B18BF0D2BEBD00E4A12889E2A0FD833
:102E0000501C0C4908800D498B54E4E70B48002501
:102E1000C5542A460A49FFF7AFFF064B1D80DAE783
:102E2000044B00221A80074812F0E4FFD3E703B0F6
:102E300030BD00BF4C02002078010020500200206D
:102E4000A12D00084C91010889B130B583B00C6800
:102E50005CB1054648B1FDF72DFA02460023009308
:102E600001232946204609F03FFD03B030BD7047DD
:102E700000B583B00B46019001AA03491846FFF73D
:102E80007BFF03B000BD00BF492E0008F0B5C7B0FE
:102E900006460025009501235522204909F024FD0E
:102EA00034E095B90134A4B2BDF80E30A3421DD967
:102EB000049B1B5D0A2B18BF0D2BF2D0FE2D0CD8E6
:102EC0006A1C05A94B5595B2ECE705A900274F559B
:102ED0003046FFF7CDFF3D46E4E70025009501238E
:102EE00026220F49304609F0FFFCDBE745980AF03F
:102EF00058FE002807DB0DF10E0204A945980AF0E0
:102F000037FE0024D0E745980AF022FE45A9304656
:102F100009F014FE0028EED047B0F0BD649101081E
:102F2000BC91010810B582B000221146102009F0B2
:102F3000C3FB88B1044641F28832234909F03AFCC8
:102F4000024670B141F28831204812F0EBFE204673
:102F500009F020FC08F0E0F81D4812F04BFF08F0E3
:102F6000DBF8FF21204609F03DFC014638B1194845
:102F700012F0D8FE204609F00DFC08F0CDF841F221
:102F80008831154812F0CEFE02E0642008F0C9F83E
:102F90000023019301A9204609F0C7FC0028F4D1C1
:102FA000019B002BF1D00D4812F024FF0198FFF790
:102FB0006DFF019809F0A4FC019809F0EBFB0848AB
:102FC00012F018FFE4E700BFACB901080092010855
:102FD000E491010820920108409201086C920108D6
:102FE0008492010808B5064B1B6803B108BD054A69
:102FF0001946054808F02FF8014B1860F6E700BFA6
:10300000F0020020A4B70108252F00080138C0B243
:103010000C2801D80120704700207047A0F5FA70F5
:1030200080B241F29413984201D8012070470020E9
:10303000704700000138094B33F910301944B1F5DD
:10304000FA7F05D341F28833994204D888B2704799
:103050004FF4FA70704741F2883070473C0400200A
:1030600001380B494FEA001C01EB0012002301F864
:103070000C305380938093609381064A42F820304D
:10308000054A42F820304FF00002044B1A547047B2
:103090006C0300203803002004030020F402002009
:1030A000884210D009D9431A002A18BF934209D97F
:1030B000884204D3821A90B270470B1AF4E7104486
:1030C00080B270470846704741F28733984209D86A
:1030D000C0EB004000F6C410044BA3FB0030C0F36B
:1030E0000F3070474FF6FF70704700BF5917B7D1C8
:1030F000F8B504460E461546FFF788FFE8B130469E
:10310000FFF78CFF10B901231F4618E03146204617
:10311000FFF790FFFFF7D8FF0146631ED8B200F01B
:103120009FFF074658B9601E064B23F810600DB983
:103130002F4604E000F0FEFE01E001231F46384662
:10314000F8BD00BF5804002038B505460122FFF73E
:10315000CFFF044608B1204638BD2846FFF780FF60
:10316000F9E738B50546FFF759FFA0B101240D2C4A
:103170000CD8002229462046FFF7BAFF034640B983
:103180002046FFF76DFF0134E4B2F0E700F0D2FE15
:103190000023184638BD0123FBE708B5FFF7E1FF20
:1031A00008BD00002DE9F84F054682460C460F4643
:1031B00016469846BDF828309946FFF727FF0028A5
:1031C00049D02046FFF72AFF002849D06C1E230172
:1031D000264AD35C7BB9264B33F8143035461E465D
:1031E000BB4228BF012D3ED0BB4298BF022D07D164
:1031F00001231D4631E01D4B03EB04139B88EDE7D3
:1032000003F0A6F883461949220101EB04138D54FB
:103210005F809E80C3F808804946A3F80C90154B48
:1032200043F824000023144A42F82430134A13556B
:1032300011B100231D4610E0012239465046FFF728
:1032400057FF054618B90C4B43F824B005E050462B
:10325000FFF706FF01E001231D462846BDE8F88F71
:1032600001231D46F9E701231D46F6E76C03002004
:10327000580400203803002004030020F40200203A
:1032800000B583B0009313460122FFF78BFF03B014
:1032900000BD00B583B0009313460222FFF782FF02
:1032A00003B000BD38B504460546FFF7AFFE88B150
:1032B0002046631E1A0109498C5C64B101EB0313BB
:1032C00001229988FFF714FF044620B92846FFF72A
:1032D000C7FE00E00124204638BD00BF6C0300207B
:1032E0002DE9F0411D46BDF81C30904218BFA9429F
:1032F00004D801231F463846BDE8F08180461446B5
:103300001E46069AFFF7BCFF07460028F3D1334656
:10331000069A29462046FFF7BCFF07460028EAD058
:103320004046FFF7BFFFE6E710B501240D2C07D894
:103330002046FFF7B7FF034618B90134E4B2F5E7BA
:103340000023184610BD00002DE9F0410646012576
:1033500000271CE0464901EB0411498833E01A4676
:103360003EE0444B43F82460434B1B5D2BB9404A7D
:1033700002EB04125288424548D02BB13C4B03EB80
:1033800004139B8843454AD001270135EDB20D2D2A
:1033900068D86C1EE4B22301354AD35C002BF4D00C
:1033A000344B53F8243013B9324B43F82460314B7B
:1033B00053F82420B21A304B1B5D002BCAD02C4985
:1033C00001EB041189882D4830F8140088422AD076
:1033D000274B03EB04139B89002BC0D003FB02F2A5
:1033E0000BB1002AD1D041F288339A4200D91A4653
:1033F000FFF756FE8046002201462846FFF778FE7A
:1034000007460028ADD03846BDE8F0811C4A52F886
:103410002420002AB1D11A4A42F82460ADE7284698
:10342000FFF71EFEB0E7134A42F82460B3B9144B0D
:1034300053F8243013B9124B43F824600C4B03EBC0
:1034400004139B68002BA0D00D4A52F82420B21A16
:1034500093429AD8084B01221A5596E72846FFF75F
:10346000FFFD92E7002FCED000F064FD0027CAE7F1
:103470006C03002038030020F402002058040020D0
:103480000403002038B505460C46FFF7BFFD98B190
:1034900004F5FA739BB2B3F57A7F01D901200CE0F1
:1034A00028466B1E054A22F813400122044931F8D0
:1034B0001310FFF71DFE00E0012038BD3C04002082
:1034C0005804002008B50021FFF7DCFF08BD00000C
:1034D00010B501240CE0631E0022084921F81320D6
:1034E000074931F813102046FFF702FE0134E4B219
:1034F0000D2CF0D900F01EFD10BD00BF3C040020D3
:103500005804002010B50446FFF780FD18B1601E76
:10351000014B33F9100010BD3C04002010B50446E7
:10352000FFF774FD18B1601E014B33F8100010BD99
:103530005804002030B585B004460D4600230093A2
:103540000193029303930846FFF760FD48B1691E9B
:10355000064B03EB01130FCB84E80F00204605B0A8
:1035600030BD20606060A060E060F7E76C03002081
:103570000023184601E00133DBB20C2B07D81A01F7
:1035800003498A5C002AF6D00130C0B2F3E77047E5
:103590006C030020012803D0022803D102487047A1
:1035A00002487047024870470C7F0108087F0108F5
:1035B000187F01080138C0B20C2801D801207047DB
:1035C00000207047A0F5FA7080B241F2941398423F
:1035D00001D80120704700207047000008B502F0B4
:1035E000B7FE054B18600020044B1880044B0122E5
:1035F0005A70188208BD00BF7404002072040020B5
:1036000078040020F8B507460C4615461E46FFF71D
:10361000D1FFE0B12046FFF7D5FFD0B12846FFF734
:10362000D1FFC0B1012E8CBF002301232046AC4244
:1036300013D293B90A4B01221A709F709880DD80D3
:1036400000221A815A81DE60FFF7C8FF00E00120E6
:10365000F8BD0120FCE70120FAE70120F8E700BFF0
:10366000780400202DE9F8430C461546994691420E
:1036700029D98B1A984666190746FFF79BFF28B38E
:103680002046FFF79FFF20B3B8F5FA7F2CBF00223A
:10369000012205B3FAB9494601298CBF0022012253
:1036A00041F288339E4218D8BAB90D4B02221A70E3
:1036B0009F7000229A80DA801C815D81C3F80C9093
:1036C000FFF78CFF03E000239846D4E70120BDE814
:1036D000F8830120FBE70120F9E70120F7E700BFAD
:1036E000780400202DE9F04104460D4690468842BA
:1036F00026D9431A1F4666192046FFF763FF10B309
:103700003B46B7F5FA7F2CBF00230123F5B1EBB997
:10371000414601298CBF0022012241F288339E429A
:1037200016D8AAB90B4B03221A7000229A709A80FD
:10373000DA801C815D81C3F80C80FFF74FFF03E046
:1037400000231F46D7E70120BDE8F0810120FBE7F9
:103750000120F9E778040020024B00225A701A7009
:10376000704700BF7804002003462E4A5078002896
:1037700056D010B52C4A1068181A2A4AD368B0FBE4
:10378000F3F103FB11001278012A2DD0911EC9B26A
:10379000012941D88001B0FBF3F0DFF888C0BCF804
:1037A0000A30224931F9101001FB03F3204981FB53
:1037B00003011944DB17C3EBA133BCF8081011FA5D
:1037C00083F39BB21C461B4B1B882146A34225D08A
:1037D000032A14D0134B9878FFF7B6FCC0B9154BE9
:1037E0001C80104B1C8210BDB0EB530F03D20D4B4D
:1037F0009B881C46E7E70B4BDB881C46E3E720462B
:10380000FFF7AFFC0028EAD0FFF7A6FF0120EAE7A8
:10381000FFF7A2FF0120E6E70020E4E70020E2E74F
:10382000704700BF7804002074040020C8B7010866
:10383000030001807204002010B504468446DFF8BE
:1038400018E0BEE80F00ACE80F00DEF80030CCF85E
:103850000030204610BD00BF78040020022805D0AB
:10386000032805D0012805D1034870470348704755
:103870000348704703487047488D01085C8D010874
:10388000808D0108A89201087047042811D009D83A
:10389000022810D003D8C8B101280ED170470328E0
:1038A0000DD1704706280CD007280CD005280CD164
:1038B0007047042070470220704708207047082096
:1038C000704706207047072070470820704704287B
:1038D00011D009D8022810D003D8C8B101280ED1C0
:1038E000704703280DD1704706280CD007280CD04C
:1038F00005280CD17047042070470220704708202B
:10390000704708207047062070470720704708203E
:103910007047000010B58AB002AC2022002120467A
:1039200012F0B9FC022304930123059321460F48AA
:1039300011F00CFE10B101200AB010BD4FF0804311
:1039400002930390069007902146084811F0FEFD6F
:1039500008B10120F0E70123009302460146034825
:1039600011F038FE0028E7D00120E5E79081002023
:1039700010B524220021104812F08DFCFFF7CAFF79
:1039800038B10D4AD3680133D36001231C46204669
:1039900010BD0A4811F037FE044630B1064AD3681C
:1039A0000133D36001231C46F1E7034B01221A7057
:1039B000034812F01FFAEAE78C04002090810020EF
:1039C000B0920108F0B58DB006460F4615461C466C
:1039D0002422002103A812F05EFC0023019302932D
:1039E000234B1B785BB3082C29D8231E18BF012357
:1039F000002D18BF002313BBB6F5006F28BF002FA2
:103A000024D03B1E18BF0123B6F1005F38BF00234E
:103A1000E3B90CBB03963B460FB14FF080430493D0
:103A20002046FFF732FF069001AA03A9114811F0C2
:103A300003FEB8B90E4A53680133536004E00C4AE0
:103A4000D3680133D36001200DB0F0BD084AD368BC
:103A50000133D3600120F7E72246294601A812F07E
:103A6000CCFCD7E7024AD3680133D3600120EBE7EF
:103A70008C04002090810020414B1B78002B7DD0CE
:103A80002DE9F04192B024E03D4AD3680133D36080
:103A900012B0BDE8F0814FF001084AE0394967E013
:103AA000394A3A4812F03EF90134E4B2AC4209D244
:103AB00004F148036B4413F8441C631C9D42EFD08F
:103AC000334AEEE7334812F095F92D4B1B78002B63
:103AD000DED04021304811F0E9FE0028D8D008ACF3
:103AE00028220021204612F0D6FB01AB00220192D1
:103AF0005A60039204920592069207922246402150
:103B0000254811F0D3FD04460028BDD10B98FFF7DE
:103B1000DEFE05461A4FBB680133BB60089B3B6164
:103B200002F016FC06467861099BB3F1804FB2D0D3
:103B3000A046134880F81880457601AF2A463946DA
:103B40001A3012F05AFC089B039304968DF81480E7
:103B50008DF815502A4639460DF1160012F04DFC2D
:103B600003A8FDF7BFF9099BB3F1804F96D00B492D
:103B70002B46089A0A4812F0D5F897E7704700BF1D
:103B80008C040020F0920108A0810108A48801089B
:103B90005C9001087C94010890810020F492010857
:103BA000F892010810B504468446DFF820E0BEE82C
:103BB0000F00ACE80F00BEE80F00ACE80F00DEF825
:103BC0000030CCF80030204610BD00BF8C0400202F
:103BD00000F140504000054B586119845A8401227D
:103BE00083F82420DA690132DA617047B0040020DA
:103BF00008B58446002304E05A0002F1C042118057
:103C000001336345F8D3BFF34F8F002000E001304C
:103C100060450AD2430003F1C0431A8892B28A4237
:103C2000F5D0FFF7D5FF012000E0002008BD08B562
:103C30008446002208E0510001F1C0414AF2A55338
:103C400053409BB20B8001326245F4D3BFF34F8FD8
:103C5000002000E0013060450ED283B24AF2A55147
:103C60005940430003F1C0431A8892B29142F1D007
:103C7000FFF7AEFF012000E0002008BD10B5074CA3
:103C800028220021204612F006FB4FF0C04323609B
:103C90004FF4801363601023237210BDB004002022
:103CA00070B530B10346B0F5801F04D94FF48014CD
:103CB00004E04FF4803333F001042AD0184DEC6057
:103CC00002F046FB286100236B612B846B84022386
:103CD00085F8243064082046FFF7A9FF0646D8B9C6
:103CE000054600E00135032D0AD80E4B33F81510B8
:103CF0002046FFF77DFF0028F4D001231E4606E092
:103D0000074B002283F824209A6901329A613046D9
:103D100070BD01231E46FAE701231E46F7E700BFE8
:103D2000B004002048B8010810B504468446DFF806
:103D300020E0BEE80F00ACE80F00BEE80F00ACE8E2
:103D40000F009EE803008CE80300204610BD00BF72
:103D5000B0040020022809D004D848B1012809D1B4
:103D600006487047032807D1054870470548704743
:103D70000548704705487047044870478087010828
:103D8000249301081C9301089C9901082C930108B5
:103D90000A4B1B6803B1704710B507F017F90446CA
:103DA000064B1B681BB1204607F025F910BD1846CD
:103DB00007F0C7F9014B1860F5E700BFD8040020F1
:103DC00008B507F0CDF8022801D0002008BDFFF7A4
:103DD000DFFF054B186828B1044B196807F001FA9A
:103DE0000028F3D00320F1E7D804002000000020D1
:103DF00008B507F0B5F8022800D008BD034B1868D5
:103E00000028FAD007F01EFAF7E700BFD804002018
:103E100070B5002918BF002803D101231E46304683
:103E200070BD05460C46FFF7CBFF06460028F6D1CD
:103E300002461021094802F016FA094B1B68224677
:103E40002946084803F0C0FC064601221021034819
:103E500002F009FAFFF7CCFFE1E700BF00000258CB
:103E600000000020F0000020F0B583B0002918BF4A
:103E7000002821D0144606460D4612B901231F46DC
:103E80001CE0FFF79DFF0746C0B9024610210D4810
:103E900002F0E9F90C4B1B68009323462A46314691
:103EA0000A4803F0F1FD074601221021054802F0FF
:103EB000DAF9FFF79DFF01E001231F46384603B002
:103EC000F0BD00BF0000025800000020F0000020FC
:103ED00008B502460821024802F0C5F908BD00BF36
:103EE000000C025808B50020FFF7F2FF012002F095
:103EF00035FA0120FFF7ECFF012002F02FFA08BD90
:103F000008B502464021024802F0ADF908BD00BFE5
:103F1000000C025808B501221021054802F0A3F94F
:103F20000120FFF7D5FF0120FFF7EAFF08BD00BF22
:103F30000000025800B583B00020FFF7E1FF002326
:103F4000019303E000BF019B01330193019BC72B49
:103F5000F8D90120FFF7D4FF03B000BD08B5042154
:103F6000034802F079F9012800D0002008BD00BF05
:103F7000000C02580A2809D809280FD202280FD9A4
:103F8000042801D000207047012070470C2809D078
:103F90000E2801D000207047012070470120704793
:103FA000012070470120704700F00F0040EA001325
:103FB00043EA002343EA0030704700F0800001F03C
:103FC0003F0108431870110A59709A707047000039
:103FD00010B582B001AC234600F08000FFF7EDFF82
:103FE00003212046FFF714FF014B187002B010BDEB
:103FF000DC04002010B582B00023ADF800304FF093
:1040000000028DF8022010F0800F00D1802001AC5A
:1040100023460022FFF7D1FF032269462046FFF71F
:1040200023FF0E4B187010B1002002B010BD2346C4
:1040300002460146FFF7C1FF032269462046FFF70B
:1040400013FF064B187030B99DF801309DF802003F
:1040500040EA0320E9E70020E7E700BFDC04002096
:1040600008B50F2803D90120054B187008BD103082
:104070000A46C1B20020FFF7ABFF014B1870F5E70D
:10408000DC04002010B5044604218020FFF7B2FFB5
:104090000246094B187848B94CB122F4804292B2DA
:1040A00004210020FFF794FF034B187010BD42F469
:1040B000804292B2F4E700BFDC04002038B5044629
:1040C000FFF758FF98B12046FFF76EFF0546002422
:1040D000032C10D804F10A012A46C9B20020FFF7C8
:1040E00077FF064B187040B90134E4B2F0E70120C5
:1040F000024B187001E0014B187838BDDC04002039
:1041000008B50020FFF7DAFF08BD000008B5024639
:1041100009210020FFF75CFF014B187008BD00BFAC
:10412000DC04002008B5FFF7F5FEFFF7DBFE40F6E4
:10413000842203210020FFF74BFF0C4B187000B1C5
:1041400008BD0120FFF79EFF084B18700028F7D12B
:10415000012002F003F9FFF7D3FF044B1870002889
:10416000EED1FFF7D3FF014B1870E9E7DC04002024
:10417000002807DB00F01F02400901239340024A98
:1041800042F82030704700BF00E100E0002804DB67
:104190000901C9B2044B1954704700F00F0009011E
:1041A000C9B2024B1954704700E400E014ED00E07E
:1041B00000B500F00700A0F1030CBCF1040F07D814
:1041C000C0F1070E0430062806D84FF0000C03E0BB
:1041D0004FF0040E4FF0000C4FF0FF3303FA0EF0D7
:1041E00021EA000101FA0CF103FA0CF322EA0302BE
:1041F00041EA020000BD00000649CB6823F4E063F9
:104200001B041B0C000200F4E0600343024A1A4343
:10421000CA60704700ED00E00000FA0510B50446E2
:10422000054BD868C0F30220FFF7C2FF01462046C5
:10423000FFF7ACFF10BD00BF00ED00E008B5FFF7D1
:1042400097FF08BDBFF35F8F044B5A6A22F4803298
:104250005A620022C3F89420704700BF00ED00E0CE
:1042600040F00100054BC3F894005A6A42F48032D2
:104270005A62BFF34F8FBFF36F8F704700ED00E0BE
:104280004378144AC2F89830D2F8A03023F00103E2
:10429000C2F8A0304368C2F89C30017BC37A1B0689
:1042A00043EA0173817A43EAC143417B43EA814394
:1042B000817B43EA4143C17B43EA0143417A43EABC
:1042C0000123017A43EA410301780B43C2F8A0308D
:1042D000704700BF00ED00E0002800F03A8338B5D9
:1042E0000446036813F0010F25D0944A136903F0C4
:1042F0003803926A102B15D0182B0FD06368B3F5D2
:10430000803F3FD0002B53D18C4B1A6822F480326F
:104310001A601A6822F480221A6038E002F0030260
:10432000022AEBD1854B1B6813F4003F03D063686E
:10433000002B00F01083236813F0020F00F0A1801F
:104340007E4A1369926A13F038035AD0182B55D05D
:10435000E368002B00F0DE8078490A6822F0190239
:1043600013430B6001F0F4FF0546744B1B6813F018
:10437000040F40F0AD8001F0EBFF401B0228F4D9A0
:104380000320EFE26D4A136843F4803313606368DF
:104390002BB301F0DDFF0546684B1B6813F4003FAB
:1043A000C9D101F0D5FF401B6428F5D90320D9E21B
:1043B000B3F5A02F09D0614B1A6822F480321A603D
:1043C0001A6822F480221A60E1E75C4B1A6842F412
:1043D00080221A601A6842F480321A60D7E701F02E
:1043E000B7FF0546554B1B6813F4003FA3D001F0FF
:1043F000AFFF401B6428F5D90320B3E212F0030F8E
:10440000A6D14E4B1B6813F0040F03D0E368002BBA
:1044100000F0A382494A136823F01903E1680B43B3
:10442000136001F095FF0546444B1B6813F0040F21
:1044300006D101F08DFF401B0228F5D9032091E23F
:1044400001F0A0FF41F20303984212D82269402AEA
:1044500007D03A494B6823F47C3343EA02334B607C
:104460000FE0364A536823F47C3343F4003353603F
:1044700007E0324A536823F0FE43216943EA0163AF
:104480005360236813F0100F00F088802B4A1369E3
:1044900003F03803926A082B56D0182B50D0E369EA
:1044A000002B00F0B880254A136843F080031360A6
:1044B00001F04EFF0546214B1B6813F4807F40F04E
:1044C000888001F045FF401B0228F4D9032049E20F
:1044D00001F058FF41F20303984212D82269402AA2
:1044E00007D016494B6823F47C3343EA02334B6010
:1044F000C7E7124A536823F47C3343F40033536014
:10450000BFE70E4A536823F0FE43216943EA016383
:104510005360B6E7094A136823F00103136001F002
:1045200017FF0546054B1B6813F0040FA9D001F0D7
:104530000FFF401B0228F5D9032013E20044025864
:1045400002F00302012AAAD1994B1B6813F4807F61
:1045500003D0E369802B40F0028201F013FF41F2A7
:104560000303984212D8226A202A07D090494B6848
:1045700023F0F84343EA82634B600FE08C4A5368B0
:1045800023F0F84343F08043536007E0884AD36840
:1045900023F07C53216A43EA0163D360236813F05C
:1045A000080F60D06369002B49D0814A536F43F0F4
:1045B0000103536701F0CCFE05467D4B5B6F13F0A2
:1045C000020F50D101F0C4FE401B0228F5D9032090
:1045D000C8E101F0D7FE41F20303984212D8226AE3
:1045E000202A07D072494B6823F0F84343EA8263DC
:1045F0004B60D3E76E4A536823F0F84343F080439F
:104600005360CBE76A4AD36823F07C53216A43EABC
:104610000163D360C2E7664A136823F08003136026
:1046200001F096FE0546624B1B6813F4807FB5D0FF
:1046300001F08EFE401B0228F5D9032092E15C4A6E
:10464000536F23F00103536701F082FE0546584B78
:104650005B6F13F0020F06D001F07AFE401B0228B8
:10466000F5D903207EE1236813F0200F29D0A36938
:104670009BB14F4A136843F48053136001F068FE06
:1046800005464B4B1B6813F4005F1AD101F060FE26
:10469000401B0228F5D9032064E1454A136823F43E
:1046A0008053136001F054FE0546414B1B6813F420
:1046B000005F06D001F04CFE401B0228F5D9032014
:1046C00050E1236813F0040F21D1636A002B00F03E
:1046D0004881374A126902F03802182A00F0EF8048
:1046E000022B7AD0324A136823F08073136001F0F2
:1046F0002FFE04462E4B1B6813F0007F00F0DD8078
:1047000001F026FE001B0228F4D903202AE1294AE1
:10471000136843F48073136001F01AFE0546254BBD
:104720001B6813F4807F06D101F012FE401B642841
:10473000F5D9032016E1A368012B0AD00BBB1C4B53
:104740001A6F22F001021A671A6F22F004021A6728
:1047500004E0174A136F43F001031367A3685BB3C8
:1047600001F0F6FD0546124B1B6F13F0020FACD1A2
:1047700001F0EEFD401B41F288339842F3D903204B
:10478000F0E0052B09D00A4B1A6F22F001021A67DC
:104790001A6F22F004021A67E0E7054B1A6F42F025
:1047A00004021A671A6F42F001021A67D6E700BFC7
:1047B000004402580048025801F0CAFD0546714BFA
:1047C0001B6F13F0020F80D001F0C2FD401B41F2BD
:1047D00088339842F3D90320C4E06A4A136823F06F
:1047E0008073136001F0B4FD0546664B1B6813F03F
:1047F000007F06D001F0ACFD401B0228F5D9032054
:10480000B0E0604B996A604A0A40A16AE06A41EAF6
:1048100000110A439A62226B013AC2F30802616BEB
:104820000139490289B20A43A16B0139090401F433
:10483000FE010A43E16B0139090601F0FE410A431A
:104840001A63DA6A22F00102DA625A6B6FF3CF025E
:10485000A16C42EAC1025A63DA6A22F00C02216CAE
:104860000A43DA62DA6A22F00202616C0A43DA620F
:10487000DA6A42F48032DA62DA6A42F40032DA62E8
:10488000DA6A42F48022DA62DA6A42F00102DA621B
:104890001A6842F080721A6001F05AFD0446394BE2
:1048A0001B6813F0007F06D101F052FD001B0228A7
:1048B000F5D9032056E0002054E0002052E0314AB0
:1048C000916A106B012B4ED001F00303A26A934250
:1048D0004BD1C1F30511E36A994248D1C0F30802F4
:1048E000236B013B9A4244D1C0F34622636B013BE8
:1048F0009A4240D1C0F30642A36B013B9A423CD19D
:10490000C0F30660E36B013B984238D11D4B5B6BF3
:10491000C3F3CC03A26C9A4201D1002022E0194AD1
:10492000D36A23F00103D36201F012FD054601F0C2
:104930000FFDA842FBD0134A536B6FF3CF03A16C5A
:1049400043EAC1035363D36A43F00103D3620020F7
:1049500008E001207047012004E0012002E001206E
:1049600000E0184638BD0120FCE70120FAE70120ED
:10497000F8E70120F6E70120F4E70120F2E7012043
:10498000F0E700BF004402580CFCFFFF744B1B69AA
:1049900003F03803102B00F0DD80182B0FD0002B14
:1049A00040F0DA806E4B1B6813F0200F00F0D680C9
:1049B0006B4B1B68C3F3C1036A48D8407047684B10
:1049C0009A6A02F00302D3F828C0CCF30510D96A22
:1049D00001F001015B6BC3F3CC0301FB03F307EEB2
:1049E000903AF8EE677A1CF47C7F00F0B880012AD8
:1049F0004AD0022A74D0002A40F08F80584B1B689E
:104A000013F0200F23D056490A68C2F3C102554B58
:104A1000D34007EE103AF8EE476A07EE100AB8EEF8
:104A2000476A86EE867A0B6BC3F3080306EE903A6C
:104A3000F8EE666A9FED4C6A67EE867A76EEA77AA4
:104A4000F7EE006A77EEA67A27EE277A38E007EECF
:104A5000100AF8EE476A9FED456A86EE267A404BCB
:104A60001B6BC3F3080306EE903AF8EE666A9FEDFF
:104A70003E6A67EE867A76EEA77AF7EE006A77EE00
:104A8000A67A27EE277A1BE007EE100AF8EE476AAF
:104A90009FED376A86EE267A314B1B6BC3F3080312
:104AA00006EE903AF8EE666A9FED2F6A67EE867A18
:104AB00076EEA77AF7EE006A77EEA67A27EE277AE7
:104AC000274B1B6BC3F34623013307EE903AF8EEF6
:104AD000677AC7EE276AFCEEE67A17EE900A70470F
:104AE00007EE100AF8EE476A9FED226A86EE267AF4
:104AF0001B4B1B6BC3F3080306EE903AF8EE666A95
:104B00009FED196A67EE867A76EEA77AF7EE006A6D
:104B100077EEA67A27EE277AD2E707EE100AF8EEAC
:104B2000476A9FED136A86EE267A0D4B1B6BC3F323
:104B3000080306EE903AF8EE666A9FED0B6A67EEA0
:104B4000867A76EEA77AF7EE006A77EEA67A27EEF7
:104B5000277AB5E70848704708487047014870470A
:104B6000004402580090D003000000390024744C27
:104B70000024744A0024F44A00127A0000093D001F
:104B8000002800F0328170B50D4604469B4B1B682F
:104B900003F00F038B420BD2984A136823F00F03E4
:104BA0000B431360136803F00F038B4240F01F8127
:104BB000236813F0040F0CD02269914B9B6903F01A
:104BC00070039A4205D98E498B6923F070031A430A
:104BD0008A61236813F0080F0CD06269884BDB6987
:104BE00003F070039A4205D98549CB6923F070031D
:104BF0001A43CA61236813F0100F0CD0A269804BCE
:104C0000DB6903F4E0639A4205D97D49CB6923F45B
:104C1000E0631A43CA61236813F0200F0CD0E269E5
:104C2000774B1B6A03F070039A4205D974490B6AEB
:104C300023F070031A430A62236813F0020F0CD0AA
:104C4000E2686F4B9B6903F00F039A4205D96C49E8
:104C50008B6923F00F031A438A61236813F0010F55
:104C600041D0674A936923F47063A1680B43936151
:104C70006368022B0AD0032B27D0012B2CD0604A6B
:104C8000126812F0040F06D10120ADE0126812F490
:104C9000003F00F0AE805A490A6922F00702134330
:104CA0000B6101F055FB0646554B1B6903F03803B9
:104CB0006268B3EBC20F16D001F04AFB801B41F2D1
:104CC00088339842F0D903208EE04D4A126812F0E2
:104CD000007FE0D1012087E0494A126812F4807F0A
:104CE000D9D1012080E0236813F0020F0CD0E268D4
:104CF000434B9B6903F00F039A4205D240498B69ED
:104D000023F00F031A438A613C4B1B6803F00F0327
:104D1000AB420AD9394A136823F00F032B431360BF
:104D2000136803F00F03AB4265D1236813F0040F3F
:104D30000CD02269324B9B6903F070039A4205D272
:104D40002F498B6923F070031A438A61236813F09B
:104D5000080F0CD062692A4BDB6903F070039A429A
:104D600005D22749CB6923F070031A43CA6123682F
:104D700013F0100F0CD0A269214BDB6903F4E06340
:104D80009A4205D21E49CB6923F4E0631A43CA61F3
:104D9000236813F0200F0CD0E269194B1B6A03F053
:104DA00070039A4205D216490B6A23F070031A4326
:104DB0000A62FFF7EBFD12498B69C3F30323114A23
:104DC000D35C03F01F03D8408B6903F00F03D35C5F
:104DD00003F01F0320FA03F30B4A13600B4B186018
:104DE0000B4B186806F09CFF70BD01207047012036
:104DF000FAE70120F8E70120F6E700BF00200052A3
:104E00000044025878B801080C000020100000206F
:104E10000800002008B5FFF7B9FD0B4A9369C3F3FA
:104E200003230A49CB5C03F01F0320FA03F39269C2
:104E300002F00F02885C00F01F0023FA00F0044A21
:104E40001060044A136008BD0044025878B8010895
:104E50000C0000201000002008B5FFF7DBFF054B19
:104E6000DB69C3F30213044AD35C03F01F03D84089
:104E700008BD00BF0044025878B8010808B5FFF724
:104E8000C9FF054BDB69C3F30223044AD35C03F07B
:104E90001F03D84008BD00BF0044025878B801087D
:104EA0003F230360114B1A6902F0070242609A69BE
:104EB00002F4706282609A6902F00F02C2609A691D
:104EC00002F070020261DA6902F070024261DA698E
:104ED00002F4E06282611B6A03F07003C361044B59
:104EE0001B6803F00F030B60704700BF00440258BB
:104EF00000200052404B9B6A03F00303032B79D040
:104F000070B505460E463C4A136823F08063136073
:104F100001F01EFA0446384B1B6813F0006F06D0F0
:104F200001F016FA031B022BF5D9032070BD324B9A
:104F30009A6A22F47C32296842EA01329A626A68EB
:104F4000013AC2F30802A9680139490289B20A4349
:104F5000E9680139090401F4FE010A4329690139AC
:104F6000090601F0FE410A439A63DA6A22F0C002A0
:104F700069690A43DA62DA6A22F02002A9690A43FF
:104F8000DA62DA6A22F01002DA62DA6B6FF3CF02C9
:104F9000E96942EAC102DA63DA6A42F01002DA62CF
:104FA000C6B9154AD36A43F40023D362124A136880
:104FB00043F08063136001F0CBF904460E4B1B688D
:104FC00013F0006F14D101F0C3F9001B0228F5D9CA
:104FD0000320ABE7012E05D0074AD36A43F4001340
:104FE000D362E3E7044AD36A43F48013D362DDE774
:104FF00000209BE70120704700440258404B9B6A09
:1050000003F00303032B79D070B505460E463C4AE6
:10501000136823F08053136001F09AF90446384B6B
:105020001B6813F0005F06D001F092F9031B022BFE
:10503000F5D9032070BD324B9A6A22F07C72296840
:1050400042EA01529A626A68013AC2F30802A96808
:105050000139490289B20A43E9680139090401F4B6
:10506000FE010A4329690139090601F0FE410A439C
:105070001A64DA6A22F4406269690A43DA62DA6A17
:1050800022F40072A9690A43DA62DA6A22F48072B1
:10509000DA625A6C6FF3CF02E96942EAC1025A64DC
:1050A000DA6A42F48072DA62C6B9154AD36A43F406
:1050B0008003D362124A136843F08053136001F0F7
:1050C00047F904460E4B1B6813F0005F14D101F042
:1050D0003FF9001B0228F5D90320ABE7012E05D0CC
:1050E000074AD36A43F08073D362E3E7044AD36A82
:1050F00043F40003D362DDE700209BE70120704703
:1051000000440258F8B50446036813F0006F30D02D
:10511000836EB3F5001F26D00ED8ABB1B3F5801F58
:1051200007D102210830FFF7E5FE054695B12E466E
:1051300021E0012635461EE0B3F5401F01D10025D0
:1051400008E00126354616E09B4AD36A43F4003353
:10515000D3620025984A136D23F44013A16E0B43CC
:105160001365002607E002212830FFF747FF0546B8
:10517000DCE700263546236813F4807F1BD0A36D3F
:10518000022B30D00CD843B3012B06D1002104F1FF
:105190000800FFF7AFFE054605E0012635460AE0A8
:1051A000033B012B26D845BB834A136D23F007032D
:1051B000A16D0B431365236813F4007F37D0E36DB3
:1051C000802B49D01ED82BB3402B18D1002104F1DD
:1051D0000800FFF78FFE054621E0774AD36A43F4C3
:1051E0000033D362DFE7002104F12800FFF706FF58
:1051F0000546D8E701263546DDE72E46DBE70126E2
:10520000354614E0C02B0AD0B3F5807F07D00126C5
:1052100035460CE0684AD36A43F40033D36215BBC9
:10522000654A136D23F4E073E16D0B431365236846
:1052300013F4806F3CD0D4F8A830B3F5800F2FD092
:1052400016D8F3B1B3F5001F0FD1002104F1080007
:10525000FFF750FE054619E0002104F12800FFF792
:10526000CDFE0546DBE72E46E1E7012635461FE089
:10527000B3F5C00F0AD0B3F5000F07D001263546AD
:1052800016E04D4AD36A43F40033D3627DB94A4AEB
:10529000936D23F46003D4F8A8100B43936507E0E3
:1052A000002104F12800FFF7A9FE0546EEE72E468F
:1052B000236813F4006F2BD0D4F8AC30B3F1007F27
:1052C00053D00DD8ABB1B3F1807F06D1002104F1EA
:1052D0000800FFF70FFE054610E00126354617E0EF
:1052E000B3F1407F0AD0B3F1806F07D00126354675
:1052F0000EE0314AD36A43F40033D362002D3BD130
:105300002D4A936D23F0E063D4F8AC100B43936502
:10531000236813F0007F13D0E36C202B36D030D8F5
:1053200033B1102B2AD1244AD36A43F40033D36219
:105330009DBB214AD36C23F03003E16C0B43D36453
:10534000236813F4805F47D0236EB3F5005F00F04D
:105350008E8027D893B3B3F5805F20D1002104F16C
:105360000800FFF7C7FD05462DE0002104F12800E5
:10537000FFF744FE0546C1E72E46C9E7012635463C
:10538000DEE7302BD4D001263546D9E7022104F1DF
:105390000800FFF7AFFD0546CAE72E46D0E7012615
:1053A000354619E0B3F5405F0DD0B3F5804F0AD014
:1053B0000126354610E000BF00440258484AD36A2F
:1053C00043F40033D362002D58D1454A136D23F4C2
:1053D000E043216E0B431365236813F4005F17D07D
:1053E000636EB3F5003F5AD04DD843B1B3F5803F5B
:1053F00046D1012104F10800FFF77CFD0546002D90
:1054000054D1374A136D23F4E023616E0B431365C7
:10541000236813F4804F19D0D4F8B030B3F1005F93
:1054200055D048D843B1B3F1805F41D1012104F197
:105430000800FFF75FFD0546002D4FD1284A936D08
:1054400023F0E043D4F8B0100B439365236813F4C2
:10545000004F56D0236FB3F1805F43D0B3F1005FAC
:1054600000F07A81002B42D00126354649E0002128
:1054700004F12800FFF7C2FD0546A4E72E46ABE77E
:1054800001263546C4E7B3F5802FB8D0B3F5A02F79
:10549000B5D0B3F5403FB2D001263546B8E701217B
:1054A00004F12800FFF7AAFD0546A8E72E46AFE75E
:1054B00001263546CAE7B3F1804FBDD0B3F1A04F06
:1054C000BAD0B3F1405FB7D001263546BEE701211F
:1054D00004F12800FFF792FD0546ADE72E46B5E73B
:1054E00000440258AA4AD36A43F40033D362002D21
:1054F00040F03981A64A136D23F04053216F0B43CE
:105500001365236813F0807F18D0A36C022B00F082
:10551000358100F22D813BB1012B40F026819C4A60
:10552000D36A43F40033D362002D40F02E81984AB1
:10553000D36C23F00303A16C0B43D364236813F4EF
:10554000800F40F02781236813F0010F19D0E36F1B
:10555000102B00F0928100F2848143B1082B40F0BF
:105560007D81012104F10800FFF7C4FC0546002DF0
:1055700040F08A81864A536D23F03803E16F0B4374
:105580005365236813F0020F19D0A36F022B00F0AC
:10559000878100F27E8143B1012B40F077810121A8
:1055A00004F10800FFF7A6FC0546002D40F07F81BE
:1055B000774A536D23F00703A16F0B4353652368AC
:1055C00013F0040F1BD0D4F89430022B00F07B8131
:1055D00000F2728143B1012B40F06B81012104F193
:1055E0000800FFF787FC0546002D40F07381684AEC
:1055F000936D23F00703D4F894100B43936523684D
:1056000013F0200F1DD0D4F89030B3F1005F00F0FC
:10561000758100F264814BB1B3F1805F40F05C8131
:10562000002104F10800FFF765FC0546002D40F05D
:105630006C81574A536D23F0E043D4F890100B432C
:105640005365236813F0400F1DD0D4F89C30B3F598
:10565000006F00F06E8100F25D814BB1B3F5806F99
:1056600040F05581002104F10800FFF743FC054696
:10567000002D40F06581464A936D23F4E053D4F841
:105680009C100B439365236813F0800F1DD0D4F852
:10569000A030B3F5804F00F0678100F256814BB126
:1056A000B3F5005F40F04E81002104F10800FFF7E0
:1056B00021FC0546002D40F05E81354A936D23F4B0
:1056C0006043D4F8A0100B439365236813F0080FD0
:1056D0000DD0D4F88430B3F5805F00F04E812C4AB1
:1056E000536D23F44053D4F884100B43536523685F
:1056F00013F0100F0DD0D4F89830B3F5807F00F080
:105700004681234A936D23F44073D4F898100B43D9
:105710009365236813F4002F00F04E81D4F8A43071
:10572000B3F5803F00F03D81B3F5003F08D0002B7A
:1057300040F03E81194604F10800FFF7DBFB054607
:10574000002D40F03881124A936D23F44033D4F891
:10575000A4100B4393652FE1012104F10800FFF72A
:10576000C9FB0546C3E62E46CBE601263546E5E6EF
:10577000032B3FF4D9AE01263546DFE6022104F1C2
:105780000800FFF7B7FB0546CEE62E46D6E600BF7B
:1057900000440258AD4A136843F48073136000F06C
:1057A000D7FD0746A94B1B6813F4807F05D100F095
:1057B000CFFDC01B6428F5D90325002D4AD1A44B89
:1057C0001B6FD4F8B420534013F4407F0CD0A04B8F
:1057D0001A6F22F44072196F41F480311967196F02
:1057E00021F4803119671A67D4F8B430B3F5807F9B
:1057F00015D08DBBD4F8B43003F44072B2F5407FBD
:105800001ED0934A136923F47C53136190490B6FA4
:10581000D4F8B420C2F30B0213430B6793E600F0F5
:1058200097FD07468A4B1B6F13F0020FE1D100F082
:105830008FFDC01B41F288339842F3D90325D8E786
:105840008348026922F47C52824901EA131313430C
:105850000361DBE72E4676E62E4674E601263546E2
:105860008FE6202B3FF483AE282B3FF480AE182B1D
:105870003FF47DAE0126354683E6012104F1280080
:10588000FFF7BCFB054672E62E467AE60126354652
:1058900095E6033B022B7FF688AE012635468EE661
:1058A000012104F12800FFF7A9FB05467DE62E46FD
:1058B00085E601263546A2E6033B022B7FF694AE31
:1058C000012635469BE6012104F12800FFF796FBEF
:1058D000054689E62E4692E601263546B1E6B3F145
:1058E000804F3FF4A3AEB3F1A04F3FF49FAEB3F1AE
:1058F000405F3FF49BAE01263546A2E6022104F14B
:105900002800FFF77BFB054690E62E4699E6012628
:105910003546B8E6B3F5805F3FF4AAAEB3F5A05FB5
:105920003FF4A6AEB3F5406F3FF4A2AE0126354674
:10593000A9E6022104F12800FFF760FB054697E67F
:105940002E46A0E601263546BFE6B3F5004F3FF4EC
:10595000B1AEB3F5204F3FF4ADAEB3F5C04F3FF459
:10596000A9AE01263546B0E6022104F12800FFF772
:1059700045FB05469EE62E46A7E6022104F12800D7
:10598000FFF73CFB00283FF4AAAE0126A7E6022160
:1059900004F12800FFF732FB00283FF4B2AE0126E5
:1059A000AFE6022104F12800FFF728FB0546C7E611
:1059B0000126354600E02E46236813F4802F18D0C8
:1059C000D4F88830B3F5001F1FD0B3F5401F07D0BF
:1059D000B3F5801F20D11E4AD36A43F40033D3624B
:1059E000EDB91B4A536D23F44013D4F888100B43D0
:1059F0005365236813F4803F2FD0236D8BB1B3F52B
:105A0000803F1CD00126354627E0012104F1280003
:105A1000FFF7F4FA0546E3E701263546E9E72E46A7
:105A2000E7E70B4AD36A43F40033D362A5B9084AC7
:105A3000D36C23F48033216D0B43D3640DE002213A
:105A400004F10800FFF756FA0546EFE70048025850
:105A500000440258CFFFFF002E46236813F0005F7A
:105A600011D1236813F4003F28D0D4F88030B3F567
:105A7000807F14D010D9B3F5007F15D0B3F5407FE7
:105A800012D001261AE0022104F12800FFF7B6FA2D
:105A90000028E6D00126E4E733B101260EE0544A9F
:105AA000D36A43F40033D362002D69D1504A536D59
:105AB00023F44073D4F880100B435365236813F428
:105AC000801F06D04A4A136D23F00043616F0B43D9
:105AD0001365236813F0805F07D0454A136923F4E8
