:020000040800F2
:1000000000000220B94F0108810C0008830C000891
:10001000850C0008870C0008890C0008000000000F
:1000200000000000000000000000000051B00008C7
:100030008B0C000800000000F1B00008FDA50008CE
:100040000D5001080D5001080D5001080D50010818
:100050000D5001080D5001080D5001080D50010808
:100060000D5001080D5001080D5001080D500108F8
:100070000D5001080D5001080D5001080D500108E8
:100080000D5001080D5001080D5001080D500108D8
:100090000D5001080D5001080D5001080D500108C8
:1000A0000D5001088D0C00080D5001080D5001087D
:1000B0000D5001080D5001080D5001080D500108A8
:1000C0000D5001080D5001080D5001080D50010898
:1000D0000D5001080D5001080D5001080D50010888
:1000E0000D5001080D500108000000000D500108DE
:1000F0000D5001080D5001080D5001080D50010868
:100100000D5001080D5001080D5001080D50010857
:100110000D5001080D5001080D5001080D50010847
:100120000D5001080D5001080D5001080D50010837
:100130000D5001080D5001080D5001080D50010827
:1001400000000000000000000000000000000000AF
:100150000D5001080D5001080D5001080D50010807
:100160000D5001080D5001080D5001080D500108F7
:100170000D5001080D5001080D500108000000004D
:100180000D5001080D5001080D5001080D500108D7
:100190000D5001080D5001080D5001080D500108C7
:1001A0000D5001080D5001080D5001080D500108B7
:1001B0000D5001080D5001080D5001080D500108A7
:1001C0000D5001080D5001080D5001080D50010897
:1001D0000D5001080D5001080D5001080D50010887
:1001E0000D5001080D5001080D5001080D50010877
:1001F0000D5001080D5001080D5001080D50010867
:100200000D5001080D5001080D5001080D50010856
:100210000D5001080D5001080D5001080D50010846
:100220000D5001080D5001080D500108000000009C
:100230000D5001080D500108000000000D5001088C
:100240000D5001080D5001080D5001080D50010816
:100250000D5001080D5001080D5001080D50010806
:100260000D5001080D5001080D5001080D500108F6
:100270000D5001080D5001080D500108000000004C
:100280000D5001080D5001080D500108000000003C
:08029000000000000D50010800
:1002A00010F8012B11F8013B012A28BF9A42F7D020
:1002B000D01A7047034613F8012B002AFBD1181AF5
:1002C000013870470000000000000000000000003E
:1002D00001F0FF01102A2BDB10F0070F08D010F8F7
:1002E000013B013A8B422DD010F0070F42B3F6D1FB
:1002F000F0B441EA012141EA014122F007047FF014
:1003000000070023F0E80256083C85EA010586EA6A
:10031000010685FA47F5A3FA87F586FA47F6A5FAA6
:1003200087F68EB9EED1F0BC01F0FF0102F00702B2
:1003300032B110F8013B013A83EA010313B1F8D15D
:100340000020704701387047002D06BF354603383E
:10035000073815F0010F07D1013015F4807F02BF77
:10036000013015F4C03F0130F0BC0138704700BFC8
:1003700053B94AB9002908BF00281CBF4FF0FF310C
:100380004FF0FF3000F00CB8ADF1080C6DE904CE71
:1003900016F05CFEDDF804E0DDE9022304B07047EE
:1003A000704700BF0348044B834202D0034B03B1A4
:1003B00018477047800000208000002000000000E7
:1003C0000548064B1B1AD90F01EBA301491002D0B7
:1003D000034B03B1184770478000002080000020C5
:1003E0000000000010B5064C237843B9FFF7DAFF90
:1003F000044B13B10448AFF300800123237010BDF8
:1004000080000020000000006C73010808B5054B57
:100410001BB105490548AFF30080BDE80840FFF770
:10042000CFBF00BF00000000840000206C730108F3
:1004300030B585B00024009401940294039403F035
:100440007BFA01238DF800308DF8014001941F22C2
:100450008DF8082087228DF809208DF80A408DF844
:100460000B408DF80C308DF80D308DF80E408DF866
:100470000F40684603F07EFA042003F06BFA05B0E3
:1004800030BD000010B582B004468DF807004FF073
:10049000FF3301220DF10701024807F04AFE204612
:1004A00002B010BD7801002008B50268034B9A42E3
:1004B00000D008BD05F0B4FAFBE700BF0000014022
:1004C00072B6FEE700B59DB04C22002109A815F0D8
:1004D0005AFA2022002101A815F055FA022005F051
:1004E00045FA00230093244BDA6A22F00102DA6213
:1004F000DB6A03F001030093204B9A6942F4404207
:100500009A619B6903F440430093009B1B4B9B69DA
:1005100013F4005FFAD0012209924FF480330A935A
:1005200002231293139314926422159216930422B9
:10053000179218930C23199300231A931B9309A85D
:1005400003F044FAA0B93F230193032302930390DD
:10055000082304934023059306934FF48062079287
:100560000893022101A803F085FE18B91DB000BD53
:10057000FFF7A6FFFFF7A4FF000400580048025849
:1005800000B583B0FFF754FF05F01AFAFFF79AFFA2
:1005900000F060F800F01EFA00F05CFA00F0F0FAEB
:1005A00014F038F8234B186800230222194680689B
:1005B00014F0A0FF204814F095FF03F061FD0646FB
:1005C00003F0A2FF054603F0C1FF044603F0D0FF8D
:1005D000009023462A463146184814F01BFF03F0CA
:1005E0001BF920B1164814F07DFFFFF769FF15488D
:1005F00014F078FF4FF4486002F035FA20B1124849
:1006000014F070FFFFF75CFF4FF448610F4814F0DF
:1006100001FF02F013FE40B902F030F809F0FAFFD2
:1006200000F04AF90AF022F8FEE7094814F05AFFF0
:10063000F2E700BF30000020DC730108F47301080A
:1006400034740108547401088C740108B4740108EE
:10065000EC7401082DE9F04F8FB009AD0024099426
:100660000A940B940C940D946A4BD3F8E02042F05A
:100670000402C3F8E020D3F8E02002F00402019263
:10068000019AD3F8E02042F02002C3F8E020D3F82A
:10069000E02002F020020292029AD3F8E02042F019
:1006A0008002C3F8E020D3F8E02002F08002039239
:1006B000039AD3F8E02042F00102C3F8E020D3F817
:1006C000E02002F001020492049AD3F8E02042F004
:1006D0004002C3F8E020D3F8E02002F04002059287
:1006E000059AD3F8E02042F01002C3F8E020D3F8D6
:1006F000E02002F010020692069AD3F8E02042F0C1
:100700000202C3F8E020D3F8E02002F002020792D0
:10071000079AD3F8E02042F00802C3F8E020D3F8AB
:10072000E03003F008030893089BDFF8F8A00122EB
:100730001021504605F00AF9DFF8EC9022464821D6
:10074000484605F003F9DFF8E4802246E021404600
:1007500005F0FCF8224603212F4805F0F7F84FF08A
:10076000100BCDF824B001260A960B9403270C97A2
:100770002946504604F0CAFF4BF6C06309930A9419
:100780000B942946254804F0C1FF4FF45073099398
:100790000A940B942946224804F0B8FF4FF4807362
:1007A00009930A940B942946504604F0AFFF0423A2
:1007B00009930A940B962946484604F0A7FF48235C
:1007C00009930A960B940C972946484604F09EFF1D
:1007D000182309930A940B942946404604F096FF87
:1007E000E02309930A960B940C972946404604F09F
:1007F0008DFF09970A960B940C942946064804F03D
:1008000085FF584605F042F9202005F03FF90FB06A
:10081000BDE8F08F0044025800100258001802583A
:100820000008025800000258000C02580004025848
:10083000F8B50BF051F91B4814F054FE02F038F8EB
:10084000002635461FE0204602F0F4FB30BB01F0E5
:1008500021FF02F077FDA31BB3F57A7F10D3124E70
:100860000121304605F078F80221304605F074F891
:100870006F1C224629460D4814F0CCFD26463D4605
:10088000012009F0C2FF05F0D7F8044602F0C2F9D2
:100890000028D8D0064814F025FED4E7054814F007
:1008A00021FED4E710750108001002588475010874
:1008B0002C7501085875010808B5044A0021044840
:1008C00009F03DFF034B186008BD00BFE4A8010814
:1008D000310800089C000020F0B5B9B00023339324
:1008E0003493359336933793334B1B680BB139B040
:1008F000F0BD314B01221A6002ACC022002120461B
:1009000015F041F84FF080720023CDE90223204614
:1009100003F072FF00284BD1284BD3F8D42042F4C7
:100920008052C3F8D420D3F8D43003F48053019319
:10093000019B4FF23F0333930227349700263596ED
:10094000032536950C23379333AC21461C4804F01D
:10095000DDFE3F2333933497359636950C2337933A
:100960002146184804F0D2FE4FF680733393349733
:10097000359636950C2337932146134804F0C6FE6E
:100980004FF6337333933497359636950C2337935C
:1009900021460E4804F0BAFE8023339334973596EF
:1009A0003695092337932146094804F0AFFE9EE7A8
:1009B000FFF786FDB0E700BFA0000020004402580A
:1009C000001402580018025800100258000C025877
:1009D0000008025800B589B001A9002201924A60BE
:1009E0008A60CA600A614A618A611648164B0360D0
:1009F00003F5827343608260C26002614FF0100CA5
:100A0000C0F814C08261C261026242628262C26244
:100A1000026342638263C26302640F230193029301
:100A20004FF03C0ECDF80CE00493CDF814C0112328
:100A3000069306F0B1F808B909B000BDFFF740FD14
:100A4000FAE700BFA40000200040005208B5FFF7FD
:100A500043FF08BD08B51548154B03604FF48003EC
:100A60004360002383600722C26003614FF08072FD
:100A700042614FF0806282614FF08052C261036236
:100A800043628362C3624FF0804242638363C36305
:100A9000036443648364C36403654365836506F04C
:100AA0003FF900B908BDFFF70BFDFBE7F0000020A0
:100AB0000030014070B5BAB004460021359136913E
:100AC000379138913991C02204A814F05CFF226854
:100AD000274B9A4201D03AB070BD4FF480520023A8
:100AE000CDE9042304A803F087FE00283CD1214B64
:100AF000D3F8F02042F48052C3F8F020D3F8F0206D
:100B000002F480520192019AD3F8E02042F00102EF
:100B1000C3F8E020D3F8E02002F001020292029A2A
:100B2000D3F8E02042F00802C3F8E020D3F8E03028
:100B300003F008030393039B602335930225369546
:100B40000024379438940526399635A90A4804F0CC
:100B5000DDFD80233593369537943894399635A941
:100B6000064804F0D3FDB6E7FFF7AAFCBFE700BFD5
:100B7000003001400044025800000258000C0258A6
:100B800008B51748174B03604FF4E1334360002367
:100B90008360C36003610C2242618361C3610362AD
:100BA0004362836207F031FC70B900210C4807F002
:100BB000A8FC60B900210A4807F0C8FC50B90848F1
:100BC00007F080FC48B908BDFFF77AFCEDE7FFF7B6
:100BD00077FCEFE7FFF774FCF1E7FFF771FCF2E752
:100BE000780100200010014010B5B8B00446002183
:100BF00033913491359136913791C02202A814F087
:100C0000C2FE22681B4B9A4201D038B010BD0122AF
:100C10000023CDE9022302A803F0EEFD38BB164BFA
:100C2000D3F8F02042F01002C3F8F020D3F8F020FF
:100C300002F010020092009AD3F8E02042F0010284
:100C4000C3F8E020D3F8E03003F001030193019BE7
:100C50004FF4C063339302233493002335933693C8
:100C60000723379333A9054804F050FDCDE7FFF77C
:100C700027FCD4E70010014000440258000002584D
:100C8000FEE7FEE7FEE7FEE7FEE7704708B502482D
:100C900006F004FD08BD00BFF84D002000B583B08C
:100CA0000A4BD3F8F42042F00202C3F8F420D3F840
:100CB000F43003F002030193019B00220F216FF037
:100CC000010002F025FE03B000BD00BF0044025841
:100CD00000B58DB000230793089309930A930B93F3
:100CE0000268384B9A4201D00DB000BD364BD3F8A4
:100CF000D82042F40042C3F8D820D3F8D82002F418
:100D000000420192019AD3F8D82042F48032C3F80D
:100D1000D820D3F8D82002F480320292029AD3F875
:100D2000D82042F40032C3F8D820D3F8D82002F4F7
:100D300000320392039AD3F8E02042F00102C3F894
:100D4000E020D3F8E02002F001020492049AD3F8E4
:100D5000E02042F00202C3F8E020D3F8E02002F0E5
:100D600002020592059AD3F8E02042F00402C3F88B
:100D7000E020D3F8E03003F004030693069B8623BB
:100D800007930223089303230A930B230B9307A9CA
:100D90000E4804F0BBFC3223079307A90C4804F06B
:100DA000B5FC4FF46053079307A90A4804F0AEFC62
:100DB000002205213D2002F0ABFD3D2002F0B8FDF0
:100DC00092E700BF00800240004402580000025831
:100DD00000080258000402582DE9F04180460F46F1
:100DE00016461D460A4C2C220021204614F0CBFD4D
:100DF0000123237084F80180A770E570A680BDF8F8
:100E00001830E38004F018FEA060BDE8F08100BF58
:100E10000C02002008B52C220021024814F0B3FD7A
:100E200008BD00BF0C02002010B504468446DFF860
:100E300020E0BEE80F00ACE80F00BEE80F00ACE811
:100E40000F009EE807008CE80700204610BD00BF99
:100E50000C020020022805D0032805D0012805D166
:100E6000034870470348704703487047034870477A
:100E7000B0750108B4750108B8750108C07501089E
:100E800000B308B50146104B1B782BB10E4BDA6846
:100E90000132DA601B7C03B108BD0B4801230374E7
:100EA0004B68436182689B1A83610B68C3610B7A4C
:100EB00080F820304A7A80F821200A31223014F05C
:100EC00014FEE9E7704700BF0C020020002818BF9D
:100ED000002A04D008B503461046984708BD70475D
:100EE00000E0013010B10378202BFAD070470000E9
:100EF00038B504460D463E4AFFF7E8FF3D4A29460D
:100F00002046FFF7E3FF3C4A29462046FFF7DEFF75
:100F10003A4A29462046FFF7D9FF394A2946204652
:100F2000FFF7D4FF374A29462046FFF7CFFF364A5E
:100F300029462046FFF7CAFF344A29462046FFF7D4
:100F4000C5FF334A29462046FFF7C0FF314A2946EC
:100F50002046FFF7BBFF304A29462046FFF7B6FF81
:100F60002E4A29462046FFF7B1FF2D4A2946204642
:100F7000FFF7ACFF2B4A29462046FFF7A7FF2A4A76
:100F800029462046FFF7A2FF284A29462046FFF7B8
:100F90009DFF274A29462046FFF798FF254A294604
:100FA0002046FFF793FF244A29462046FFF78EFF8D
:100FB000224A29462046FFF789FF214A2946204632
:100FC000FFF784FF1F4A29462046FFF77FFF1E4A8E
:100FD00029462046FFF77AFF1C4A29462046FFF79C
:100FE00075FF1B4A29462046FFF770FF38BD00BF3A
:100FF000C8750108D8750108E4750108F075010885
:101000000076010814760108487601087C7601080C
:10101000D0760108E0760108F0760108287701080B
:1010200064770108A0770108B0770108D07701083C
:101030000078010818780108307801086478010800
:1010400074780108A4780108B4780108C47801080C
:10105000D878010870B506460D46144601F0B8FE72
:1010600029460144091B01F5FA73B3F57A7F01D9CA
:10107000012070BD09B2304601F06AFEF9E738B5CB
:1010800005460C4601F0CEFF2146284601F0C2FC81
:1010900038BD2DE9F04182B005460C46884617461A
:1010A0001E4601F0BFFF33463A462146284601F06E
:1010B0004DFD044618B1204602B0BDE8F08103465C
:1010C0000090424629460120FFF786FEF3E72DE90E
:1010D000F04182B005460C46884617461E4601F090
:1010E000A1FF33463A462146284601F038FD044622
:1010F00018B1204602B0BDE8F08103460090424698
:1011000029460220FFF768FEF3E72DE9F04182B09F
:1011100007460E4615461C46984601F083FFBDF86B
:1011200024300193089B009323462A4631463846D3
:1011300001F03CFD044618B1204602B0BDE8F08144
:10114000CDF800802B46324639460320FFF744FE97
:10115000F2E70CB470B5B2B006460D4636AB53F8A4
:10116000042B019302ACC021204614F043FB22461D
:1011700029463046FFF7AAFE32B0BDE8704002B003
:10118000704700002DE9F04393B0074688460DA84C
:1011900001F0B8FF01F052FE04469DF835509DF86D
:1011A000340001F0C1FF9DF83630BDF844200492B0
:1011B000109A039202930190009523461F4A4146DC
:1011C0003846FFF7C6FF012424E0DFF87C90204674
:1011D00001F00AFE0546204601F0FAFD06469DF89C
:1011E000240001F03DFEBDF82630BDF82820BDF8F2
:1011F000301007910B990691059204930390029683
:10120000019500944B460E4A41463846FFF7A1FF30
:101210000134E4B20D2C08D8214609A801F0F0FDF4
:10122000012CD2D0DFF82490D1E7064A4146384657
:10123000FFF74CFE13B0BDE8F08300BF4C79010806
:10124000C0790108347A01089C77010848790108BF
:1012500000B583B033B9044B0092044AFFF779FF1D
:1012600003B000BD024BF7E73C7A01084C7A010855
:10127000447A010870B588B005460E4601F0DEFDDF
:101280000346234A31462846FFF763FF012410E056
:10129000204601F09DFD03461E4A31462846FFF7D1
:1012A00058FF1BE01C4A31462846FFF70FFE013469
:1012B000E4B20D2C2AD8214604A801F0A1FD204655
:1012C00001F092FD00902346144A31462846FFF76C
:1012D00040FF204601F07CFD0028D9D19DF8100088
:1012E0000028DFD001F0BCFD0346BDF81220BDF898
:1012F0001410BDF81C000390069802900191009212
:10130000074A31462846FFF724FFCBE708B070BDF7
:10131000647A0108947A0108CC770108847A01087C
:10132000A07A010870B58AB006460D4605A801F0FE
:10133000E9FE9DF815409DF8140001F0F5FE9DF8BA
:101340001630BDF824200392089A0292019300906F
:101350002346034A29463046FFF7FBFE0AB070BD1C
:10136000E07A010870B582B006460D460A4AFFF7DA
:10137000ADFD01240BE0204601F02AFD009023463C
:10138000064A29463046FFF7E4FE0134E4B20D2C4C
:10139000F1D902B070BD00BF1C7B0108287B010899
:1013A00000B583B03BB9054B00931346044AFFF7E1
:1013B000D0FE03B000BD034BF6E700BF008B010871
:1013C000447B0108407B010830B589B005460B46D7
:1013D000054A2021684614F041F96946284614F070
:1013E000FAFA09B030BD00BF547B010810B51446AD
:1013F000FFF7EAFF002C18BF002810D03A2114F0A4
:10140000CAFA58B101300378202B01D10130FAE734
:101410000A22002113F0B6FE2060012010BD00203A
:10142000FCE738B514461D46FFF7CEFF002C18BF69
:10143000002828D04DB33A2114F0ADFA014618B374
:10144000013100E0013108782028FBD022281ED18C
:1014500001314FF0000C04E0013104F80C000CF1F4
:10146000010C0878002818BF222802D06B1E6345A3
:10147000F2D8002304F80C300B78222B01D0002086
:1014800002E0012000E0002038BD2846FCE70020F3
:10149000FAE710B5044601F0C5FD204601F0C7FA91
:1014A00010BD0000F0B593B005460E4609A801F046
:1014B000DFFF0D9B9DF83C209DF83D700E99079134
:1014C00006970592049303930C9B02930B9B019345
:1014D0000A9B00939DF82430104A31462846FFF7B6
:1014E00038FE00240DE00E4B04F148026A4412F865
:1014F0000A2C00920B4A31462846FFF72AFE013497
:10150000E4B2A74203D9002CEDD0074BECE7074A21
:1015100031462846FFF7DAFC13B0F0BD5C7B0108CA
:101520009C770108F87B010848790108007C0108D4
:10153000F0B591B006460F4607A801F099FF9DF857
:1015400035500C9B059304950B9B03930A9B0293C8
:10155000099B0193089B00939DF81C30114A394662
:101560003046FFF7F6FD002408E00F4A00920F4ACC
:1015700039463046FFF7EDFD0134E4B2A54209D902
:1015800004F140036B4413F80A3C621CAA42ECD0FD
:10159000074AEBE7074A39463046FFF797FC11B098
:1015A000F0BD00BF087C01089C770108647C01083D
:1015B0005C820108CC770108F0B59DB005460E4667
:1015C00011A8FFF731FC9DF844300F939DF84500BA
:1015D000FFF740FC9DF84620BDF848109DF847C035
:1015E000BDF84AE09DF854309DF864409DF8657060
:1015F0000D970C94189C0B940A94179C0994169CB4
:1016000008940793149B0693CDF814E0CDF810C00E
:1016100003910292139B019300900F9B104A314655
:101620002846FFF796FD00240DE00E4B04F17002F2
:101630006A4412F80A2C00920B4A31462846FFF7FA
:1016400088FD0134E4B2A74203D9002CEDD0074B4A
:10165000ECE7074A31462846FFF738FC1DB0F0BDDD
:101660006C7C01089C770108F87B01084879010827
:10167000007C0108F0B595B005460E4609A8FFF7B5
:10168000D3FB9DF824709DF82500FFF7E3FB9DF840
:1016900026C0BDF828209DF82710BDF82AE09DF847
:1016A000344007940C9B0693CDF814E00491039208
:1016B000CDF808C00B9B019300903B46194A314678
:1016C0002846FFF746FD34B9174A31462846FFF74A
:1016D000FDFB15B0F0BD9DF844309DF845700397B3
:1016E0000293109B01930F9B00930E9B0F4A314670
:1016F0002846FFF72EFD002408E00D4A00920D4A0F
:1017000031462846FFF725FD0134E4B2A742DBD974
:1017100004F150036B4413F80A3C621CBA42ECD04B
:10172000054AEBE7987D0108CC770108007E0108A7
:101730009C770108647C01085C82010810B514469E
:10174000FFF742FE002C18BF002810D03A2114F0F9
:1017500022F958B101300378202B01D10130FAE78A
:101760000A22002113F088FD2060012010BD002016
:10177000FCE700B583B0019201AAFFF7DFFF0198F3
:1017800003B000BD2DE9F04198B004460E4617465F
:10179000102314AAA049FFF744FE00282AD09F492D
:1017A00014A8FEF77DFD00282AD09D4914A8FEF755
:1017B00077FD50B39B4914A8FEF772FD58B39A49C0
:1017C00014A8FEF76DFD002839D0984914A8FEF73B
:1017D00067FD28B1964914A8FEF762FD002865D17F
:1017E0000FAA94492046FFF7A9FF002841D1012301
:1017F0001C461BE0904A39463046FFF767FB1BE06A
:1018000039463046FFF7BEFC16E08C4A3946304672
:10181000FFF75CFB10E04FF4486289492046FFF770
:10182000A8FF0E9080B2FFF734FE0446234614AAA8
:1018300039463046FFF70CFD18B0BDE8F0810FAA1D
:101840007C492046FFF77AFF10B901231C46EDE7DB
:101850000EAA7B492046FFF771FF10B901231C46F1
:10186000E4E7BDF838109DF83C00FFF708FC04469B
:10187000DCE741F2941272492046FFF77AFF0E909E
:10188000642270492046FFF774FF054640F6B832DF
:101890006D492046FFF76DFF83B22A46BDF8381028
:1018A0009DF83C00FFF7F5FB0446BFE7674914A825
:1018B000FEF7F6FC20B1664914A8FEF7F1FC28BB40
:1018C0000FAA5C492046FFF739FF10B901231C46D7
:1018D000ACE74FF47A725A492046FFF74AFF0E9060
:1018E000642258492046FFF744FF054640F6B832C7
:1018F00055492046FFF73DFF83B22A46BDF8381010
:101900009DF83C00FFF7E3FB04468FE7514914A81C
:10191000FEF7C6FC002840D04F4914A8FEF7C0FCD3
:10192000002800F0AF804D4914A8FEF7B9FC00284C
:1019300000F049814A4914A8FEF7B2FC002800F0E3
:101940004781484914A8FEF7ABFC002800F00A8242
:10195000454914A8FEF7A4FC002800F0548243492E
:1019600014A8FEF79DFC002800F0B782404914A897
:10197000FEF796FC002840F0D58201F053FB0FAA39
:101980002C492046FFF7DAFE002800F0C7829DF8B8
:101990003C0001F0EDF8044648E705AA3549204629
:1019A000FFF7CCFE10B901231C463FE706AA3249D7
:1019B0002046FFF7C3FE10B901231C4636E708AAEC
:1019C0002E492046FFF7BAFE10B901231C462DE729
:1019D0000AAA2B492046FFF7B1FE10B901231C4685
:1019E00024E7642217492046FFF7C3FE054640F668
:1019F000B83215492046FFF7BCFE80B20190009531
:101A0000BDF828309DF82020BDF818109DF814006E
:101A1000FFF77BFB044609E7347E01086482010876
:101A2000607E0108E07E0108E87E0108EC7E010886
:101A3000F07E0108507F0108387E0108687E0108A9
:101A40005C7F0108007F01080C7F01081C7F0108F2
:101A5000207F0108307F0108607F0108BC7F0108FA
:101A6000C87F010830800108488001086C800108A7
:101A700070820108387F0108447F01084C7F01080B
:101A8000587F0108102310AA9F492046FFF7C9FC80
:101A9000002800F04D829D4910A8FEF701FCA0B17E
:101AA0009B4910A8FEF7FCFB00283AD0994910A8E2
:101AB000FEF7F6FB002860D0974910A8FEF7F0FB70
:101AC00000287BD001231C46B0E60FAA934920468C
:101AD000FFF734FE10B901231C46A7E608AA904977
:101AE0002046FFF72BFE10B901231C469EE60AAAEA
:101AF0008C492046FFF722FE10B901231C4695E6CB
:101B00004FF47A7288492046FFF733FE0346BDF84A
:101B10002820BDF820109DF83C0001F0D9F90446BA
:101B200084E60FAA7D492046FFF708FE10B901237D
:101B30001C467BE608AA7D492046FFF7FFFD10B949
:101B400001231C4672E60AAA79492046FFF7F6FDF2
:101B500010B901231C4669E64FF47A727249204697
:101B6000FFF707FE0346BDF82820BDF820109DF8BA
:101B70003C0001F0DDF9044658E608AA6B4920460E
:101B8000FFF7DCFD10B901231C464FE60AAA68499D
:101B90002046FFF7D3FD10B901231C4646E64FF45B
:101BA0007A7261492046FFF7E4FD0246BDF828102D
:101BB000BDF8200001F0FCF9044637E601F032FAE6
:101BC00000231C4632E601F02DFA00231C462DE6C8
:101BD00010230AAA57492046FFF723FC002800F0EB
:101BE000908055490AA8FEF75BFBA0B153490AA8AB
:101BF000FEF756FB002835D051490AA8FEF750FBE6
:101C0000002849D04F490AA8FEF74AFB002868D0AF
:101C100001231C460AE64C4A39463046FFF756F97E
:101C200001231A4611E0494B1D461446104601F0A7
:101C3000CFF8019000942B46454A39463046FFF7CD
:101C400088FA23460133DBB21A460D2A04D8012A4A
:101C5000E9D0404B1D46E8E73F4A39463046FFF79A
:101C600035F9E9E50FAA2D492046FFF767FD10B9C0
:101C700001231C46DAE508AA2C492046FFF7B6FBEB
:101C800010B901231C46D1E5BDF920109DF83C0098
:101C900001F05EF80446C9E50FAA20492046FFF787
:101CA0004DFD10B901231C46C0E506AA2B4920466C
:101CB000FFF744FD10B901231C46B7E508AA2849DF
:101CC0002046FFF73BFD10B901231C46AEE5BDF8E9
:101CD0002020BDF818109DF83C00FFF7BBF9044622
:101CE000A4E50FAA0D492046FFF728FD044628B1B8
:101CF0009DF83C0001F04CF8044697E501F04EF8E1
:101D000094E501231C4691E5687F0108707F010876
:101D1000847F0108A87F0108B47F0108507F010873
:101D2000587F0108447F0108787F01088C7F0108F3
:101D3000987F0108CC7F010864820108E87E0108D1
:101D40001080010870820108D47F01089C77010887
:101D5000F07F010848790108347A010818800108E9
:101D600024800108102310AA74492046FFF759FB6C
:101D7000002800F0E080724910A8FEF791FA38B10F
:101D8000704910A8FEF78CFA88B101231C464DE576
:101D90000EAA6D492046FFF7D1FC10B901231C465D
:101DA00044E5BDF83800FFF774FB04463EE50FAA92
:101DB00066492046FFF7C2FC10B901231C4635E5F1
:101DC00008AA63492046FFF7B9FC10B901231C4655
:101DD0002CE50AAA5F492046FFF7B0FC10B90123A1
:101DE0001C4623E54FF47A725B492046FFF7C1FC9D
:101DF0000346BDF82820BDF820109DF83C0001F0F6
:101E000067F8044612E510230AAA54492046FFF752
:101E100008FB00285ED052490AA8FEF741FA38B103
:101E200050490AA8FEF73CFA38B101231C46FDE4EC
:101E300039463046FFF736FBFEE40690079003AACA
:101E400049492046FFF77AFC10B901231C46EDE40E
:101E500004AA46492046FFF771FC002837D0049BAE
:101E6000082B02D901231C46E0E400224049204609
:101E7000FFF77FFC804600231D46049B9D421AD23B
:101E80002B463C4A082108A813F0E8FB05AA08A93C
:101E90002046FFF753FC58B1059BFF2B08D805F1EE
:101EA00060026A4402F8483C6B1CDBB21D46E4E762
:101EB00001231C46BAE40398424632B10121DBB249
:101EC00006AA01F0E5F90446B0E44146F7E701232C
:101ED0001C46ABE401231C46A8E410230AAA1F49B0
:101EE0002046FFF79EFAB0B11D490AA8FEF7D8F9BF
:101EF00038B121490AA8FEF7D3F938B101231C46AD
:101F000094E439463046FFF757FB95E4FEF782FF2D
:101F100000231C468AE401231C4687E400F06AFE85
:101F2000044683E4154A39463046FEF7CFFF83E482
:101F300001231C467AE401231C4677E4687F0108EC
:101F400038800108408001085C7F0108507F01084B
:101F5000587F0108447F0108787F0108CC7F010881
:101F6000648201084C8001085480010858800108EF
:101F70005C80010868800108708201087080010897
:101F800030B589B00446002305930393049305AB51
:101F9000009306AB07AA1D4913F092FB01282DDD23
:101FA000079BB3F5006F2CD2069B082B2BD8059B03
:101FB000E018002406E004F120026A4402F8143C10
:101FC0000134E4B2069B9C4211D2FEF789FF05461C
:101FD00058B103784BB1102202A913F04DF9034612
:101FE0000298A84201D0FF2BE5D9012007E0DBB21F
:101FF00003AA0021079801F04BF900E0012009B085
:1020000030BD0120FBE70120F9E700BF98800108FF
:1020100070B594B004460D4616469E49FEF740F949
:1020200020B19D492046FEF73BF928B931462846A4
:10203000FEF75EFF14B070BD98492046FEF730F9F8
:10204000C0B106229649204613F0B3FCB8B94FF44C
:102050004863129312AA9349204613F031FBBDF84E
:102060004800FFF716FA03468D4A31462846FFF727
:1020700097F9DFE731462846FFF7FCF8DAE712ABBD
:1020800013AA8949204613F01BFB022800F09D800B
:1020900003228649204613F08CFC002800F0A28021
:1020A00003228349204613F084FC002800F0C680F8
:1020B00005228049204613F07CFC002800F028818E
:1020C0007D492046FEF7ECF8002800F053817B495B
:1020D0002046FEF7E5F8002800F051810C227849EF
:1020E000204613F066FC002800F052810E2275494C
:1020F000204613F05EFC002800F06D810A22724930
:10210000204613F056FC002800F084816F492046D9
:10211000FEF7C6F8002800F0A08108226C4920468E
:1021200013F047FC002800F09D81092269492046F0
:1021300013F03FFC002800F0B181092266492046D7
:1021400013F037FC002800F0C9810C2263492046B7
:1021500013F02FFC002800F0DC810A2260492046A1
:1021600013F027FC002800F0ED815E492046FEF7C1
:1021700097F8002800F0098209225B49204613F0F5
:1021800018FC002800F0068258492046FEF788F81F
:10219000002800F0098256492046FEF781F8002801
:1021A00000F0078205225349204613F002FC002864
:1021B00000F008822378002B3FF43CAF23464E4AC0
:1021C00031462846FEF7C5FF34E7BDF848109DF8B4
:1021D0004C00FEF754FF0346484A31462846FFF7B5
:1021E000DFF827E7139041F29413119364231093BF
:1021F00040F6B8330F930FAB019310AB009311ABC4
:1022000013AA3F49204613F05BFA00280FDDBDF802
:102210003C30109ABDF844109DF84C00FEF739FF91
:102220000346384A31462846FFF7BAF802E7012349
:10223000344A31462846FFF7B3F8FBE613904FF4D3
:102240007A7311936423109340F6B8330F930FAB56
:10225000019310AB009311AB13AA2B49204613F046
:102260002FFA00280FDDBDF83C30109ABDF844105D
:102270009DF84C00FEF72BFF0346244A31462846C2
:10228000FFF78EF8D6E60123204A31462846FFF7AD
:1022900087F8CFE6607E0108AC80010864820108FF
:1022A000E07E0108B0800108BC800108C8800108F8
:1022B000DC800108F0800108108101081C81010800
:1022C00028810108548101087C810108A08101084E
:1022D000AC810108C8810108E88101080482010875
:1022E00024820108488201085482010860820108A2
:1022F0006C8201087082010878820108E87E01087A
:10230000CC800108EC7E0108E08001081C7F0108F8
:102310006423109340F6B8330F930FAB039310ABC5
:10232000029307AB019306AB009305AB04AAB44933
:10233000204613F0C5F9032815DDBDF83C300193A4
:10234000109B0093BDF81C309DF81820BDF81410A8
:102350009DF81000FEF7D9FE0346AA4A31462846EA
:10236000FFF71EF866E60123A64A31462846FFF726
:1023700017F85FE631462846FEF7D4FF5AE600F02C
:1023800051FE0023A04A31462846FFF709F851E6DE
:102390000AAB01930DAB00930EAB13AA9B492046E9
:1023A00013F08EF9042806D00123974A31462846B7
:1023B000FEF7F6FF3EE60A9BBDF83420BDF8381064
:1023C0009DF84C0000F084FD03468F4A31462846B4
:1023D000FEF7E6FF2EE60AAB00930BAB0CAA8C4986
:1023E000204613F06DF9032806D00123864A3146B2
:1023F0002846FEF7D5FF1DE60A9ABDF82C10BDF859
:10240000300000F0D5FD03467F4A31462846FEF7EE
:10241000C7FF0FE60AAB01930BAB00930CAB13AAFB
:102420007C49204613F04CF9042806D00123764A53
:1024300031462846FEF7B4FFFCE50A9BBDF82C2088
:10244000BDF830109DF84C0000F072FD03466E4A56
:1024500031462846FEF7A4FFECE531462846FEF754
:1024600081FFE7E509AB13AA6B49204613F028F971
:10247000022806D00123694A31462846FEF790FF1C
:10248000D8E5BDF924109DF84C0000F061FC03462E
:10249000624A31462846FEF783FFCBE508AB00933E
:1024A00011AB13AA5E49204613F00AF9032806D09F
:1024B00001235A4A31462846FEF772FFBAE5BDF8B5
:1024C0002020BDF844109DF84C00FEF7C3FD0346E4
:1024D000524A31462846FEF763FFABE513AA51493D
:1024E000204613F0EDF8012808D000F057FC002337
:1024F0004A4A31462846FEF753FF9BE59DF84C00BB
:1025000000F046FC0346454A31462846FEF748FFA0
:1025100090E512AA4449204613F0D2F8012806D0CB
:102520000123424A31462846FEF73AFF82E5BDF8CC
:102530004800FEF7AEFF03463C4A31462846FEF708
:102540002FFF77E50AAB01930DAB00930EAB13AAF7
:102550003749204613F0B4F8042806D00123334A43
:1025600031462846FEF71CFF64E50A9BBDF834207F
:10257000BDF838109DF84C0000F0AAFC03462B4A29
:1025800031462846FEF70CFF54E531462846FEF753
:10259000CFFF4FE52046FFF7F3FC0346254A3146BF
:1025A0002846FEF7FDFE45E531462846FFF762F86E
:1025B00040E5FEF72FFC00231F4A31462846FEF770
:1025C000EFFE37E500F02EFD13AA1C49204613F05C
:1025D00077F8012808D000F00DFB0346184A314671
:1025E0002846FEF7DDFE25E59DF84C0000F0C0FA18
:1025F0000346134A31462846FEF7D2FE1AE500BFCD
:10260000F8800108307F0108607F010838810108E7
:102610006481010888810108B8810108C87F010828
:10262000D4810108F4810108148201083080010876
:1026300030820108488001086C800108F881010897
:102640007082010838B50C461546FEF749FC30B1DA
:1026500002787B2A04D02A462146FFF7D9FC38BDF0
:102660002A462146FFF78EF8F9E7000008B5014633
:10267000014812F0CFFE08BD687C010808B5034B85
:1026800000221A80024812F02DFF08BD38020020F7
:102690008C82010830B583B0002403E0184B1B88FE
:1026A000D3B901341F2C28D8002301220DF10701D2
:1026B000144805F0B1FD00BB9DF807300A2B18BF88
:1026C0000D2BEBD00E4A12889E2A0FD8501C0C49B5
:1026D00008800D498B54E4E70B480025C5542A4671
:1026E0000A49FFF7AFFF064B1D80DAE7044B0022D3
:1026F0001A80074812F0F6FED3E703B030BD00BFE2
:1027000038020020780100203C0200206D260008DD
:10271000C882010889B130B583B00C685CB1054648
:1027200048B1FDF7C7FD0246002300930123294667
:10273000204609F051FC03B030BD704700B583B0AE
:102740000B46019001AA03491846FFF77BFF03B02F
:1027500000BD00BF15270008F0B5C7B0064600252C
:10276000009501235522204909F036FC34E095B943
:102770000134A4B2BDF80E30A3421DD9049B1B5DE9
:102780000A2B18BF0D2BF2D0FE2D0CD86A1C05A900
:102790004B5595B2ECE705A900274F553046FFF79A
:1027A000CDFF3D46E4E700250095012326220F4991
:1027B000304609F011FCDBE745980AF06AFD002875
:1027C00007DB0DF10E0204A945980AF049FD00242B
:1027D000D0E745980AF034FD45A9304609F026FDBA
:1027E0000028EED047B0F0BDE08201083883010830
:1027F00010B582B000221146102009F0D5FA88B138
:10280000044641F28832234909F04CFB024670B17C
:1028100041F28831204812F0FDFD204609F032FBDC
:1028200007F0EEFF1D4812F05DFE07F0E9FFFF2103
:10283000204609F04FFB014638B1194812F0EAFD75
:10284000204609F01FFB07F0DBFF41F288311548F5
:1028500012F0E0FD02E0642007F0D7FF00230193AF
:1028600001A9204609F0D9FB0028F4D1019B002BD7
:10287000F1D00D4812F036FE0198FFF76DFF019878
:1028800009F0B6FB019809F0FDFA084812F02AFE9B
:10289000E4E700BF08AB01087C83010860830108FE
:1028A0009C830108BC830108E883010800840108B7
:1028B00008B5064B1B6803B108BD054A1946054813
:1028C00007F03DFF014B1860F6E700BFDC02002077
:1028D00008A90108F12700080138C0B20C2801D866
:1028E0000120704700207047A0F5FA7080B241F2D5
:1028F0009413984201D801207047002070470000CF
:102900000138094B33F910301944B1F5FA7F05D37A
:1029100041F28833994204D888B270474FF4FA7074
:10292000704741F2883070472804002001380B4975
:102930004FEA001C01EB0012002301F80C30538019
:10294000938093609381064A42F82030054A42F80A
:1029500020304FF00002044B1A54704758030020F7
:1029600024030020F0020020E0020020884210D062
:1029700009D9431A002A18BF934209D9884204D3BF
:10298000821A90B270470B1AF4E7104480B2704775
:102990000846704741F28733984209D8C0EB00409F
:1029A00000F6C410044BA3FB0030C0F30F30704797
:1029B0004FF6FF70704700BF5917B7D1F8B50446FE
:1029C0000E461546FFF788FFE8B13046FFF78CFF4B
:1029D00010B901231F4618E031462046FFF790FF4B
:1029E000FFF7D8FF0146631ED8B200F0B3FE0746DA
:1029F00058B9601E064B23F810600DB92F4604E04D
:102A000000F01EFE01E001231F463846F8BD00BF5E
:102A10004404002038B505460122FFF7CFFF0446E5
:102A200008B1204638BD2846FFF780FFF9E738B5E2
:102A30000546FFF759FFA0B101240D2C0CD8002248
:102A400029462046FFF7BAFF034640B92046FFF764
:102A50006DFF0134E4B2F0E700F0F2FD0023184608
:102A600038BD0123FBE708B5FFF7E1FF08BD000013
:102A70002DE9F84F054682460C460F461646984605
:102A8000BDF828309946FFF727FF002849D0204697
:102A9000FFF72AFF002849D06C1E2301264AD35C89
:102AA0007BB9264B33F8143035461E46BB4228BF4F
:102AB000012D3ED0BB4298BF022D07D101231D46F8
:102AC00031E01D4B03EB04139B88EDE702F0B4FFEC
:102AD00083461949220101EB04138D545F809E80C7
:102AE000C3F808804946A3F80C90154B43F824001E
:102AF0000023144A42F82430134A135511B100231D
:102B00001D4610E0012239465046FFF757FF0546A3
:102B100018B90C4B43F824B005E05046FFF706FF08
:102B200001E001231D462846BDE8F88F01231D461C
:102B3000F9E701231D46F6E758030020440400206E
:102B400024030020F0020020E002002000B583B042
:102B5000009313460122FFF78BFF03B000BD00B5C1
:102B600083B0009313460222FFF782FF03B000BD3B
:102B700038B504460546FFF7AFFE88B12046631E10
:102B80001A0109498C5C64B101EB03130122998895
:102B9000FFF714FF044620B92846FFF7C7FE00E000
:102BA0000124204638BD00BF580300202DE9F04124
:102BB0001D46BDF81C30904218BFA94204D801231D
:102BC0001F463846BDE8F081804614461E46069AE8
:102BD000FFF7BCFF07460028F3D13346069A294683
:102BE0002046FFF7BCFF07460028EAD04046FFF723
:102BF000BFFFE6E710B501240D2C07D82046FFF7EC
:102C0000B7FF034618B90134E4B2F5E700231846CC
:102C100010BD00002DE9F0410646012500271CE00B
:102C2000464901EB0411498833E01A463EE0444B23
:102C300043F82460434B1B5D2BB9404A02EB04125E
:102C40005288424548D02BB13C4B03EB04139B8880
:102C500043454AD001270135EDB20D2D68D86C1ED1
:102C6000E4B22301354AD35C002BF4D0344B53F843
:102C7000243013B9324B43F82460314B53F82420ED
:102C8000B21A304B1B5D002BCAD02C4901EB04114A
:102C900089882D4830F8140088422AD0274B03EB4E
:102CA00004139B89002BC0D003FB02F20BB1002A56
:102CB000D1D041F288339A4200D91A46FFF756FE26
:102CC0008046002201462846FFF778FE0746002886
:102CD000ADD03846BDE8F0811C4A52F82420002AC5
:102CE000B1D11A4A42F82460ADE72846FFF71EFE2C
:102CF000B0E7134A42F82460B3B9144B53F82430B8
:102D000013B9124B43F824600C4B03EB04139B687C
:102D1000002BA0D00D4A52F82420B21A93429AD820
:102D2000084B01221A5596E72846FFF7FFFD92E768
:102D3000002FCED000F084FC0027CAE75803002003
:102D400024030020E002002044040020F0020020C0
:102D500038B505460C46FFF7BFFD98B104F5FA7388
:102D60009BB2B3F57A7F01D901200CE028466B1E97
:102D7000054A22F813400122044931F81310FFF7E5
:102D80001DFE00E0012038BD28040020440400207E
:102D900008B50021FFF7DCFF08BD000010B50124D5
:102DA0000CE0631E0022084921F81320074931F87E
:102DB00013102046FFF702FE0134E4B20D2CF0D9C7
:102DC00000F03EFC10BD00BF280400204404002099
:102DD00010B50446FFF780FD18B1601E014B33F9B2
:102DE000100010BD2804002010B50446FFF774FD44
:102DF00018B1601E014B33F8100010BD44040020D0
:102E000030B585B004460D4600230093019302932C
:102E100003930846FFF760FD48B1691E064B03EBBC
:102E200001130FCB84E80F00204605B030BD2060B1
:102E30006060A060E060F7E75803002000231846B8
:102E400001E00133DBB20C2B07D81A0103498A5C7D
:102E5000002AF6D00130C0B2F3E7704758030020D3
:102E6000012803D0022803D1024870470248704766
:102E700002487047B4750108B0750108C0750108B3
:102E80000138C0B20C2801D80120704700207047DB
:102E9000A0F5FA7080B241F29413984201D8012053
:102EA000704700207047000008B502F0C5FD054BD3
:102EB00018600020044B1880044B01225A701882BD
:102EC00008BD00BF600400205E04002064040020F0
:102ED000F8B507460C4615461E46FFF7D1FFE0B190
:102EE0002046FFF7D5FFD0B12846FFF7D1FFC0B18C
:102EF000012E8CBF002301232046AC4213D293B98C
:102F00000A4B01221A709F709880DD8000221A817E
:102F10005A81DE60FFF7C8FF00E00120F8BD012004
:102F2000FCE70120FAE70120F8E700BF6404002075
:102F30002DE9F8430C4615469946914229D98B1A3A
:102F4000984666190746FFF79BFF28B32046FFF710
:102F50009FFF20B3B8F5FA7F2CBF0022012205B3F2
:102F6000FAB9494601298CBF0022012241F2883377
:102F70009E4218D8BAB90D4B02221A709F700022D7
:102F80009A80DA801C815D81C3F80C90FFF78CFF7A
:102F900003E000239846D4E70120BDE8F883012030
:102FA000FBE70120F9E70120F7E700BF64040020F8
:102FB0002DE9F04104460D469046884226D9431A31
:102FC0001F4666192046FFF763FF10B33B46B7F56F
:102FD000FA7F2CBF00230123F5B1EBB9414601294B
:102FE0008CBF0022012241F288339E4216D8AAB932
:102FF0000B4B03221A7000229A709A80DA801C818F
:103000005D81C3F80C80FFF74FFF03E000231F46EC
:10301000D7E70120BDE8F0810120FBE70120F9E7B7
:1030200064040020024B00225A701A70704700BFDF
:103030006404002003462E4A5078002856D010B56C
:103040002C4A1068181A2A4AD368B0FBF3F103FB24
:1030500011001278012A2DD0911EC9B2012941D840
:103060008001B0FBF3F0DFF888C0BCF80A302249D9
:1030700031F9101001FB03F3204981FB03011944CE
:10308000DB17C3EBA133BCF8081011FA83F39BB232
:103090001C461B4B1B882146A34225D0032A14D073
:1030A000134B9878FFF7B6FCC0B9154B1C80104B3A
:1030B0001C8210BDB0EB530F03D20D4B9B881C46F6
:1030C000E7E70B4BDB881C46E3E72046FFF7AFFC46
:1030D0000028EAD0FFF7A6FF0120EAE7FFF7A2FFEA
:1030E0000120E6E70020E4E70020E2E7704700BFA8
:1030F00064040020600400202CA901080300018062
:103100005E04002010B504468446DFF818E0BEE8EF
:103110000F00ACE80F00DEF80030CCF8003020469D
:1031200010BD00BF64040020022805D0032805D08C
:10313000012805D10348704703487047034870478A
:1031400003487047707F0108847F0108A87F010849
:10315000248401087047042811D009D8022810D00F
:1031600003D8C8B101280ED1704703280DD170478C
:1031700006280CD007280CD005280CD17047042055
:1031800070470220704708207047082070470620CB
:1031900070470720704708207047042811D009D8CD
:1031A000022810D003D8C8B101280ED170470328D7
:1031B0000DD1704706280CD007280CD005280CD15B
:1031C000704704207047022070470820704708208D
:1031D000704706207047072070470820704700009E
:1031E00010B58AB002AC20220021204612F0CBFBA1
:1031F000022304930123059321460F4811F01EFD7D
:1032000010B101200AB010BD4FF08043029303902B
:10321000069007902146084811F010FD08B10120E2
:10322000F0E70123009302460146034811F04AFDEE
:103230000028E7D00120E5E75481002010B52422C2
:103240000021104812F09FFBFFF7CAFF38B10D4A6A
:10325000D3680133D36001231C46204610BD0A48C1
:1032600011F049FD044630B1064AD3680133D360FA
:1032700001231C46F1E7034B01221A70034812F0A8
:1032800031F9EAE778040020548100202C840108F9
:10329000F0B58DB006460F4615461C462422002187
:1032A00003A812F070FB002301930293234B1B78B9
:1032B0005BB3082C29D8231E18BF0123002D18BF8B
:1032C000002313BBB6F5006F28BF002F24D03B1E90
:1032D00018BF0123B6F1005F38BF0023E3B90CBB70
:1032E00003963B460FB14FF0804304932046FFF70F
:1032F00032FF069001AA03A9114811F015FDB8B9D3
:103300000E4A53680133536004E00C4AD36801331A
:10331000D36001200DB0F0BD084AD3680133D360FB
:103320000120F7E72246294601A812F0DEFBD7E785
:10333000024AD3680133D3600120EBE77804002010
:1033400054810020414B1B78002B7DD02DE9F041AA
:1033500092B024E03D4AD3680133D36012B0BDE897
:10336000F0814FF001084AE0394967E0394A3A48AC
:1033700012F050F80134E4B2AC4209D204F148032F
:103380006B4413F8441C631C9D42EFD0334AEEE7B4
:10339000334812F0A7F82D4B1B78002BDED04021CC
:1033A000304811F0FBFD0028D8D008AC28220021BD
:1033B000204612F0E8FA01AB002201925A60039213
:1033C000049205920692079222464021254811F068
:1033D000E5FC04460028BDD10B98FFF7DEFE05464C
:1033E0001A4FBB680133BB60089B3B6102F024FBB2
:1033F00006467861099BB3F1804FB2D0A0461348CE
:1034000080F81880457601AF2A4639461A3012F006
:103410006CFB089B039304968DF814808DF815506F
:103420002A4639460DF1160012F05FFB03A8FDF79E
:1034300027FD099BB3F1804F96D00B492B46089A84
:103440000A4811F0E7FF97E7704700BF78040020B3
:103450006C8401089C770108647C01085C82010887
:10346000E0850108548100207084010874840108FB
:1034700010B504468446DFF820E0BEE80F00ACE853
:103480000F00BEE80F00ACE80F00DEF80030CCF80B
:103490000030204610BD00BF780400200A4B1B6896
:1034A00003B1704710B507F005F90446064B1B68D9
:1034B0001BB1204607F013F910BD184607F0B5F907
:1034C000014B1860F5E700BF9C04002008B507F029
:1034D000BBF8022801D0002008BDFFF7DFFF054B35
:1034E000186828B1044B196807F0EFF90028F3D0E9
:1034F0000320F1E79C0400200000002008B507F03D
:10350000A3F8022800D008BD034B18680028FAD0A1
:1035100007F00CFAF7E700BF9C04002070B5002903
:1035200018BF002803D101231E46304670BD054652
:103530000C46FFF7CBFF06460028F6D102461021C5
:10354000094802F003FA094B1B682246294608483D
:1035500003F0AEFC064601221021034802F0F6F902
:10356000FFF7CCFFE1E700BF000002580000002099
:10357000F0000020F0B583B0002918BF002821D04A
:10358000144606460D4612B901231F461CE0FFF7FC
:103590009DFF0746C0B9024610210D4802F0D6F93A
:1035A0000C4B1B68009323462A4631460A4803F019
:1035B000DFFD074601221021054802F0C7F9FFF799
:1035C0009DFF01E001231F46384603B0F0BD00BF58
:1035D0000000025800000020F000002008B502465C
:1035E0000821024802F0B2F908BD00BF000C0258E1
:1035F00008B50020FFF7F2FF012002F023FA0120B6
:10360000FFF7ECFF012002F01DFA08BD08B50246E5
:103610004021024802F09AF908BD00BF000C025890
:1036200008B501221021054802F090F90120FFF7AA
:10363000D5FF0120FFF7EAFF08BD00BF00000258D8
:1036400000B583B00020FFF7E1FF0023019303E002
:1036500000BF019B01330193019BC72BF8D90120C7
:10366000FFF7D4FF03B000BD0A2809D809280FD2FC
:1036700002280FD9042801D000207047012070478C
:103680000C2809D00E2801D0002070470120704777
:1036900001207047012070470120704700F00F00A3
:1036A00040EA001343EA002343EA0030704700F089
:1036B000800001F03F0108431870110A59709A7098
:1036C0007047000010B582B001AC234600F08000C6
:1036D000FFF7EDFF03212046FFF720FF014B187095
:1036E00002B010BDA004002010B582B00023ADF8D8
:1036F00000304FF000028DF8022010F0800F00D152
:10370000802001AC23460022FFF7D1FF0322694647
:103710002046FFF72FFF0E4B187010B1002002B0AB
:1037200010BD234602460146FFF7C1FF032269464A
:103730002046FFF71FFF064B187030B99DF8013087
:103740009DF8020040EA0320E9E70020E7E700BF18
:10375000A004002008B50F2803D90120054B1870DC
:1037600008BD10300A46C1B20020FFF7ABFF014B85
:103770001870F5E7A004002010B50446042180204D
:10378000FFF7B2FF0246094B187848B94CB122F452
:10379000804292B204210020FFF794FF034B18707F
:1037A00010BD42F4804292B2F4E700BFA0040020B2
:1037B00038B50446FFF758FF98B12046FFF76EFF73
:1037C00005460024032C10D804F10A012A46C9B288
:1037D0000020FFF777FF064B187040B90134E4B2C0
:1037E000F0E70120024B187001E0014B187838BD5A
:1037F000A004002008B50020FFF7DAFF08BD000094
:1038000008B5024609210020FFF75CFF014B187044
:1038100008BD00BFA004002008B5FFF701FFFFF7B7
:10382000E7FE40F6842203210020FFF74BFF0C4BFC
:10383000187000B108BD0120FFF79EFF084B1870FB
:103840000028F7D1012002F0FDF8FFF7D3FF044B69
:1038500018700028EED1FFF7D3FF014B1870E9E78D
:10386000A0040020002807DB00F01F02400901230C
:103870009340024A42F82030704700BF00E100E068
:10388000002804DB0901C9B2044B1954704700F049
:103890000F000901C9B2024B1954704700E400E05F
:1038A00014ED00E000B500F00700A0F1030CBCF13E
:1038B000040F07D8C0F1070E0430062806D84FF0D1
:1038C000000C03E04FF0040E4FF0000C4FF0FF33FC
:1038D00003FA0EF021EA000101FA0CF103FA0CF3ED
:1038E00022EA030241EA020000BD00000649CB685B
:1038F00023F4E0631B041B0C000200F4E0600343AC
:10390000024A1A43CA60704700ED00E00000FA0561
:1039100010B50446054BD868C0F30220FFF7C2FF7C
:1039200001462046FFF7ACFF10BD00BF00ED00E0F0
:1039300008B5FFF797FF08BDBFF35F8F044B5A6AC6
:1039400022F480325A620022C3F89420704700BFEC
:1039500000ED00E040F00100054BC3F894005A6A06
:1039600042F480325A62BFF34F8FBFF36F8F7047BC
:1039700000ED00E04378144AC2F89830D2F8A03045
:1039800023F00103C2F8A0304368C2F89C30017BE9
:10399000C37A1B0643EA0173817A43EAC143417B40
:1039A00043EA8143817B43EA4143C17B43EA0143CC
:1039B000417A43EA0123017A43EA410301780B4348
:1039C000C2F8A030704700BF00ED00E0002800F012
:1039D0003A8338B50446036813F0010F25D0944AA2
:1039E000136903F03803926A102B15D0182B0FD0EF
:1039F0006368B3F5803F3FD0002B53D18C4B1A68DE
:103A000022F480321A601A6822F480221A6038E0A8
:103A100002F00302022AEBD1854B1B6813F4003F2E
:103A200003D06368002B00F01083236813F0020FAB
:103A300000F0A1807E4A1369926A13F038035AD0CD
:103A4000182B55D0E368002B00F0DE8078490A6817
:103A500022F0190213430B6001F0EEFF0546744B90
:103A60001B6813F0040F40F0AD8001F0E5FF401B30
:103A70000228F4D90320EFE26D4A136843F480333F
:103A8000136063682BB301F0D7FF0546684B1B68D2
:103A900013F4003FC9D101F0CFFF401B6428F5D9D2
:103AA0000320D9E2B3F5A02F09D0614B1A6822F4A4
:103AB00080321A601A6822F480221A60E1E75C4BB7
:103AC0001A6842F480221A601A6842F480321A603E
:103AD000D7E701F0B1FF0546554B1B6813F4003FD3
:103AE000A3D001F0A9FF401B6428F5D90320B3E25D
:103AF00012F0030FA6D14E4B1B6813F0040F03D036
:103B0000E368002B00F0A382494A136823F01903ED
:103B1000E1680B43136001F08FFF0546444B1B68BF
:103B200013F0040F06D101F087FF401B0228F5D9DE
:103B3000032091E201F09AFF41F20303984212D868
:103B40002269402A07D03A494B6823F47C3343EA80
:103B500002334B600FE0364A536823F47C3343F45E
:103B60000033536007E0324A536823F0FE43216973
:103B700043EA01635360236813F0100F00F088805C
:103B80002B4A136903F03803926A082B56D0182B7E
:103B900050D0E369002B00F0B880254A136843F049
:103BA0008003136001F048FF0546214B1B6813F4A6
:103BB000807F40F0888001F03FFF401B0228F4D94D
:103BC000032049E201F052FF41F20303984212D868
:103BD0002269402A07D016494B6823F47C3343EA14
:103BE00002334B60C7E7124A536823F47C3343F433
:103BF00000335360BFE70E4A536823F0FE43216948
:103C000043EA01635360B6E7094A136823F00103EE
:103C1000136001F011FF0546054B1B6813F0040FFC
:103C2000A9D001F009FF401B0228F5D9032013E2B7
:103C30000044025802F00302012AAAD1994B1B68E2
:103C400013F4807F03D0E369802B40F0028201F0FF
:103C50000DFF41F20303984212D8226A202A07D0AE
:103C600090494B6823F0F84343EA82634B600FE0CE
:103C70008C4A536823F0F84343F08043536007E0D5
:103C8000884AD36823F07C53216A43EA0163D360F6
:103C9000236813F0080F60D06369002B49D0814A74
:103CA000536F43F00103536701F0C6FE05467D4B99
:103CB0005B6F13F0020F50D101F0BEFE401B0228D3
:103CC000F5D90320C8E101F0D1FE41F20303984287
:103CD00012D8226A202A07D072494B6823F0F84391
:103CE00043EA82634B60D3E76E4A536823F0F8439C
:103CF00043F080435360CBE76A4AD36823F07C5398
:103D0000216A43EA0163D360C2E7664A136823F07D
:103D10008003136001F090FE0546624B1B6813F4AC
:103D2000807FB5D001F088FE401B0228F5D9032022
:103D300092E15C4A536F23F00103536701F07CFE6C
:103D40000546584B5B6F13F0020F06D001F074FE6E
:103D5000401B0228F5D903207EE1236813F0200FD1
:103D600029D0A3699BB14F4A136843F48053136071
:103D700001F062FE05464B4B1B6813F4005F1AD13D
:103D800001F05AFE401B0228F5D9032064E1454AA0
:103D9000136823F48053136001F04EFE0546414B37
:103DA0001B6813F4005F06D001F046FE401B02289A
:103DB000F5D9032050E1236813F0040F21D1636A81
:103DC000002B00F04881374A126902F03802182AA5
:103DD00000F0EF80022B7AD0324A136823F0807310
:103DE000136001F029FE04462E4B1B6813F0007F80
:103DF00000F0DD8001F020FE001B0228F4D9032032
:103E00002AE1294A136843F48073136001F014FE19
:103E10000546254B1B6813F4807F06D101F00CFE8C
:103E2000401B6428F5D9032016E1A368012B0AD0B2
:103E30000BBB1C4B1A6F22F001021A671A6F22F09B
:103E400004021A6704E0174A136F43F00103136773
:103E5000A3685BB301F0F0FD0546124B1B6F13F036
:103E6000020FACD101F0E8FD401B41F288339842CB
:103E7000F3D90320F0E0052B09D00A4B1A6F22F08A
:103E800001021A671A6F22F004021A67E0E7054B75
:103E90001A6F42F004021A671A6F42F001021A67A1
:103EA000D6E700BF004402580048025801F0C4FDA4
:103EB0000546714B1B6F13F0020F80D001F0BCFD63
:103EC000401B41F288339842F3D90320C4E06A4A88
:103ED000136823F08073136001F0AEFD0546664B56
:103EE0001B6813F0007F06D001F0A6FD401B0228DE
:103EF000F5D90320B0E0604B996A604A0A40A16A94
:103F0000E06A41EA00110A439A62226B013AC2F365
:103F10000802616B0139490289B20A43A16B013978
:103F2000090401F4FE010A43E16B0139090601F0BD
:103F3000FE410A431A63DA6A22F00102DA625A6B1E
:103F40006FF3CF02A16C42EAC1025A63DA6A22F02F
:103F50000C02216C0A43DA62DA6A22F00202616C16
:103F60000A43DA62DA6A42F48032DA62DA6A42F4E6
:103F70000032DA62DA6A42F48022DA62DA6A42F005
:103F80000102DA621A6842F080721A6001F054FD90
:103F90000446394B1B6813F0007F06D101F04CFD3D
:103FA000001B0228F5D9032056E0002054E0002031
:103FB00052E0314A916A106B012B4ED001F003039D
:103FC000A26A93424BD1C1F30511E36A994248D1E9
:103FD000C0F30802236B013B9A4244D1C0F346224E
:103FE000636B013B9A4240D1C0F30642A36B013B95
:103FF0009A423CD1C0F30660E36B013B984238D152
:104000001D4B5B6BC3F3CC03A26C9A4201D1002021
:1040100022E0194AD36A23F00103D36201F00CFDB8
:10402000054601F009FDA842FBD0134A536B6FF31C
:10403000CF03A16C43EAC1035363D36A43F0010386
:10404000D362002008E001207047012004E0012035
:1040500002E0012000E0184638BD0120FCE7012005
:10406000FAE70120F8E70120F6E70120F4E7012054
:10407000F2E70120F0E700BF004402580CFCFFFF0C
:10408000744B1B6903F03803102B00F0DD80182BF4
:104090000FD0002B40F0DA806E4B1B6813F0200F1E
:1040A00000F0D6806B4B1B68C3F3C1036A48D8404D
:1040B0007047684B9A6A02F00302D3F828C0CCF329
:1040C0000510D96A01F001015B6BC3F3CC0301FB5E
:1040D00003F307EE903AF8EE677A1CF47C7F00F069
:1040E000B880012A4AD0022A74D0002A40F08F807A
:1040F000584B1B6813F0200F23D056490A68C2F3AF
:10410000C102554BD34007EE103AF8EE476A07EE6E
:10411000100AB8EE476A86EE867A0B6BC3F3080383
:1041200006EE903AF8EE666A9FED4C6A67EE867A84
:1041300076EEA77AF7EE006A77EEA67A27EE277A70
:1041400038E007EE100AF8EE476A9FED456A86EE02
:10415000267A404B1B6BC3F3080306EE903AF8EE49
:10416000666A9FED3E6A67EE867A76EEA77AF7EE8C
:10417000006A77EEA67A27EE277A1BE007EE100A90
:10418000F8EE476A9FED376A86EE267A314B1B6B55
:10419000C3F3080306EE903AF8EE666A9FED2F6AC5
:1041A00067EE867A76EEA77AF7EE006A77EEA67A61
:1041B00027EE277A274B1B6BC3F34623013307EE09
:1041C000903AF8EE677AC7EE276AFCEEE67A17EEC9
:1041D000900A704707EE100AF8EE476A9FED226AD0
:1041E00086EE267A1B4B1B6BC3F3080306EE903A50
:1041F000F8EE666A9FED196A67EE867A76EEA77A20
:10420000F7EE006A77EEA67A27EE277AD2E707EE76
:10421000100AF8EE476A9FED136A86EE267A0D4B78
:104220001B6BC3F3080306EE903AF8EE666A9FED47
:104230000B6A67EE867A76EEA77AF7EE006A77EE7B
:10424000A67A27EE277AB5E70848704708487047EE
:1042500001487047004402580090D0030000003924
:104260000024744C0024744A0024F44A00127A009A
:1042700000093D00002800F0328170B50D4604466B
:104280009B4B1B6803F00F038B420BD2984A1368B9
:1042900023F00F030B431360136803F00F038B42EB
:1042A00040F01F81236813F0040F0CD02269914B5A
:1042B0009B6903F070039A4205D98E498B6923F0FC
:1042C00070031A438A61236813F0080F0CD06269E7
:1042D000884BDB6903F070039A4205D98549CB69A5
:1042E00023F070031A43CA61236813F0100F0CD037
:1042F000A269804BDB6903F4E0639A4205D97D49EA
:10430000CB6923F4E0631A43CA61236813F0200FDA
:104310000CD0E269774B1B6A03F070039A4205D90F
:1043200074490B6A23F070031A430A62236813F07E
:10433000020F0CD0E2686F4B9B6903F00F039A42A7
:1043400005D96C498B6923F00F031A438A612368EE
:1043500013F0010F41D0674A936923F47063A16899
:104360000B4393616368022B0AD0032B27D0012BE8
:104370002CD0604A126812F0040F06D10120ADE083
:10438000126812F4003F00F0AE805A490A6922F028
:10439000070213430B6101F04FFB0646554B1B69A7
:1043A00003F038036268B3EBC20F16D001F044FB90
:1043B000801B41F288339842F0D903208EE04D4AA9
:1043C000126812F0007FE0D1012087E0494A1268AC
:1043D00012F4807FD9D1012080E0236813F0020F0E
:1043E0000CD0E268434B9B6903F00F039A4205D25D
:1043F00040498B6923F00F031A438A613C4B1B68C9
:1044000003F00F03AB420AD9394A136823F00F03B4
:104410002B431360136803F00F03AB4265D123688D
:1044200013F0040F0CD02269324B9B6903F0700328
:104430009A4205D22F498B6923F070031A438A618F
:10444000236813F0080F0CD062692A4BDB6903F074
:1044500070039A4205D22749CB6923F070031A43AF
:10446000CA61236813F0100F0CD0A269214BDB69DD
:1044700003F4E0639A4205D21E49CB6923F4E0635A
:104480001A43CA61236813F0200F0CD0E269194B5C
:104490001B6A03F070039A4205D216490B6A23F097
:1044A00070031A430A62FFF7EBFD12498B69C3F3ED
:1044B0000323114AD35C03F01F03D8408B6903F038
:1044C0000F03D35C03F01F0320FA03F30B4A1360BE
:1044D0000B4B18600B4B186806F09AFF70BD01205B
:1044E00070470120FAE70120F8E70120F6E700BF56
:1044F0000020005200440258D4A901080C000020FA
:10450000100000200800002008B5FFF7B9FD0B4A95
:104510009369C3F303230A49CB5C03F01F0320FA1A
:1045200003F3926902F00F02885C00F01F0023FA87
:1045300000F0044A1060044A136008BD00440258A9
:10454000D4A901080C0000201000002008B5FFF7D6
:10455000DBFF054BDB69C3F30213044AD35C03F0B2
:104560001F03D84008BD00BF00440258D4A9010869
:1045700008B5FFF7C9FF054BDB69C3F30223044A03
:10458000D35C03F01F03D84008BD00BF00440258AD
:10459000D4A901083F230360114B1A6902F00702F6
:1045A00042609A6902F4706282609A6902F00F02B6
:1045B000C2609A6902F070020261DA6902F0700268
:1045C0004261DA6902F4E06282611B6A03F07003FF
:1045D000C361044B1B6803F00F030B60704700BFFF
:1045E0000044025800200052404B9B6A03F0030332
:1045F000032B79D070B505460E463C4A136823F06C
:104600008063136001F018FA0446384B1B6813F0FE
:10461000006F06D001F010FA031B022BF5D903201E
:1046200070BD324B9A6A22F47C32296842EA013228
:104630009A626A68013AC2F30802A968013949021C
:1046400089B20A43E9680139090401F4FE010A4309
:1046500029690139090601F0FE410A439A63DA6AC1
:1046600022F0C00269690A43DA62DA6A22F02002A3
:10467000A9690A43DA62DA6A22F01002DA62DA6BB6
:104680006FF3CF02E96942EAC102DA63DA6A42F003
:104690001002DA62C6B9154AD36A43F40023D36222
:1046A000124A136843F08063136001F0C5F90446B1
:1046B0000E4B1B6813F0006F14D101F0BDF9001B05
:1046C0000228F5D90320ABE7012E05D0074AD36AAB
:1046D00043F40013D362E3E7044AD36A43F480133C
:1046E000D362DDE700209BE70120704700440258B9
:1046F000404B9B6A03F00303032B79D070B505464A
:104700000E463C4A136823F08053136001F094F97D
:104710000446384B1B6813F0005F06D001F08CF99B
:10472000031B022BF5D9032070BD324B9A6A22F08D
:104730007C72296842EA01529A626A68013AC2F3BD
:104740000802A9680139490289B20A43E9680139B6
:10475000090401F4FE010A4329690139090601F03F
:10476000FE410A431A64DA6A22F4406269690A4324
:10477000DA62DA6A22F40072A9690A43DA62DA6A52
:1047800022F48072DA625A6C6FF3CF02E96942EA6E
:10479000C1025A64DA6A42F48072DA62C6B9154A12
:1047A000D36A43F48003D362124A136843F0805300
:1047B000136001F041F904460E4B1B6813F0005FD3
:1047C00014D101F039F9001B0228F5D90320ABE719
:1047D000012E05D0074AD36A43F08073D362E3E722
:1047E000044AD36A43F40003D362DDE700209BE769
:1047F0000120704700440258F8B50446036813F0DE
:10480000006F30D0836EB3F5001F26D00ED8ABB149
:10481000B3F5801F07D102210830FFF7E5FE0546FA
:1048200095B12E4621E0012635461EE0B3F5401F26
:1048300001D1002508E00126354616E09B4AD36ADF
:1048400043F40033D3620025984A136D23F44013D8
:10485000A16E0B431365002607E002212830FFF705
:1048600047FF0546DCE700263546236813F4807FC2
:104870001BD0A36D022B30D00CD843B3012B06D133
:10488000002104F10800FFF7AFFE054605E0012610
:1048900035460AE0033B012B26D845BB834A136DFE
:1048A00023F00703A16D0B431365236813F4007F06
:1048B00037D0E36D802B49D01ED82BB3402B18D1B5
:1048C000002104F10800FFF78FFE054621E0774A3A
:1048D000D36A43F40033D362DFE7002104F12800F8
:1048E000FFF706FF0546D8E701263546DDE72E46E9
:1048F000DBE70126354614E0C02B0AD0B3F5807FF4
:1049000007D0012635460CE0684AD36A43F40033E9
:10491000D36215BB654A136D23F4E073E16D0B435D
:104920001365236813F4806F3CD0D4F8A830B3F536
:10493000800F2FD016D8F3B1B3F5001F0FD100218F
:1049400004F10800FFF750FE054619E0002104F1CC
:104950002800FFF7CDFE0546DBE72E46E1E70126FE
:1049600035461FE0B3F5C00F0AD0B3F5000F07D0EE
:104970000126354616E04D4AD36A43F40033D3622C
:104980007DB94A4A936D23F46003D4F8A8100B4311
:10499000936507E0002104F12800FFF7A9FE054612
:1049A000EEE72E46236813F4006F2BD0D4F8AC301A
:1049B000B3F1007F53D00DD8ABB1B3F1807F06D1F6
:1049C000002104F10800FFF70FFE054610E0012664
:1049D000354617E0B3F1407F0AD0B3F1806F07D0BE
:1049E000012635460EE0314AD36A43F40033D362E0
:1049F000002D3BD12D4A936D23F0E063D4F8AC1029
:104A00000B439365236813F0007F13D0E36C202BD6
:104A100036D030D833B1102B2AD1244AD36A43F48C
:104A20000033D3629DBB214AD36C23F03003E16C89
:104A30000B43D364236813F4805F47D0236EB3F530
:104A4000005F00F08E8027D893B3B3F5805F20D14C
:104A5000002104F10800FFF7C7FD05462DE0002105
:104A600004F12800FFF744FE0546C1E72E46C9E7DA
:104A700001263546DEE7302BD4D001263546D9E76E
:104A8000022104F10800FFF7AFFD0546CAE72E46F4
:104A9000D0E70126354619E0B3F5405F0DD0B3F5F8
:104AA000804F0AD00126354610E000BF004402586E
:104AB000484AD36A43F40033D362002D58D1454AA3
:104AC000136D23F4E043216E0B431365236813F445
:104AD000005F17D0636EB3F5003F5AD04DD843B195
:104AE000B3F5803F46D1012104F10800FFF77CFDBA
:104AF0000546002D54D1374A136D23F4E023616E2F
:104B00000B431365236813F4804F19D0D4F8B030E9
:104B1000B3F1005F55D048D843B1B3F1805F41D1C4
:104B2000012104F10800FFF75FFD0546002D4FD17C
:104B3000284A936D23F0E043D4F8B0100B439365FB
:104B4000236813F4004F56D0236FB3F1805F43D036
:104B5000B3F1005F00F07A81002B42D00126354688
:104B600049E0002104F12800FFF7C2FD0546A4E753
:104B70002E46ABE701263546C4E7B3F5802FB8D003
:104B8000B3F5A02FB5D0B3F5403FB2D001263546DE
:104B9000B8E7012104F12800FFF7AAFD0546A8E7C0
:104BA0002E46AFE701263546CAE7B3F1804FBDD0A8
:104BB000B3F1A04FBAD0B3F1405FB7D0012635466C
:104BC000BEE7012104F12800FFF792FD0546ADE79D
:104BD0002E46B5E700440258AA4AD36A43F400338C
:104BE000D362002D40F03981A64A136D23F0405363
:104BF000216F0B431365236813F0807F18D0A36CDB
:104C0000022B00F0358100F22D813BB1012B40F0E9
:104C100026819C4AD36A43F40033D362002D40F0CE
:104C20002E81984AD36C23F00303A16C0B43D36409
:104C3000236813F4800F40F02781236813F0010FDD
:104C400019D0E36F102B00F0928100F2848143B100
:104C5000082B40F07D81012104F10800FFF7C4FC1E
:104C60000546002D40F08A81864A536D23F03803B3
:104C7000E16F0B435365236813F0020F19D0A36F44
:104C8000022B00F0878100F27E8143B1012B40F0BE
:104C90007781012104F10800FFF7A6FC0546002DED
:104CA00040F07F81774A536D23F00703A16F0B43D8
:104CB0005365236813F0040F1BD0D4F89430022BF3
:104CC00000F07B8100F2728143B1012B40F06B81D7
:104CD000012104F10800FFF787FC0546002D40F094
:104CE0007381684A936D23F00703D4F894100B4343
:104CF0009365236813F0200F1DD0D4F89030B3F1E2
:104D0000005F00F0758100F264814BB1B3F1805F08
:104D100040F05C81002104F10800FFF765FC0546C6
:104D2000002D40F06C81574A536D23F0E043D4F8D6
:104D300090100B435365236813F0400F1DD0D4F837
:104D40009C30B3F5006F00F06E8100F25D814BB1D5
:104D5000B3F5806F40F05581002104F10800FFF7A2
:104D600043FC0546002D40F06581464A936D23F4CF
:104D7000E053D4F89C100B439365236813F0800F25
:104D80001DD0D4F8A030B3F5804F00F0678100F259
:104D900056814BB1B3F5005F40F04E81002104F124
:104DA0000800FFF721FC0546002D40F05E81354AE2
:104DB000936D23F46043D4F8A0100B4393652368EC
:104DC00013F0080F0DD0D4F88430B3F5805F00F0F5
:104DD0004E812C4A536D23F44053D4F884100B4376
:104DE0005365236813F0100F0DD0D4F89830B3F545
:104DF000807F00F04681234A936D23F44073D4F8FA
:104E000098100B439365236813F4002F00F04E8134
:104E1000D4F8A430B3F5803F00F03D81B3F5003FF6
:104E200008D0002B40F03E81194604F10800FFF73E
:104E3000DBFB0546002D40F03881124A936D23F4C8
:104E40004033D4F8A4100B4393652FE1012104F102
:104E50000800FFF7C9FB0546C3E62E46CBE6012650
:104E60003546E5E6032B3FF4D9AE01263546DFE6AD
:104E7000022104F10800FFF7B7FB0546CEE62E46F7
:104E8000D6E600BF00440258AD4A136843F480736D
:104E9000136000F0D1FD0746A94B1B6813F4807F17
:104EA00005D100F0C9FDC01B6428F5D90325002DEC
:104EB0004AD1A44B1B6FD4F8B420534013F4407F65
:104EC0000CD0A04B1A6F22F44072196F41F480315C
:104ED0001967196F21F4803119671A67D4F8B43053
:104EE000B3F5807F15D08DBBD4F8B43003F4407295
:104EF000B2F5407F1ED0934A136923F47C531361AB
:104F000090490B6FD4F8B420C2F30B0213430B6724
:104F100093E600F091FD07468A4B1B6F13F0020FDA
:104F2000E1D100F089FDC01B41F288339842F3D9EA
:104F30000325D8E78348026922F47C52824901EABA
:104F4000131313430361DBE72E4676E62E4674E621
:104F5000012635468FE6202B3FF483AE282B3FF405
:104F600080AE182B3FF47DAE0126354683E6012145
:104F700004F12800FFF7BCFB054672E62E467AE6F0
:104F80000126354695E6033B022B7FF688AE0126C7
:104F900035468EE6012104F12800FFF7A9FB0546FE
:104FA0007DE62E4685E601263546A2E6033B022B2A
:104FB0007FF694AE012635469BE6012104F12800D8
:104FC000FFF796FB054689E62E4692E60126354612
:104FD000B1E6B3F1804F3FF4A3AEB3F1A04F3FF47D
:104FE0009FAEB3F1405F3FF49BAE01263546A2E68B
:104FF000022104F12800FFF77BFB054690E62E46D0
:1050000099E601263546B8E6B3F5805F3FF4AAAECF
:10501000B3F5A05F3FF4A6AEB3F5406F3FF4A2AE88
:1050200001263546A9E6022104F12800FFF760FBBE
:10503000054697E62E46A0E601263546BFE6B3F5BF
:10504000004F3FF4B1AEB3F5204F3FF4ADAEB3F532
:10505000C04F3FF4A9AE01263546B0E6022104F167
:105060002800FFF745FB05469EE62E46A7E60221EF
:1050700004F12800FFF73CFB00283FF4AAAE01260C
:10508000A7E6022104F12800FFF732FB00283FF4D5
:10509000B2AE0126AFE6022104F12800FFF728FB9B
:1050A0000546C7E60126354600E02E46236813F480
:1050B000802F18D0D4F88830B3F5001F1FD0B3F577
:1050C000401F07D0B3F5801F20D11E4AD36A43F496
:1050D0000033D362EDB91B4A536D23F44013D4F867
:1050E00088100B435365236813F4803F2FD0236D42
:1050F0008BB1B3F5803F1CD00126354627E0012156
:1051000004F12800FFF7F4FA0546E3E701263546E7
:10511000E9E72E46E7E70B4AD36A43F40033D3624C
:10512000A5B9084AD36C23F48033216D0B43D364B3
:105130000DE0022104F10800FFF756FA0546EFE7FB
:105140000048025800440258CFFFFF002E46236853
:1051500013F0005F11D1236813F4003F28D0D4F876
:105160008030B3F5807F14D010D9B3F5007F15D00F
:10517000B3F5407F12D001261AE0022104F1280085
:10518000FFF7B6FA0028E6D00126E4E733B101269E
:105190000EE0544AD36A43F40033D362002D69D140
:1051A000504A536D23F44073D4F880100B43536579
:1051B000236813F4801F06D04A4A136D23F000437E
:1051C000616F0B431365236813F0805F07D0454A76
:1051D000136923F48043D4F8B8100B431361236898
:1051E00013F4001F06D03F4A136D23F08073E16E65
:1051F0000B431365236813F0804F09D0394B1A69AC
:1052000022F400421A611A69D4F8BC100A431A61E8
:105210002368002B06DA334AD36C23F04053616DC8
:105220000B43D364236813F4000F07D02D4A536D4A
:1052300023F44003D4F88C100B435365636813F0D8
:10524000010F19D1636813F0020F1ED1636813F0C8
:10525000040F23D1636813F0080F28D1636813F09B
:10526000100F2DD1636813F0200F32D106B1012643
:105270003046F8BD2E469BE7002104F10800FFF7F9
:10528000B3F90028DED00646DCE7012104F108006E
:10529000FFF7AAF90028D9D00646D7E7022104F182
:1052A0000800FFF7A1F90028D4D00646D2E7002174
:1052B00004F12800FFF71CFA0028CFD00646CDE7FE
:1052C000012104F12800FFF713FA0028CAD006468E
:1052D000C8E7022104F12800FFF70AFA0028C5D028
:1052E0000126C5E70044025808B5FFF70DF9054B44
:1052F0001B6AC3F30213044AD35C03F01F03D840B4
:1053000008BD00BF00440258D4A9010800B5794B7C
:105310009A6AD3F828C0CCF3053ED96AC1F30011CC
:10532000DB6BC3F3CC0301FB03F31CF47C3F00F005
:10533000DB8002F0030207EE903AF8EE677A012A6A
:105340004BD0022A00F09680002A40F0B080694BD2
:105350001B6813F0200F23D066490A68C2F3C1020C
:10536000654BD34007EE103AF8EE476A07EE10EAB5
:10537000B8EE476A86EE867A8B6BC3F3080306EEB7
:10538000903AF8EE666A9FED5D6A67EE867A76EE91
:10539000A77AF7EE006A77EEA67A27EE277A38E04A
:1053A00007EE10EAF8EE476A9FED556A86EE267A18
:1053B000504B9B6BC3F3080306EE903AF8EE666A17
:1053C0009FED4E6A67EE867A76EEA77AF7EE006A70
:1053D00077EEA67A27EE277A1BE007EE10EAF8EEC2
:1053E000476A9FED486A86EE267A424B9B6BC3F371
:1053F000080306EE903AF8EE666A9FED406A67EEA3
:10540000867A76EEA77AF7EE006A77EEA67A27EE2E
:10541000277A384A936BC3F3462307EE903AF8EEA7
:10542000677AF7EE006A77EEA67A87EE276ABCEE17
:10543000C66A80ED006A936BC3F3064307EE903AA9
:10544000F8EE677A77EEA67A87EE276ABCEEC66A30
:1054500080ED016A936BC3F3066307EE903AF8EEB2
:10546000677A77EEA67AC7EE276AFCEEE66AC0EDA9
:10547000026A00BD07EE10EAF8EE476A9FED226A65
:1054800086EE267A1B4B9B6BC3F3080306EE903A1D
:10549000F8EE666A9FED196A67EE867A76EEA77A6D
:1054A000F7EE006A77EEA67A27EE277AB1E707EEE5
:1054B00010EAF8EE476A9FED136A86EE267A0D4BE6
:1054C0009B6BC3F3080306EE903AF8EE666A9FED15
:1054D0000B6A67EE867A76EEA77AF7EE006A77EEC9
:1054E000A67A27EE277A94E700230360436083605F
:1054F000BFE700BF004402580090D003000000390D
:105500000024744C0024744A0024F44A00B5794BFA
:105510009A6AD3F828C0CCF3055ED96AC1F300219A
:105520005B6CC3F3CC0301FB03F31CF07C7F00F046
:10553000DB8002F0030207EE903AF8EE677A012A68
:105540004BD0022A00F09680002A40F0B080694BD0
:105550001B6813F0200F23D066490A68C2F3C1020A
:10556000654BD34007EE103AF8EE476A07EE10EAB3
:10557000B8EE476A86EE867A0B6CC3F3080306EE34
:10558000903AF8EE666A9FED5D6A67EE867A76EE8F
:10559000A77AF7EE006A77EEA67A27EE277A38E048
:1055A00007EE10EAF8EE476A9FED556A86EE267A16
:1055B000504B1B6CC3F3080306EE903AF8EE666A94
:1055C0009FED4E6A67EE867A76EEA77AF7EE006A6E
:1055D00077EEA67A27EE277A1BE007EE10EAF8EEC0
:1055E000476A9FED486A86EE267A424B1B6CC3F3EE
:1055F000080306EE903AF8EE666A9FED406A67EEA1
:10560000867A76EEA77AF7EE006A77EEA67A27EE2C
:10561000277A384A136CC3F3462307EE903AF8EE24
:10562000677AF7EE006A77EEA67A87EE276ABCEE15
:10563000C66A80ED006A136CC3F3064307EE903A26
:10564000F8EE677A77EEA67A87EE276ABCEEC66A2E
:1056500080ED016A136CC3F3066307EE903AF8EE2F
:10566000677A77EEA67AC7EE276AFCEEE66AC0EDA7
:10567000026A00BD07EE10EAF8EE476A9FED226A63
:1056800086EE267A1B4B1B6CC3F3080306EE903A9A
:10569000F8EE666A9FED196A67EE867A76EEA77A6B
:1056A000F7EE006A77EEA67A27EE277AB1E707EEE3
:1056B00010EAF8EE476A9FED136A86EE267A0D4BE4
:1056C0001B6CC3F3080306EE903AF8EE666A9FED92
:1056D0000B6A67EE867A76EEA77AF7EE006A77EEC7
:1056E000A67A27EE277A94E700230360436083605D
:1056F000BFE700BF004402580090D003000000390B
:105700000024744C0024744A0024F44A70B582B01A
:10571000002376E085684FEA430E032404FA0EF472
:1057200025EA0405CC6804FA0EF42C43846044682E
:1057300024EA0C044D68C5F3001C0CFA03FC4CEA87
:105740000404446072E08C68012C75D182E0DD08AD
:10575000083550F8254003F0070C4FEA8C0C4FF049
:105760000F0E0EFA0CFE24EA0E0E0C6904FA0CF46D
:1057700044EA0E0440F8254073E0092400E00024C8
:1057800004FA0EF42C430CF1020C6D4D45F82C403C
:105790004FF0B04424686FEA020C24EA02054E6818
:1057A00016F4801F01D042EA04054FF0B044256092
:1057B00064680CEA04054E6816F4001F01D042EA42
:1057C00004054FF0B0446560D4F884400CEA040549
:1057D0004E6816F4003F01D042EA04054FF0B04491
:1057E000C4F88450D4F880400CEA04054E6816F4DE
:1057F000803F01D042EA04054FF0B042C2F8805029
:1058000001330A6832FA03F400F097804FF0010C7C
:105810000CFA03FC1CEA0202F2D04C6804F0030EFE
:105820000EF1FF3EBEF1010F7FF674AF4C6804F03D
:10583000030CBCF1030F86D0C5685C004FF0030C6D
:105840000CFA04FC25EA0C0E8D6805FA04FC4CEAFF
:105850000E04C4604C6804F0030CBCF1020F3FF46A
:1058600076AF05685C004FF0030C0CFA04FC25EAE7
:105870000C0E4D6805F0030C0CFA04FC4CEA0E0407
:1058800004604C6814F4403FBAD02E4CD4F8F45065
:1058900045F00205C4F8F450D4F8F44004F00204D2
:1058A0000194019C4FEA930C0CF10205244C54F82E
:1058B000255003F0030E4FEA8E0E0F2404FA0EF467
:1058C00025EA0405204CA0423FF459AF04F580645A
:1058D000A04222D004F58064A04220D004F5806468
:1058E000A0421ED004F58064A0421CD004F5806460
:1058F000A0421AD004F58064A04218D004F5806458
:10590000A04216D004F58064A04214D004F580644F
:10591000A0423FF432AF0A2432E7012430E70224E8
:105920002EE703242CE704242AE7052428E706248D
:1059300026E7072424E7082422E702B070BD00BF51
:105940000004005800440258000002580AB1816166
:105950007047090481617047436901EA030221EA43
:10596000030141EA0241816170470000134BDB688B
:1059700013F0040F07D1114BDB6803F007038342D8
:105980001AD00120704710B50C4AD36823F00703E2
:105990000343D36000F050F80446084B5B6813F4EF
:1059A000005F07D100F048F8001BB0F57A7FF4D90A
:1059B000012000E0002010BD002070470048025880
:1059C00010B50320FDF792FFFEF75AFB10498B69D3
:1059D000C3F303230F4AD35C03F01F03D8408B6942
:1059E00003F00F03D35C03F01F0320FA03F30A4A0A
:1059F00013600A4B18600F2005F00AFD18B101234F
:105A00001C46204610BD0446FBF748F9F9E700BFE5
:105A100000440258D4A901080C0000201000002006
:105A2000034B1B78034A11680B441360704700BF97
:105A300004000020A4040020014B1868704700BF38
:105A4000A404002038B50446FFF7F6FF0546B4F17C
:105A5000FF3F02D0044B1B781C44FFF7EDFF401BB7
:105A6000A042FAD338BD00BF04000020014B1868E3
:105A7000000C70470010005C034A536823F4600375
:105A800003435360704700BF0004005882B0094BC5
:105A9000D3F8F42042F00202C3F8F420D3F8F43033
:105AA00003F002030193019B034A536803435360CD
:105AB00002B0704700440258000400582DE9F0413C
:105AC00082B0074600230193D0F8688008F11203E2
:105AD00050F82340C56E012613E001A805F0A0FF91
