:020000040800F2
:1000000000000220F57200082D0D00082F0D0008D9
:10001000310D0008330D0008350D00080000000008
:10002000000000000000000000000000216F000838
:10003000370D000800000000C16F0008AD6800081F
:1000400049730008497300084973000849730008A0
:100050004973000849730008497300084973000890
:100060004973000849730008497300084973000880
:100070004973000849730008497300084973000870
:100080004973000849730008497300084973000860
:100090004973000849730008497300084973000850
:1000A00049730008390D00084973000849730008B6
:1000B0004973000849730008497300084973000830
:1000C0004973000849730008497300084973000820
:1000D0004973000849730008497300084973000810
:1000E00049730008497300080000000049730008C4
:1000F00049730008497300084973000849730008F0
:1001000049730008497300084973000849730008DF
:1001100049730008497300084973000849730008CF
:1001200049730008497300084973000849730008BF
:1001300049730008497300084973000849730008AF
:1001400000000000000000000000000000000000AF
:10015000497300084973000849730008497300088F
:10016000497300084973000849730008497300087F
:100170004973000849730008497300080000000033
:10018000497300084973000849730008497300085F
:10019000497300084973000849730008497300084F
:1001A000497300084973000849730008497300083F
:1001B000497300084973000849730008497300082F
:1001C000497300084973000849730008497300081F
:1001D000497300084973000849730008497300080F
:1001E00049730008497300084973000849730008FF
:1001F00049730008497300084973000849730008EF
:1002000049730008497300084973000849730008DE
:1002100049730008497300084973000849730008CE
:100220004973000849730008497300080000000082
:100230004973000849730008000000004973000872
:10024000497300084973000849730008497300089E
:10025000497300084973000849730008497300088E
:10026000497300084973000849730008497300087E
:100270004973000849730008497300080000000032
:100280004973000849730008497300080000000022
:080290000000000049730008A2
:1002A00001F0FF01102A2BDB10F0070F08D010F827
:1002B000013B013A8B422DD010F0070F42B3F6D12B
:1002C000F0B441EA012141EA014122F007047FF044
:1002D00000070023F0E80256083C85EA010586EA9B
:1002E000010685FA47F5A3FA87F586FA47F6A5FAD7
:1002F00087F68EB9EED1F0BC01F0FF0102F00702E3
:1003000032B110F8013B013A83EA010313B1F8D18D
:100310000020704701387047002D06BF354603386E
:10032000073815F0010F07D1013015F4807F02BFA7
:10033000013015F4C03F0130F0BC0138704700BFF8
:1003400053B94AB9002908BF00281CBF4FF0FF313C
:100350004FF0FF3000F00CB8ADF1080C6DE904CEA1
:1003600008F04EF8DDF804E0DDE9022304B0704740
:10037000704700BF0348044B834202D0034B03B1D4
:10038000184770477400002074000020000000002F
:100390000548064B1B1AD90F01EBA301491002D0E7
:1003A000034B03B11847704774000020740000200D
:1003B0000000000010B5064C237843B9FFF7DAFFC0
:1003C000044B13B10448AFF300800123237010BD28
:1003D00034010020000000002087000808B5054B0C
:1003E0001BB105490548AFF30080BDE80840FFF7A1
:1003F000CFBF00BF000000003801002020870008A8
:1004000030B585B00024009401940294039400F068
:10041000FBFD01238DF800308DF8014001941F226F
:100420008DF8082087228DF809208DF80A408DF874
:100430000B408DF80C308DF80D308DF80E408DF896
:100440000F40684600F0FEFD042000F0EBFD05B013
:1004500030BD000010B582B004468DF807004FF0A3
:10046000FF3301220DF10701024804F0ACFA2046E7
:1004700002B010BDE402002008B50268034B9A42A6
:1004800000D008BD02F034FEFBE700BF00000140D1
:1004900072B6FEE700B59DB04C22002109A807F016
:1004A00013FA2022002101A807F00EFA022002F020
:1004B000C5FD00230093244BDA6A22F00102DA62C0
:1004C000DB6A03F001030093204B9A6942F4404237
:1004D0009A619B6903F440430093009B1B4B9B690B
:1004E00013F4005FFAD0012209924FF480330A938B
:1004F00002231293139314926422159216930422EA
:10050000179218930C23199300231A931B9309A88D
:1005100000F0C4FDA0B93F2301930323029303908D
:10052000082304934023059306934FF480620792B7
:100530000893022101A801F005FA18B91DB000BD09
:10054000FFF7A6FFFFF7A4FF000400580048025879
:1005500000B583B0FFF754FF02F09AFDFFF79AFF52
:1005600000F042F800F062F900F08CFA00F0CAFAEC
:1005700000F05CFB174B18680023022219468068C4
:1005800007F018F8144807F00DF801F0E1F80646F6
:1005900001F022FB054601F041FB044601F050FB4F
:1005A000009023462A4631460C4806F093FF00F09F
:1005B000ABFC20B10A4806F0F5FFFFF769FF0948D8
:1005C00006F0F0FF06F07EF900F020F906F0A6F93B
:1005D000FEE700BF2400002038870008508700088D
:1005E00090870008B08700082DE9F04F8FB009AD63
:1005F000002409940A940B940C940D946B4BD3F83B
:10060000E02042F00402C3F8E020D3F8E02002F03A
:1006100004020192019AD3F8E02042F02002C3F8CC
:10062000E020D3F8E02002F020020292029AD3F8F0
:10063000E02042F08002C3F8E020D3F8E02002F08E
:1006400080020392039AD3F8E02042F00102C3F83B
:10065000E020D3F8E02002F001020492049AD3F8DB
:10066000E02042F04002C3F8E020D3F8E02002F09E
:1006700040020592059AD3F8E02042F01002C3F838
:10068000E020D3F8E02002F010020692069AD3F898
:10069000E02042F00202C3F8E020D3F8E02002F0AC
:1006A00002020792079AD3F8E02042F00802C3F84A
:1006B000E020D3F8E03003F008030893089BDFF84C
:1006C000F89001221021484602F0A8FCDFF8ECA0C7
:1006D00001224821504602F0A1FCDFF8E4802246C6
:1006E000E021404602F09AFCDFF8D8B02246032110
:1006F000584602F093FC4BF6C06309930A940B949E
:1007000029462B4802F06AFB4FF4507309930A9470
:100710000B942946274802F061FB4FF4807309933C
:100720000A940B942946484602F058FB0423099387
:100730000A9401260B962946504602F04FFB4823A7
:1007400009930A960B9403270C972946504602F00A
:1007500045FB4FF0100ACDF824A00A960B940C9795
:100760002946484602F03AFB182309930A940B9451
:100770002946404602F032FBE02309930A960B9487
:100780000C972946404602F029FB09970A960B94DC
:100790000C942946584602F021FB504602F0DEFC3C
:1007A000202002F0DBFC0FB0BDE8F08F00440258BF
:1007B000001802580008025800000258000C0258A5
:1007C000000402580010025838B50D4806F0EAFE41
:1007D00000240C4D0121284602F026FC0221284667
:1007E00002F022FC651C02F08FFC024621460648FE
:1007F00006F070FE4FF47A7006F050F92C46E8E7E8
:10080000D087000800100258EC87000808B5044A99
:100810000021044806F0E1F8034B186008BD00BF52
:1008200030880008C90700085001002008B50F48AB
:100830000F4B03600F4B00221A7080215970E12189
:100840009970DA701A715A714360012303720A4B6E
:10085000C3600A4B03614FF4C063436102F0D8FEEA
:1008600000B908BDFFF714FEFBE700BF5C010020E4
:10087000008002405401002074000020D4000020B9
:1008800070B58CB000230793089309930A930B93D8
:100890000268384B9A4201D00CB070BD364BD3F889
:1008A000D82042F40042C3F8D820D3F8D82002F46C
:1008B00000420192019AD3F8D82042F48032C3F862
:1008C000D820D3F8D82002F480320292029AD3F8CA
:1008D000D82042F40032C3F8D820D3F8D82002F44C
:1008E00000320392039AD3F8E02042F00402C3F8E6
:1008F000E020D3F8E02002F004020492049AD3F836
:10090000E02042F00102C3F8E020D3F8E02002F03A
:1009100001020592059AD3F8E02042F00202C3F8E2
:10092000E020D3F8E03003F002030693069B322365
:100930000793022408940A940B250B9507A90F48E6
:1009400002F04CFA862307930894002609960A942D
:100950000B9507A90A4802F041FA4FF46053079338
:10096000089409960A940B9507A9064802F036FAEE
:1009700092E700BF0080024000440258000802587D
:100980000000025800040258F0B5B9B000233393B8
:100990003493359336933793334B1B680BB139B08F
:1009A000F0BD314B01221A6002ACC022002120466A
:1009B00006F08AFF4FF080720023CDE90223204623
:1009C00001F082FA00284BD1284BD3F8D42042F40E
:1009D0008052C3F8D420D3F8D43003F48053019369
:1009E000019B4FF23F03339302273497002635963D
:1009F000032536950C23379333AC21461C4802F06F
:100A0000EDF93F2333933497359636950C2337937E
:100A10002146184802F0E2F94FF680733393349779
:100A2000359636950C2337932146134802F0D6F9B4
:100A30004FF6337333933497359636950C233793AB
:100A400021460E4802F0CAF9802333933497359635
:100A50003695092337932146094802F0BFF99EE7EE
:100A6000FFF716FDB0E700BF0C020020004402585B
:100A7000001402580018025800100258000C0258C6
:100A80000008025800B589B001A9002201924A600D
:100A90008A60CA600A614A618A611648164B03601F
:100AA00003F5827343608260C26002614FF0100CF4
:100AB000C0F814C08261C261026242628262C26294
:100AC000026342638263C26302640F230193029351
:100AD0004FF03C0ECDF80CE00493CDF814C0112378
:100AE000069302F0EBFE08B909B000BDFFF7D0FC99
:100AF000FAE700BF100200200040005208B5FFF7DF
:100B000043FF08BD08B51448144B03604FF480033D
:100B10004360002383600722C26003614FF080724C
:100B200042614FF0806282614FF08052C261036285
:100B300043628362C36243638363C3630364436446
:100B40008364C36403654365836502F07BFF00B97A
:100B500008BDFFF79DFCFBE75C0200200030014070
:100B600070B5BAB00446002135913691379138916D
:100B70003991C02204A806F0A7FE2268274B9A42AA
:100B800001D03AB070BD4FF480520023CDE9042368
:100B900004A801F099F900283CD1214BD3F8F020AA
:100BA00042F48052C3F8F020D3F8F02002F48052CF
:100BB0000192019AD3F8E02042F00102C3F8E0204C
:100BC000D3F8E02002F001020292029AD3F8E0206A
:100BD00042F00802C3F8E020D3F8E03003F0080345
:100BE0000393039B602335930225369500243794A5
:100BF00038940526399635A90A4802F0EFF8802383
:100C00003593369537943894399635A9064802F0CD
:100C1000E5F8B6E7FFF73CFCBFE700BF0030014056
:100C20000044025800000258000C025808B517484A
:100C3000174B03604FF4E133436000238360C360CC
:100C400003610C2242618361C36103624362836278
:100C500003F08FFF70B900210C4804F006F860B96A
:100C600000210A4804F026F850B9084803F0DEFFD6
:100C700048B908BDFFF70CFCEDE7FFF709FCEFE70B
:100C8000FFF706FCF1E7FFF703FCF2E7E4020020C0
:100C90000010014010B5B8B00446002133913491E2
:100CA000359136913791C02202A806F00DFE2268D8
:100CB0001B4B9A4201D038B010BD01220023CDE970
:100CC000022302A801F000F938BB164BD3F8F0203C
:100CD00042F01002C3F8F020D3F8F02002F0100226
:100CE0000092009AD3F8E02042F00102C3F8E0201D
:100CF000D3F8E03003F001030193019B4FF4C0638C
:100D00003393022334930023359336930723379389
:100D100033A9054802F062F8CDE7FFF7B9FBD4E745
:100D2000001001400044025800000258FEE7FEE7B0
:100D3000FEE7FEE7FEE7704708B5024803F0F8F863
:100D400008BD00BFD44C002000B583B00A4BD3F8D7
:100D5000F42042F00202C3F8F420D3F8F43003F098
:100D600002030193019B00220F216FF0010000F0AC
:100D700037F903B000BD00BF004402580A4B1B689E
:100D800003B1704710B505F0EDFD0446064B1B6836
:100D90001BB1204605F0FBFD10BD184605F08EFE88
:100DA000014B1860F5E700BF7803002008B505F097
:100DB000A3FD022801D0002008BDFFF7DFFF054B8F
:100DC000186828B1044B196805F0C8FE0028F3D054
:100DD0000320F1E7780300200000002008B505F0AB
:100DE0008BFD022800D008BD034B18680028FAD0FC
:100DF00005F0E5FEF7E700BF7803002070B5002995
:100E000018BF002803D101231E46304670BD054699
:100E10000C46FFF7CBFF06460028F6D1024610210C
:100E2000094802F0FBF8094B1B682246294608488E
:100E300002F0D0FE064601221021034802F0EEF82F
:100E4000FFF7CCFFE1E700BF0000025800000020E0
:100E50005C02002008B502460821024802F0DEF8D4
:100E600008BD00BF000C025808B50020FFF7F2FFD4
:100E7000012002F04FF90120FFF7ECFF012002F002
:100E800049F908BD08B502464021024802F0C6F8FB
:100E900008BD00BF000C025808B50122102105480A
:100EA00002F0BCF80120FFF7D5FF0120FFF7EAFFB1
:100EB00008BD00BF0000025800F0800001F03F01B3
:100EC00008431870110A59709A70704710B582B0B3
:100ED00001AC234600F08000FFF7EEFF032120461F
:100EE000FFF78CFF014B187002B010BD7C0300208F
:100EF00008B5024609210020FFF7E8FF014B1870F2
:100F000008BD00BF7C03002008B5FFF7C5FFFFF751
:100F1000ABFF40F6842203210020FFF7D7FF044BEC
:100F2000187000B108BDFFF7E3FF014B1870F9E737
:100F30007C030020002807DB00F01F02400901238A
:100F40009340024A42F82030704700BF00E100E0C1
:100F5000002804DB0901C9B2044B1954704700F0A2
:100F60000F000901C9B2024B1954704700E400E0B8
:100F700014ED00E000B500F00700A0F1030CBCF197
:100F8000040F07D8C0F1070E0430062806D84FF02A
:100F9000000C03E04FF0040E4FF0000C4FF0FF3355
:100FA00003FA0EF021EA000101FA0CF103FA0CF346
:100FB00022EA030241EA020000BD00000649CB68B4
:100FC00023F4E0631B041B0C000200F4E060034305
:100FD000024A1A43CA60704700ED00E00000FA05BB
:100FE00010B50446054BD868C0F30220FFF7C2FFD6
:100FF00001462046FFF7ACFF10BD00BF00ED00E04A
:1010000008B5FFF797FF08BDBFF35F8F044B5A6A1F
:1010100022F480325A620022C3F89420704700BF45
:1010200000ED00E040F00100054BC3F894005A6A5F
:1010300042F480325A62BFF34F8FBFF36F8F704715
:1010400000ED00E04378144AC2F89830D2F8A0309E
:1010500023F00103C2F8A0304368C2F89C30017B42
:10106000C37A1B0643EA0173817A43EAC143417B99
:1010700043EA8143817B43EA4143C17B43EA014325
:10108000417A43EA0123017A43EA410301780B43A1
:10109000C2F8A030704700BF00ED00E0002800F06B
:1010A0003A8338B50446036813F0010F25D0944AFB
:1010B000136903F03803926A102B15D0182B0FD048
:1010C0006368B3F5803F3FD0002B53D18C4B1A6837
:1010D00022F480321A601A6822F480221A6038E002
:1010E00002F00302022AEBD1854B1B6813F4003F88
:1010F00003D06368002B00F01083236813F0020F05
:1011000000F0A1807E4A1369926A13F038035AD026
:10111000182B55D0E368002B00F0DE8078490A6870
:1011200022F0190213430B6001F0EEFF0546744BE9
:101130001B6813F0040F40F0AD8001F0E5FF401B89
:101140000228F4D90320EFE26D4A136843F4803398
:10115000136063682BB301F0D7FF0546684B1B682B
:1011600013F4003FC9D101F0CFFF401B6428F5D92B
:101170000320D9E2B3F5A02F09D0614B1A6822F4FD
:1011800080321A601A6822F480221A60E1E75C4B10
:101190001A6842F480221A601A6842F480321A6097
:1011A000D7E701F0B1FF0546554B1B6813F4003F2C
:1011B000A3D001F0A9FF401B6428F5D90320B3E2B6
:1011C00012F0030FA6D14E4B1B6813F0040F03D08F
:1011D000E368002B00F0A382494A136823F0190347
:1011E000E1680B43136001F08FFF0546444B1B6819
:1011F00013F0040F06D101F087FF401B0228F5D938
:10120000032091E201F09AFF41F20303984212D8C1
:101210002269402A07D03A494B6823F47C3343EAD9
:1012200002334B600FE0364A536823F47C3343F4B7
:101230000033536007E0324A536823F0FE432169CC
:1012400043EA01635360236813F0100F00F08880B5
:101250002B4A136903F03803926A082B56D0182BD7
:1012600050D0E369002B00F0B880254A136843F0A2
:101270008003136001F048FF0546214B1B6813F4FF
:10128000807F40F0888001F03FFF401B0228F4D9A6
:10129000032049E201F052FF41F20303984212D8C1
:1012A0002269402A07D016494B6823F47C3343EA6D
:1012B00002334B60C7E7124A536823F47C3343F48C
:1012C00000335360BFE70E4A536823F0FE432169A1
:1012D00043EA01635360B6E7094A136823F0010348
:1012E000136001F011FF0546054B1B6813F0040F56
:1012F000A9D001F009FF401B0228F5D9032013E211
:101300000044025802F00302012AAAD1994B1B683B
:1013100013F4807F03D0E369802B40F0028201F058
:101320000DFF41F20303984212D8226A202A07D007
:1013300090494B6823F0F84343EA82634B600FE027
:101340008C4A536823F0F84343F08043536007E02E
:10135000884AD36823F07C53216A43EA0163D3604F
:10136000236813F0080F60D06369002B49D0814ACD
:10137000536F43F00103536701F0C6FE05467D4BF2
:101380005B6F13F0020F50D101F0BEFE401B02282C
:10139000F5D90320C8E101F0D1FE41F203039842E0
:1013A00012D8226A202A07D072494B6823F0F843EA
:1013B00043EA82634B60D3E76E4A536823F0F843F5
:1013C00043F080435360CBE76A4AD36823F07C53F1
:1013D000216A43EA0163D360C2E7664A136823F0D7
:1013E0008003136001F090FE0546624B1B6813F406
:1013F000807FB5D001F088FE401B0228F5D903207C
:1014000092E15C4A536F23F00103536701F07CFEC5
:101410000546584B5B6F13F0020F06D001F074FEC7
:10142000401B0228F5D903207EE1236813F0200F2A
:1014300029D0A3699BB14F4A136843F480531360CA
:1014400001F062FE05464B4B1B6813F4005F1AD196
:1014500001F05AFE401B0228F5D9032064E1454AF9
:10146000136823F48053136001F04EFE0546414B90
:101470001B6813F4005F06D001F046FE401B0228F3
:10148000F5D9032050E1236813F0040F21D1636ADA
:10149000002B00F04881374A126902F03802182AFE
:1014A00000F0EF80022B7AD0324A136823F0807369
:1014B000136001F029FE04462E4B1B6813F0007FD9
:1014C00000F0DD8001F020FE001B0228F4D903208B
:1014D0002AE1294A136843F48073136001F014FE73
:1014E0000546254B1B6813F4807F06D101F00CFEE6
:1014F000401B6428F5D9032016E1A368012B0AD00C
:101500000BBB1C4B1A6F22F001021A671A6F22F0F4
:1015100004021A6704E0174A136F43F001031367CC
:10152000A3685BB301F0F0FD0546124B1B6F13F08F
:10153000020FACD101F0E8FD401B41F28833984224
:10154000F3D90320F0E0052B09D00A4B1A6F22F0E3
:1015500001021A671A6F22F004021A67E0E7054BCE
:101560001A6F42F004021A671A6F42F001021A67FA
:10157000D6E700BF004402580048025801F0C4FDFD
:101580000546714B1B6F13F0020F80D001F0BCFDBC
:10159000401B41F288339842F3D90320C4E06A4AE1
:1015A000136823F08073136001F0AEFD0546664BAF
:1015B0001B6813F0007F06D001F0A6FD401B022837
:1015C000F5D90320B0E0604B996A604A0A40A16AED
:1015D000E06A41EA00110A439A62226B013AC2F3BF
:1015E0000802616B0139490289B20A43A16B0139D2
:1015F000090401F4FE010A43E16B0139090601F017
:10160000FE410A431A63DA6A22F00102DA625A6B77
:101610006FF3CF02A16C42EAC1025A63DA6A22F088
:101620000C02216C0A43DA62DA6A22F00202616C6F
:101630000A43DA62DA6A42F48032DA62DA6A42F43F
:101640000032DA62DA6A42F48022DA62DA6A42F05E
:101650000102DA621A6842F080721A6001F054FDE9
:101660000446394B1B6813F0007F06D101F04CFD96
:10167000001B0228F5D9032056E0002054E000208A
:1016800052E0314A916A106B012B4ED001F00303F6
:10169000A26A93424BD1C1F30511E36A994248D142
:1016A000C0F30802236B013B9A4244D1C0F34622A7
:1016B000636B013B9A4240D1C0F30642A36B013BEE
:1016C0009A423CD1C0F30660E36B013B984238D1AB
:1016D0001D4B5B6BC3F3CC03A26C9A4201D100207B
:1016E00022E0194AD36A23F00103D36201F00CFD12
:1016F000054601F009FDA842FBD0134A536B6FF376
:10170000CF03A16C43EAC1035363D36A43F00103DF
:10171000D362002008E001207047012004E001208E
:1017200002E0012000E0184638BD0120FCE701205E
:10173000FAE70120F8E70120F6E70120F4E70120AD
:10174000F2E70120F0E700BF004402580CFCFFFF65
:10175000744B1B6903F03803102B00F0DD80182B4D
:101760000FD0002B40F0DA806E4B1B6813F0200F77
:1017700000F0D6806B4B1B68C3F3C1036A48D840A6
:101780007047684B9A6A02F00302D3F828C0CCF382
:101790000510D96A01F001015B6BC3F3CC0301FBB7
:1017A00003F307EE903AF8EE677A1CF47C7F00F0C2
:1017B000B880012A4AD0022A74D0002A40F08F80D3
:1017C000584B1B6813F0200F23D056490A68C2F308
:1017D000C102554BD34007EE103AF8EE476A07EEC8
:1017E000100AB8EE476A86EE867A0B6BC3F30803DD
:1017F00006EE903AF8EE666A9FED4C6A67EE867ADE
:1018000076EEA77AF7EE006A77EEA67A27EE277AC9
:1018100038E007EE100AF8EE476A9FED456A86EE5B
:10182000267A404B1B6BC3F3080306EE903AF8EEA2
:10183000666A9FED3E6A67EE867A76EEA77AF7EEE5
:10184000006A77EEA67A27EE277A1BE007EE100AE9
:10185000F8EE476A9FED376A86EE267A314B1B6BAE
:10186000C3F3080306EE903AF8EE666A9FED2F6A1E
:1018700067EE867A76EEA77AF7EE006A77EEA67ABA
:1018800027EE277A274B1B6BC3F34623013307EE62
:10189000903AF8EE677AC7EE276AFCEEE67A17EE22
:1018A000900A704707EE100AF8EE476A9FED226A29
:1018B00086EE267A1B4B1B6BC3F3080306EE903AA9
:1018C000F8EE666A9FED196A67EE867A76EEA77A79
:1018D000F7EE006A77EEA67A27EE277AD2E707EED0
:1018E000100AF8EE476A9FED136A86EE267A0D4BD2
:1018F0001B6BC3F3080306EE903AF8EE666A9FEDA1
:101900000B6A67EE867A76EEA77AF7EE006A77EED4
:10191000A67A27EE277AB5E7084870470848704747
:1019200001487047004402580090D003000000397D
:101930000024744C0024744A0024F44A00127A00F3
:1019400000093D00002800F0328170B50D460446C4
:101950009B4B1B6803F00F038B420BD2984A136812
:1019600023F00F030B431360136803F00F038B4244
:1019700040F01F81236813F0040F0CD02269914BB3
:101980009B6903F070039A4205D98E498B6923F055
:1019900070031A438A61236813F0080F0CD0626940
:1019A000884BDB6903F070039A4205D98549CB69FE
:1019B00023F070031A43CA61236813F0100F0CD090
:1019C000A269804BDB6903F4E0639A4205D97D4943
:1019D000CB6923F4E0631A43CA61236813F0200F34
:1019E0000CD0E269774B1B6A03F070039A4205D969
:1019F00074490B6A23F070031A430A62236813F0D8
:101A0000020F0CD0E2686F4B9B6903F00F039A4200
:101A100005D96C498B6923F00F031A438A61236847
:101A200013F0010F41D0674A936923F47063A168F2
:101A30000B4393616368022B0AD0032B27D0012B41
:101A40002CD0604A126812F0040F06D10120ADE0DC
:101A5000126812F4003F00F0AE805A490A6922F081
:101A6000070213430B6101F04FFB0646554B1B6900
:101A700003F038036268B3EBC20F16D001F044FBE9
:101A8000801B41F288339842F0D903208EE04D4A02
:101A9000126812F0007FE0D1012087E0494A126805
:101AA00012F4807FD9D1012080E0236813F0020F67
:101AB0000CD0E268434B9B6903F00F039A4205D2B6
:101AC00040498B6923F00F031A438A613C4B1B6822
:101AD00003F00F03AB420AD9394A136823F00F030E
:101AE0002B431360136803F00F03AB4265D12368E7
:101AF00013F0040F0CD02269324B9B6903F0700382
:101B00009A4205D22F498B6923F070031A438A61E8
:101B1000236813F0080F0CD062692A4BDB6903F0CD
:101B200070039A4205D22749CB6923F070031A4308
:101B3000CA61236813F0100F0CD0A269214BDB6936
:101B400003F4E0639A4205D21E49CB6923F4E063B3
:101B50001A43CA61236813F0200F0CD0E269194BB5
:101B60001B6A03F070039A4205D216490B6A23F0F0
:101B700070031A430A62FFF7EBFD12498B69C3F346
:101B80000323114AD35C03F01F03D8408B6903F091
:101B90000F03D35C03F01F0320FA03F30B4A136017
:101BA0000B4B18600B4B186805F05CFB70BD0120F7
:101BB00070470120FAE70120F8E70120F6E700BFAF
:101BC00000200052004402587C8800080C000020CD
:101BD000100000200800002008B5FFF7B9FD0B4AEF
:101BE0009369C3F303230A49CB5C03F01F0320FA74
:101BF00003F3926902F00F02885C00F01F0023FAE1
:101C000000F0044A1060044A136008BD0044025802
:101C10007C8800080C0000201000002008B5FFF7A9
:101C2000DBFF054BDB69C3F30213044AD35C03F00B
:101C30001F03D84008BD00BF004402587C8800083C
:101C400008B5FFF7C9FF054BDB69C3F30223044A5C
:101C5000D35C03F01F03D84008BD00BF0044025806
:101C60007C8800083F230360114B1A6902F00702C9
:101C700042609A6902F4706282609A6902F00F020F
:101C8000C2609A6902F070020261DA6902F07002C1
:101C90004261DA6902F4E06282611B6A03F0700358
:101CA000C361044B1B6803F00F030B60704700BF58
:101CB0000044025800200052404B9B6A03F003038B
:101CC000032B79D070B505460E463C4A136823F0C5
:101CD0008063136001F018FA0446384B1B6813F058
:101CE000006F06D001F010FA031B022BF5D9032078
:101CF00070BD324B9A6A22F47C32296842EA013282
:101D00009A626A68013AC2F30802A9680139490275
:101D100089B20A43E9680139090401F4FE010A4362
:101D200029690139090601F0FE410A439A63DA6A1A
:101D300022F0C00269690A43DA62DA6A22F02002FC
:101D4000A9690A43DA62DA6A22F01002DA62DA6B0F
:101D50006FF3CF02E96942EAC102DA63DA6A42F05C
:101D60001002DA62C6B9154AD36A43F40023D3627B
:101D7000124A136843F08063136001F0C5F904460A
:101D80000E4B1B6813F0006F14D101F0BDF9001B5E
:101D90000228F5D90320ABE7012E05D0074AD36A04
:101DA00043F40013D362E3E7044AD36A43F4801395
:101DB000D362DDE700209BE7012070470044025812
:101DC000404B9B6A03F00303032B79D070B50546A3
:101DD0000E463C4A136823F08053136001F094F9D7
:101DE0000446384B1B6813F0005F06D001F08CF9F5
:101DF000031B022BF5D9032070BD324B9A6A22F0E7
:101E00007C72296842EA01529A626A68013AC2F316
:101E10000802A9680139490289B20A43E96801390F
:101E2000090401F4FE010A4329690139090601F098
:101E3000FE410A431A64DA6A22F4406269690A437D
:101E4000DA62DA6A22F40072A9690A43DA62DA6AAB
:101E500022F48072DA625A6C6FF3CF02E96942EAC7
:101E6000C1025A64DA6A42F48072DA62C6B9154A6B
:101E7000D36A43F48003D362124A136843F0805359
:101E8000136001F041F904460E4B1B6813F0005F2C
:101E900014D101F039F9001B0228F5D90320ABE772
:101EA000012E05D0074AD36A43F08073D362E3E77B
:101EB000044AD36A43F40003D362DDE700209BE7C2
:101EC0000120704700440258F8B50446036813F037
:101ED000006F30D0836EB3F5001F26D00ED8ABB1A3
:101EE000B3F5801F07D102210830FFF7E5FE054654
:101EF00095B12E4621E0012635461EE0B3F5401F80
:101F000001D1002508E00126354616E09B4AD36A38
:101F100043F40033D3620025984A136D23F4401331
:101F2000A16E0B431365002607E002212830FFF75E
:101F300047FF0546DCE700263546236813F4807F1B
:101F40001BD0A36D022B30D00CD843B3012B06D18C
:101F5000002104F10800FFF7AFFE054605E0012669
:101F600035460AE0033B012B26D845BB834A136D57
:101F700023F00703A16D0B431365236813F4007F5F
:101F800037D0E36D802B49D01ED82BB3402B18D10E
:101F9000002104F10800FFF78FFE054621E0774A93
:101FA000D36A43F40033D362DFE7002104F1280051
:101FB000FFF706FF0546D8E701263546DDE72E4642
:101FC000DBE70126354614E0C02B0AD0B3F5807F4D
:101FD00007D0012635460CE0684AD36A43F4003343
:101FE000D36215BB654A136D23F4E073E16D0B43B7
:101FF0001365236813F4806F3CD0D4F8A830B3F590
:10200000800F2FD016D8F3B1B3F5001F0FD10021E8
:1020100004F10800FFF750FE054619E0002104F125
:102020002800FFF7CDFE0546DBE72E46E1E7012657
:1020300035461FE0B3F5C00F0AD0B3F5000F07D047
:102040000126354616E04D4AD36A43F40033D36285
:102050007DB94A4A936D23F46003D4F8A8100B436A
:10206000936507E0002104F12800FFF7A9FE05466B
:10207000EEE72E46236813F4006F2BD0D4F8AC3073
:10208000B3F1007F53D00DD8ABB1B3F1807F06D14F
:10209000002104F10800FFF70FFE054610E00126BD
:1020A000354617E0B3F1407F0AD0B3F1806F07D017
:1020B000012635460EE0314AD36A43F40033D36239
:1020C000002D3BD12D4A936D23F0E063D4F8AC1082
:1020D0000B439365236813F0007F13D0E36C202B30
:1020E00036D030D833B1102B2AD1244AD36A43F4E6
:1020F0000033D3629DBB214AD36C23F03003E16CE3
:102100000B43D364236813F4805F47D0236EB3F589
:10211000005F00F08E8027D893B3B3F5805F20D1A5
:10212000002104F10800FFF7C7FD05462DE000215E
:1021300004F12800FFF744FE0546C1E72E46C9E733
:1021400001263546DEE7302BD4D001263546D9E7C7
:10215000022104F10800FFF7AFFD0546CAE72E464D
:10216000D0E70126354619E0B3F5405F0DD0B3F551
:10217000804F0AD00126354610E000BF00440258C7
:10218000484AD36A43F40033D362002D58D1454AFC
:10219000136D23F4E043216E0B431365236813F49E
:1021A000005F17D0636EB3F5003F5AD04DD843B1EE
:1021B000B3F5803F46D1012104F10800FFF77CFD13
:1021C0000546002D54D1374A136D23F4E023616E88
:1021D0000B431365236813F4804F19D0D4F8B03043
:1021E000B3F1005F55D048D843B1B3F1805F41D11E
:1021F000012104F10800FFF75FFD0546002D4FD1D6
:10220000284A936D23F0E043D4F8B0100B43936554
:10221000236813F4004F56D0236FB3F1805F43D08F
:10222000B3F1005F00F07A81002B42D001263546E1
:1022300049E0002104F12800FFF7C2FD0546A4E7AC
:102240002E46ABE701263546C4E7B3F5802FB8D05C
:10225000B3F5A02FB5D0B3F5403FB2D00126354637
:10226000B8E7012104F12800FFF7AAFD0546A8E719
:102270002E46AFE701263546CAE7B3F1804FBDD001
:10228000B3F1A04FBAD0B3F1405FB7D001263546C5
:10229000BEE7012104F12800FFF792FD0546ADE7F6
:1022A0002E46B5E700440258AA4AD36A43F40033E5
:1022B000D362002D40F03981A64A136D23F04053BC
:1022C000216F0B431365236813F0807F18D0A36C34
:1022D000022B00F0358100F22D813BB1012B40F043
:1022E00026819C4AD36A43F40033D362002D40F028
:1022F0002E81984AD36C23F00303A16C0B43D36463
:10230000236813F4800F40F02781236813F0010F36
:1023100019D0E36F102B00F0928100F2848143B159
:10232000082B40F07D81012104F10800FFF7C4FC77
:102330000546002D40F08A81864A536D23F038030C
:10234000E16F0B435365236813F0020F19D0A36F9D
:10235000022B00F0878100F27E8143B1012B40F017
:102360007781012104F10800FFF7A6FC0546002D46
:1023700040F07F81774A536D23F00703A16F0B4331
:102380005365236813F0040F1BD0D4F89430022B4C
:1023900000F07B8100F2728143B1012B40F06B8130
:1023A000012104F10800FFF787FC0546002D40F0ED
:1023B0007381684A936D23F00703D4F894100B439C
:1023C0009365236813F0200F1DD0D4F89030B3F13B
:1023D000005F00F0758100F264814BB1B3F1805F62
:1023E00040F05C81002104F10800FFF765FC054620
:1023F000002D40F06C81574A536D23F0E043D4F830
:1024000090100B435365236813F0400F1DD0D4F890
:102410009C30B3F5006F00F06E8100F25D814BB12E
:10242000B3F5806F40F05581002104F10800FFF7FB
:1024300043FC0546002D40F06581464A936D23F428
:10244000E053D4F89C100B439365236813F0800F7E
:102450001DD0D4F8A030B3F5804F00F0678100F2B2
:1024600056814BB1B3F5005F40F04E81002104F17D
:102470000800FFF721FC0546002D40F05E81354A3B
:10248000936D23F46043D4F8A0100B439365236845
:1024900013F0080F0DD0D4F88430B3F5805F00F04E
:1024A0004E812C4A536D23F44053D4F884100B43CF
:1024B0005365236813F0100F0DD0D4F89830B3F59E
:1024C000807F00F04681234A936D23F44073D4F853
:1024D00098100B439365236813F4002F00F04E818E
:1024E000D4F8A430B3F5803F00F03D81B3F5003F50
:1024F00008D0002B40F03E81194604F10800FFF798
:10250000DBFB0546002D40F03881124A936D23F421
:102510004033D4F8A4100B4393652FE1012104F15B
:102520000800FFF7C9FB0546C3E62E46CBE60126A9
:102530003546E5E6032B3FF4D9AE01263546DFE606
:10254000022104F10800FFF7B7FB0546CEE62E4650
:10255000D6E600BF00440258AD4A136843F48073C6
:10256000136000F0D1FD0746A94B1B6813F4807F70
:1025700005D100F0C9FDC01B6428F5D90325002D45
:102580004AD1A44B1B6FD4F8B420534013F4407FBE
:102590000CD0A04B1A6F22F44072196F41F48031B5
:1025A0001967196F21F4803119671A67D4F8B430AC
:1025B000B3F5807F15D08DBBD4F8B43003F44072EE
:1025C000B2F5407F1ED0934A136923F47C53136104
:1025D00090490B6FD4F8B420C2F30B0213430B677E
:1025E00093E600F091FD07468A4B1B6F13F0020F34
:1025F000E1D100F089FDC01B41F288339842F3D944
:102600000325D8E78348026922F47C52824901EA13
:10261000131313430361DBE72E4676E62E4674E67A
:10262000012635468FE6202B3FF483AE282B3FF45E
:1026300080AE182B3FF47DAE0126354683E601219E
:1026400004F12800FFF7BCFB054672E62E467AE649
:102650000126354695E6033B022B7FF688AE012620
:1026600035468EE6012104F12800FFF7A9FB054657
:102670007DE62E4685E601263546A2E6033B022B83
:102680007FF694AE012635469BE6012104F1280031
:10269000FFF796FB054689E62E4692E6012635466B
:1026A000B1E6B3F1804F3FF4A3AEB3F1A04F3FF4D6
:1026B0009FAEB3F1405F3FF49BAE01263546A2E6E4
:1026C000022104F12800FFF77BFB054690E62E4629
:1026D00099E601263546B8E6B3F5805F3FF4AAAE29
:1026E000B3F5A05F3FF4A6AEB3F5406F3FF4A2AEE2
:1026F00001263546A9E6022104F12800FFF760FB18
:10270000054697E62E46A0E601263546BFE6B3F518
:10271000004F3FF4B1AEB3F5204F3FF4ADAEB3F58B
:10272000C04F3FF4A9AE01263546B0E6022104F1C0
:102730002800FFF745FB05469EE62E46A7E6022148
:1027400004F12800FFF73CFB00283FF4AAAE012665
:10275000A7E6022104F12800FFF732FB00283FF42E
:10276000B2AE0126AFE6022104F12800FFF728FBF4
:102770000546C7E60126354600E02E46236813F4D9
:10278000802F18D0D4F88830B3F5001F1FD0B3F5D0
:10279000401F07D0B3F5801F20D11E4AD36A43F4EF
:1027A0000033D362EDB91B4A536D23F44013D4F8C0
:1027B00088100B435365236813F4803F2FD0236D9B
:1027C0008BB1B3F5803F1CD00126354627E00121AF
:1027D00004F12800FFF7F4FA0546E3E70126354641
:1027E000E9E72E46E7E70B4AD36A43F40033D362A6
:1027F000A5B9084AD36C23F48033216D0B43D3640D
:102800000DE0022104F10800FFF756FA0546EFE754
:102810000048025800440258CFFFFF002E462368AC
:1028200013F0005F11D1236813F4003F28D0D4F8CF
:102830008030B3F5807F14D010D9B3F5007F15D068
:10284000B3F5407F12D001261AE0022104F12800DE
:10285000FFF7B6FA0028E6D00126E4E733B10126F7
:102860000EE0544AD36A43F40033D362002D69D199
:10287000504A536D23F44073D4F880100B435365D2
:10288000236813F4801F06D04A4A136D23F00043D7
:10289000616F0B431365236813F0805F07D0454ACF
:1028A000136923F48043D4F8B8100B4313612368F1
:1028B00013F4001F06D03F4A136D23F08073E16EBE
:1028C0000B431365236813F0804F09D0394B1A6905
:1028D00022F400421A611A69D4F8BC100A431A6142
:1028E0002368002B06DA334AD36C23F04053616D22
:1028F0000B43D364236813F4000F07D02D4A536DA4
:1029000023F44003D4F88C100B435365636813F031
:10291000010F19D1636813F0020F1ED1636813F021
:10292000040F23D1636813F0080F28D1636813F0F4
:10293000100F2DD1636813F0200F32D106B101269C
:102940003046F8BD2E469BE7002104F10800FFF752
:10295000B3F90028DED00646DCE7012104F10800C7
:10296000FFF7AAF90028D9D00646D7E7022104F1DB
:102970000800FFF7A1F90028D4D00646D2E70021CD
:1029800004F12800FFF71CFA0028CFD00646CDE757
:10299000012104F12800FFF713FA0028CAD00646E7
:1029A000C8E7022104F12800FFF70AFA0028C5D081
:1029B0000126C5E70044025808B5FFF70DF9054B9D
:1029C0001B6AC3F30213044AD35C03F01F03D8400D
:1029D00008BD00BF004402587C88000800B5794B50
:1029E0009A6AD3F828C0CCF3053ED96AC1F3001126
:1029F000DB6BC3F3CC0301FB03F31CF47C3F00F05F
:102A0000DB8002F0030207EE903AF8EE677A012AC3
:102A10004BD0022A00F09680002A40F0B080694B2B
:102A20001B6813F0200F23D066490A68C2F3C10265
:102A3000654BD34007EE103AF8EE476A07EE10EA0E
:102A4000B8EE476A86EE867A8B6BC3F3080306EE10
:102A5000903AF8EE666A9FED5D6A67EE867A76EEEA
:102A6000A77AF7EE006A77EEA67A27EE277A38E0A3
:102A700007EE10EAF8EE476A9FED556A86EE267A71
:102A8000504B9B6BC3F3080306EE903AF8EE666A70
:102A90009FED4E6A67EE867A76EEA77AF7EE006AC9
:102AA00077EEA67A27EE277A1BE007EE10EAF8EE1B
:102AB000476A9FED486A86EE267A424B9B6BC3F3CA
:102AC000080306EE903AF8EE666A9FED406A67EEFC
:102AD000867A76EEA77AF7EE006A77EEA67A27EE88
:102AE000277A384A936BC3F3462307EE903AF8EE01
:102AF000677AF7EE006A77EEA67A87EE276ABCEE71
:102B0000C66A80ED006A936BC3F3064307EE903A02
:102B1000F8EE677A77EEA67A87EE276ABCEEC66A89
:102B200080ED016A936BC3F3066307EE903AF8EE0B
:102B3000677A77EEA67AC7EE276AFCEEE66AC0ED02
:102B4000026A00BD07EE10EAF8EE476A9FED226ABE
:102B500086EE267A1B4B9B6BC3F3080306EE903A76
:102B6000F8EE666A9FED196A67EE867A76EEA77AC6
:102B7000F7EE006A77EEA67A27EE277AB1E707EE3E
:102B800010EAF8EE476A9FED136A86EE267A0D4B3F
:102B90009B6BC3F3080306EE903AF8EE666A9FED6E
:102BA0000B6A67EE867A76EEA77AF7EE006A77EE22
:102BB000A67A27EE277A94E70023036043608360B8
:102BC000BFE700BF004402580090D0030000003966
:102BD0000024744C0024744A0024F44A00B5794B54
:102BE0009A6AD3F828C0CCF3055ED96AC1F30021F4
:102BF0005B6CC3F3CC0301FB03F31CF07C7F00F0A0
:102C0000DB8002F0030207EE903AF8EE677A012AC1
:102C10004BD0022A00F09680002A40F0B080694B29
:102C20001B6813F0200F23D066490A68C2F3C10263
:102C3000654BD34007EE103AF8EE476A07EE10EA0C
:102C4000B8EE476A86EE867A0B6CC3F3080306EE8D
:102C5000903AF8EE666A9FED5D6A67EE867A76EEE8
:102C6000A77AF7EE006A77EEA67A27EE277A38E0A1
:102C700007EE10EAF8EE476A9FED556A86EE267A6F
:102C8000504B1B6CC3F3080306EE903AF8EE666AED
:102C90009FED4E6A67EE867A76EEA77AF7EE006AC7
:102CA00077EEA67A27EE277A1BE007EE10EAF8EE19
:102CB000476A9FED486A86EE267A424B1B6CC3F347
:102CC000080306EE903AF8EE666A9FED406A67EEFA
:102CD000867A76EEA77AF7EE006A77EEA67A27EE86
:102CE000277A384A136CC3F3462307EE903AF8EE7E
:102CF000677AF7EE006A77EEA67A87EE276ABCEE6F
:102D0000C66A80ED006A136CC3F3064307EE903A7F
:102D1000F8EE677A77EEA67A87EE276ABCEEC66A87
:102D200080ED016A136CC3F3066307EE903AF8EE88
:102D3000677A77EEA67AC7EE276AFCEEE66AC0ED00
:102D4000026A00BD07EE10EAF8EE476A9FED226ABC
:102D500086EE267A1B4B1B6CC3F3080306EE903AF3
:102D6000F8EE666A9FED196A67EE867A76EEA77AC4
:102D7000F7EE006A77EEA67A27EE277AB1E707EE3C
:102D800010EAF8EE476A9FED136A86EE267A0D4B3D
:102D90001B6CC3F3080306EE903AF8EE666A9FEDEB
:102DA0000B6A67EE867A76EEA77AF7EE006A77EE20
:102DB000A67A27EE277A94E70023036043608360B6
:102DC000BFE700BF004402580090D0030000003964
:102DD0000024744C0024744A0024F44A70B582B074
:102DE000002376E085684FEA430E032404FA0EF4CC
:102DF00025EA0405CC6804FA0EF42C438460446888
:102E000024EA0C044D68C5F3001C0CFA03FC4CEAE0
:102E10000404446072E08C68012C75D182E0DD0806
:102E2000083550F8254003F0070C4FEA8C0C4FF0A2
:102E30000F0E0EFA0CFE24EA0E0E0C6904FA0CF4C6
:102E400044EA0E0440F8254073E0092400E0002421
:102E500004FA0EF42C430CF1020C6D4D45F82C4095
:102E60004FF0B04424686FEA020C24EA02054E6871
:102E700016F4801F01D042EA04054FF0B0442560EB
:102E800064680CEA04054E6816F4001F01D042EA9B
:102E900004054FF0B0446560D4F884400CEA0405A2
:102EA0004E6816F4003F01D042EA04054FF0B044EA
:102EB000C4F88450D4F880400CEA04054E6816F437
:102EC000803F01D042EA04054FF0B042C2F8805082
:102ED00001330A6832FA03F400F097804FF0010CD6
:102EE0000CFA03FC1CEA0202F2D04C6804F0030E58
:102EF0000EF1FF3EBEF1010F7FF674AF4C6804F097
:102F0000030CBCF1030F86D0C5685C004FF0030CC6
:102F10000CFA04FC25EA0C0E8D6805FA04FC4CEA58
:102F20000E04C4604C6804F0030CBCF1020F3FF4C3
:102F300076AF05685C004FF0030C0CFA04FC25EA40
:102F40000C0E4D6805F0030C0CFA04FC4CEA0E0460
:102F500004604C6814F4403FBAD02E4CD4F8F450BE
:102F600045F00205C4F8F450D4F8F44004F002042B
:102F70000194019C4FEA930C0CF10205244C54F887
:102F8000255003F0030E4FEA8E0E0F2404FA0EF4C0
:102F900025EA0405204CA0423FF459AF04F58064B3
:102FA000A04222D004F58064A04220D004F58064C1
:102FB000A0421ED004F58064A0421CD004F58064B9
:102FC000A0421AD004F58064A04218D004F58064B1
:102FD000A04216D004F58064A04214D004F58064A9
:102FE000A0423FF432AF0A2432E7012430E7022442
:102FF0002EE703242CE704242AE7052428E70624E7
:1030000026E7072424E7082422E702B070BD00BFAA
:103010000004005800440258000002580AB18161BF
:103020007047090481617047436901EA030221EA9C
:10303000030141EA0241816170470000134BDB68E4
:1030400013F0040F07D1114BDB6803F00703834231
:103050001AD00120704710B50C4AD36823F007033B
:103060000343D36000F050F80446084B5B6813F448
:10307000005F07D100F048F8001BB0F57A7FF4D963
:10308000012000E0002010BD0020704700480258D9
:1030900010B50320FDF792FFFEF75AFB10498B692C
:1030A000C3F303230F4AD35C03F01F03D8408B699B
:1030B00003F00F03D35C03F01F0320FA03F30A4A63
:1030C00013600A4B18600F2004F0CCF818B10123EC
:1030D0001C46204610BD0446FDF736FEF9E700BF4A
:1030E000004402587C8800080C00002010000020DA
:1030F000034B1B78034A11680B441360704700BFF1
:103100000400002080030020014B1868704700BFB6
:103110008003002038B50446FFF7F6FF0546B4F1FA
:10312000FF3F02D0044B1B781C44FFF7EDFF401B10
:10313000A042FAD338BD00BF04000020014B18683C
:10314000000C70470010005C034A536823F46003CE
:1031500003435360704700BF0004005882B0094B1E
:10316000D3F8F42042F00202C3F8F420D3F8F4308C
:1031700003F002030193019B034A53680343536026
:1031800002B07047004402580004005810B58B6824
:103190000A6813430A7943EAC2630A7B43EAC253CB
:1031A0004A7B43EA82538A7B43EA4253CA7B43EA1F
:1031B00002530A7C002A40F0BD804FF400221343E2
:1031C0004A7C002A40F0B8804FF4003213438A7CD6
:1031D00043EA02434A6913438A6913430A7F43EA75
:1031E00002334A7F43EAC2238A7F002A40F0A68046
:1031F0004FF480621343CA7F43EA422391F82020B0
:10320000002A40F09D804FF4807213434A6A1343B2
:1032100091F8282043EA0213CA6A1343D0F800C089
:10322000DCF8002022F07F4222F47B0222F4FE42EE
:1032300022F07C021343CCF80030CA6B91F838308E
:103240001B0643EA426391F8302043EA824391F837
:10325000312043EA424391F83220002A72D14FF4E0
:10326000803213434A6B1343D0F800C0DCF80420CB
:1032700022F07C5222F4EF2222F4FF6222F00702B5
:103280001343CCF8043091F840204B6C43EA0222FF
:10329000D0F800C0DCF80CE02D4B0EEA030313431A
:1032A000CCF80C3091F854200B6D43EA420391F8AE
:1032B0004C20002A48D1802213438A6C43EA0243FF
:1032C000D0F800C0DCF8702022F0F2021204120CD8
:1032D0001343CCF8703091F8562091F8553042EAFB
:1032E0004302D0F800C0DCF8903023F0030313430E
:1032F000CCF890300268D2F8003D23F072038C6D58
:103300002343C2F8003DCB6D91F86020F2B9402212
:10331000134391F8612043EA021391F8622043EAD3
:10332000C2030168D1F8302D22F07B021343C1F8AB
:10333000303D10BD002242E7002247E7002259E756
:10334000002262E700228CE70022B5E70022DFE7D7
:10335000F0FEFFFF10B5026802F58052D2F800C0FF
:10336000244B0CEA03030C68234313600A798B682F
:1033700043EA02330A7B43EAC232036803F5805C06
:10338000DCF804E01C4B0EEA03031343CCF80430D2
:103390004A7B0B6A43EA024C026802F58052D2F87B
:1033A00000E1164B0EEA030343EA0C03C2F80031B6
:1033B0000B690A7D43EA02134A7F43EA023203683B
:1033C00003F5805CDCF804E10D4B0EEA03031343C4
:1033D000CCF804310B7F896941EAC371026802F5B8
:1033E0008052D2F80801074B03400B43C2F8083162
:1033F00010BD00BFFD87FFFFFE2FFFFF00C0FEFFD7
:10340000EFEFC0FFFFFFC07F70B5A2B006460125F9
:103410008DF83350002412948DF841408DF84340CC
:103420008DF828508DF856508DF832508DF84C405C
:103430008DF884504FF400530F938DF85C4018942E
:103440008DF885408DF886404FF4C36316938DF850
:1034500030400B948DF835508DF836408DF8404053
:103460001D941B9414948DF864408DF87A408DF867
:103470004250202320938DF844508DF855404FF052
:10348000405309934FF480430E938DF8314002234B
:103490001F938DF878408DF879408DF854408DF861
:1034A00034501A948DF8705009A9FFF76FFE8DF80B
:1034B0000450029500948DF81C408DF80D408DF855
:1034C0000C404FF4001306938DF8144004938DF8CC
:1034D0001D404FF40673089369463046FFF73AFFE4
:1034E00022B070BD00B5002211E0D0F80CC002EB94
:1034F00042034FEAC30E0CEBC30300214CF80E103D
:1035000059609960D960911D40F821300132032A39
:10351000EBD900238362036803F580530322C3F8C9
:103520002C21C268036803F58053C3F81421C268D4
:10353000036803F58053C3F8202100BD00B50021C6
:1035400014E0D0F810C001EB41034FEAC30E0CEBBE
:10355000C30300224CF80E205A609A60DA601A61A8
:103560005A6101F1120240F8223001310329E8D9F1
:103570000023C36503668366C3668365036803F53A
:1035800080530322C3F830210269036803F5805396
:10359000C3F81C21036903F14802036803F5805353
:1035A000C3F8282100BD000038B505460368D3F8EC
:1035B000004224F47064FEF70FFB104B984205D8CC
:1035C00044F400742B68C3F8004238BD0C4B984299
:1035D00002D244F44074F5E70A4B9842F2D90A4B00
:1035E000984202D844F48074ECE7084B984202D821
:1035F00044F48064E6E744F4A064E3E7BF0E1602F7
:1036000000879303FFE0F5057FD1F0087FB2E60E57
:10361000002800F0A78030B583B00446D0F884308D
:103620009BB3514BD3F8F42042F00202C3F8F420CC
:10363000D3F8F43003F002030193019B237A53BBC8
:103640001846FFF781FD494B5B68236803F58053FB
:103650001A6842F001021A60FFF756FD054623681A
:1036600003F580531B6813F0010F19D0FFF74CFDD1
:10367000401BB0F5FA7FF2D90423C4F88830E02368
:10368000C4F88430012003B030BD2023C0F884305A
:10369000FDF7F6F8C5E74FF40000FFF755FDD2E758
:1036A0002046FFF781FFFEF797FA314BA3FB00237B
:1036B0009B0C2268013BC2F8DC302046FFF7A4FED9
:1036C000226802F58052D2F8003123F4E01343F46B
:1036D0000023C2F80031626912F0030F06D0012006
:1036E000C4F88800E023C4F88430CCE7216801F5F1
:1036F0008051D1F808316FF34E0343EA4203C1F819
:1037000008312046FFF7EEFE2046FFF717FF6368FB
:1037100059791B79226843EA0123C2F800336268B1
:10372000D17893781B0443EA0163517843EA01237B
:10373000117822680B43C2F804332268D2F80C17C0
:103740000C4B0B43C2F80C372268D2F810170A4B07
:103750000B43C2F810370020C4F888001023C4F8C7
:10376000843090E70120704700440258000400585C
:1037700083DE1B436000020C00C0200C00B50A6809
:1037800050F8223023F0010340F822308B68082BD8
:1037900033D04FF0000C4A6842EA0C021343CA6867
:1037A00013430A6913434A6913438A691343CA6975
:1037B00013430A6A13434A6A13438A6A1343CA6A61
:1037C00013430A6B1A434B6B1A438B6B1A43D1F8A2
:1037D00000C050F82CE00F4B0EEA0303134340F8EF
:1037E0002C300B6BB3F5801F0AD00B681BB103683C
:1037F0004A6B13430360002000BD4FF0400CCAE742
:103800000A68002AF1D0026822F480121343036090
:10381000EBE700BF8004C0FF10B40B684C6843EABC
:1038200004138C6843EA0423CC6843EA04430C691C
:1038300004F1FF3C43EA0C534C69A4F1020C43EA47
:103840000C6301328C69234340F82230036813F47F
:10385000801F0BD0426822F470020B69013B42EAE0
:103860000352436823F4700313434360002010BCE9
:10387000704700009446B3F5804F05D06FF0704359
:1038800040F822300020704710B450F822300A4A25
:103890001A400B684C6843EA04138C6843EA04231B
:1038A0008C692343C96843EA0143134340F82C3031
:1038B000002010BC704700BF0000F0CF68B370B5A7
:1038C0000D461646044690F845300BB3214651F894
:1038D000080BFFF753FFA26829462068FFF79CFFFB
:1038E000E36AA26831466068FFF7C4FF2268A168F6
:1038F00052F8213043F0010342F82130084A13689E
:1039000043F000431360012384F84530002070BD6C
:1039100080F84430FDF7F2F8D8E70120704700BF87
:103920000040005202685369916941F008019161B9
:1039300001688A6942F010028A6101680A6822F00F
:1039400001020A600168D1F810C0274A0CEA02029D
:103950000A6101688A6822F440428A6090F88120F6
:10396000042A0DD013F0200F0AD0D0F8842042F0A2
:103970008002C0F8842001688A6942F020028A61CE
:1039800090F88120032A0DD013F0400F0AD0D0F810
:10399000842042F00402C0F8842001688A6942F061
:1039A00040028A6113F4007F0AD0D0F8842042F0EC
:1039B0000102C0F8842001688A6942F400728A61B9
:1039C00013F4807F0AD0D0F8843043F00803C0F8A5
:1039D00084300268936943F4807393610023A0F8F4
:1039E0006230A0F86A30704790FCFFFFC36B5B0940
:1039F000C0680830C00803FB000070472DE9F041A3
:103A000007460E4615461C46DDF8188000E0B4B1A6
:103A10003B685B6936EA03030CBF01230023AB421A
:103A20000AD1FFF771FBA0EB0800A042EFD3B4F17D
:103A3000FF3FECD0032000E00020BDE8F081032030
:103A4000FBE70000002800F0B78070B504460023B3
:103A5000836205685C4B5D4A9D4218BF954214BF66
:103A6000012300231E4606D0594B9D4203D0C36854
:103A70000F2B00F2A3802046FFF7B8FF2EB1544B66
:103A80009D4202D0082800F29B804F4A4F4B9D4236
:103A900018BF954203D003F580639D4202D11028E0
:103AA00000F2908094F88130F3B1022384F88130E1
:103AB0002268136823F00103136023689A6802F4F4
:103AC000F812A169B1F1806F14D0636813F4800F0C
:103AD00023D0E368062B20D921680B6823F4807378
:103AE000206D03430B601DE084F880302046FDF715
:103AF00037F8DAE76168B1F5800F06D00029E4D124
:103B0000A16BB1F1805FE0D102E0A06B0028F5D19C
:103B1000196841F480511960D7E721680B6823F4D4
:103B200080730B60E369A16A0B431343E26B134399
:103B3000E16822680B439360636B626A1343A26B74
:103B40001343A26913432269134362691343226A30
:103B5000134362681343E26C1343A2681343A26CDD
:103B60001343A16D22680B43D36063686BB922686D
:103B7000936823F4C05343F400639360226893680E
:103B800023F4C06343F4806393602268136D23F0D1
:103B900001031365636813F4800F06D02268D368AD
:103BA00023F00043616D0B43D3600020C4F8840010
:103BB000012384F8813070BD012070470120FAE7AD
:103BC0000120F8E70120F6E700300140003800400E
:103BD000003C00402DE9F04782B0044689469046FB
:103BE0001D4603689A46FFF78FFA94F88130012B3F
:103BF00040F049810646DFB249464246002A18BFD6
:103C0000002900F0418194F88030012B00F04081C0
:103C1000012384F88030032384F881300023C4F822
:103C20008430C4F85C90A4F86080A4F86280636675
:103C3000A4F86830A4F86A3063672367A368B3F513
:103C4000C02F1CD02268D36823F4C02343F4003370
:103C5000D360226853686FF30F03414619435160E4
:103C60002268136843F0010313606368B3F5800FA3
:103C70000BD0E3680F2B1BD8072B4DD8ACE0226884
:103C8000136843F400631360E3E72268136843F4A6
:103C900000731360EDE7E26D12681A62E36D04339E
:103CA000E365B4F8622092B2013A92B2A4F86220BD
:103CB000B4F862309BB2002B00F0C98023685A69C7
:103CC00012F0020FE7D1FFF71FFA801BA84202D3C0
:103CD000B5F1FF3F01D1002DEAD12046FFF722FECA
:103CE000D4F8843043F48073C4F88430012384F81A
:103CF0008130002384F880300327C5E0E36D1B8802
:103D0000AAF82030E36D0233E365B4F862309BB269
:103D1000013B9BB2A4F86230B4F862309BB2002B36
:103D200000F095802268536913F0020F15D0B4F8A3
:103D300062309BB2012BE1D9E36B002BDED0E36D47
:103D40001B681362E36D0433E365B4F862309BB221
:103D5000023B9BB2A4F86230DEE7FFF7D5F9801B87
:103D6000A84202D3B5F1FF3F01D1002DD4D12046A6
:103D7000FFF7D8FDD4F8843043F48073C4F884305E
:103D8000012384F88130002384F8803003277BE00E
:103D9000B4F862309BB2012B10D9E36B73B1E36DC1
:103DA0001B88AAF82030E36D0233E365B4F8623073
:103DB0009BB2023B9BB2A4F862300DE0E36D1B782E
:103DC00082F82030E36D0133E365B4F862309BB2D2
:103DD000013B9BB2A4F86230B4F862309BB2002B76
:103DE00035D02268536913F0020F15D0B4F8623051
:103DF0009BB2032BCCD9E36B402BC9D9E36D1B6875
:103E00001362E36D0433E365B4F862309BB2043BA4
:103E10009BB2A4F86230DFE7FFF776F9801BA84277
:103E200002D3B5F1FF3F01D1002DD5D12046FFF7D8
:103E300079FDD4F8843043F48073C4F884300123CE
:103E400084F88130002384F8803003271CE000963A
:103E50002B46002208212046FFF7D0FD28B1D4F8D8
:103E6000843043F02003C4F884302046FFF75AFD25
:103E7000012384F88130002384F88030D4F8843022
:103E800013B91F4600E00227384602B0BDE8F087AC
:103E90000227F9E77047000090F83D30012B3AD136
:103EA000022380F83D300268D36843F00103D360F9
:103EB00003681B4AB3F1804F18BF93421DD0A2F58F
:103EC0007C42934219D002F58062934215D002F5EC
:103ED0008062934211D002F5784293420DD0A2F550
:103EE0006C42934209D002F59432934205D01A688D
:103EF00042F001021A60002070479968094A0A409E
:103F0000062A18BFB2F5803F07D01A6842F00102B6
:103F10001A6000207047012070470020704700BFE2
:103F2000000001400700010070477047704770476C
:103F300070B504460368DE681D6915F0020F10D0E5
:103F400016F0020F0DD06FF002021A610123037701
:103F500003689B6913F0030F67D0FFF7E6FF0023A8
:103F6000237715F0040F12D016F0040F0FD023683A
:103F70006FF004021A610223237723689B6913F40C
:103F8000407F58D02046FFF7D0FF0023237715F05D
:103F9000080F12D016F0080F0FD023686FF0080238
:103FA0001A61042323772368DB6913F0030F49D0D8
:103FB0002046FFF7BAFF0023237715F0100F12D029
:103FC00016F0100F0FD023686FF010021A6108234B
:103FD00023772368DB6913F4407F3AD02046FFF74C
:103FE000A4FF0023237715F0010F02D016F0010F74
:103FF00036D115F0800F02D115F4005F02D016F013
:10400000800F35D115F4807F02D016F0800F37D1A4
:1040100015F0400F02D016F0400F39D115F0200FE7
:1040200002D016F0200F3BD170BDFFF77DFF204678
:10403000FFF77CFF93E72046FFF776FF2046FFF768
:1040400075FFA2E72046FFF76FFF2046FFF76EFFE0
:10405000B1E72046FFF768FF2046FFF767FFC0E79C
:1040600023686FF001021A612046FCF705FAC0E7E9
:1040700023686FF402521A61204600F0DCF8C1E7B1
:1040800023686FF480721A61204600F0D5F8BFE70C
:1040900023686FF040021A612046FFF748FFBDE732
:1040A00023686FF020021A61204600F0C3F8BBE7D6
:1040B00010B58C460368414A904214BF0022012289
:1040C000B0F1804F14BF114642F00101F1B9DFF8A1
:1040D000F4E0704514BF4FF0000E4FF0010E384C65
:1040E000A04213D0BEF1000F10D10EF1804E0EF59C
:1040F000823E704514BF4FF0000E4FF0010E04F5E4
:104100000064A04202D0BEF1000F04D023F070037F
:10411000DCF80440234319BB2A49884214BF00211C
:104120000121DFF89CE070451AD0C9B901F1804146
:1041300001F58231884214BF002101210EF5006E85
:1041400070450DD061B92049884214BF002101217A
:104150000EF59A3E704503D011B91C49884204D12E
:1041600023F44073DCF80C100B4323F08003DCF8DD
:1041700014100B43DCF80810C162DCF800108162F7
:104180001349884208BF42F0010262B90E4A9042C8
:1041900014BF0022012201F57051884203D012B9E8
:1041A0000A4A904202D1DCF810200263026842F011
:1041B0000402026001224261036010BD0000014060
:1041C0000004004000080040004401400048014055
:1041D0000004014060B310B5044690F83D3013B3BD
:1041E000022384F83D30214651F8040BFFF760FFAD
:1041F000012384F8483084F83E3084F83F3084F856
:10420000403084F8413084F8423084F8433084F8F8
:10421000443084F8453084F8463084F8473084F8D8
:104220003D30002010BD80F83C30FFF733FED7E76B
:10423000012070477047704770470000026852E8DD
:10424000003F23F4907342E800310029F6D1026860
:1042500002F1080353E8001F0D4B0B40083242E8FF
:1042600000310029F3D1C36E012B06D02023C0F802
:104270008C300023C36643677047026852E8003FF2
:1042800023F0100342E800310029F6D1EEE700BF29
:10429000FEFFFFEF30B587B0044683680269134321
:1042A00042691343C2691343016808689C4A02408B
:1042B0001A430A602268536823F44053E1680B43B1
:1042C0005360A1692268974B9A4201D0236A19432F
:1042D0009068954B03400B4393602268D36A23F0A8
:1042E0000F03616A0B43D3622368904A93421DD047
:1042F0008F4A934235D08F4A93424DD08E4A934293
:1043000065D08E4A93427DD08D4A934200F09580CD
:104310008C4A934200F0AC808B4A934200F0C280FA
:10432000804A934200F0D880802212E1874A526D81
:1043300002F03802182A00F0EB800AD8082A00F0B0
:10434000E980102A00F0E880002A40F0E78001228E
:10435000FFE0202A00F0FC80282A40F0348140222F
:10436000F7E07A4A526D02F00702032A00F02D812D
:104370000AD8012A00F02B81022A00F02A81002AA3
:1043800000F0E7808022E4E0042A00F02481052A7E
:1043900040F023814022DCE06C4A526D02F00702BB
:1043A000032A00F01C810AD8012A00F01A81022A8F
:1043B00000F01981002A00F0CC808022C9E0042A94
:1043C00000F01381052A40F012814022C1E05F4ACB
:1043D000526D02F00702032A00F00B810AD8012A6D
:1043E00000F00981022A00F00881002A00F0B18063
:1043F0008022AEE0042A00F00281052A40F001810B
:104400004022A6E0514A526D02F00702032A00F052
:10441000FA800AD8012A00F0F880022A00F0F7801A
:10442000002A00F09680802293E0042A00F0F180B8
:10443000052A40F0F08040228BE0444A526D02F0A1
:104440003802182A00F0E9800AD8082A00F0E7802C
:10445000102A00F0E680002A40F0E580012278E092
:10446000202A00F0E280282A40F0E180402270E01B
:10447000364A526D02F00702032A00F0DA8009D8AA
:10448000012A00F0D880022A00F0D780002A60D0EC
:1044900080225EE0042A00F0D280052A40F0D1801C
:1044A000402256E0294A526D02F00702032A00F02A
:1044B000CA8009D8012A00F0C880022A00F0C7800B
:1044C000002A46D0802244E0042A00F0C280052A57
:1044D00040F0C18040223CE002F50E32926D02F0C5
:1044E0000702032A00F0B9800AD8012A00F0B78039
:1044F000022A00F0B680002A40F0B580022228E0AF
:10450000042A00F0B280052A40F0B180402220E069
:1045100010221EE004221CE008221AE0802218E08B
:10452000F369FFCF000C0058FFF4FF1100100140A9
:104530000044004000480040004C00400050004053
:104540000014014000780040007C00400044025804
:1045500020229F498B4200F08C80E069B0F5004F2B
:1045600000F0E480082A00F05B8100F23D81012A1E
:1045700000F04E81042A00F04E81002A40F026818E
:10458000FDF74CFBA8B1626A924B33F81230B0FBD6
:10459000F3F0636800EB5300B0FBF3F0A0F11002FE
:1045A0004FF6EF739A4200F24F81236880B2D860D1
:1045B00000200123A4F86A30A4F868300023636760
:1045C000A36707B030BD8022C3E71022C1E70422F1
:1045D000BFE70822BDE72022BBE78022B9E710220F
:1045E000B7E70422B5E70822B3E72022B1E780222B
:1045F000AFE71022ADE70422ABE70822A9E72022AB
:10460000A7E78022A5E71022A3E70422A1E708225A
:104610009FE720229DE780229BE7102299E7042252
:1046200097E7082295E7802293E7202291E78022EE
:104630008FE710228DE704228BE7082289E72022EA
:1046400087E7802285E7102283E7042281E708229A
:104650007FE720227DE780227BE7102279E7042292
:1046600077E7082275E7802273E7202271E780222E
:104670006FE7102A4AD036D8042A3DD0082A40D005
:10468000022A2ED1FEF798F9002892D0626A514B87
:1046900033F81220B0FBF2F3656805EB450199424F
:1046A00000F2CA80B3EB053F00F2C8800023194630
:1046B000FBF746FE090241EA106100022A466B0838
:1046C000C0184FF0000341F10001FBF739FEA0F5DF
:1046D0004072414B9A4200F2B3802368D8600020B8
:1046E00067E7012065E7202A1CD0402A02D14FF459
:1046F0000040CBE701205CE703A8FEF76FF90498C0
:10470000C2E76846FEF76AFA0198BDE7334B1B68BB
:1047100013F0200F08D0314B1B68C3F3C10330489E
:10472000D840B3E72F48B1E72D48AFE7082A44D077
:1047300027D8012A39D0042A3AD002BBFDF76EFAF5
:1047400000283FF436AF626A224B33F81230B0FBD8
:10475000F3F06268530803EB4003B3FBF2F3A3F1F9
:1047600010014FF6EF7291426CD89AB222F00F020C
:10477000C3F3420313432268D360002019E70120EA
:1047800017E7202A1ED0402ADDD0102A0BD1134B68
:104790001B6813F0200F17D0104B1B68C3F3C10325
:1047A0000F48D840CFE7012003E7FDF749FAC7E7F4
:1047B00003A8FEF713F90498C2E76846FEF70EFA5D
:1047C0000198BDE70748BEE70548BCE70120F0E6D1
:1047D000000C005854880008FFFC0F0000440258E9
:1047E0000090D00300093D00202A1ED0402A1ED090
:1047F000102A0BD1154B1B6813F0200F1AD0134B46
:104800001B68C3F3C1031248D840BCE60120D0E6C0
:10481000FDF716FAB6E603A8FEF7E0F80498B1E64D
:104820006846FEF7DBF90198ACE60A48ABE64FF4C0
:104830000040A8E60648A6E60120BAE60120B8E650
:104840000120B6E60120B4E60120B2E60044025899
:104850000090D00300093D00836A13F0080F06D0D2
:104860000268536823F40043816B0B435360836AEF
:1048700013F0010F06D00268536823F40033C16AB5
:104880000B435360836A13F0020F06D0026853682B
:1048900023F48033016B0B435360836A13F0040FDE
:1048A00006D00268536823F48023416B0B435360A6
:1048B000836A13F0100F06D00268936823F48053C4
:1048C000C16B0B439360836A13F0200F06D002681C
:1048D000936823F40053016C0B439360836A13F0D5
:1048E000400F0AD00268536823F48013416C0B43D5
:1048F0005360436CB3F5801F0BD0836A13F0800FB5
:1049000006D00268536823F40023C16C0B43536044
:1049100070470268536823F4C003816C0B435360F3
:10492000EBE72DE9F04104460D4616469846069FF2
:104930002368DB6935EA03030CBF4FF0010C4FF02D
:10494000000CB44538D1B7F1FF3FF1D0FEF7DCFBE6
:104950004346C01AB84232D89FB323681A6812F08F
:10496000040FE5D0B5F1400218BF0122802DDFD041
:10497000002ADDD0DA6912F0080F11D1DA6912F4D9
:10498000006FD5D04FF400621A622046FFF756FC44
:104990002023C4F89030002384F8843003200CE0F6
:1049A00008251D622046FFF749FCC4F890500023FB
:1049B00084F88430012000E00020BDE8F08103206D
:1049C000FBE70320F9E72DE9F04184B01E46D0F85B
:1049D0008830202B64D104460D460392002A18BF6C
:1049E000002901D101205CE00023C0F89030212390
:1049F000C0F88830FEF788FB0746039BA4F85430C4
:104A0000A4F85630A368B3F5805F02D0002398461F
:104A10001EE0236983B30023984619E02023C4F8DD
:104A2000883003203DE0424632F8023B904622683F
:104A3000C3F308039362D4F8883003F02103212BD9
:104A400032D1B4F8562092B2013A92B2A4F856206C
:104A5000B4F856309BB293B100963B4600228021B9
:104A60002046FFF75EFF0028D8D1002DDBD015F8D7
:104A7000012B23689A62DEE7A8461D46E8E7009608
:104A80003B46002240212046FFF74BFF18B9202368
:104A9000C4F8883005E02023C4F88830032000E003
:104AA000022004B0BDE8F0810120FAE730B583B000
:104AB00004460023C0F89030FEF726FB0546226826
:104AC000126812F0080F10D123681B6813F0040F4E
:104AD00027D12023C4F88830C4F88C300020E06649
:104AE000206784F8840003B030BD6FF07E430093EC
:104AF000034600224FF400112046FFF712FF002862
:104B0000E2D0226852E8003F23F0800342E80031FF
:104B10000029F6D12023C4F8883084F884100320BB
:104B2000E1E76FF07E4300932B4600224FF48001B3
:104B30002046FFF7F6FE0028CBD0226852E8003F5F
:104B400023F4907342E800310029F6D1226802F183
:104B5000080353E8003F23F00103083242E8003124
:104B60000029F3D12023C4F88C3084F8841003206A
:104B7000B9E778B310B50446D0F888300BB32423D6
:104B8000C4F888302268136823F001031360A36A15
:104B9000E3B92046FFF77EFB012811D02268536855
:104BA00023F4904353602268936823F02A039360B0
:104BB0002268136843F0010313602046FFF776FF75
:104BC00010BD80F88430FCF765F8D8E72046FFF781
:104BD00043FEDEE701207047436E2BB90123A0F8A6
:104BE0006A30A0F86830704700B503689A68C2F36D
:104BF00042629968490FDFF82CE01EF801301B0172
:104C0000DFF824C01CF8011093FBF1F3A0F86A3020
:104C10001EF802301B011CF8022093FBF2F3A0F8EF
:104C2000683000BD748800086C88000890F88430F3
:104C3000012B18D0012380F884302423C0F8883059
:104C400003681A68196821F00101196022F0005206
:104C50000023436601680A602022C0F8882080F89B
:104C60008430184670470220704738B590F8843079
:104C7000012B1DD00446012380F884302423C0F882
:104C8000883003681D681A6822F001021A60026801
:104C9000936823F0604319439160FFF79DFF2368F9
:104CA0001D602023C4F88830002084F8840038BDBB
:104CB0000220FCE738B590F88430012B1DD0044663
:104CC000012380F884302423C0F8883003681D68ED
:104CD0001A6822F001021A600268936823F0606388
:104CE00019439160FFF778FF23681D602023C4F803
:104CF0008830002084F8840038BD0220FCE70000E2
:104D0000314AD2F8883043F47003C2F888302F4B10
:104D10001B6803F00F03062B06D82C4A136823F0F8
:104D20000F0343F007031360294B1A6842F0010296
:104D30001A6000221A611968264A0A401A60234B39
:104D40001B6813F0080F06D0204A136823F00F03E6
:104D500043F0070313601E4B00229A61DA611A6266
:104D60001D4999621D49D9621D4919635A639963A6
:104D7000DA6319645A64196821F4802119601A668B
:104D8000184B1B686FF30F03B3F1005F03D2164B90
:104D90000122C3F808210E4BD3F8D43013F4805FFE
:104DA00010D10B4BD3F8D42042F48052C3F8D42056
:104DB0000E4A43F2D2011160D3F8D42022F480527B
:104DC000C3F8D420704700BF00ED00E0002000527F
:104DD000004402587FEDF6EA000202020000FF01E3
:104DE000800201010010005C008000510040005270
:104DF000044BDA6842F00202DA605A689204FCD589
:104E0000704700BF0048025800F1080343604FF0AC
:104E1000FF328260C3600361002303607047002398
:104E20000361704710B402460846D1F800C0BCF1D7
:104E3000FF3F11D002F1080319465B681C68644506
:104E4000FAD94B68436098608160486002611368DA
:104E50000133136010BC70471169F2E703694168C0
:104E600082688A60416851605A68824206D0002296
:104E700002611A68013A1A601868704782685A60BD
:104E8000F5E70346406A18B11B6B1868C0F138009B
:104E9000704710B5044602F055F8A26BE36B9A42D6
:104EA00004D0002402F070F8204610BD0124F9E778
:104EB00010B5044602F046F8A36B2BB901231C463B
:104EC00002F062F8204610BD00231C46F8E770B5DA
:104ED00004461646856B026C5AB903681BB1002064
:104EE0000135A56370BD806801F030FA0023A3602E
:104EF000F6E76EB9406802F062FD6368226C134405
:104F00006360A268934219D3236863603046E7E781
:104F1000C06802F054FDE368226C51429B1AE360C2
:104F20002268934202D2A3680B44E360022E01D0B0
:104F30000020D5E725B1013D0020D1E73046CFE77D
:104F40002846CDE70346026C6AB110B50846D96819
:104F50001144D9609C68A14201D31968D960D9680D
:104F600002F02DFD10BD704738B5054601F0EAFF8F
:104F700095F8454064B201E0013C64B2002C0ADDC2
:104F80006B6A43B105F1240001F09AF80028F3D0D0
:104F900001F068F9F0E7FF2385F8453001F0F4FFF0
:104FA00001F0D0FF95F8444064B201E0013C64B2E6
:104FB000002C0ADD2B6943B105F1100001F080F8E7
:104FC0000028F3D001F04EF9F0E7FF2385F84430D4
:104FD00001F0DAFF38BD38B590B10D460446C36B19
:104FE0002BB1026C0021A2FB032393B999B14FF0BE
:104FF000500383F31188BFF36F8FBFF34F8FFEE72A
:105000004FF0500383F31188BFF36F8FBFF34F8FBF
:10501000FEE70121EAE701F095FF2368E26B216CCE
:1050200001FB0230A0600020A0636360013A02FB34
:105030000133E360FF2384F8443084F84530B5B988
:1050400023691BB901F0A0FF012038BD04F1100055
:1050500001F036F80028F5D04FF0E0234FF08052F1
:10506000C3F8042DBFF34F8FBFF36F8FEAE704F14E
:105070001000FFF7C9FE04F12400FFF7C5FEE1E7C9
:1050800038B51D46049C0B4649B92460E06323648F
:1050900001212046FFF79FFF84F84C5038BD226065
:1050A000F4E70BB310B584B01C4630B30B1E18BF29
:1050B0000123002A08BF43F00103F3B1B1FA81F3E1
:1050C0005B09002A18BF43F00103B3B150230393D7
:1050D000039B502B1AD04FF0500383F31188BFF37A
:1050E0006F8FBFF34F8FFEE74FF0500383F31188AC
:1050F000BFF36F8FBFF34F8FFEE74FF0500383F383
:105100001188BFF36F8FBFF34F8FFEE7039B01231F
:1051100084F8463000949DF81830FFF7B1FF204620
:1051200004B010BDF0B583B060B10D46164604461C
:105130000023A1FB001272B923B905FB04F010F1A2
:10514000510F0AD94FF0500383F31188BFF36F8FCB
:10515000BFF34F8FFEE70123EEE7503001F0CAFDA9
:105160000246074648B1002380F846300090334697
:10517000503229462046FFF783FF384603B0F0BD82
:10518000F0B585B0019288B10F461D460446B1B115
:10519000022D20D1E36B012B1DD04FF0500383F380
:1051A0001188BFF36F8FBFF34F8FFEE74FF05003AF
:1051B00083F31188BFF36F8FBFF34F8FFEE7036C4C
:1051C000002BE5D04FF0500383F31188BFF36F8FAE
:1051D000BFF34F8FFEE701F051F8064658B9019B27
:1051E000002B48D04FF0500383F31188BFF36F8F2B
:1051F000BFF34F8FFEE700263DE02A4639462046A2
:10520000FFF765FE636A7BB948B14FF0E0234FF0CA
:105210008052C3F8042DBFF34F8FBFF36F8F01F09F
:10522000B3FE012005B0F0BD04F1240000F048FFFA
:105230000028F4D04FF0E0234FF08052C3F8042D43
:10524000BFF34F8FBFF36F8FE9E701F09DFE0020A2
:10525000E8E702A800F0B4FF012619E0002384F873
:10526000443021E0002384F8453023E02046FFF756
:105270007BFE00F0BFFD01F065FEA26BE36B9A427E
:10528000BBD3022DB9D0019B002BDED0002EE0D085
:1052900001F07AFE00F0E0FC01F054FE94F84420A6
:1052A00052B2B2F1FF3FD9D094F8452052B2B2F1D8
:1052B000FF3FD7D001F068FE01A902A800F08CFFE3
:1052C000D8B92046FFF7E5FD0028CFD0019904F1B9
:1052D000100000F0B1FE2046FFF746FE00F08AFD08
:1052E0000028C8D14FF0E0234FF08052C3F8042DBE
:1052F000BFF34F8FBFF36F8FBDE72046FFF734FE3C
:1053000000F078FD00208DE748B108B500218160EC
:105310000160C1600B460A46FFF732FF08BD7047C7
:1053200010B5024600210120FFF7FCFE0446FFF7FE
:10533000EBFF204610BD10B582B00B460090002256
:1053400011460120FFF7ADFE0446FFF7DDFF2046C2
:1053500002B010BD38B540B1054683681C4600F068
:1053600087FF84420AD0002038BD4FF0500383F3FA
:105370001188BFF36F8FBFF34F8FFEE7EB68013BE0
:10538000EB600BB10120EFE71A4619462846FFF7FC
:10539000F7FE0120E8E7F0B585B0019290B10F4625
:1053A0000446C1B100F06AFF064600BB019B002B1A
:1053B0005ED04FF0500383F31188BFF36F8FBFF3BC
:1053C0004F8FFEE74FF0500383F31188BFF36F8FC9
:1053D000BFF34F8FFEE7036C002BE3D04FF0500379
:1053E00083F31188BFF36F8FBFF34F8FFEE7002663
:1053F0003EE039462046FFF7A5FD013DA563236940
:1054000023B901F0C1FD012005B0F0BD04F1100089
:1054100000F056FE0028F4D04FF0E0234FF0805209
:10542000C3F8042DBFF34F8FBFF36F8FE9E701F08F
:10543000ABFD2846E8E702A800F0C2FE012621E005
:10544000002384F8443029E0002384F845302BE021
:105450002046FFF789FD00F0CDFC09E02046FFF76C
:1054600083FD00F0C7FC2046FFF722FD00283FD156
:1054700001F068FDA56B002DBBD1019B002BD6D0A0
:10548000002ED8D001F080FD00F0E6FB01F05AFDBF
:1054900094F844305BB2B3F1FF3FD1D094F845307B
:1054A0005BB2B3F1FF3FCFD001F06EFD01A902A8BE
:1054B00000F092FE0028D1D12046FFF7F9FC002829
:1054C000C6D0019904F1240000F0B6FD2046FFF794
:1054D0004BFD00F08FFC0028CAD14FF0E0234FF0C5
:1054E0008052C3F8042DBFF34F8FBFF36F8FBFE718
:1054F000002089E770B584B0019158B10446036C6F
:105500008BB14FF0500383F31188BFF36F8FBFF35C
:105510004F8FFEE74FF0500383F31188BFF36F8F77
:10552000BFF34F8FFEE700F0A9FE054650B9019B7F
:1055300063B14FF0500383F31188BFF36F8FBFF354
:105540004F8FFEE700231E461D464BE0064649E00E
:10555000013BA363236833B1236943B901F014FD10
:10556000012004B070BD00F0A5FFA060F4E704F1D5
:10557000100000F0A5FD0028F0D04FF0E0234FF020
:105580008052C3F8042DBFF34F8FBFF36F8FE5E751
:1055900001F0FAFC0020E4E702A800F011FE01256A
:1055A0002AE0002384F8443032E0002384F84530B8
:1055B00034E001F0C7FCA06800F070FE064601F080
:1055C000E3FC3BE02046FFF7CFFC00F013FC09E0D2
:1055D0002046FFF7C9FC00F00DFC2046FFF768FCF1
:1055E000002842D101F0AEFCA36B002BB0D1019B8F
:1055F000002BCDD0002DCFD001F0C6FC00F02CFB4D
:1056000001F0A0FC94F844305BB2B3F1FF3FC8D086
:1056100094F845305BB2B3F1FF3FC6D001F0B4FC63
:1056200001A902A800F0D8FD0028D1D12046FFF73B
:105630003FFC0028C6D02368002BBAD0019904F1A2
:10564000240000F0F9FC2046FFF78EFC00F0D2FBAE
:105650000028C7D14FF0E0234FF08052C3F8042D4B
:10566000BFF34F8FBFF36F8FBCE70EB9002078E711
:1056700001F068FC2046FFF704FC0146A06800F03A
:10568000BBFE01F081FCF1E788B170B50E4604461F
:1056900083681D4600F0ECFD854211D0314620465E
:1056A000FFF728FF80B1E3680133E3600CE04FF0BF
:1056B000500383F31188BFF36F8FBFF34F8FFEE763
:1056C000E3680133E360012070BD0000844618B137
:1056D00059B1002003460EE04FF0500383F31188C8
:1056E000BFF36F8FBFF34F8FFEE770470E4800EB9D
:1056F000C30014E00133072B10D80B4A02EBC3029E
:1057000052686245F2D00028F4D1074A52F833209B
:10571000002AEFD1044800EBC300EBE710B10160B1
:10572000C0F804C0704700BF8403002070B5044671
:105730000D46164601F006FC94F844305BB2B3F116
:10574000FF3F0DD094F845305BB2B3F1FF3F0BD073
:1057500001F01AFCA36B5BB12046FFF705FC70BD9E
:10576000002384F84430EDE7002384F84530EFE768
:105770003246294604F1240000F076FCECE70000F4
:10578000074B1B681B6823B9064B4FF0FF321A60AA
:105790007047034B1B68DB681A68024B1A6070473E
:1057A00034040020CC0300202DE9F04107460D46CB
:1057B00016469846089C9200A521206B02F084F8BA
:1057C000236B6FF04042324403EB820323F0070661
:1057D00065B100220F2A06D8AB5CA11881F83430DD
:1057E0000BB10132F6E7002384F84330069B372BD8
:1057F00008D94FF0500383F31188BFF36F8FBFF3C5
:105800004F8FFEE7069BE362E364201DFFF707FB73
:1058100004F11800FFF703FB2461069BC3F1380372
:10582000A361646242463946304601F05DFB206068
:10583000079B03B11C60BDE8F081000038B500246F
:1058400007E004EB84000F4B03EB8000FFF7DCFA6A
:105850000134372CF5D90C4D2846FFF7D5FA0B4CFF
:105860002046FFF7D1FA0A48FFF7CEFA0948FFF7BA
:10587000CBFA0948FFF7C8FA084B1D60084B1C60BB
:1058800038BD00BF600400204C0400203804002014
:105890001C04002008040020F00300203404002031
:1058A0003004002010B5044601F04CFB294A13686F
:1058B00001331360284B1B685BB1284B1B686BB925
:1058C000254B1B68DA6AE36A9A4207D8224B1C60B0
:1058D00004E0214B1C601368012B37D0204A136869
:1058E000013313606364E36A1E4A1268934201D96C
:1058F0001C4A13601C4A03EB830302EB83035B68BF
:10590000A3609868E060211D41609960E36A03EB41
:105910008301880002EB810161611158013111504E
:1059200001F032FB0D4B1B687BB10B4B1B68DA6A35
:10593000E36A9A4209D24FF0E0234FF08052C3F855
:10594000042DBFF34F8FBFF36F8F10BDFFF776FFAE
:10595000C4E700BFEC030020C0080020E0030020E3
:10596000D0030020E40300206004002010B50446AA
:1059700090F8593063B1012B11D0022B0ED04FF0AB
:10598000500383F31188BFF36F8FBFF34F8FFEE790
:10599000006B01F031FA204601F02EFA10BD01F043
:1059A0002BFAFBE70F4B1B68D3B110B501F0CAFA15
:1059B0000D4BDB68DC68201DFFF750FA0B4A1368BB
:1059C000013B1360074A1368013B136001F0DCFAE6
:1059D0002046FFF7CBFF034B1B68002BE6D110BD21
:1059E000704700BF0404002008040020EC030020DE
:1059F00008B5FFF7D7FF074B1B68012BF9D94FF00C
:105A0000E0234FF08052C3F8042DBFF34F8FBFF354
:105A10006F8FEEE76004002070B505460E46214BFF
:105A20001C68214B18680430FFF718FA2B46B5F1B3
:105A3000FF3F14BF00230123002E08BF00239BB1AA
:105A40001A4A5168184B1868816018688C68C460DD
:105A50001868043060601868043088601B685A61F8
:105A600013680133136070BD2A46224415460E4B5D
:105A70001B685A60944207D90D4B18680A4B196885
:105A80000431FFF7CFF9EEE70A4B1868064B1968A7
:105A90000431FFF7C7F9084B1B68AB42E3D9064B4B
:105AA0001D60E0E7E8030020C0080020F0030020AC
:105AB0003004002034040020CC030020F0B587B06F
:105AC0001F460D9B93B104460D4616460E9BB3B17F
:105AD0005C230493049B5C2B1AD04FF0500383F398
