:020000040800F2
:1000000000000220D5630008D50C0008D70C0008BA
:10001000D90C0008DB0C0008DD0C00080000000013
:100020000000000000000000000000000160000867
:10003000DF0C000800000000A1600008795B0008E8
:10004000296400082964000829640008296400085C
:10005000296400082964000829640008296400084C
:10006000296400082964000829640008296400083C
:10007000296400082964000829640008296400082C
:10008000296400082964000829640008296400081C
:10009000296400082964000829640008296400080C
:1000A00029640008E10C000829640008296400089C
:1000B00029640008296400082964000829640008EC
:1000C00029640008296400082964000829640008DC
:1000D00029640008296400082964000829640008CC
:1000E0002964000829640008000000002964000851
:1000F00029640008296400082964000829640008AC
:10010000296400082964000829640008296400089B
:10011000296400082964000829640008296400088B
:10012000296400082964000829640008296400087B
:10013000296400082964000829640008296400086B
:1001400000000000000000000000000000000000AF
:10015000296400082964000829640008296400084B
:10016000296400082964000829640008296400083B
:1001700029640008296400082964000800000000C0
:10018000296400082964000829640008296400081B
:10019000296400082964000829640008296400080B
:1001A00029640008296400082964000829640008FB
:1001B00029640008296400082964000829640008EB
:1001C00029640008296400082964000829640008DB
:1001D00029640008296400082964000829640008CB
:1001E00029640008296400082964000829640008BB
:1001F00029640008296400082964000829640008AB
:10020000296400082964000829640008296400089A
:10021000296400082964000829640008296400088A
:10022000296400082964000829640008000000000F
:1002300029640008296400080000000029640008FF
:10024000296400082964000829640008296400085A
:10025000296400082964000829640008296400084A
:10026000296400082964000829640008296400083A
:1002700029640008296400082964000800000000BF
:1002800029640008296400082964000800000000AF
:080290000000000029640008D1
:1002A00001F0FF01102A2BDB10F0070F08D010F827
:1002B000013B013A8B422DD010F0070F42B3F6D12B
:1002C000F0B441EA012141EA014122F007047FF044
:1002D00000070023F0E80256083C85EA010586EA9B
:1002E000010685FA47F5A3FA87F586FA47F6A5FAD7
:1002F00087F68EB9EED1F0BC01F0FF0102F00702E3
:1003000032B110F8013B013A83EA010313B1F8D18D
:100310000020704701387047002D06BF354603386E
:10032000073815F0010F07D1013015F4807F02BFA7
:10033000013015F4C03F0130F0BC0138704700BFF8
:1003400053B94AB9002908BF00281CBF4FF0FF313C
:100350004FF0FF3000F00CB8ADF1080C6DE904CEA1
:1003600007F0BEF8DDF804E0DDE9022304B07047D1
:10037000704700BF0348044B834202D0034B03B1D4
:100380001847704770000020700000200000000037
:100390000548064B1B1AD90F01EBA301491002D0E7
:1003A000034B03B118477047700000207000002015
:1003B0000000000010B5064C237843B9FFF7DAFFC0
:1003C000044B13B10448AFF300800123237010BD28
:1003D00030010020000000000078000808B5054B3F
:1003E0001BB105490548AFF30080BDE80840FFF7A1
:1003F000CFBF00BF000000003401002000780008DB
:1004000030B585B00024009401940294039400F068
:10041000F3FC01238DF800308DF8014001941F2278
:100420008DF8082087228DF809208DF80A408DF874
:100430000B408DF80C308DF80D308DF80E408DF896
:100440000F40684600F0F6FC042000F0E3FC05B025
:1004500030BD000010B582B004468DF807004FF0A3
:10046000FF3301220DF10701024803F0A8FF2046E7
:1004700002B010BDE002002008B50268034B9A42AA
:1004800000D008BD02F02CFDFBE700BF00000140DA
:1004900072B6FEE700B59DB04C22002109A806F017
:1004A00083FA2022002101A806F07EFA022002F041
:1004B000BDFC00230093244BDA6A22F00102DA62C9
:1004C000DB6A03F001030093204B9A6942F4404237
:1004D0009A619B6903F440430093009B1B4B9B690B
:1004E00013F4005FFAD0012209924FF480330A938B
:1004F00002231293139314926422159216930422EA
:10050000179218930C23199300231A931B9309A88D
:1005100000F0BCFCA0B93F23019303230293039096
:10052000082304934023059306934FF480620792B7
:100530000893022101A801F0FDF818B91DB000BD13
:10054000FFF7A6FFFFF7A4FF000400580048025879
:1005500000B583B0FFF754FF02F092FCFFF79AFF5B
:1005600000F032F800F038F900F062FA00F0A0FA7A
:1005700000F030FB114B18680023022219468068F6
:1005800006F088F80E4806F07DF800F0D9FF064620
:1005900001F01AFA054601F039FA044601F048FA6A
:1005A000009023462A463146064806F003F805F037
:1005B000EFFA00F001F905F005FBFEE7200000204E
:1005C00018780008307800082DE9F0478EB009ADA2
:1005D000002409940A940B940C940D945E4BD3F868
:1005E000E02042F00402C3F8E020D3F8E02002F05B
:1005F00004020192019AD3F8E02042F02002C3F8ED
:10060000E020D3F8E02002F020020292029AD3F810
:10061000E02042F08002C3F8E020D3F8E02002F0AE
:1006200080020392039AD3F8E02042F00102C3F85B
:10063000E020D3F8E02002F001020492049AD3F8FB
:10064000E02042F04002C3F8E020D3F8E02002F0BE
:1006500040020592059AD3F8E02042F01002C3F858
:10066000E020D3F8E02002F010020692069AD3F8B8
:10067000E02042F00202C3F8E020D3F8E02002F0CC
:1006800002020792079AD3F8E02042F00802C3F86A
:10069000E020D3F8E03003F008030893089BDFF86C
:1006A000C8A022464C21504602F0B0FBDFF8BC80C7
:1006B0002246E021404602F0A9FBDFF8B490224632
:1006C0000321484602F0A2FB4BF6C06309930A944B
:1006D0000B942946214802F079FA4FF4507309939C
:1006E0000A940B9429461E4802F070FA4FF4807366
:1006F00009930A940B9429461A4802F067FA4C238E
:10070000099301260A960B9403270C972946504615
:1007100002F05CFA182309930A940B942946404688
:1007200002F054FAE02309930A960B940C97294699
:10073000404602F04BFA09970A960B940C9429460E
:10074000484602F043FA102002F0ECFB202002F0B1
:10075000E9FB0EB0BDE8F0870044025800180258CB
:100760000008025800000258000C02580004025809
:100770000010025838B50D4805F084FF00240C4DD8
:100780000121284602F048FB0221284602F044FBE2
:10079000651C02F0B1FB02462146064805F00AFF3F
:1007A0004FF47A7005F093FA2C46E8E77078000869
:1007B000001002588C78000808B5044A002104484B
:1007C00005F024FA034B186008BD00BFD07800087C
:1007D000750700084C01002008B50F480F4B036057
:1007E0000F4B00221A7080215970E1219970DA7044
:1007F0001A715A714360012303720A4BC3600A4B9A
:1008000003614FF4C063436102F0E6FD00B908BD27
:10081000FFF73EFEFBE700BF5801002000800240CA
:100820005001002070000020D000002070B58CB076
:1008300000230793089309930A930B930268384B9C
:100840009A4201D00CB070BD364BD3F8D82042F498
:100850000042C3F8D820D3F8D82002F40042019215
:10086000019AD3F8D82042F48032C3F8D820D3F8C4
:10087000D82002F480320292029AD3F8D82042F4AF
:100880000032C3F8D820D3F8D82002F40032039203
:10089000039AD3F8E02042F00402C3F8E020D3F832
:1008A000E02002F004020492049AD3F8E02042F01F
:1008B0000102C3F8E020D3F8E02002F00102059223
:1008C000059AD3F8E02042F00202C3F8E020D3F802
:1008D000E03003F002030693069B322307930224C1
:1008E00008940A940B250B9507A90F4802F06EF99E
:1008F000862307930894002609960A940B9507A966
:100900000A4802F063F94FF460530793089409967C
:100910000A940B9507A9064802F058F992E700BF20
:1009200000800240004402580008025800000258AB
:1009300000040258F0B5B9B00023339334933593D3
:1009400036933793334B1B680BB139B0F0BD314B45
:1009500001221A6002ACC0220021204606F024F8D1
:100960004FF080720023CDE90223204601F0A4F964
:1009700000284BD1284BD3F8D42042F48052C3F83E
:10098000D420D3F8D43003F480530193019B4FF269
:100990003F03339302273497002635960325369577
:1009A0000C23379333AC21461C4802F00FF93F2348
:1009B00033933497359636950C2337932146184850
:1009C00002F004F94FF680733393349735963695D9
:1009D0000C2337932146134802F0F8F84FF633738F
:1009E00033933497359636950C23379321460E482A
:1009F00002F0ECF88023339334973596369509232B
:100A000037932146094802F0E1F89EE7FFF740FDE1
:100A1000B0E700BF0802002000440258001402584A
:100A20000018025800100258000C02580008025822
:100A300000B589B001A9002201924A608A60CA60AB
:100A40000A614A618A611648164B036003F5827396
:100A500043608260C26002614FF0100CC0F814C0A5
:100A60008261C261026242628262C2620263426366
:100A70008263C26302640F23019302934FF03C0E22
:100A8000CDF80CE00493CDF814C01123069302F0C6
:100A9000F9FD08B909B000BDFFF7FAFCFAE700BF9D
:100AA0000C0200200040005208B5FFF743FF08BDCC
:100AB00008B51348134B03604FF4800343600023D1
:100AC00083600322C260036143614FF080628261F0
:100AD000C361036243628362C3624FF08042426338
:100AE0008363C363036443648364C36403654365CE
:100AF000836502F003FE00B908BDFFF7C9FCFBE700
:100B0000580200200030014070B5BAB00446002100
:100B100035913691379138913991C02204A805F06A
:100B200043FF2268274B9A4201D03AB070BD4FF480
:100B300080520023CDE9042304A801F0BDF8002869
:100B40003CD1214BD3F8F02042F48052C3F8F0207E
:100B5000D3F8F02002F480520192019AD3F8E020F9
:100B600042F00102C3F8E020D3F8E02002F00102D5
:100B70000292029AD3F8E02042F00802C3F8E02083
:100B8000D3F8E03003F008030393039B70233593FD
:100B9000022536950024379438940526399635A9D0
:100BA0000A4802F013F88023359336953794389429
:100BB000399635A9064802F009F8B6E7FFF768FC50
:100BC000BFE700BF00300140004402580000025857
:100BD000000C025808B51748174B03604FF4E13377
:100BE000436000238360C36003610C224261836120
:100BF000C36103624362836203F0B7FC70B90021F2
:100C00000C4803F02EFD60B900210A4803F04EFDA8
:100C100050B9084803F006FD48B908BDFFF738FC95
:100C2000EDE7FFF735FCEFE7FFF732FCF1E7FFF701
:100C30002FFCF2E7E00200200010014010B5B8B030
:100C40000446002133913491359136913791C02279
:100C500002A805F0A9FE22681B4B9A4201D038B0C9
:100C600010BD01220023CDE9022302A801F024F8DF
:100C700038BB164BD3F8F02042F01002C3F8F02036
:100C8000D3F8F02002F010020092009AD3F8E0208E
:100C900042F00102C3F8E020D3F8E03003F0010392
:100CA0000193019B4FF4C0633393022334930023D9
:100CB000359336930723379333A9054801F086FF10
:100CC000CDE7FFF7E5FBD4E70010014000440258F0
:100CD00000000258FEE7FEE7FEE7FEE7FEE770478A
:100CE00008B5024802F020FE08BD00BFC84C002035
:100CF00000B583B00A4BD3F8F42042F00202C3F8E7
:100D0000F420D3F8F43003F002030193019B002296
:100D10000F216FF0010000F05BF803B000BD00BFD1
:100D200000440258002807DB00F01F02400901239D
:100D30009340024A42F82030704700BF00E100E0D3
:100D4000002804DB0901C9B2044B1954704700F0B4
:100D50000F000901C9B2024B1954704700E400E0CA
:100D600014ED00E000B500F00700A0F1030CBCF1A9
:100D7000040F07D8C0F1070E0430062806D84FF03C
:100D8000000C03E04FF0040E4FF0000C4FF0FF3367
:100D900003FA0EF021EA000101FA0CF103FA0CF358
:100DA00022EA030241EA020000BD00000649CB68C6
:100DB00023F4E0631B041B0C000200F4E060034317
:100DC000024A1A43CA60704700ED00E00000FA05CD
:100DD00010B50446054BD868C0F30220FFF7C2FFE8
:100DE00001462046FFF7ACFF10BD00BF00ED00E05C
:100DF00008B5FFF797FF08BDBFF35F8F044B5A6A32
:100E000022F480325A620022C3F89420704700BF57
:100E100000ED00E040F00100054BC3F894005A6A71
:100E200042F480325A62BFF34F8FBFF36F8F704727
:100E300000ED00E04378144AC2F89830D2F8A030B0
:100E400023F00103C2F8A0304368C2F89C30017B54
:100E5000C37A1B0643EA0173817A43EAC143417BAB
:100E600043EA8143817B43EA4143C17B43EA014337
:100E7000417A43EA0123017A43EA410301780B43B3
:100E8000C2F8A030704700BF00ED00E0002800F07D
:100E90003A8338B50446036813F0010F25D0944A0D
:100EA000136903F03803926A102B15D0182B0FD05A
:100EB0006368B3F5803F3FD0002B53D18C4B1A6849
:100EC00022F480321A601A6822F480221A6038E014
:100ED00002F00302022AEBD1854B1B6813F4003F9A
:100EE00003D06368002B00F01083236813F0020F17
:100EF00000F0A1807E4A1369926A13F038035AD039
:100F0000182B55D0E368002B00F0DE8078490A6882
:100F100022F0190213430B6001F0EEFF0546744BFB
:100F20001B6813F0040F40F0AD8001F0E5FF401B9B
:100F30000228F4D90320EFE26D4A136843F48033AA
:100F4000136063682BB301F0D7FF0546684B1B683D
:100F500013F4003FC9D101F0CFFF401B6428F5D93D
:100F60000320D9E2B3F5A02F09D0614B1A6822F40F
:100F700080321A601A6822F480221A60E1E75C4B22
:100F80001A6842F480221A601A6842F480321A60A9
:100F9000D7E701F0B1FF0546554B1B6813F4003F3E
:100FA000A3D001F0A9FF401B6428F5D90320B3E2C8
:100FB00012F0030FA6D14E4B1B6813F0040F03D0A1
:100FC000E368002B00F0A382494A136823F0190359
:100FD000E1680B43136001F08FFF0546444B1B682B
:100FE00013F0040F06D101F087FF401B0228F5D94A
:100FF000032091E201F086FF41F20303984212D8E8
:101000002269402A07D03A494B6823F47C3343EAEB
:1010100002334B600FE0364A536823F47C3343F4C9
:101020000033536007E0324A536823F0FE432169DE
:1010300043EA01635360236813F0100F00F08880C7
:101040002B4A136903F03803926A082B56D0182BE9
:1010500050D0E369002B00F0B880254A136843F0B4
:101060008003136001F048FF0546214B1B6813F411
:10107000807F40F0888001F03FFF401B0228F4D9B8
:10108000032049E201F03EFF41F20303984212D8E7
:101090002269402A07D016494B6823F47C3343EA7F
:1010A00002334B60C7E7124A536823F47C3343F49E
:1010B00000335360BFE70E4A536823F0FE432169B3
:1010C00043EA01635360B6E7094A136823F001035A
:1010D000136001F011FF0546054B1B6813F0040F68
:1010E000A9D001F009FF401B0228F5D9032013E223
:1010F0000044025802F00302012AAAD1994B1B684E
:1011000013F4807F03D0E369802B40F0028201F06A
:10111000F9FE41F20303984212D8226A202A07D02E
:1011200090494B6823F0F84343EA82634B600FE039
:101130008C4A536823F0F84343F08043536007E040
:10114000884AD36823F07C53216A43EA0163D36061
:10115000236813F0080F60D06369002B49D0814ADF
:10116000536F43F00103536701F0C6FE05467D4B04
:101170005B6F13F0020F50D101F0BEFE401B02283E
:10118000F5D90320C8E101F0BDFE41F20303984206
:1011900012D8226A202A07D072494B6823F0F843FC
:1011A00043EA82634B60D3E76E4A536823F0F84307
:1011B00043F080435360CBE76A4AD36823F07C5303
:1011C000216A43EA0163D360C2E7664A136823F0E9
:1011D0008003136001F090FE0546624B1B6813F418
:1011E000807FB5D001F088FE401B0228F5D903208E
:1011F00092E15C4A536F23F00103536701F07CFED8
:101200000546584B5B6F13F0020F06D001F074FED9
:10121000401B0228F5D903207EE1236813F0200F3C
:1012200029D0A3699BB14F4A136843F480531360DC
:1012300001F062FE05464B4B1B6813F4005F1AD1A8
:1012400001F05AFE401B0228F5D9032064E1454A0B
:10125000136823F48053136001F04EFE0546414BA2
:101260001B6813F4005F06D001F046FE401B022805
:10127000F5D9032050E1236813F0040F21D1636AEC
:10128000002B00F04881374A126902F03802182A10
:1012900000F0EF80022B7AD0324A136823F080737B
:1012A000136001F029FE04462E4B1B6813F0007FEB
:1012B00000F0DD8001F020FE001B0228F4D903209D
:1012C0002AE1294A136843F48073136001F014FE85
:1012D0000546254B1B6813F4807F06D101F00CFEF8
:1012E000401B6428F5D9032016E1A368012B0AD01E
:1012F0000BBB1C4B1A6F22F001021A671A6F22F007
:1013000004021A6704E0174A136F43F001031367DE
:10131000A3685BB301F0F0FD0546124B1B6F13F0A1
:10132000020FACD101F0E8FD401B41F28833984236
:10133000F3D90320F0E0052B09D00A4B1A6F22F0F5
:1013400001021A671A6F22F004021A67E0E7054BE0
:101350001A6F42F004021A671A6F42F001021A670C
:10136000D6E700BF004402580048025801F0C4FD0F
:101370000546714B1B6F13F0020F80D001F0BCFDCE
:10138000401B41F288339842F3D90320C4E06A4AF3
:10139000136823F08073136001F0AEFD0546664BC1
:1013A0001B6813F0007F06D001F0A6FD401B022849
:1013B000F5D90320B0E0604B996A604A0A40A16AFF
:1013C000E06A41EA00110A439A62226B013AC2F3D1
:1013D0000802616B0139490289B20A43A16B0139E4
:1013E000090401F4FE010A43E16B0139090601F029
:1013F000FE410A431A63DA6A22F00102DA625A6B8A
:101400006FF3CF02A16C42EAC1025A63DA6A22F09A
:101410000C02216C0A43DA62DA6A22F00202616C81
:101420000A43DA62DA6A42F48032DA62DA6A42F451
:101430000032DA62DA6A42F48022DA62DA6A42F070
:101440000102DA621A6842F080721A6001F054FDFB
:101450000446394B1B6813F0007F06D101F04CFDA8
:10146000001B0228F5D9032056E0002054E000209C
:1014700052E0314A916A106B012B4ED001F0030308
:10148000A26A93424BD1C1F30511E36A994248D154
:10149000C0F30802236B013B9A4244D1C0F34622B9
:1014A000636B013B9A4240D1C0F30642A36B013B00
:1014B0009A423CD1C0F30660E36B013B984238D1BD
:1014C0001D4B5B6BC3F3CC03A26C9A4201D100208D
:1014D00022E0194AD36A23F00103D36201F00CFD24
:1014E000054601F009FDA842FBD0134A536B6FF388
:1014F000CF03A16C43EAC1035363D36A43F00103F2
:10150000D362002008E001207047012004E00120A0
:1015100002E0012000E0184638BD0120FCE7012070
:10152000FAE70120F8E70120F6E70120F4E70120BF
:10153000F2E70120F0E700BF004402580CFCFFFF77
:10154000744B1B6903F03803102B00F0DD80182B5F
:101550000FD0002B40F0DA806E4B1B6813F0200F89
:1015600000F0D6806B4B1B68C3F3C1036A48D840B8
:101570007047684B9A6A02F00302D3F828C0CCF394
:101580000510D96A01F001015B6BC3F3CC0301FBC9
:1015900003F307EE903AF8EE677A1CF47C7F00F0D4
:1015A000B880012A4AD0022A74D0002A40F08F80E5
:1015B000584B1B6813F0200F23D056490A68C2F31A
:1015C000C102554BD34007EE103AF8EE476A07EEDA
:1015D000100AB8EE476A86EE867A0B6BC3F30803EF
:1015E00006EE903AF8EE666A9FED4C6A67EE867AF0
:1015F00076EEA77AF7EE006A77EEA67A27EE277ADC
:1016000038E007EE100AF8EE476A9FED456A86EE6D
:10161000267A404B1B6BC3F3080306EE903AF8EEB4
:10162000666A9FED3E6A67EE867A76EEA77AF7EEF7
:10163000006A77EEA67A27EE277A1BE007EE100AFB
:10164000F8EE476A9FED376A86EE267A314B1B6BC0
:10165000C3F3080306EE903AF8EE666A9FED2F6A30
:1016600067EE867A76EEA77AF7EE006A77EEA67ACC
:1016700027EE277A274B1B6BC3F34623013307EE74
:10168000903AF8EE677AC7EE276AFCEEE67A17EE34
:10169000900A704707EE100AF8EE476A9FED226A3B
:1016A00086EE267A1B4B1B6BC3F3080306EE903ABB
:1016B000F8EE666A9FED196A67EE867A76EEA77A8B
:1016C000F7EE006A77EEA67A27EE277AD2E707EEE2
:1016D000100AF8EE476A9FED136A86EE267A0D4BE4
:1016E0001B6BC3F3080306EE903AF8EE666A9FEDB3
:1016F0000B6A67EE867A76EEA77AF7EE006A77EEE7
:10170000A67A27EE277AB5E7084870470848704759
:1017100001487047004402580090D003000000398F
:101720000024744C0024744A0024F44A00127A0005
:1017300000093D00002800F0328170B50D460446D6
:101740009B4B1B6803F00F038B420BD2984A136824
:1017500023F00F030B431360136803F00F038B4256
:1017600040F01F81236813F0040F0CD02269914BC5
:101770009B6903F070039A4205D98E498B6923F067
:1017800070031A438A61236813F0080F0CD0626952
:10179000884BDB6903F070039A4205D98549CB6910
:1017A00023F070031A43CA61236813F0100F0CD0A2
:1017B000A269804BDB6903F4E0639A4205D97D4955
:1017C000CB6923F4E0631A43CA61236813F0200F46
:1017D0000CD0E269774B1B6A03F070039A4205D97B
:1017E00074490B6A23F070031A430A62236813F0EA
:1017F000020F0CD0E2686F4B9B6903F00F039A4213
:1018000005D96C498B6923F00F031A438A61236859
:1018100013F0010F41D0674A936923F47063A16804
:101820000B4393616368022B0AD0032B27D0012B53
:101830002CD0604A126812F0040F06D10120ADE0EE
:10184000126812F4003F00F0AE805A490A6922F093
:10185000070213430B6101F04FFB0646554B1B6912
:1018600003F038036268B3EBC20F16D001F044FBFB
:10187000801B41F288339842F0D903208EE04D4A14
:10188000126812F0007FE0D1012087E0494A126817
:1018900012F4807FD9D1012080E0236813F0020F79
:1018A0000CD0E268434B9B6903F00F039A4205D2C8
:1018B00040498B6923F00F031A438A613C4B1B6834
:1018C00003F00F03AB420AD9394A136823F00F0320
:1018D0002B431360136803F00F03AB4265D12368F9
:1018E00013F0040F0CD02269324B9B6903F0700394
:1018F0009A4205D22F498B6923F070031A438A61FB
:10190000236813F0080F0CD062692A4BDB6903F0DF
:1019100070039A4205D22749CB6923F070031A431A
:10192000CA61236813F0100F0CD0A269214BDB6948
:1019300003F4E0639A4205D21E49CB6923F4E063C5
:101940001A43CA61236813F0200F0CD0E269194BC7
:101950001B6A03F070039A4205D216490B6A23F002
:1019600070031A430A62FFF7EBFD12498B69C3F358
:101970000323114AD35C03F01F03D8408B6903F0A3
:101980000F03D35C03F01F0320FA03F30B4A136029
:101990000B4B18600B4B186804F0D4FC70BD012091
:1019A00070470120FAE70120F8E70120F6E700BFC1
:1019B00000200052004402581C7900080800002052
:1019C0000C0000200400002008B5FFF7B9FD0B4A09
:1019D0009369C3F303230A49CB5C03F01F0320FA86
:1019E00003F3926902F00F02885C00F01F0023FAF3
:1019F00000F0044A1060044A136008BD0044025815
:101A00001C790008080000200C00002008B5FFF732
:101A1000DBFF054BDB69C3F30213044AD35C03F01D
:101A20001F03D84008BD00BF004402581C790008BD
:101A300008B5FFF7C9FF054BDB69C3F30223044A6E
:101A4000D35C03F01F03D84008BD00BF0044025818
:101A50001C7900083F230360114B1A6902F007024A
:101A600042609A6902F4706282609A6902F00F0221
:101A7000C2609A6902F070020261DA6902F07002D3
:101A80004261DA6902F4E06282611B6A03F070036A
:101A9000C361044B1B6803F00F030B60704700BF6A
:101AA0000044025800200052404B9B6A03F003039D
:101AB000032B79D070B505460E463C4A136823F0D7
:101AC0008063136001F018FA0446384B1B6813F06A
:101AD000006F06D001F010FA031B022BF5D903208A
:101AE00070BD324B9A6A22F47C32296842EA013294
:101AF0009A626A68013AC2F30802A9680139490288
:101B000089B20A43E9680139090401F4FE010A4374
:101B100029690139090601F0FE410A439A63DA6A2C
:101B200022F0C00269690A43DA62DA6A22F020020E
:101B3000A9690A43DA62DA6A22F01002DA62DA6B21
:101B40006FF3CF02E96942EAC102DA63DA6A42F06E
:101B50001002DA62C6B9154AD36A43F40023D3628D
:101B6000124A136843F08063136001F0C5F904461C
:101B70000E4B1B6813F0006F14D101F0BDF9001B70
:101B80000228F5D90320ABE7012E05D0074AD36A16
:101B900043F40013D362E3E7044AD36A43F48013A7
:101BA000D362DDE700209BE7012070470044025824
:101BB000404B9B6A03F00303032B79D070B50546B5
:101BC0000E463C4A136823F08053136001F094F9E9
:101BD0000446384B1B6813F0005F06D001F08CF907
:101BE000031B022BF5D9032070BD324B9A6A22F0F9
:101BF0007C72296842EA01529A626A68013AC2F329
:101C00000802A9680139490289B20A43E968013921
:101C1000090401F4FE010A4329690139090601F0AA
:101C2000FE410A431A64DA6A22F4406269690A438F
:101C3000DA62DA6A22F40072A9690A43DA62DA6ABD
:101C400022F48072DA625A6C6FF3CF02E96942EAD9
:101C5000C1025A64DA6A42F48072DA62C6B9154A7D
:101C6000D36A43F48003D362124A136843F080536B
:101C7000136001F041F904460E4B1B6813F0005F3E
:101C800014D101F039F9001B0228F5D90320ABE784
:101C9000012E05D0074AD36A43F08073D362E3E78D
:101CA000044AD36A43F40003D362DDE700209BE7D4
:101CB0000120704700440258F8B50446036813F049
:101CC000006F30D0836EB3F5001F26D00ED8ABB1B5
:101CD000B3F5801F07D102210830FFF7E5FE054666
:101CE00095B12E4621E0012635461EE0B3F5401F92
:101CF00001D1002508E00126354616E09B4AD36A4B
:101D000043F40033D3620025984A136D23F4401343
:101D1000A16E0B431365002607E002212830FFF770
:101D200047FF0546DCE700263546236813F4807F2D
:101D30001BD0A36D022B30D00CD843B3012B06D19E
:101D4000002104F10800FFF7AFFE054605E001267B
:101D500035460AE0033B012B26D845BB834A136D69
:101D600023F00703A16D0B431365236813F4007F71
:101D700037D0E36D802B49D01ED82BB3402B18D120
:101D8000002104F10800FFF78FFE054621E0774AA5
:101D9000D36A43F40033D362DFE7002104F1280063
:101DA000FFF706FF0546D8E701263546DDE72E4654
:101DB000DBE70126354614E0C02B0AD0B3F5807F5F
:101DC00007D0012635460CE0684AD36A43F4003355
:101DD000D36215BB654A136D23F4E073E16D0B43C9
:101DE0001365236813F4806F3CD0D4F8A830B3F5A2
:101DF000800F2FD016D8F3B1B3F5001F0FD10021FB
:101E000004F10800FFF750FE054619E0002104F137
:101E10002800FFF7CDFE0546DBE72E46E1E7012669
:101E200035461FE0B3F5C00F0AD0B3F5000F07D059
:101E30000126354616E04D4AD36A43F40033D36297
:101E40007DB94A4A936D23F46003D4F8A8100B437C
:101E5000936507E0002104F12800FFF7A9FE05467D
:101E6000EEE72E46236813F4006F2BD0D4F8AC3085
:101E7000B3F1007F53D00DD8ABB1B3F1807F06D161
:101E8000002104F10800FFF70FFE054610E00126CF
:101E9000354617E0B3F1407F0AD0B3F1806F07D029
:101EA000012635460EE0314AD36A43F40033D3624B
:101EB000002D3BD12D4A936D23F0E063D4F8AC1094
:101EC0000B439365236813F0007F13D0E36C202B42
:101ED00036D030D833B1102B2AD1244AD36A43F4F8
:101EE0000033D3629DBB214AD36C23F03003E16CF5
:101EF0000B43D364236813F4805F47D0236EB3F59C
:101F0000005F00F08E8027D893B3B3F5805F20D1B7
:101F1000002104F10800FFF7C7FD05462DE0002170
:101F200004F12800FFF744FE0546C1E72E46C9E745
:101F300001263546DEE7302BD4D001263546D9E7D9
:101F4000022104F10800FFF7AFFD0546CAE72E465F
:101F5000D0E70126354619E0B3F5405F0DD0B3F563
:101F6000804F0AD00126354610E000BF00440258D9
:101F7000484AD36A43F40033D362002D58D1454A0E
:101F8000136D23F4E043216E0B431365236813F4B0
:101F9000005F17D0636EB3F5003F5AD04DD843B100
:101FA000B3F5803F46D1012104F10800FFF77CFD25
:101FB0000546002D54D1374A136D23F4E023616E9A
:101FC0000B431365236813F4804F19D0D4F8B03055
:101FD000B3F1005F55D048D843B1B3F1805F41D130
:101FE000012104F10800FFF75FFD0546002D4FD1E8
:101FF000284A936D23F0E043D4F8B0100B43936567
:10200000236813F4004F56D0236FB3F1805F43D0A1
:10201000B3F1005F00F07A81002B42D001263546F3
:1020200049E0002104F12800FFF7C2FD0546A4E7BE
:102030002E46ABE701263546C4E7B3F5802FB8D06E
:10204000B3F5A02FB5D0B3F5403FB2D00126354649
:10205000B8E7012104F12800FFF7AAFD0546A8E72B
:102060002E46AFE701263546CAE7B3F1804FBDD013
:10207000B3F1A04FBAD0B3F1405FB7D001263546D7
:10208000BEE7012104F12800FFF792FD0546ADE708
:102090002E46B5E700440258AA4AD36A43F40033F7
:1020A000D362002D40F03981A64A136D23F04053CE
:1020B000216F0B431365236813F0807F18D0A36C46
:1020C000022B00F0358100F22D813BB1012B40F055
:1020D00026819C4AD36A43F40033D362002D40F03A
:1020E0002E81984AD36C23F00303A16C0B43D36475
:1020F000236813F4800F40F02781236813F0010F49
:1021000019D0E36F102B00F0928100F2848143B16B
:10211000082B40F07D81012104F10800FFF7C4FC89
:102120000546002D40F08A81864A536D23F038031E
:10213000E16F0B435365236813F0020F19D0A36FAF
:10214000022B00F0878100F27E8143B1012B40F029
:102150007781012104F10800FFF7A6FC0546002D58
:1021600040F07F81774A536D23F00703A16F0B4343
:102170005365236813F0040F1BD0D4F89430022B5E
:1021800000F07B8100F2728143B1012B40F06B8142
:10219000012104F10800FFF787FC0546002D40F0FF
:1021A0007381684A936D23F00703D4F894100B43AE
:1021B0009365236813F0200F1DD0D4F89030B3F14D
:1021C000005F00F0758100F264814BB1B3F1805F74
:1021D00040F05C81002104F10800FFF765FC054632
:1021E000002D40F06C81574A536D23F0E043D4F842
:1021F00090100B435365236813F0400F1DD0D4F8A3
:102200009C30B3F5006F00F06E8100F25D814BB140
:10221000B3F5806F40F05581002104F10800FFF70D
:1022200043FC0546002D40F06581464A936D23F43A
:10223000E053D4F89C100B439365236813F0800F90
:102240001DD0D4F8A030B3F5804F00F0678100F2C4
:1022500056814BB1B3F5005F40F04E81002104F18F
:102260000800FFF721FC0546002D40F05E81354A4D
:10227000936D23F46043D4F8A0100B439365236857
:1022800013F0080F0DD0D4F88430B3F5805F00F060
:102290004E812C4A536D23F44053D4F884100B43E1
:1022A0005365236813F0100F0DD0D4F89830B3F5B0
:1022B000807F00F04681234A936D23F44073D4F865
:1022C00098100B439365236813F4002F00F04E81A0
:1022D000D4F8A430B3F5803F00F03D81B3F5003F62
:1022E00008D0002B40F03E81194604F10800FFF7AA
:1022F000DBFB0546002D40F03881124A936D23F434
:102300004033D4F8A4100B4393652FE1012104F16D
:102310000800FFF7C9FB0546C3E62E46CBE60126BB
:102320003546E5E6032B3FF4D9AE01263546DFE618
:10233000022104F10800FFF7B7FB0546CEE62E4662
:10234000D6E600BF00440258AD4A136843F48073D8
:10235000136000F0D1FD0746A94B1B6813F4807F82
:1023600005D100F0C9FDC01B6428F5D90325002D57
:102370004AD1A44B1B6FD4F8B420534013F4407FD0
:102380000CD0A04B1A6F22F44072196F41F48031C7
:102390001967196F21F4803119671A67D4F8B430BE
:1023A000B3F5807F15D08DBBD4F8B43003F4407200
:1023B000B2F5407F1ED0934A136923F47C53136116
:1023C00090490B6FD4F8B420C2F30B0213430B6790
:1023D00093E600F091FD07468A4B1B6F13F0020F46
:1023E000E1D100F089FDC01B41F288339842F3D956
:1023F0000325D8E78348026922F47C52824901EA26
:10240000131313430361DBE72E4676E62E4674E68C
:10241000012635468FE6202B3FF483AE282B3FF470
:1024200080AE182B3FF47DAE0126354683E60121B0
:1024300004F12800FFF7BCFB054672E62E467AE65B
:102440000126354695E6033B022B7FF688AE012632
:1024500035468EE6012104F12800FFF7A9FB054669
:102460007DE62E4685E601263546A2E6033B022B95
:102470007FF694AE012635469BE6012104F1280043
:10248000FFF796FB054689E62E4692E6012635467D
:10249000B1E6B3F1804F3FF4A3AEB3F1A04F3FF4E8
:1024A0009FAEB3F1405F3FF49BAE01263546A2E6F6
:1024B000022104F12800FFF77BFB054690E62E463B
:1024C00099E601263546B8E6B3F5805F3FF4AAAE3B
:1024D000B3F5A05F3FF4A6AEB3F5406F3FF4A2AEF4
:1024E00001263546A9E6022104F12800FFF760FB2A
:1024F000054697E62E46A0E601263546BFE6B3F52B
:10250000004F3FF4B1AEB3F5204F3FF4ADAEB3F59D
:10251000C04F3FF4A9AE01263546B0E6022104F1D2
:102520002800FFF745FB05469EE62E46A7E602215A
:1025300004F12800FFF73CFB00283FF4AAAE012677
:10254000A7E6022104F12800FFF732FB00283FF440
:10255000B2AE0126AFE6022104F12800FFF728FB06
:102560000546C7E60126354600E02E46236813F4EB
:10257000802F18D0D4F88830B3F5001F1FD0B3F5E2
:10258000401F07D0B3F5801F20D11E4AD36A43F401
:102590000033D362EDB91B4A536D23F44013D4F8D2
:1025A00088100B435365236813F4803F2FD0236DAD
:1025B0008BB1B3F5803F1CD00126354627E00121C1
:1025C00004F12800FFF7F4FA0546E3E70126354653
:1025D000E9E72E46E7E70B4AD36A43F40033D362B8
:1025E000A5B9084AD36C23F48033216D0B43D3641F
:1025F0000DE0022104F10800FFF756FA0546EFE767
:102600000048025800440258CFFFFF002E462368BE
:1026100013F0005F11D1236813F4003F28D0D4F8E1
:102620008030B3F5807F14D010D9B3F5007F15D07A
:10263000B3F5407F12D001261AE0022104F12800F0
:10264000FFF7B6FA0028E6D00126E4E733B1012609
:102650000EE0544AD36A43F40033D362002D69D1AB
:10266000504A536D23F44073D4F880100B435365E4
:10267000236813F4801F06D04A4A136D23F00043E9
:10268000616F0B431365236813F0805F07D0454AE1
:10269000136923F48043D4F8B8100B431361236803
:1026A00013F4001F06D03F4A136D23F08073E16ED0
:1026B0000B431365236813F0804F09D0394B1A6917
:1026C00022F400421A611A69D4F8BC100A431A6154
:1026D0002368002B06DA334AD36C23F04053616D34
:1026E0000B43D364236813F4000F07D02D4A536DB6
:1026F00023F44003D4F88C100B435365636813F044
:10270000010F19D1636813F0020F1ED1636813F033
:10271000040F23D1636813F0080F28D1636813F006
:10272000100F2DD1636813F0200F32D106B10126AE
:102730003046F8BD2E469BE7002104F10800FFF764
:10274000B3F90028DED00646DCE7012104F10800D9
:10275000FFF7AAF90028D9D00646D7E7022104F1ED
:102760000800FFF7A1F90028D4D00646D2E70021DF
:1027700004F12800FFF71CFA0028CFD00646CDE769
:10278000012104F12800FFF713FA0028CAD00646F9
:10279000C8E7022104F12800FFF70AFA0028C5D093
:1027A0000126C5E70044025808B5FFF70DF9054BAF
:1027B0001B6AC3F30213044AD35C03F01F03D8401F
:1027C00008BD00BF004402581C79000800B5794BD1
:1027D0009A6AD3F828C0CCF3053ED96AC1F3001138
:1027E000DB6BC3F3CC0301FB03F31CF47C3F00F071
:1027F000DB8002F0030207EE903AF8EE677A012AD6
:102800004BD0022A00F09680002A40F0B080694B3D
:102810001B6813F0200F23D066490A68C2F3C10277
:10282000654BD34007EE103AF8EE476A07EE10EA20
:10283000B8EE476A86EE867A8B6BC3F3080306EE22
:10284000903AF8EE666A9FED5D6A67EE867A76EEFC
:10285000A77AF7EE006A77EEA67A27EE277A38E0B5
:1028600007EE10EAF8EE476A9FED556A86EE267A83
:10287000504B9B6BC3F3080306EE903AF8EE666A82
:102880009FED4E6A67EE867A76EEA77AF7EE006ADB
:1028900077EEA67A27EE277A1BE007EE10EAF8EE2D
:1028A000476A9FED486A86EE267A424B9B6BC3F3DC
:1028B000080306EE903AF8EE666A9FED406A67EE0E
:1028C000867A76EEA77AF7EE006A77EEA67A27EE9A
:1028D000277A384A936BC3F3462307EE903AF8EE13
:1028E000677AF7EE006A77EEA67A87EE276ABCEE83
:1028F000C66A80ED006A936BC3F3064307EE903A15
:10290000F8EE677A77EEA67A87EE276ABCEEC66A9B
:1029100080ED016A936BC3F3066307EE903AF8EE1D
:10292000677A77EEA67AC7EE276AFCEEE66AC0ED14
:10293000026A00BD07EE10EAF8EE476A9FED226AD0
:1029400086EE267A1B4B9B6BC3F3080306EE903A88
:10295000F8EE666A9FED196A67EE867A76EEA77AD8
:10296000F7EE006A77EEA67A27EE277AB1E707EE50
:1029700010EAF8EE476A9FED136A86EE267A0D4B51
:102980009B6BC3F3080306EE903AF8EE666A9FED80
:102990000B6A67EE867A76EEA77AF7EE006A77EE34
:1029A000A67A27EE277A94E70023036043608360CA
:1029B000BFE700BF004402580090D0030000003978
:1029C0000024744C0024744A0024F44A00B5794B66
:1029D0009A6AD3F828C0CCF3055ED96AC1F3002106
:1029E0005B6CC3F3CC0301FB03F31CF07C7F00F0B2
:1029F000DB8002F0030207EE903AF8EE677A012AD4
:102A00004BD0022A00F09680002A40F0B080694B3B
:102A10001B6813F0200F23D066490A68C2F3C10275
:102A2000654BD34007EE103AF8EE476A07EE10EA1E
:102A3000B8EE476A86EE867A0B6CC3F3080306EE9F
:102A4000903AF8EE666A9FED5D6A67EE867A76EEFA
:102A5000A77AF7EE006A77EEA67A27EE277A38E0B3
:102A600007EE10EAF8EE476A9FED556A86EE267A81
:102A7000504B1B6CC3F3080306EE903AF8EE666AFF
:102A80009FED4E6A67EE867A76EEA77AF7EE006AD9
:102A900077EEA67A27EE277A1BE007EE10EAF8EE2B
:102AA000476A9FED486A86EE267A424B1B6CC3F359
:102AB000080306EE903AF8EE666A9FED406A67EE0C
:102AC000867A76EEA77AF7EE006A77EEA67A27EE98
:102AD000277A384A136CC3F3462307EE903AF8EE90
:102AE000677AF7EE006A77EEA67A87EE276ABCEE81
:102AF000C66A80ED006A136CC3F3064307EE903A92
:102B0000F8EE677A77EEA67A87EE276ABCEEC66A99
:102B100080ED016A136CC3F3066307EE903AF8EE9A
:102B2000677A77EEA67AC7EE276AFCEEE66AC0ED12
:102B3000026A00BD07EE10EAF8EE476A9FED226ACE
:102B400086EE267A1B4B1B6CC3F3080306EE903A05
:102B5000F8EE666A9FED196A67EE867A76EEA77AD6
:102B6000F7EE006A77EEA67A27EE277AB1E707EE4E
:102B700010EAF8EE476A9FED136A86EE267A0D4B4F
:102B80001B6CC3F3080306EE903AF8EE666A9FEDFD
:102B90000B6A67EE867A76EEA77AF7EE006A77EE32
:102BA000A67A27EE277A94E70023036043608360C8
:102BB000BFE700BF004402580090D0030000003976
:102BC0000024744C0024744A0024F44A70B582B086
:102BD000002376E085684FEA430E032404FA0EF4DE
:102BE00025EA0405CC6804FA0EF42C43846044689A
:102BF00024EA0C044D68C5F3001C0CFA03FC4CEAF3
:102C00000404446072E08C68012C75D182E0DD0818
:102C1000083550F8254003F0070C4FEA8C0C4FF0B4
:102C20000F0E0EFA0CFE24EA0E0E0C6904FA0CF4D8
:102C300044EA0E0440F8254073E0092400E0002433
:102C400004FA0EF42C430CF1020C6D4D45F82C40A7
:102C50004FF0B04424686FEA020C24EA02054E6883
:102C600016F4801F01D042EA04054FF0B0442560FD
:102C700064680CEA04054E6816F4001F01D042EAAD
:102C800004054FF0B0446560D4F884400CEA0405B4
:102C90004E6816F4003F01D042EA04054FF0B044FC
:102CA000C4F88450D4F880400CEA04054E6816F449
:102CB000803F01D042EA04054FF0B042C2F8805094
:102CC00001330A6832FA03F400F097804FF0010CE8
:102CD0000CFA03FC1CEA0202F2D04C6804F0030E6A
:102CE0000EF1FF3EBEF1010F7FF674AF4C6804F0A9
:102CF000030CBCF1030F86D0C5685C004FF0030CD9
:102D00000CFA04FC25EA0C0E8D6805FA04FC4CEA6A
:102D10000E04C4604C6804F0030CBCF1020F3FF4D5
:102D200076AF05685C004FF0030C0CFA04FC25EA52
:102D30000C0E4D6805F0030C0CFA04FC4CEA0E0472
:102D400004604C6814F4403FBAD02E4CD4F8F450D0
:102D500045F00205C4F8F450D4F8F44004F002043D
:102D60000194019C4FEA930C0CF10205244C54F899
:102D7000255003F0030E4FEA8E0E0F2404FA0EF4D2
:102D800025EA0405204CA0423FF459AF04F58064C5
:102D9000A04222D004F58064A04220D004F58064D3
:102DA000A0421ED004F58064A0421CD004F58064CB
:102DB000A0421AD004F58064A04218D004F58064C3
:102DC000A04216D004F58064A04214D004F58064BB
:102DD000A0423FF432AF0A2432E7012430E7022454
:102DE0002EE703242CE704242AE7052428E70624F9
:102DF00026E7072424E7082422E702B070BD00BFBD
:102E00000004005800440258000002580AB18161D1
:102E10007047090481617047436901EA030221EAAE
:102E2000030141EA0241816170470000134BDB68F6
:102E300013F0040F07D1114BDB6803F00703834243
:102E40001AD00120704710B50C4AD36823F007034D
:102E50000343D36000F050F80446084B5B6813F45A
:102E6000005F07D100F048F8001BB0F57A7FF4D975
:102E7000012000E0002010BD0020704700480258EB
:102E800010B50320FDF792FFFEF75AFB10498B693E
:102E9000C3F303230F4AD35C03F01F03D8408B69AD
:102EA00003F00F03D35C03F01F0320FA03F30A4A75
:102EB00013600A4B18600F2003F044FA18B1012385
:102EC0001C46204610BD0446FDF712FFF9E700BF7F
:102ED000004402581C790008080000200C00002063
:102EE000034B1B78034A11680B441360704700BF03
:102EF0000000002074030020014B1868704700BFD9
:102F000074030020014B1868000C70470010005C2F
:102F1000034A536823F4600303435360704700BFC0
:102F20000004005882B0094BD3F8F42042F00202AA
:102F3000C3F8F420D3F8F43003F002030193019BAB
:102F4000034A53680343536002B070470044025879
:102F50000004005810B58B680A6813430A7943EAE5
:102F6000C2630A7B43EAC2534A7B43EA82538A7BA9
:102F700043EA4253CA7B43EA02530A7C002A40F0E8
:102F8000BD804FF4002213434A7C002A40F0B880F1
:102F90004FF4003213438A7C43EA02434A691343E5
:102FA0008A6913430A7F43EA02334A7F43EAC22312
:102FB0008A7F002A40F0A6804FF480621343CA7FC4
:102FC00043EA422391F82020002A40F09D804FF4EC
:102FD000807213434A6A134391F8282043EA02138C
:102FE000CA6A1343D0F800C0DCF8002022F07F4208
:102FF00022F47B0222F4FE4222F07C021343CCF83E
:103000000030CA6B91F838301B0643EA426391F8EE
:10301000302043EA824391F8312043EA424391F859
:103020003220002A72D14FF4803213434A6B13438B
:10303000D0F800C0DCF8042022F07C5222F4EF2209
:1030400022F4FF6222F007021343CCF8043091F817
:1030500040204B6C43EA0222D0F800C0DCF80CE0C0
:103060002D4B0EEA03031343CCF80C3091F8542097
:103070000B6D43EA420391F84C20002A48D180228C
:1030800013438A6C43EA0243D0F800C0DCF8702096
:1030900022F0F2021204120C1343CCF8703091F8B3
:1030A000562091F8553042EA4302D0F800C0DCF8CF
:1030B000903023F003031343CCF890300268D2F829
:1030C000003D23F072038C6D2343C2F8003DCB6DAD
:1030D00091F86020F2B94022134391F8612043EA4D
:1030E000021391F8622043EAC2030168D1F8302D3F
:1030F00022F07B021343C1F8303D10BD002242E7AD
:10310000002247E7002259E7002262E700228CE70D
:103110000022B5E70022DFE7F0FEFFFF10B50268EE
:1031200002F58052D2F800C0244B0CEA03030C686D
:10313000234313600A798B6843EA02330A7B43EA2C
:10314000C232036803F5805CDCF804E01C4B0EEA35
:1031500003031343CCF804304A7B0B6A43EA024C66
:10316000026802F58052D2F800E1164B0EEA030322
:1031700043EA0C03C2F800310B690A7D43EA0213EB
:103180004A7F43EA0232036803F5805CDCF804E11D
:103190000D4B0EEA03031343CCF804310B7F89690E
:1031A00041EAC371026802F58052D2F80801074B68
:1031B00003400B43C2F8083110BD00BFFD87FFFF7D
:1031C000FE2FFFFF00C0FEFFEFEFC0FFFFFFC07F3D
:1031D00070B5A2B0064601258DF833500024129434
:1031E0008DF841408DF843408DF828508DF85650A9
:1031F0008DF832508DF84C408DF884504FF40053C8
:103200000F938DF85C4018948DF885408DF88640BA
:103210004FF4C36316938DF830400B948DF83550FE
:103220008DF836408DF840401D941B9414948DF811
:1032300064408DF87A408DF84250202320938DF819
:1032400044508DF855404FF0405309934FF480435C
:103250000E938DF8314002231F938DF878408DF83E
:1032600079408DF854408DF834501A948DF8705090
:1032700009A9FFF76FFE8DF80450029500948DF8B0
:103280001C408DF80D408DF80C404FF40013069350
:103290008DF8144004938DF81D404FF40673089385
:1032A00069463046FFF73AFF22B070BD00B50022F4
:1032B00011E0D0F80CC002EB42034FEAC30E0CEB56
:1032C000C30300214CF80E1059609960D960911D1C
:1032D00040F821300132032AEBD9002383620368CE
:1032E00003F580530322C3F82C21C268036803F559
:1032F0008053C3F81421C268036803F58053C3F8F0
:10330000202100BD00B5002114E0D0F810C001EB71
:1033100041034FEAC30E0CEBC30300224CF80E200E
:103320005A609A60DA601A615A6101F1120240F83B
:10333000223001310329E8D90023C365036683667F
:10334000C3668365036803F580530322C3F8302105
:103350000269036803F58053C3F81C21036903F174
:103360004802036803F58053C3F8282100BD00001C
:1033700038B505460368D3F8004224F47064FEF7BC
:1033800023FB104B984205D844F400742B68C3F813
:10339000004238BD0C4B984202D244F44074F5E729
:1033A0000A4B9842F2D90A4B984202D844F48074EE
:1033B000ECE7084B984202D844F48064E6E744F412
:1033C000A064E3E7BF0E160200879303FFE0F50554
:1033D0007FD1F0087FB2E60E002800F0A78030B55C
:1033E00083B00446D0F884309BB3514BD3F8F4201B
:1033F00042F00202C3F8F420D3F8F43003F00203E1
:103400000193019B237A53BB1846FFF781FD494B7B
:103410005B68236803F580531A6842F001021A6062
:10342000FFF76AFD0546236803F580531B6813F018
:10343000010F19D0FFF760FD401BB0F5FA7FF2D9FC
:103440000423C4F88830E023C4F88430012003B09A
:1034500030BD2023C0F88430FDF7E8F9C5E74FF40C
:103460000000FFF755FDD2E72046FFF781FFFEF78A
:10347000ABFA314BA3FB00239B0C2268013BC2F843
:10348000DC302046FFF7A4FE226802F58052D2F815
:10349000003123F4E01343F40023C2F800316269E1
:1034A00012F0030F06D00120C4F88800E023C4F80E
:1034B0008430CCE7216801F58051D1F808316FF3F1
:1034C0004E0343EA4203C1F808312046FFF7EEFEFF
:1034D0002046FFF717FF636859791B79226843EA92
:1034E0000123C2F800336268D17893781B0443EA61
:1034F0000163517843EA0123117822680B43C2F833
:1035000004332268D2F80C170C4B0B43C2F80C376B
:103510002268D2F810170A4B0B43C2F8103700206C
:10352000C4F888001023C4F8843090E70120704765
:10353000004402580004005883DE1B436000020C64
:1035400000C0200C00B50A6850F8223023F00103B7
:1035500040F822308B68082B33D04FF0000C4A68BB
:1035600042EA0C021343CA6813430A6913434A69C7
:1035700013438A691343CA6913430A6A13434A6AA5
:1035800013438A6A1343CA6A13430A6B1A434B6B89
:103590001A438B6B1A43D1F800C050F82CE00F4B44
:1035A0000EEA0303134340F82C300B6BB3F5801F76
:1035B0000AD00B681BB103684A6B134303600020F9
:1035C00000BD4FF0400CCAE70A68002AF1D002683B
:1035D00022F4801213430360EBE700BF8004C0FFB6
:1035E00010B40B684C6843EA04138C6843EA042364
:1035F000CC6843EA04430C6904F1FF3C43EA0C53F2
:103600004C69A4F1020C43EA0C6301328C69234338
:1036100040F82230036813F4801F0BD0426822F474
:1036200070020B69013B42EA0352436823F47003C2
:1036300013434360002010BC704700009446B3F56C
:10364000804F05D06FF0704340F822300020704763
:1036500010B450F822300A4A1A400B684C6843EA0A
:1036600004138C6843EA04238C692343C96843EA42
:103670000143134340F82C30002010BC704700BFBA
:103680000000F0CF68B370B50D461646044690F8BA
:1036900045300BB3214651F8080BFFF753FFA268E2
:1036A00029462068FFF79CFFE36AA26831466068FC
:1036B000FFF7C4FF2268A16852F8213043F00103EC
:1036C00042F82130084A136843F000431360012395
:1036D00084F84530002070BD80F84430FDF7E4F9EF
:1036E000D8E70120704700BF00400052C36B5B0960
:1036F000C0680830C00803FB00007047002800F0D5
:10370000B78070B504460023836205685C4B5D4A50
:103710009D4218BF954214BF012300231E4606D0C8
:10372000594B9D4203D0C3680F2B00F2A380204663
:10373000FFF7DCFF2EB1544B9D4202D0082800F267
:103740009B804F4A4F4B9D4218BF954203D003F5D3
:1037500080639D4202D1102800F2908094F881305D
:10376000F3B1022384F881302268136823F0010347
:10377000136023689A6802F4F812A169B1F1806FAE
:1037800014D0636813F4800F23D0E368062B20D98C
:1037900021680B6823F48073206D03430B601DE0E8
:1037A00084F880302046FDF7AFF9DAE76168B1F5BB
:1037B000800F06D00029E4D1A16BB1F1805FE0D188
:1037C00002E0A06B0028F5D1196841F4805119601E
:1037D000D7E721680B6823F480730B60E369A16A63
:1037E0000B431343E26B1343E16822680B4393607E
:1037F000636B626A1343A26B1343A269134322698A
:10380000134362691343226A134362681343E26CF1
:103810001343A2681343A26C1343A16D22680B43A8
:10382000D36063686BB92268936823F4C05343F490
:10383000006393602268936823F4C06343F4806359
:1038400093602268136D23F001031365636813F41A
:10385000800F06D02268D36823F00043616D0B43CC
:10386000D3600020C4F88400012384F8813070BD47
:10387000012070470120FAE70120F8E70120F6E770
:103880000030014000380040003C0040704700001C
:1038900090F83D30012B3AD1022380F83D30026888
:1038A000D36843F00103D36003681B4AB3F1804F30
:1038B00018BF93421DD0A2F57C42934219D002F565
:1038C0008062934215D002F58062934211D002F5D6
:1038D000784293420DD0A2F56C42934209D002F592
:1038E0009432934205D01A6842F001021A60002017
:1038F00070479968094A0A40062A18BFB2F5803F06
:1039000007D01A6842F001021A60002070470120B7
:1039100070470020704700BF000001400700010011
:10392000704770477047704770B504460368DE689B
:103930001D6915F0020F10D016F0020F0DD06FF0B8
:1039400002021A610123037703689B6913F0030FD6
:1039500067D0FFF7E6FF0023237715F0040F12D09E
:1039600016F0040F0FD023686FF004021A610223CF
:10397000237723689B6913F4407F58D02046FFF7D4
:10398000D0FF0023237715F0080F12D016F0080F90
:103990000FD023686FF008021A610423237723688D
:1039A000DB6913F0030F49D02046FFF7BAFF00236D
:1039B000237715F0100F12D016F0100F0FD02368D8
:1039C0006FF010021A61082323772368DB6913F470
:1039D000407F3AD02046FFF7A4FF0023237715F05D
:1039E000010F02D016F0010F36D115F0800F02D171
:1039F00015F4005F02D016F0800F35D115F4807FEA
:103A000002D016F0800F37D115F0400F02D016F01B
:103A1000400F39D115F0200F02D016F0200F3BD106
:103A200070BDFFF77DFF2046FFF77CFF93E7204640
:103A3000FFF776FF2046FFF775FFA2E72046FFF766
:103A40006FFF2046FFF76EFFB1E72046FFF768FFE4
:103A50002046FFF767FFC0E723686FF001021A6195
:103A60002046FCF709FDC0E723686FF402521A6193
:103A7000204600F0DCF8C1E723686FF480721A6119
:103A8000204600F0D5F8BFE723686FF040021A61C6
:103A90002046FFF748FFBDE723686FF020021A6158
:103AA000204600F0C3F8BBE710B58C460368414AD6
:103AB000904214BF00220122B0F1804F14BF114682
:103AC00042F00101F1B9DFF8F4E0704514BF4FF0A6
:103AD000000E4FF0010E384CA04213D0BEF1000F83
:103AE00010D10EF1804E0EF5823E704514BF4FF09E
:103AF000000E4FF0010E04F50064A04202D0BEF1AA
:103B0000000F04D023F07003DCF80440234319BBFA
:103B10002A49884214BF00210121DFF89CE070454A
:103B20001AD0C9B901F1804101F58231884214BF30
:103B3000002101210EF5006E70450DD061B92049BC
:103B4000884214BF002101210EF59A3E704503D032
:103B500011B91C49884204D123F44073DCF80C10DD
:103B60000B4323F08003DCF814100B43DCF808103F
:103B7000C162DCF8001081621349884208BF42F03C
:103B8000010262B90E4A904214BF0022012201F5DF
:103B90007051884203D012B90A4A904202D1DCF82F
:103BA00010200263026842F00402026001224261B6
:103BB000036010BD00000140000400400008004008
:103BC00000440140004801400004014060B310B5CA
:103BD000044690F83D3013B3022384F83D3021466B
:103BE00051F8040BFFF760FF012384F8483084F894
:103BF0003E3084F83F3084F8403084F8413084F817
:103C0000423084F8433084F8443084F8453084F8F6
:103C1000463084F8473084F83D30002010BD80F8ED
:103C20003C30FFF733FED7E70120704770477047FD
:103C300070470000026852E8003F23F4907342E8A6
:103C400000310029F6D1026802F1080353E8001F91
:103C50000D4B0B40083242E800310029F3D1C36E0E
:103C6000012B06D02023C0F88C300023C3664367A5
:103C70007047026852E8003F23F0100342E8003129
:103C80000029F6D1EEE700BFFEFFFFEF30B587B0A9
:103C9000044683680269134342691343C2691343AC
:103CA000016808689C4A02401A430A602268536807
:103CB00023F44053E1680B435360A1692268974B9A
:103CC0009A4201D0236A19439068954B03400B43F5
:103CD00093602268D36A23F00F03616A0B43D362B7
:103CE0002368904A93421DD08F4A934235D08F4A21
:103CF00093424DD08E4A934265D08E4A93427DD0F6
:103D00008D4A934200F095808C4A934200F0AC803B
:103D10008B4A934200F0C280804A934200F0D880E0
:103D2000802212E1874A526D02F03802182A00F010
:103D3000EB800AD8082A00F0E980102A00F0E88019
:103D4000002A40F0E7800122FFE0202A00F0FC80FA
:103D5000282A40F034814022F7E07A4A526D02F07E
:103D60000702032A00F02D810AD8012A00F02B81D6
:103D7000022A00F02A81002A00F0E7808022E4E095
:103D8000042A00F02481052A40F023814022DCE04F
:103D90006C4A526D02F00702032A00F01C810AD817
:103DA000012A00F01A81022A00F01981002A00F08D
:103DB000CC808022C9E0042A00F01381052A40F05B
:103DC00012814022C1E05F4A526D02F00702032ACD
:103DD00000F00B810AD8012A00F00981022A00F0C4
:103DE0000881002A00F0B1808022AEE0042A00F0B1
:103DF0000281052A40F001814022A6E0514A526D1D
:103E000002F00702032A00F0FA800AD8012A00F023
:103E1000F880022A00F0F780002A00F096808022C5
:103E200093E0042A00F0F180052A40F0F08040225F
:103E30008BE0444A526D02F03802182A00F0E98003
:103E40000AD8082A00F0E780102A00F0E680002A4D
:103E500040F0E580012278E0202A00F0E280282A64
:103E600040F0E180402270E0364A526D02F00702D5
:103E7000032A00F0DA8009D8012A00F0D880022A4B
:103E800000F0D780002A60D080225EE0042A00F093
:103E9000D280052A40F0D180402256E0294A526D56
:103EA00002F00702032A00F0CA8009D8012A00F0B4
:103EB000C880022A00F0C780002A46D0802244E051
:103EC000042A00F0C280052A40F0C18040223CE074
:103ED00002F50E32926D02F00702032A00F0B9805B
:103EE0000AD8012A00F0B780022A00F0B680002A22
:103EF00040F0B580022228E0042A00F0B280052AB2
:103F000040F0B180402220E010221EE004221CE09C
:103F100008221AE0802218E0F369FFCF000C005855
:103F2000FFF4FF1100100140004400400048004031
:103F3000004C004000500040001401400078004058
:103F4000007C00400044025820229F498B4200F030
:103F50008C80E069B0F5004F00F0E480082A00F0A2
:103F60005B8100F23D81012A00F04E81042A00F0BD
:103F70004E81002A40F02681FDF748FDA8B1626A13
:103F8000924B33F81230B0FBF3F0636800EB530050
:103F9000B0FBF3F0A0F110024FF6EF739A4200F27B
:103FA0004F81236880B2D86000200123A4F86A30D2
:103FB000A4F8683000236367A36707B030BD802290
:103FC000C3E71022C1E70422BFE70822BDE7202291
:103FD000BBE78022B9E71022B7E70422B5E7082241
:103FE000B3E72022B1E78022AFE71022ADE7042239
:103FF000ABE70822A9E72022A7E78022A5E7102245
:10400000A3E70422A1E708229FE720229DE7802260
:104010009BE7102299E7042297E7082295E7802280
:1040200093E7202291E780228FE710228DE7042278
:104030008BE7082289E7202287E7802285E7102284
:1040400083E7042281E708227FE720227DE78022A0
:104050007BE7102279E7042277E7082275E78022C0
:1040600073E7202271E780226FE7102A4AD036D802
:10407000042A3DD0082A40D0022A2ED1FEF794FB14
:10408000002892D0626A514B33F81220B0FBF2F351
:10409000656805EB4501994200F2CA80B3EB053F24
:1040A00000F2C88000231946FCF74AF9090241EAE8
:1040B000106100022A466B08C0184FF0000341F15E
:1040C0000001FCF73DF9A0F54072414B9A4200F225
:1040D000B3802368D860002067E7012065E7202AC5
:1040E0001CD0402A02D14FF40040CBE701205CE70E
:1040F00003A8FEF76BFB0498C2E76846FEF766FC70
:104100000198BDE7334B1B6813F0200F08D0314BEB
:104110001B68C3F3C1033048D840B3E72F48B1E769
:104120002D48AFE7082A44D027D8012A39D0042ADD
:104130003AD002BBFDF76AFC00283FF436AF626A52
:10414000224B33F81230B0FBF3F06268530803EBF4
:104150004003B3FBF2F3A3F110014FF6EF7291426B
:104160006CD89AB222F00F02C3F3420313432268C1
:10417000D360002019E7012017E7202A1ED0402A2B
:10418000DDD0102A0BD1134B1B6813F0200F17D072
:10419000104B1B68C3F3C1030F48D840CFE7012081
:1041A00003E7FDF745FCC7E703A8FEF70FFB0498FC
:1041B000C2E76846FEF70AFC0198BDE70748BEE77C
:1041C0000548BCE70120F0E6000C0058F478000830
:1041D000FFFC0F00004402580090D00300093D008E
:1041E000202A1ED0402A1ED0102A0BD1154B1B6846
:1041F00013F0200F1AD0134B1B68C3F3C1031248EE
:10420000D840BCE60120D0E6FDF712FCB6E603A8D4
:10421000FEF7DCFA0498B1E66846FEF7D7FB019892
:10422000ACE60A48ABE64FF40040A8E60648A6E62E
:104230000120BAE60120B8E60120B6E60120B4E686
:104240000120B2E6004402580090D00300093D006E
:10425000836A13F0080F06D00268536823F4004302
:10426000816B0B435360836A13F0010F06D0026821
:10427000536823F40033C16A0B435360836A13F01D
:10428000020F06D00268536823F48033016B0B439E
:104290005360836A13F0040F06D00268536823F456
:1042A0008023416B0B435360836A13F0100F06D0D9
:1042B0000268936823F48053C16B0B439360836A55
:1042C00013F0200F06D00268936823F40053016CAA
:1042D0000B439360836A13F0400F0AD0026853685F
:1042E00023F48013416C0B435360436CB3F5801F80
:1042F0000BD0836A13F0800F06D00268536823F452
:104300000023C16C0B43536070470268536823F469
:10431000C003816C0B435360EBE72DE9F041044689
:104320000D4616469846069F2368DB6935EA030367
:104330000CBF4FF0010C4FF0000CB44538D1B7F171
:10434000FF3FF1D0FEF7D8FD4346C01AB84232D83D
:104350009FB323681A6812F0040FE5D0B5F140024C
:1043600018BF0122802DDFD0002ADDD0DA6912F0DB
:10437000080F11D1DA6912F4006FD5D04FF4006242
:104380001A622046FFF756FC2023C4F89030002321
:1043900084F8843003200CE008251D622046FFF7D6
:1043A00049FCC4F89050002384F88430012000E0D8
:1043B0000020BDE8F0810320FBE70320F9E72DE9A9
:1043C000F04184B01E46D0F88830202B64D10446DA
:1043D0000D460392002A18BF002901D101205CE09C
:1043E0000023C0F890302123C0F88830FEF784FD08
:1043F0000746039BA4F85430A4F85630A368B3F5DD
:10440000805F02D0002398461EE0236983B3002317
:10441000984619E02023C4F8883003203DE0424646
:1044200032F8023B90462268C3F308039362D4F843
:10443000883003F02103212B32D1B4F8562092B2F8
:10444000013A92B2A4F85620B4F856309BB293B118
:1044500000963B46002280212046FFF75EFF0028A1
:10446000D8D1002DDBD015F8012B23689A62DEE746
:10447000A8461D46E8E700963B460022402120461C
:10448000FFF74BFF18B92023C4F8883005E020233C
:10449000C4F88830032000E0022004B0BDE8F081B9
:1044A0000120FAE730B583B004460023C0F890300D
:1044B000FEF722FD05462268126812F0080F10D19F
:1044C00023681B6813F0040F27D12023C4F8883019
:1044D000C4F88C300020E066206784F8840003B0C4
:1044E00030BD6FF07E430093034600224FF400116D
:1044F0002046FFF712FF0028E2D0226852E8003F72
:1045000023F0800342E800310029F6D12023C4F8CB
:10451000883084F884100320E1E76FF07E43009335
:104520002B4600224FF480012046FFF7F6FE0028BC
:10453000CBD0226852E8003F23F4907342E8003168
:104540000029F6D1226802F1080353E8003F23F066
:104550000103083242E800310029F3D12023C4F8D6
:104560008C3084F884100320B9E778B310B5044682
:10457000D0F888300BB32423C4F88830226813683D
:1045800023F001031360A36AE3B92046FFF77EFB23
:10459000012811D02268536823F4904353602268A5
:1045A000936823F02A0393602268136843F00103A1
:1045B00013602046FFF776FF10BD80F88430FCF7CB
:1045C0003DFBD8E72046FFF743FEDEE701207047BA
:1045D000436E2BB90123A0F86A30A0F86830704709
:1045E00000B503689A68C2F342629968490FDFF820
:1045F0002CE01EF801301B01DFF824C01CF801106C
:1046000093FBF1F3A0F86A301EF802301B011CF88E
:10461000022093FBF2F3A0F8683000BD1479000883
:104620000C79000890F88430012B18D0012380F811
:1046300084302423C0F8883003681A68196821F090
:104640000101196022F000520023436601680A60EC
:104650002022C0F8882080F8843018467047022055
:10466000704738B590F88430012B1DD004460123E3
:1046700080F884302423C0F8883003681D681A68E5
:1046800022F001021A600268936823F06043194324
:104690009160FFF79DFF23681D602023C4F88830D8
:1046A000002084F8840038BD0220FCE738B590F87B
:1046B0008430012B1DD00446012380F8843024234C
:1046C000C0F8883003681D681A6822F001021A6079
:1046D0000268936823F0606319439160FFF778FFE5
:1046E00023681D602023C4F88830002084F88400EB
:1046F00038BD0220FCE70000314AD2F8883043F48C
:104700007003C2F888302F4B1B6803F00F03062B91
:1047100006D82C4A136823F00F0343F007031360F5
:10472000294B1A6842F001021A6000221A611968C6
:10473000264A0A401A60234B1B6813F0080F06D064
:10474000204A136823F00F0343F0070313601E4B46
:1047500000229A61DA611A621D4999621D49D96283
:104760001D4919635A639963DA6319645A641968B5
:1047700021F4802119601A66184B1B686FF30F0330
:10478000B3F1005F03D2164B0122C3F808210E4B90
:10479000D3F8D43013F4805F10D10B4BD3F8D4206E
:1047A00042F48052C3F8D4200E4A43F2D201116081
:1047B000D3F8D42022F48052C3F8D420704700BF2D
:1047C00000ED00E000200052004402587FEDF6EAC0
:1047D000000202020000FF01800201010010005CE3
:1047E0000080005100400052044BDA6842F002029F
:1047F000DA605A689204FCD5704700BF004802583E
:1048000000F1080343604FF0FF328260C360036130
:1048100000230360704700230361704710B4024611
:104820000846D1F800C0BCF1FF3F11D002F10803E7
:1048300019465B681C686445FAD94B684360986008
:1048400081604860026113680133136010BC7047D7
:104850001169F2E70369416882688A6041685160C2
:104860005A68824206D0002202611A68013A1A6030
:104870001868704782685A60F5E710B5044601F081
:10488000D1FBA36B2BB901231C4601F0EDFB2046A5
:1048900010BD00231C46F8E70346026C6AB110B550
:1048A0000846D9681144D9609C68A14201D31968AF
:1048B000D960D96802F0F3F810BD704738B50546E5
:1048C00001F0B0FB95F8454064B201E0013C64B2F0
:1048D000002C0ADD6B6A43B105F1240000F076FE7E
:1048E0000028F3D000F044FFF0E7FF2385F84530BF
:1048F00001F0BAFB01F096FB95F8444064B201E088
:10490000013C64B2002C0ADD2B6943B105F11000B3
:1049100000F05CFE0028F3D000F02AFFF0E7FF2350
:1049200085F8443001F0A0FB38BD38B590B10D4694
:104930000446C36B2BB1026C0021A2FB032393B985
:1049400099B14FF0500383F31188BFF36F8FBFF31A
:104950004F8FFEE74FF0500383F31188BFF36F8F43
:10496000BFF34F8FFEE70121EAE701F05BFB23680D
:10497000E26B216C01FB0230A0600020A063636049
:10498000013A02FB0133E360FF2384F8443084F8EA
:104990004530B5B923691BB901F066FB012038BD6C
:1049A00004F1100000F012FE0028F5D04FF0E023D3
:1049B0004FF08052C3F8042DBFF34F8FBFF36F8FBA
:1049C000EAE704F11000FFF71BFF04F12400FFF7F2
:1049D00017FFE1E738B51D46049C0B4649B9246032
:1049E000E063236401212046FFF79FFF84F84C50C9
:1049F00038BD2260F4E70BB310B584B01C4630B369
:104A00000B1E18BF0123002A08BF43F00103F3B1B6
:104A1000B1FA81F35B09002A18BF43F00103B3B177
:104A200050230393039B502B1AD04FF0500383F372
:104A30001188BFF36F8FBFF34F8FFEE74FF0500326
:104A400083F31188BFF36F8FBFF34F8FFEE74FF0F3
:104A5000500383F31188BFF36F8FBFF34F8FFEE7CF
:104A6000039B012384F8463000949DF81830FFF72B
:104A7000B1FF204604B010BDF0B585B0019290B1F1
:104A80000F460446C1B100F079FE064600BB019B0B
:104A9000002B5ED04FF0500383F31188BFF36F8F6C
:104AA000BFF34F8FFEE74FF0500383F31188BFF33E
:104AB0006F8FBFF34F8FFEE7036C002BE3D04FF0F7
:104AC000500383F31188BFF36F8FBFF34F8FFEE75F
:104AD00000263EE039462046FFF7DEFE013DA56395
:104AE000236923B901F0C0FA012005B0F0BD04F13B
:104AF000100000F06BFD0028F4D04FF0E0234FF0E1
:104B00008052C3F8042DBFF34F8FBFF36F8FE9E7D7
:104B100001F0AAFA2846E8E702A800F0D7FD01262E
:104B200021E0002384F8443029E0002384F8453054
:104B30002BE02046FFF7C2FE00F0E2FB09E0204632
:104B4000FFF7BCFE00F0DCFB2046FFF796FE0028D6
:104B50003FD101F067FAA56B002DBBD1019B002B63
:104B6000D6D0002ED8D001F07FFA00F0FBFA01F089
:104B700059FA94F844305BB2B3F1FF3FD1D094F8C6
:104B800045305BB2B3F1FF3FCFD001F06DFA01A920
:104B900002A800F0A7FD0028D1D12046FFF76DFE46
:104BA0000028C6D0019904F1240000F0CBFC204677
:104BB000FFF784FE00F0A4FB0028CAD14FF0E023E9
:104BC0004FF08052C3F8042DBFF34F8FBFF36F8FA8
:104BD000BFE7002089E70000844618B159B10020E2
:104BE00003460EE04FF0500383F31188BFF36F8F3D
:104BF000BFF34F8FFEE770470E4800EBC30014E091
:104C00000133072B10D80B4A02EBC30252686245EE
:104C1000F2D00028F4D1074A52F83320002AEFD10D
:104C2000044800EBC300EBE710B10160C0F804C01A
:104C3000704700BF7803002070B504460D46164645
:104C400001F0F0F994F844305BB2B3F1FF3F0DD0BE
:104C500094F845305BB2B3F1FF3F0BD001F004FA9A
:104C6000A36B5BB12046FFF729FE70BD002384F8DB
:104C70004430EDE7002384F84530EFE7324629461B
:104C800004F1240000F076FCECE70000074B1B6801
:104C90001B6823B9064B4FF0FF321A607047034B75
:104CA0001B68DB681A68024B1A60704728040020F2
:104CB000C00300202DE9F04107460D4616469846F0
:104CC000089C9200A521206B01F06EFE236B6FF013
:104CD0004042324403EB820323F0070665B1002211
:104CE0000F2A06D8AB5CA11881F834300BB1013221
:104CF000F6E7002384F84330069B372B08D94FF0A2
:104D0000500383F31188BFF36F8FBFF34F8FFEE71C
:104D1000069BE362E364201DFFF77DFD04F11800AC
:104D2000FFF779FD2461069BC3F13803A361646238
:104D300042463946304601F047F92060079B03B1EF
:104D40001C60BDE8F081000038B5002407E004EBEA
:104D500084000F4B03EB8000FFF752FD0134372C2A
:104D6000F5D90C4D2846FFF74BFD0B4C2046FFF7BD
:104D700047FD0A48FFF744FD0948FFF741FD094890
:104D8000FFF73EFD084B1D60084B1C6038BD00BF9F
:104D900054040020400400202C04002010040020B3
:104DA000FC030020E4030020280400202404002049
:104DB00010B5044601F036F9294A1368013313602F
:104DC000284B1B685BB1284B1B686BB9254B1B68D4
:104DD000DA6AE36A9A4207D8224B1C6004E0214B4E
:104DE0001C601368012B37D0204A1368013313600D
:104DF0006364E36A1E4A1268934201D91C4A136035
:104E00001C4A03EB830302EB83035B68A36098688F
:104E1000E060211D41609960E36A03EB8301880033
:104E200002EB8101616111580131115001F01CF94F
:104E30000D4B1B687BB10B4B1B68DA6AE36A9A4225
:104E400009D24FF0E0234FF08052C3F8042DBFF396
:104E50004F8FBFF36F8F10BDFFF776FFC4E700BF22
:104E6000E0030020B4080020D4030020C403002085
:104E7000D80300205404002010B5044690F859309F
:104E800063B1012B11D0022B0ED04FF0500383F3EE
:104E90001188BFF36F8FBFF34F8FFEE7006B01F0F8
:104EA0001BF8204601F018F810BD01F015F8FBE7DB
:104EB0000F4B1B68D3B110B501F0B4F80D4BDB6894
:104EC000DC68201DFFF7C6FC0B4A1368013B13602A
:104ED000074A1368013B136001F0C6F82046FFF74C
:104EE000CBFF034B1B68002BE6D110BD704700BF02
:104EF000F8030020FC030020E003002008B5FFF7C2
:104F0000D7FF074B1B68012BF9D94FF0E0234FF077
:104F10008052C3F8042DBFF34F8FBFF36F8FEEE7BE
:104F20005404002070B505460E46214B1C68214BE9
:104F300018680430FFF78EFC2B46B5F1FF3F14BF15
:104F400000230123002E08BF00239BB11A4A516899
:104F5000184B1868816018688C68C4601868043041
:104F600060601868043088601B685A6113680133F8
:104F7000136070BD2A46224415460E4B1B685A60CA
:104F8000944207D90D4B18680A4B19680431FFF792
:104F900045FCEEE70A4B1868064B19680431FFF729
:104FA0003DFC084B1B68AB42E3D9064B1D60E0E7B4
:104FB000DC030020B4080020E403002024040020C7
:104FC00028040020C0030020F0B587B01F460D9BC9
:104FD00093B104460D4616460E9BB3B15C23049371
:104FE000049B5C2B1AD04FF0500383F31188BFF35E
:104FF0006F8FBFF34F8FFEE74FF0500383F311889D
:10500000BFF36F8FBFF34F8FFEE74FF0500383F373
:105010001188BFF36F8FBFF34F8FFEE7049B5C22B5
:1050200000210E9801F0C0FC0E9B0D9A1A6302231A
:105030000E9A82F8593000230393029205AB019334
:105040000C9B00933B46324629462046FFF732FE32
:105050000E98FFF7ADFE059807B0F0BD2DE9F043BF
:1050600085B08146884614461F46900000F0B2FE87
:1050700010B306465C2000F0ADFE0546B0B15C22E0
:10508000002101F091FC2E630023039302950D9BF8
:1050900001930C9B00933B46224641464846FFF74E
:1050A00009FE2846FFF784FE012007E0304600F0A5
:1050B00013FF4FF0FF3001E04FF0FF3005B0BDE8C7
:1050C000F083000010B588B000240594069407AA68
:1050D00006A905A800F00CFE059B0293069B019310
:1050E00000942346079A18491848FFF76DFF184B9C
:1050F000186018B100F0F8FC012806D0B0F1FF3FAD
:1051000018D0144B1B6808B010BD4FF0500383F348
:105110001188BFF36F8FBFF34F8F0F4B4FF0FF32EC
:105120001A600E4B01221A600D4B00221A6001F02A
:1051300013F8E6E74FF0500383F31188BFF36F8F46
:10514000BFF34F8FFEE700BFB8780008FD4E0008A0
:10515000BC0300202C790008C0030020D4030020E9
:10516000DC030020024A136801331360704700BF5C
:10517000B8030020014B1868704700BFDC03002013
:1051800038B5544B1B68002B40F09E80524B1C6876
:1051900001341C60C4B9514B1B681B6843B14FF00C
:1051A000500383F31188BFF36F8FBFF34F8FFEE778
:1051B0004A4A11684A4B186810601960494A1368D6
:1051C00001331360FFF762FD474B1B68A34211D9FF
:1051D0000020464B1B68DB6A03EB83039B00444AB9
:1051E000D358012B00D90120424B1B68002B70D0F3
:1051F00001206EE000203BE03B4B4FF0FF321A6095
:10520000E7E7394B1A60E4E7D968516047E00021CD
:105210009962116801391160DA6A374909688A426E
:1052200001D935490A60324902EB820201EB820260
:1052300052689A60D2F808E0C3F80CE0CEF804C0D7
:10524000C2F808C0DA6A02EB820C4FEA8C0E01EB5E
:105250008C0CC3F814C051F80EC00CF1010C41F8CD
:105260000EC0DA6A214B1B68DB6A9A4200D9012022
:105270001A4B1B681B68002BBED0184B1B68DB68E1
:10528000DB685A689442BCD35A69D9689D68A960A2
:105290009D684D60516803F1040C6145B4D0002154
:1052A00059611168013911609A6A002AB4D0196AEB
:1052B000DD69A960DD694D6003F1180155688D4213
:1052C000A5D1196A5160A2E70C4A13680133136033
:1052D000002038BDB8030020DC0300202804002093
:1052E00024040020C8030020C0030020B4080020CC
:1052F00054040020CC030020D8030020D003002059
:10530000504B1B6843B94FF0500383F31188BFF330
:105310006F8FBFF34F8FFEE710B500F083FE494B50
:105320001A68013A1A601B68002B40F08580464BD2
:105330001B683BB91C4681E0196A516015E0D968C9
:10534000516021E00023414A1268002A4DD03F4BB2
:10535000DB68DB689A6AD869196A8160D869486035
:10536000506803F118018842E6D000219962116863
:10537000013911605A699868D968816098684860F5
:105380005168181D8142DAD0002159611168013934
:105390001160DA6A2E4909688A4201D92C490A60EB
:1053A0002C4902EB820201EB820252689A60D2F829
:1053B00008C0C3F80CC0CCF804009060DA6A02EBB5
:1053C00082004FEA800C01EB8000586151F80C001C
:1053D000013041F80C00D96A1F4A1268D26A914222
:1053E000B1D91E4A01211160ADE70BB1FFF74EFCA8
:1053F0001B4B1B681C469BB9184B1B681C46EBB12A
:105400004FF0E0234FF08052C3F8042DBFF34F8FCD
:10541000BFF36F8F01231C4610E0631E1C4607D0AC
:10542000FFF7AEFE0028F8D00C4B01221A60F4E71B
:105430000B4B00221A60DFE700231C4600F014FE2D
:10544000204610BDB8030020E00300201004002017
:10545000D803002054040020B4080020CC0300200E
:10546000D003002010B5A8B10446104B1B6843B10F
:105470004FF0500383F31188BFF36F8FBFF34F8F4B
:10548000FEE7FFF76FFE00212046FFF74BFDFFF719
:1054900037FF48B94FF0E0234FF08052C3F8042D96
:1054A000BFF34F8FBFF36F8F10BD00BFB803002055
:1054B0001F4B1B681BB11F4B01221A6070471D4B0D
:1054C00000221A601C4B1B6803EB830292001B49ED
:1054D0008A585AB90BB1013BF6E74FF0500383F3FA
:1054E0001188BFF36F8FBFF34F8FFEE7084603EBC2
:1054F000830201EB820251684968516003EB830229
:1055000092000832024491420BD003EB83010B4A14
:1055100002EB81025268D168094A1160064A1360A1
:10552000704703EB830100EB8102D1685160ECE727
:10553000B8030020CC030020D8030020540400202E
:10554000B408002058B110B50C46094A116818314A
:10555000FFF764F901212046FFF7E4FC10BD4FF08E
:10556000500383F31188BFF36F8FBFF34F8FFEE7B4
:10557000B4080020F8B110B58C46114604464268C4
:10558000114B1868C2611868D2F808E0C0F820E032
:1055900018681830CEF804001868183090601B683E
:1055A0009C6223680133236009B14FF0FF3C6046E1
:1055B000FFF7B8FC10BD4FF0500383F31188BFF321
:1055C0006F8FBFF34F8FFEE7B4080020C368DB681E
:1055D000002B4ED09A6AD869196A8160D8694860F0
:1055E000516803F1180081424CD000219962116882
:1055F000013911602F4A1268002A49D15A69986806
:10560000D9688160986848605168181D81423CD013
:1056100000215961116801391160DA6A2649096867
:105620008A4201D924490A60244902EB820201EB33
:10563000820252689A60D2F808C0C3F80CC0CCF855
:1056400004009060DA6A02EB82004FEA800C01EB02
:105650008000586151F80C00013041F80C00DA6A02
:10566000174B1B68DB6A9A4221D90120154B186041
:1056700070474FF0500383F31188BFF36F8FBFF370
:105680004F8FFEE7196A5160AFE7D9685160BFE7F5
:105690000D4A5168D961D1F808C0C3F820C0CCF8D0
:1056A000040088609A62116801311160D7E7002018
:1056B000704700BFB8030020D80300205404002026
:1056C000B4080020CC03002010040020034B1B680A
:1056D0000360034B1B684360704700BFC803002092
:1056E000DC030020D0B170B50C460646F9B100F0DD
:1056F00099FC1D4B19687368C81A2268B2F1FF3F04
:105700002CD03568DFF864C0DCF800C0654517D0E0
:105710008B4215D800232360012420E04FF0500372
:1057200083F31188BFF36F8FBFF34F8FFEE74FF006
:10573000500383F31188BFF36F8FBFF34F8FFEE7E2
:10574000824203D800232360012408E05B1A13443B
:1057500023603046FFF7BAFF002400E0002400F089
:1057600083FC204670BD00BFDC030020C80300207E
:10577000014B01221A607047CC030020054B1B68C7
:1057800033B1054B1B680BB10020704702207047F6
:1057900001207047D4030020B8030020064B1A688C
:1057A00013682BB90123036023B9D36818687047C5
:1057B0000023F8E700207047B809002008B54160D1
:1057C000006191420CD8D21A83699A4201D3012018
:1057D00008BD011D0B4B1868FFF720F80020F7E704
:1057E0009A422CBF00220122994238BF00220AB1FE
:1057F0000120EDE7011D044B1868FFF70FF80020AA
:10580000E6E700BFB4090020B809002070B50446DF
:105810000D46164604E0A3691D44236A20469847B6
:10582000A1692B46324629442046FFF7C7FF0028CE
:10583000F1D170BD70B505460E460D4B1B68DB6897
:10584000DC68201DFFF706F894F8283013F0040FE9
:1058500007D123F0010384F82830236A20469847B3
:1058600070BD324629462046FFF7D0FFF5E700BF5E
:10587000B809002008B505E0DB684FF0FF31186873
:10588000FFF7D8FF054B1B681A68002AF4D1044AB9
:10589000106802490860136008BD00BFB809002005
:1058A000B409002038B50546FFF764FC0446074BF1
:1058B0001B68834205D800232B60044B1C602046E4
:1058C00038BDFFF7D7FF01232B60F6E7A8090020BA
:1058D00070B582B005460C46FFF744FC01A8FFF7FF
:1058E000E1FF019B43BB0646A84228BF9C421AD059
:1058F0002CB1134A12681268E2B901231C462246F1
:10590000A91B104B1868FFF797F9FFF7F9FCA8B926
:105910004FF0E0234FF08052C3F8042DBFF34F8FB8
:10592000BFF36F8F0AE0FFF7EBFC31462846FFF725
:1059300081FF03E01C46E2E7FFF7E2FC02B070BD26
:10594000B4090020B009002030B587B002E0029B06
:10595000002B0FDA002202A9404B1868FFF78CF8E1
:10596000002879D0029B002BF1DA05990498039B5B
:105970009847ECE7049C636913B1201DFEF76AFFAA
:1059800001A8FFF78FFF0546029B052B56D033DC9D
:10599000032B43D01EDC013B012BDBD894F82830CD
:1059A00043F0010384F82830039BA1692A46194477
:1059B0002046FFF703FF0028CCD094F8283013F0DE
:1059C000040F23D123F0010384F82830236A2046F2
:1059D0009847BFE7042BBDD194F8283043F001036A
:1059E00084F828300399A161F9B12A462B4629444D
:1059F0002046FFF7E3FEADE7082B0FD003DC063BA4
:105A0000012BCBD9A6E7092BE6D0A3E7A3692A4649
:105A1000039919442046FFF7F9FED7E794F8283098
:105A200023F0010384F8283094E74FF0500383F308
:105A30001188BFF36F8FBFF34F8FFEE794F82830C4
:105A400013F0020F04D023F0010384F8283081E71B
:105A5000204600F041FA7DE707B030BDB0090020D4
:105A600000B583B001A8FFF799FE0199FFF730FF59
:105A7000FFF76AFFF6E7000000B583B000F0D2FA46
:105A8000114B1B681BB100F0EFFA03B000BD0F48CB
:105A9000FEF7B6FE0E48FEF7B3FE0E4B0B4A1A6039
:105AA0000D4B0B4A1A60002300930C4B0C4A10213B
:105AB0000A20FEF7A0FF044B18600028E3D0094934
:105AC000FFF78AF8DFE700BFB0090020D009002007
:105AD000BC090020B8090020B4090020B808002043
