:020000040800F2
:1000000000000220795E0108290D00082B0D000870
:100010002D0D00082F0D0008310D00080000000014
:1000200000000000000000000000000001BF000808
:10003000330D000800000000A1BF0008B5B400089F
:10004000CD5E0108CD5E0108CD5E0108CD5E0108E0
:10005000CD5E0108CD5E0108CD5E0108CD5E0108D0
:10006000CD5E0108CD5E0108CD5E0108CD5E0108C0
:10007000CD5E0108CD5E0108CD5E0108CD5E0108B0
:10008000CD5E0108CD5E0108CD5E0108CD5E0108A0
:10009000CD5E0108CD5E0108CD5E0108CD5E010890
:1000A000CD5E0108350D0008CD5E0108CD5E01086A
:1000B000CD5E0108CD5E0108CD5E0108CD5E010870
:1000C000CD5E0108CD5E0108CD5E0108CD5E010860
:1000D000CD5E0108CD5E0108CD5E0108CD5E010850
:1000E000CD5E0108CD5E010800000000CD5E010874
:1000F000CD5E0108CD5E0108CD5E0108CD5E010830
:10010000CD5E0108CD5E0108CD5E0108CD5E01081F
:10011000CD5E0108CD5E0108CD5E0108CD5E01080F
:10012000CD5E0108CD5E0108CD5E0108CD5E0108FF
:10013000CD5E0108CD5E0108CD5E0108CD5E0108EF
:1001400000000000000000000000000000000000AF
:10015000CD5E0108CD5E0108CD5E0108CD5E0108CF
:10016000CD5E0108CD5E0108CD5E0108CD5E0108BF
:10017000CD5E0108CD5E0108CD5E010800000000E3
:10018000CD5E0108CD5E0108CD5E0108CD5E01089F
:10019000CD5E0108CD5E0108CD5E0108CD5E01088F
:1001A000CD5E0108CD5E0108CD5E0108CD5E01087F
:1001B000CD5E0108CD5E0108CD5E0108CD5E01086F
:1001C000CD5E0108CD5E0108CD5E0108CD5E01085F
:1001D000CD5E0108CD5E0108CD5E0108CD5E01084F
:1001E000CD5E0108CD5E0108CD5E0108CD5E01083F
:1001F000CD5E0108CD5E0108CD5E0108CD5E01082F
:10020000CD5E0108CD5E0108CD5E0108CD5E01081E
:10021000CD5E0108CD5E0108CD5E0108CD5E01080E
:10022000CD5E0108CD5E0108CD5E01080000000032
:10023000CD5E0108CD5E010800000000CD5E010822
:10024000CD5E0108CD5E0108CD5E0108CD5E0108DE
:10025000CD5E0108CD5E0108CD5E0108CD5E0108CE
:10026000CD5E0108CD5E0108CD5E0108CD5E0108BE
:10027000CD5E0108CD5E0108CD5E010800000000E2
:10028000CD5E0108CD5E0108CD5E010800000000D2
:0802900000000000CD5E010832
:1002A00010F8012B11F8013B012A28BF9A42F7D020
:1002B000D01A7047034613F8012B002AFBD1181AF5
:1002C000013870470000000000000000000000003E
:1002D00001F0FF01102A2BDB10F0070F08D010F8F7
:1002E000013B013A8B422DD010F0070F42B3F6D1FB
:1002F000F0B441EA012141EA014122F007047FF014
:1003000000070023F0E80256083C85EA010586EA6A
:10031000010685FA47F5A3FA87F586FA47F6A5FAA6
:1003200087F68EB9EED1F0BC01F0FF0102F00702B2
:1003300032B110F8013B013A83EA010313B1F8D15D
:100340000020704701387047002D06BF354603383E
:10035000073815F0010F07D1013015F4807F02BF77
:10036000013015F4C03F0130F0BC0138704700BFC8
:1003700053B94AB9002908BF00281CBF4FF0FF310C
:100380004FF0FF3000F00CB8ADF1080C6DE904CE71
:1003900017F0BCFDDDF804E0DDE9022304B070478E
:1003A000704700BF0348044B834202D0034B03B1A4
:1003B00018477047800000208000002000000000E7
:1003C0000548064B1B1AD90F01EBA301491002D0B7
:1003D000034B03B1184770478000002080000020C5
:1003E0000000000010B5064C237843B9FFF7DAFF90
:1003F000044B13B10448AFF300800123237010BDF8
:1004000080000020000000002C82010808B5054B88
:100410001BB105490548AFF30080BDE80840FFF770
:10042000CFBF00BF00000000840000202C82010824
:1004300070B584B00024009401940294039404F0F5
:10044000D1F901258DF800508DF8014001941F234A
:100450008DF8083087238DF809308DF80A408DF823
:100460000B408DF80C508DF80D508DF80E408DF826
:100470000F40684604F0D4F98DF800508DF8015013
:100480004FF0C043019313238DF808308DF80940D5
:100490008DF80A4003238DF80B308DF80C508DF841
:1004A0000D408DF80E408DF80F40684604F0B8F905
:1004B000042004F0A5F904B070BD000010B582B0AE
:1004C00004468DF807000BF01BF8022813D10F4BE0
:1004D000186880B14FF0FF310BF053F94FF0FF3344
:1004E00001220DF107010A4808F07FFD074B18684B
:1004F0000BF078F907E04FF0FF3301220DF107010F
:10050000034808F072FD204602B010BD9C00002098
:100510007C01002008B50268034B9A4200D008BD58
:1005200006F0DAF9FBE700BF0000014072B6FEE713
:1005300000B59DB04C22002109A816F084F92022B4
:10054000002101A816F07FF9022006F06BF90023C4
:100550000093244BDA6A22F00102DA62DB6A03F0CC
:1005600001030093204B9A6942F440429A619B69CF
:1005700003F440430093009B1B4B9B6913F4005F03
:10058000FAD0012209924FF480330A930223129386
:1005900013931492642215921693042217921893BF
:1005A0000C23199300231A931B9309A804F064F9F0
:1005B000A0B93F23019303230293039008230493DC
:1005C0004023059306934FF480620792089302211B
:1005D00001A804F0A5FD18B91DB000BDFFF7A6FFE6
:1005E000FFF7A4FF000400580048025800B583B08C
:1005F000FFF71EFF06F040F9FFF79AFF00F070F8D2
:1006000000F03CFA00F07CFA00F00EFB14F062FF00
:100610002A4B1868002302221946806815F0CAFE8A
:10062000274815F0BFFE04F081FC064604F0C2FE28
:10063000054604F0E1FE044604F0F0FE0090234677
:100640002A4631461F4815F045FE03F001FE1023EF
:100650004FF480124FF0C0411B4815F03BFE04F0F0
:1006600031F820B1194815F09DFEFFF75FFF1848DB
:1006700015F098FE4FF4486003F079F820B1154862
:1006800015F090FEFFF752FF4FF44861124815F045
:1006900021FE4FF4486000F05DFD03F053FC40B9CB
:1006A00002F070FE0AF012FF00F050F90AF03AFF73
:1006B000FEE70A4815F076FEF2E700BF30000020A2
:1006C0009C820108B4820108F48201083C8301087D
:1006D0005C83010894830108BC830108F48301084A
:1006E0002DE9F04F8FB009AD002409940A940B94C2
:1006F0000C940D946A4BD3F8E02042F00402C3F846
:10070000E020D3F8E02002F004020192019AD3F82D
:10071000E02042F02002C3F8E020D3F8E02002F00D
:1007200020020292029AD3F8E02042F08002C3F83D
:10073000E020D3F8E02002F080020392039AD3F87D
:10074000E02042F00102C3F8E020D3F8E02002F0FC
:1007500001020492049AD3F8E02042F04002C3F868
:10076000E020D3F8E02002F040020592059AD3F889
:10077000E02042F01002C3F8E020D3F8E02002F0BD
:1007800010020692069AD3F8E02042F00202C3F863
:10079000E020D3F8E02002F002020792079AD3F893
:1007A000E02042F00802C3F8E020D3F8E03003F084
:1007B00008030893089BDFF8F8A001221021504697
:1007C00006F021F8DFF8EC9022464821484606F072
:1007D0001AF8DFF8E4802246E021404606F013F8DC
:1007E000224603212F4806F00EF84FF0100BCDF8EB
:1007F00024B001260A960B9403270C9729465046ED
:1008000005F0DAFE4BF6C06309930A940B9429466F
:10081000254805F0D1FE4FF4507309930A940B94C8
:100820002946224805F0C8FE4FF4807309930A94C4
:100830000B942946504605F0BFFE042309930A9401
:100840000B962946484605F0B7FE482309930A96B9
:100850000B940C972946484605F0AEFE18230993E1
:100860000A940B942946404605F0A6FEE02309931E
:100870000A960B940C972946404605F09DFE099771
:100880000A960B940C942946064805F095FE5846A6
:1008900006F058F8202006F055F80FB0BDE8F08FAC
:1008A000004402580010025800180258000802586C
:1008B00000000258000C025800040258F8B50CF071
:1008C0006BF81D4815F06EFD02F076FE00263546E9
:1008D00022E0204603F032FA48BB204600F076FCC6
:1008E00002F05CFD03F0B2FBA31BB3F57A7F10D3DB
:1008F000124E0121304605F08CFF0221304605F0F2
:1009000088FF6F1C224629460D4815F0E3FC264659
:100910003D4601200AF0D5FE05F0EAFF044602F04C
:10092000FDFF0028D5D0074815F03CFDD1E706486B
:1009300015F038FDD1E700BF1884010800100258F7
:100940008C840108348401086084010808B5084BD0
:100950001B683BB1074A002107480AF04CFE074BD1
:10096000186008BD18460AF0BCFE014B1860F1E79C
:100970009C00002040BF0108BD080008A000002026
:10098000F0B5B9B00023339334933593369337934E
:10099000334B1B680BB139B0F0BD314B01221A60EB
:1009A00002ACC0220021204615F04DFF4FF08072AE
:1009B0000023CDE90223204604F074FE00284BD129
:1009C000284BD3F8D42042F48052C3F8D420D3F873
:1009D000D43003F480530193019B4FF23F033393D0
:1009E0000227349700263596032536950C23379336
:1009F00033AC21461C4805F0DFFD3F233393349789
:100A0000359636950C2337932146184805F0D4FDCA
:100A10004FF6807333933497359636950C2337937E
:100A20002146134805F0C8FD4FF6337333933497CE
:100A3000359636950C23379321460E4805F0BCFDBC
:100A4000802333933497359636950923379321467F
:100A5000094805F0B1FD9EE7FFF768FDB0E700BF6C
:100A6000A400002000440258001402580018025844
:100A700000100258000C02580008025800B589B056
:100A800001A9002201924A608A60CA600A614A6133
:100A90008A611748174B036003F5827343608260D5
:100AA000C26002614FF0100CC0F814C08261C261D4
:100AB00002624FF4805343628262C2620263426305
:100AC0008263C26302640F23019302934FF03C0ED2
:100AD000CDF80CE00493CDF814C01123069306F072
:100AE000B7FF08B909B000BDFFF720FDFAE700BF66
:100AF000A80000200040005208B5FFF741FF08BDE4
:100B000008B51448144B03604FF48003436000237E
:100B100083601722C26003614FF0807242614FF020
:100B2000806282614FF08052C261036243628362DD
:100B3000C36243638363C363036443648364C364C2
:100B400003654365836507F047F800B908BDFFF703
:100B5000EDFCFBE7F40000200030014070B5BAB0B6
:100B60000446002135913691379138913991C02250
:100B700004A815F068FE2268274B9A4201D03AB0CB
:100B800070BD4FF480520023CDE9042304A804F083
:100B900089FD00283CD1214BD3F8F02042F480524B
:100BA000C3F8F020D3F8F02002F480520192019AA9
:100BB000D3F8E02042F00102C3F8E020D3F8E020AF
:100BC00002F001020292029AD3F8E02042F00802F9
:100BD000C3F8E020D3F8E03003F008030393039B4D
:100BE00060233593022536950024379438940526E2
:100BF000399635A90A4805F0DFFC802335933695F0
:100C000037943894399635A9064805F0D5FCB6E7EF
:100C1000FFF78CFCBFE700BF0030014000440258E2
:100C200000000258000C025808B51748174B036023
:100C30004FF4E133436000238360C36003610C22FF
:100C400042618361C36103624362836208F039FBDE
:100C500070B900210C4808F0B0FB60B900210A48C7
:100C600008F0D0FB50B9084808F088FB48B908BD27
:100C7000FFF75CFCEDE7FFF759FCEFE7FFF756FCE9
:100C8000F1E7FFF753FCF2E77C0100200010014080
:100C900010B5B8B0044600213391349135913691A6
:100CA0003791C02202A815F0CEFD22681B4B9A4254
:100CB00001D038B010BD01220023CDE9022302A8E3
:100CC00004F0F0FC38BB164BD3F8F02042F01002D1
:100CD000C3F8F020D3F8F02002F010020092009A3E
:100CE000D3F8E02042F00102C3F8E020D3F8E0306E
:100CF00003F001030193019B4FF4C063339302237C
:100D000034930023359336930723379333A905484B
:100D100005F052FCCDE7FFF709FCD4E700100140D5
:100D20000044025800000258FEE7FEE7FEE7FEE737
:100D3000FEE7704708B5024807F00CFC08BD00BF8D
:100D4000804E002000B583B00A4BD3F8F42042F067
:100D50000202C3F8F420D3F8F43003F00203019345
:100D6000019B00220F216FF0010003F027FD03B06B
:100D700000BD00BF0044025800B58DB000230793AA
:100D8000089309930A930B930268384B9A4201D057
:100D90000DB000BD364BD3F8D82042F40042C3F862
:100DA000D820D3F8D82002F400420192019AD3F857
:100DB000D82042F48032C3F8D820D3F8D82002F4E7
:100DC00080320292029AD3F8D82042F40032C3F85B
:100DD000D820D3F8D82002F400320392039AD3F833
:100DE000E02042F00102C3F8E020D3F8E02002F056
:100DF00001020492049AD3F8E02042F00202C3F800
:100E0000E020D3F8E02002F002020592059AD3F820
:100E1000E02042F00402C3F8E020D3F8E03003F011
:100E200004030693069B8623079302230893032358
:100E30000A930B230B9307A90E4805F0BDFB322341
:100E4000079307A90C4805F0B7FB4FF460530793CD
:100E500007A90A4805F0B0FB002205213D2003F058
:100E6000ADFC3D2003F0BAFC92E700BF00800240D9
:100E700000440258000002580008025800040258BA
:100E80001A4B1B7953B3027A184B5B799A4227D1DC
:100E90000368164A9168D2684B40134222D1427AC5
:100EA000124B1B7C9A421FD3002301E00133DBB2BB
:100EB000072B11D80D4A1A44527C002AF6D0C118CB
:100EC000897ADFF828C09C449CF819C081EA0C019B
:100ED0000A42EBD000207047012070470120704784
:100EE000002070470020704700207047300200202B
:100EF0002DE9F04180460F4616461D46114C5422FE
:100F00000021204615F09FFC04F1040CDFF838E0C6
:100F1000BEE80F00ACE80F009EE80F008CE80F0061
:100F20000123237084F8248084F8257084F82650E7
:100F30002685BDF81830638505F0DAFCE062BDE86F
:100F4000F08100BF300200201002002010B588B0F0
:100F50006C46DFF838C0BCE80F000FC49CE80F00F7
:100F600084E80F00084C54220021204615F06BFC49
:100F700004F1040C6C460FCCACE80F0094E80F00B1
:100F80008CE80F0008B010BD3002002010020020D5
:100F900010B504465422024915F007FD204610BD45
:100FA00030020020022805D0032805D0012805D1F1
:100FB0000348704703487047034870470348704729
:100FC000B8840108BC840108C0840108C8840108F1
:100FD0008C46D1B940F2FF718B4298BF8A4222D829
:100FE0001349087000B5124981F801C04A608B604E
:100FF000DFF840E08C46BCE80F00AEE80F009CE84C
:101000000F008EE80F00002000BD6FF060418B42A2
:1010100098BF8A4209D806490870BCF1000FE1D098
:101020004FF0010CDEE7012070470120704700BF40
:10103000100200203402002000B5074B00221A7075
:10104000DFF818E09C46BCE80F00AEE80F009CE813
:101050000F008EE80F0000BD1002002034020020B7
:1010600007281BD800B50E4B034459735A7539B184
:10107000431C0B4A127B934202D91846084B187343
:10108000DFF820C0DFF818E0BEE80F00ACE80F0082
:101090009EE80F008CE80F00002000BD0120704783
:1010A000100200203402002000B50A4B00221A6012
:1010B0005A609A60DA60A3F10D0C03F8012CDFF896
:1010C00018E0BCE80F00AEE80F009CE80F008EE8C7
:1010D0000F0000BD1D0200203402002050B310B5E7
:1010E0000446154B1B786BB1134B1A6B01321A6314
:1010F00093F8383033B9FFF7C3FE20B90E4A536B6B
:101100000133536310BD0C48012380F83830214669
:101110006368C363C26A9B1A036423684364237AC7
:1011200080F84830627A80F849200A314A3015F058
:101130003CFCE7E7704700BF30020020A0F5FA70E2
:1011400080B241F29413984201D8012070470020E8
:101150007047000038B50546FFF7F0FF10B94FF4AF
:1011600048631D46054CA58103F0DCF9607018B991
:101170000122024B9A7038BD0022FAE78802002053
:1011800038B504460546FFF7D9FF18B901231C46B8
:10119000204638BD0A4B9C8101221A7002F0C6FD20
:1011A00002F0ACFB204602F0C6FA044620B92946FC
:1011B000044815F08FF8EBE7034815F0F3F8E7E77C
:1011C00088020020FC840108D084010838B5134B44
:1011D0001B68C31A312B00D838BD05460F4B186069
:1011E00003F0A0F90146B0B901230D4A5170937084
:1011F000002BF1D0D378002BEED10123D3705368AC
:101200000133536014469560064815F0CBF8A08969
:10121000FFF7B6FFE0E70023E7E700BF8402002006
:10122000880200202885010808B5044B00221A70A6
:10123000DA70034815F0B6F808BD00BF8802002038
:101240005C850108034B1B780BB901207047002017
:10125000704700BF880200208446034B0FCB8CE808
:101260000F006046704700BF88020020002818BFAA
:10127000002A04D008B503461046984708BD7047B9
:1012800000E0013010B10378202BFAD07047000045
:1012900038B504460D46574AFFF7E8FF564A294637
:1012A0002046FFF7E3FF554A29462046FFF7DEFFB9
:1012B000534A29462046FFF7D9FF524A294620467D
:1012C000FFF7D4FF504A29462046FFF7CFFF4F4A89
:1012D00029462046FFF7CAFF4D4A29462046FFF718
:1012E000C5FF4C4A29462046FFF7C0FF4A4A294617
:1012F0002046FFF7BBFF494A29462046FFF7B6FFC5
:10130000474A29462046FFF7B1FF464A294620466C
:10131000FFF7ACFF444A29462046FFF7A7FF434AA0
:1013200029462046FFF7A2FF414A29462046FFF7FB
:101330009DFF404A29462046FFF798FF3E4A29462E
:101340002046FFF793FF3D4A29462046FFF78EFFD0
:101350003B4A29462046FFF789FF3A4A294620465C
:10136000FFF784FF384A29462046FFF77FFF374AB8
:1013700029462046FFF77AFF354A29462046FFF7DF
:1013800075FF344A29462046FFF770FF324A294646
:101390002046FFF76BFF314A29462046FFF766FFDC
:1013A0002F4A29462046FFF761FF2E4A294620464C
:1013B000FFF75CFF2C4A29462046FFF757FF2B4AD0
:1013C00029462046FFF752FF294A29462046FFF7C3
:1013D0004DFF284A29462046FFF748FF264A29465E
:1013E0002046FFF743FF254A29462046FFF73EFFE8
:1013F00038BD00BF7C8501088C85010898850108EF
:10140000A4850108B4850108C8850108FC85010888
:10141000308601088486010894860108A4860108A4
:10142000DC860108188701085487010864870108D1
:1014300084870108B4870108CC870108E487010884
:101440001888010828880108588801086888010858
:1014500078880108A8880108BC880108E888010884
:10146000FC8801080C8901082489010838890108D1
:101470005889010868890108808901089489010850
:1014800070B506460D46144602F026FB2946014477
:10149000091B01F5FA73B3F57A7F01D9012070BDFC
:1014A00009B2304602F0D8FAF9E738B505460C46DD
:1014B000FFF7C8FE30B102F039FC2146284602F0A1
:1014C0002DF938BD0220FCE72DE9F04182B0054638
:1014D0000C46884617461E46FFF7B4FEA8B102F038
:1014E00025FC33463A462146284602F0B3F9044625
:1014F00018B1204602B0BDE8F08103460090424694
:1015000029460120FFF7F4FCF3E702231C46F0E72D
:101510002DE9F04182B005460C46884617461E4626
:10152000FFF790FEA8B102F001FC33463A4621468F
:10153000284602F098F9044618B1204602B0BDE8EA
:10154000F08103460090424629460220FFF7D0FC76
:10155000F3E702231C46F0E72DE9F04182B007468D
:101560000E4615461C469846FFF76CFED8B102F0B1
:10157000DDFBBDF824300193089B009323462A46E7
:101580003146384602F096F9044618B1204602B0BA
:10159000BDE8F081CDF800802B4632463946032065
:1015A000FFF7A6FCF2E702231C46EFE70CB470B588
:1015B000ADF5027D06460D4686AB53F8042B01932C
:1015C00002AC4FF40071204615F074F8224629460B
:1015D0003046FFF74BFE0DF5027DBDE8704002B0CE
:1015E000704700002DE9F0479AB004460D4615A853
:1015F00002F00CFC11A8FFF72FFE02F0A3FA8246BE
:101600009DF84460BDF850709DF846909DF8478065
:10161000129A0A929DF855100B919DF8540002F011
:1016200007FC9DF85630BDF864200992189A08927C
:10163000079306900B9905910A9A0492CDF80C80B5
:10164000CDF80890019700965346204A2946204637
:10165000FFF7ACFF012625E0DFF87C90304602F072
:1016600047FA0746304602F037FA80469DF83400C4
:1016700002F07AFABDF83630BDF83820BDF84010D7
:1016800007910F990691059204930390CDF8088075
:10169000019700964B460E4A29462046FFF786FFE3
:1016A0000136F6B20D2E08D831460DA802F02CFAFC
:1016B000012ED1D0DFF82490D0E7064A29462046F3
:1016C000FFF7D4FD1AB0BDE8F08700BF048A010817
:1016D000D88A01084C8B010850870108D091010875
:1016E00070B58AB006460D4606A8FFF7B5FDBDF8F1
:1016F00024309DF819209DF81A109DF81B00089CB5
:101700000594079C049403900291019200939DF824
:101710001830034A29463046FFF748FF0AB070BD2B
:10172000548B010800B583B033B9044B0092044ACE
:10173000FFF73CFF03B000BD024BF7E7E48B010865
:10174000F48B0108EC8B010870B58CB005460E4691
:1017500008A8FFF781FD02F0F5F903462C4A31464F
:101760002846FFF723FFBDF82C309DF822209DF876
:101770002310099803900291019200939DF8203064
:10178000244A31462846FFF711FF012410E0204685
:1017900002F0A2F90346204A31462846FFF706FF29
:1017A0001BE01E4A31462846FFF760FD0134E4B2D3
:1017B0000D2C2AD8214604A802F0A6F9204602F0F2
:1017C00097F900902346164A31462846FFF7EEFE69
:1017D000204602F081F90028D9D19DF81000002898
:1017E000DFD002F0C1F90346BDF81220BDF8141095
:1017F000BDF81C0003900698029001910092094ADE
:1018000031462846FFF7D2FECBE70CB070BD00BFD3
:101810000C8C01082C8C0108908C01088087010831
:10182000808C01089C8C010870B58AB006460D4674
:1018300005A802F0EBFA9DF815409DF8140002F09F
:10184000F7FA9DF81630BDF824200392089A029208
:10185000019300902346034A29463046FFF7A6FE2F
:101860000AB070BDDC8C010870B582B006460D462A
:101870000A4AFFF7FBFC01240BE0204602F02CF99A
:1018800000902346064A29463046FFF78FFE013472
:10189000E4B20D2CF1D902B070BD00BF188D010863
:1018A000248D010870B58AB006460D4606A8FFF7DC
:1018B000D3FCBDF824309DF819209DF81A109DF82E
:1018C0001B00089C0594079C0494039002910192CC
:1018D00000939DF81830034A29463046FFF766FE0C
:1018E0000AB070BD3C8D010800B583B03BB9054B13
:1018F00000931346044AFFF759FE03B000BD034BA3
:10190000F6E700BF5CA10108B88D0108B48D01089D
:1019100030B589B005460B46054A2021684614F0CB
:10192000FDFD6946284614F0B6FF09B030BD00BF82
:10193000C88D010810B51446FFF7EAFF002C18BF48
:10194000002810D03A2114F086FF58B101300378F6
:10195000202B01D10130FAE70A22002114F072FB9A
:101960002060012010BD0020FCE738B514461D465C
:10197000FFF7CEFF002C18BF002828D04DB33A2126
:1019800014F069FF014618B3013100E00131087815
:101990002028FBD022281ED101314FF0000C04E09A
:1019A000013104F80C000CF1010C0878002818BF74
:1019B000222802D06B1E6345F2D8002304F80C30B5
:1019C0000B78222B01D0002002E0012000E0002053
:1019D00038BD2846FCE70020FAE710B50446FFF7BB
:1019E00031FC28B102F0A2F9204601F0A4FE10BD9E
:1019F0000220FCE7F0B593B005460E4609A802F0B8
:101A0000BBFB0D9B9DF83C209DF83D700E99079106
:101A100006970592049303930C9B02930B9B0193EF
:101A20000A9B00939DF82430104A31462846FFF760
:101A3000BDFD00240DE00E4B04F148026A4412F88B
:101A40000A2C00920B4A31462846FFF7AFFD0134BD
:101A5000E4B2A74203D9002CEDD0074BECE7074ACC
:101A600031462846FFF702FC13B0F0BDD08D0108C7
:101A7000508701086C8E0108D0910108748E01080E
:101A8000F0B591B006460F4607A802F075FB9DF829
:101A900035500C9B059304950B9B03930A9B029373
:101AA000099B0193089B00939DF81C30114A39460D
:101AB0003046FFF77BFD002408E00F4A00920F4AF2
:101AC00039463046FFF772FD0134E4B2A54209D928
:101AD00004F140036B4413F80A3C621CAA42ECD0A8
:101AE000074AEBE7074A39463046FFF7BFFB11B01C
:101AF000F0BD00BF7C8E010850870108D88E010818
:101B00003C98010880870108F0B59BB005460E4659
:101B100005A8FFF73DFA9DF814409DF83800FFF73F
:101B200041FA109B019300902346344A31462846DF
:101B3000FFF73CFDBDF83C309DF83A20BDF83E1063
:101B40000291019200939DF839302D4A3146284682
:101B5000FFF72CFD9DF84C300193129B0093119BD5
:101B6000284A31462846FFF721FD9DF81920079B9A
:101B70000293019300929DF81830234A314628467B
:101B8000FFF714FD089B9DF82420019200931F4A43
:101B900031462846FFF70AFD169B02930193159BD9
:101BA0000093149B1A4A31462846FFF7FFFC9DF824
:101BB0005D7000979DF85C30164A31462846FFF765
:101BC000F5FC00240DE0144B04F168026A4412F89D
:101BD0000A2C0092114A31462846FFF7E7FC0134EF
:101BE000E4B2A74203D9002CEDD00D4BECE70D4A2F
:101BF00031462846FFF73AFB1BB0F0BDE08E0108E6
:101C0000208F01086C8F0108A08F0108E08F010868
:101C10001090010860900108508701086C8E01083F
:101C2000D0910108748E0108F0B5A1B005460E46AA
:101C30000BA8FFF7ADF99DF82C409DF85000FFF779
:101C4000B1F99DF851C0BDF854209DF85210BDF86F
:101C500056E09DF864700897189B0793179B0693AE
:101C6000CDF814E004910392CDF808C0169B0193BF
:101C700000902346304A31462846FFF797FC9DF8EE
:101C800030309DF831207AB12C499DF83C200392E8
:101C90000E9A02920D9A01920091294A31462846E5
:101CA000FFF784FC002412E02649EEE7264B04F1FE
:101CB00080026A4412F83B1C12F8432C01920091F6
:101CC000224A31462846FFF771FC0134E4B2072C62
:101CD00003D8002CEAD01E4BE9E737B91D4A31463C
:101CE0002846FFF7C3FA21B0F0BD9DF874309DF887
:101CF0007570039702931C9B01931B9B00931A9B87
:101D0000154A31462846FFF751FC002408E00E4AE8
:101D10000092124A31462846FFF748FC0134E4B2EB
:101D2000A742DBD904F180036B4413F80A3C621C20
:101D3000BA42ECD0064AEBE7A0900108989001085F
:101D4000189101089C9001085087010860910108D2
:101D50003C980108808701086C910108D88E010821
:101D6000F0B58FB004460D46164604A802F0C6FA38
:101D7000002E37D11C4B049A019200921B4A29462F
:101D80002046FFF713FC059B1F469DF818609DF841
:101D9000340002F0C9FA019000963B46144A2946E5
:101DA0002046FFF703FC089B02930B9B01930A9BC1
:101DB0000093079B0F4A29462046FFF7F7FB099B34
:101DC00000930D4A29462046FFF7F0FBBDF832305C
:101DD0000093BDF83030094A29462046FFF7E6FB5C
:101DE0000FB0F0BD064BC6E7E48B0108A0910108D7
:101DF000D4910108089201083C92010868920108F8
:101E0000EC8B01082DE9F04393B08146884608A881
:101E100002F074FA089F099D9DF828609DF84440DF
:101E2000204602F081FA0C9B06930F9B05930E9BB4
:101E300004930B9B03930290019600953B460E4A38
:101E400041464846FFF7B2FB012C07D00B4A4146FA
:101E50004846FFF70BFA13B0BDE8F083BDF84030F9
:101E6000BDF84220019200930D9B054A4146484629
:101E7000FFF79CFBEAE700BF889201088087010812
:101E8000EC92010810B51446FFF742FD002C18BF74
:101E9000002810D03A2114F0DEFC58B1013003784C
:101EA000202B01D10130FAE70A22002114F044F975
:101EB0002060012010BD0020FCE700B583B0019236
:101EC00001AAFFF7DFFF019803B000BD2DE9F04143
:101ED00098B004460E461746102314AAA349FFF7EC
:101EE00044FD00282AD0A24914A8FEF7D9F90028F9
:101EF0002AD0A04914A8FEF7D3F950B39E4914A8DC
:101F0000FEF7CEF958B39D4914A8FEF7C9F9002889
:101F100039D09B4914A8FEF7C3F928B1994914A8F0
:101F2000FEF7BEF9002865D10FAA97492046FFF7B2
:101F3000A9FF002841D101231C461BE0934A3946E2
:101F40003046FFF793F91BE039463046FFF74AFB6E
:101F500016E08F4A39463046FFF788F910E04FF413
:101F600048628C492046FFF7A8FF0E9080B2FFF729
:101F700034FD0446234614AA39463046FFF7D2FB07
:101F800018B0BDE8F0810FAA7F492046FFF77AFF1D
:101F900010B901231C46EDE70EAA7E492046FFF743
:101FA00071FF10B901231C46E4E7BDF838109DF815
:101FB0003C00FFF77AFA0446DCE741F294127549D7
:101FC0002046FFF77AFF0E90642273492046FFF700
:101FD00074FF054640F6B83270492046FFF76DFFA2
:101FE00083B22A46BDF838109DF83C00FFF76CFA22
:101FF0000446BFE76A4914A8FEF752F920B16949BF
:1020000014A8FEF74DF928BB0FAA5F492046FFF739
:1020100039FF10B901231C46ACE74FF47A725D49D1
:102020002046FFF74AFF0E9064225B492046FFF7E7
:1020300044FF054640F6B83258492046FFF73DFFB9
:1020400083B22A46BDF838109DF83C00FFF760FACD
:1020500004468FE7544914A8FEF722F9002846D019
:10206000524914A8FEF71CF9002800F0B980504925
:1020700014A8FEF715F9002800F060814D4914A856
:10208000FEF70EF9002800F05E814B4914A8FEF718
:1020900007F9002800F03582484914A8FEF700F936
:1020A000002800F08582464914A8FEF7F9F80028B8
:1020B00000F0E882434914A8FEF7F2F8002800F087
:1020C000D183414914A8FEF7EBF8002800F00684FC
:1020D0003E4914A8FEF7E4F8002840F03E84FFF7DC
:1020E000B1F8002840F0258402231C4642E705AAE7
:1020F00037492046FFF7C6FE10B901231C4639E7D1
:1021000006AA34492046FFF7BDFE10B901231C463C
:1021100030E708AA30492046FFF7B4FE10B9012382
:102120001C4627E70AAA2D492046FFF7ABFE10B947
:1021300001231C461EE7642217492046FFF7BDFE17
:10214000054640F6B83215492046FFF7B6FE80B284
:1021500001900095BDF828309DF82020BDF818109A
:102160009DF81400FFF7F8F9044603E720930108EF
:10217000149801084C930108DC930108E4930108CA
:10218000E8930108EC9301084C940108249301089A
:102190005493010858940108FC930108089401081D
:1021A000189401081C9401082C9401085C940108FF
:1021B000B8940108C49401082C95010844950108BD
:1021C00068950108A4950108C495010820980108A4
:1021D000349401084094010848940108549401087B
:1021E000102310AA9E492046FFF7BFFB002800F0ED
:1021F000BB839C4910A8FEF753F8D0B99A4910A8A0
:10220000FEF74EF8E0B1994910A8FEF749F800280A
:1022100042D0974910A8FEF743F8002868D09149AA
:1022200010A8FEF73DF8002800F0838001231C462B
:10223000A0E6FFF707F80028E0D102231C4699E644
:102240000FAA8C492046FFF71DFE10B901231C463A
:1022500090E608AA88492046FFF714FE10B901232A
:102260001C4687E60AAA85492046FFF70BFE10B9EF
:1022700001231C467EE64FF47A7281492046FFF71F
:102280001CFE0346BDF82820BDF820109DF83C0038
:1022900001F0A2FC04466DE60FAA76492046FFF73E
:1022A000F1FD10B901231C4664E608AA75492046D1
:1022B000FFF7E8FD10B901231C465BE60AAA724944
:1022C0002046FFF7DFFD10B901231C4652E64FF40C
:1022D0007A726B492046FFF7F0FD0346BDF82820CF
:1022E000BDF820109DF83C0001F0A6FC044641E634
:1022F00008AA64492046FFF7C5FD10B901231C4612
:1023000038E60AAA60492046FFF7BCFD10B9012350
:102310001C462FE64FF47A7259492046FFF7CDFD4F
:102320000246BDF82810BDF8200001F0C5FC0446A7
:1023300020E601F0FBFC00231C461BE601F0F6FC46
:1023400000231C4616E610230AAA50492046FFF730
:102350000CFB002800F0D2804D490AA8FDF7A0FF31
:10236000A8B14C490AA8FDF79BFF002836D04A497E
:102370000AA8FDF795FF002850D048490AA8FDF7A4
:102380008FFF002800F0A48001231C46F2E5444A98
:1023900039463046FEF76AFF01231A4611E0414BE9
:1023A0001D461446104601F097FB019000942B4601
:1023B0003D4A39463046FFF7F9F823460133DBB290
:1023C0001A460D2A04D8012AE9D0384B1D46E8E701
:1023D000374A39463046FEF749FFD1E5FEF732FF6E
:1023E00010B902231C46C5E50FAA22492046FFF773
:1023F00049FD10B901231C46BCE508AA2149204625
:10240000FFF798FA10B901231C46B3E5BDF9201077
:102410009DF83C0001F020FB0446ABE5FEF712FFFF
:1024200010B902231C46A5E50FAA12492046FFF762
:1024300029FD10B901231C469CE506AA1D4920462A
:10244000FFF720FD10B901231C4693E508AA1A499D
:102450002046FFF717FD88BB01231C468AE500BF15
:10246000649401086C94010874940108889401082C
:10247000AC9401084C94010854940108409401085C
:102480007C940108909401089C940108C894010868
:1024900014980108E49301080C950108209801089C
:1024A000D094010850870108EC940108D0910108EC
:1024B0004C8B01081495010820950108BDF82020D7
:1024C000BDF818109DF83C00FEF7DAFF044651E510
:1024D000FEF7B8FE10B902231C464BE50FAA9C4933
:1024E0002046FFF7CFFC044628B19DF83C0001F0E0
:1024F000D3FA04463EE501F0D5FA3BE501231C463C
:1025000038E5102310AA93492046FFF72EFA002839
:1025100000F02E82904910A8FDF7C2FE38B18F4915
:1025200010A8FDF7BDFE88B101231C4622E50EAAC6
:102530008B492046FFF7A6FC10B901231C4619E57C
:10254000BDF83800FFF749FA044613E5FEF77AFEB6
:1025500010B902231C460DE50FAA7D492046FFF75E
:1025600091FC10B901231C4604E508AA7D492046C8
:10257000FFF788FC10B901231C46FBE40AAA7A493C
:102580002046FFF77FFC10B901231C46F2E44FF40C
:102590007A7276492046FFF790FC0346BDF8282062
:1025A000BDF820109DF83C0001F016FB0446E1E464
:1025B00010230AAA6E492046FFF7D7F900285ED0FB
:1025C0006C490AA8FDF76CFE38B16B490AA8FDF703
:1025D00067FE38B101231C46CCE439463046FFF78C
:1025E00009FACDE40690079003AA64492046FFF754
:1025F00049FC10B901231C46BCE404AA60492046EA
:10260000FFF740FC002837D0049B082B02D9012398
:102610001C46AFE400225B492046FFF74EFC804693
:1026200000231D46049B9D421AD22B46564A082180
:1026300008A813F073FF05AA08A92046FFF722FC9B
:1026400058B1059BFF2B08D805F160026A4402F8D7
:10265000483C6B1CDBB21D46E4E701231C4689E4C1
:102660000398424632B10121DBB206AA01F094FC84
:1026700004467FE44146F7E701231C467AE4012340
:102680001C4677E410230AAA39492046FFF76DF962
:10269000002800F0E38037490AA8FDF701FED0B119
:1026A0003A490AA8FDF7FCFDD0B139490AA8FDF75F
:1026B000F7FDD0B137490AA8FDF7F2FD002800F078
:1026C0009B8035490AA8FDF7EBFD002800F0BE808D
:1026D00001231C464EE439463046FFF715FA4FE415
:1026E000FEF734FC00231C4644E4082308AA1949D9
:1026F0002046FFF73AF920B3284908A8FDF7D0FD96
:10270000002853D0264908A8FDF7CAFD002855D057
:10271000244908A8FDF7C4FD002859D16FF0604294
:1027200021492046FFF7C9FB05460123984606AA22
:1027300012492046FFF7A6FB002851D101231C4671
:1027400018E4012314AA39463046FEF7EBFF17E4DC
:102750004C94010864940108349501083C950108E3
:102760005894010854940108409401087C9401088D
:10277000C89401081498010848950108509501086B
:10278000549501085895010864950108209801089E
:102790006C950108809501089895010874950108C9
:1027A0009C9001089890010878950108FEF744FC78
:1027B00039463046FFF7A8F9FFF7E2BB40F2FF7257
:1027C0006D492046FFF779FB054600239846AEE7A2
:1027D000012314AA39463046FEF7A4FFFFF7D0BB09
:1027E0002B46069A41460120FEF7F2FB3946304659
:1027F000FFF78AF9FFF7C4BB05AA60492046FFF737
:1028000041FB18B901231C46FFF7B4BB06AA5A497D
:102810002046FFF737FB0028F4D008AA5849204685
:10282000FFF730FB0028EDD00699FF29EAD8089A77
:10283000FF2AE7D8D2B2C9B29DF81400FEF710FC07
:1028400039463046FFF760F9FFF79ABBFEF72CFCDC
:1028500039463046FFF758F9FFF792BB01231C4673
:10286000FFF788BB10230AAA46492046FFF77DF8E8
:1028700080B345490AA8FDF713FDB0B143490AA842
:10288000FDF70EFD20B142490AA8FDF709FD90B9F8
:102890004FF448623F492046FFF70FFB0E9080B28D
:1028A000FEF76EFC0446FFF765BB39463046FEF77F
:1028B00017FFFFF765BB38490AA8FDF7F1FC18B10F
:1028C00001231C46FFF756BBFEF7AEFC00231C4657
:1028D000FFF750BB01231C46FFF74CBB10230AAA8D
:1028E00028492046FFF741F848B127490AA8FDF7D3
:1028F000D7FC40B129490AA8FDF7D2FC50B1012309
:102900001C46FFF737BB024639463046FFF728FA28
:10291000FFF736BB4FF4803221492046FFF7CDFA4E
:1029200001F0A8FC024639463046FFF719FAFFF7D6
:1029300027BB01F0FBF90FAA1A492046FFF7A2FABC
:1029400030B19DF83C0000F097FF0446FFF712BB42
:1029500000F0D4FF0446FFF70DBB134A394630465A
:10296000FEF784FCFFF70CBB01231C46FFF702BBFC
:1029700001231C46FFF7FEBA7895010888950108E7
:1029800090950108C8940108149801086C940108F6
:10299000AC95010858940108BC9501082C950108D4
:1029A000CC9501084C940108D495010830B589B044
:1029B0000446002305930393049305AB009306ABF1
:1029C00007AA1D4913F0DCFD01282DDD079BB3F597
:1029D000006F2CD2069B082B2BD8059BE0180024F7
:1029E00006E004F120026A4402F8143C0134E4B227
:1029F000069B9C4211D2FEF743FC054658B1037872
:102A00004BB1102202A913F097FB03460298A8428B
:102A100001D0FF2BE5D9012007E0DBB203AA00219A
:102A2000079801F0B9FA00E0012009B030BD01209B
:102A3000FBE70120F9E700BFFC95010810B586B05F
:102A400004461A49FDF72CFCD8B140F2FF730293FB
:102A500002AB009303AB04AA1549204613F090FD86
:102A6000044601281EDD134904A8FDF719FC88B1AE
:102A7000114904A8FDF714FCB0B9022C05D00121BE
:102A800009E0FEF7D9FA00200AE06FF060430293F4
:102A9000012100E00146029B039A0120FEF798FA0B
:102AA00006B010BD0120FBE70120F9E710960108F0
:102AB000209601089C9001089890010810B586B0F6
:102AC00004461549FDF7ECFBA0B103AB009304AB42
:102AD00005AA1249204613F053FD032815D1059885
:102AE000072814D80499FF2913D8039AFF2A06D976
:102AF000012002E0FEF7D8FA002006B010BDD2B2E5
:102B0000C9B2C0B2FEF7ACFAF7E70120F5E7012041
:102B1000F3E70120F1E700BF389601084896010865
:102B200070B594B004460E461546B349FDF7B8FBA0
:102B300020B1B2492046FDF7B3FB28B929463046FB
:102B4000FEF7A6FB14B070BDAD492046FDF7A8FB0B
:102B5000C0B10622AB49204613F08BFEB8B94FF442
:102B60004863129312AAA849204613F009FDBDF844
:102B70004800FEF732FF0346A24A29463046FEF7D8
:102B8000B3FEDFE729463046FEF7DEFDDAE712AB9B
:102B900013AA9E49204613F0F3FC022800F0C780D8
:102BA00003229B49204613F064FE002800F0CC80ED
:102BB00003229849204613F05CFE002800F0F080C4
:102BC00005229549204613F054FE002800F05E814E
:102BD00092492046FDF764FB002800F08981904966
:102BE0002046FDF75DFB002800F087810C228D490F
:102BF000204613F03EFE002800F088810E228A490C
:102C0000204613F036FE002800F0AD810A228749E5
:102C1000204613F02EFE002800F0CE818449204685
:102C2000FDF73EFB002800F0F48108228149204690
:102C300013F01FFE002800F0F18109227E49204692
:102C400013F017FE002800F00F8209227B4920466E
:102C500013F00FFE002800F031820C227849204644
:102C600013F007FE002800F04E820A227549204624
:102C700013F0FFFD002800F05F8273492046FDF746
:102C80000FFB002800F0A08209227049204613F0B3
:102C9000F0FD002800F09D826D492046FDF700FB05
:102CA000002800F0A0826B492046FDF7F9FA0028C1
:102CB00000F09E820B226849204613F0DAFD0028BE
:102CC00000F09F8209226549204613F0D2FD0028BA
:102CD00000F0A58262492046FDF7E2FA002800F0E4
:102CE000AC8209225F49204613F0C3FD38B10E22A1
:102CF0005D49204613F0BDFD002840F0A3824FF44B
:102D00004863129312AA5949204613F039FC12AABB
:102D10005749204613F034FCBDF84800FEF730FA5E
:102D20000346544A29463046FEF7DEFD0AE7BDF861
:102D300048109DF84C00FEF7B8FB03464E4A294662
:102D40003046FEF7D1FDFDE6139041F29413119346
:102D50006423109340F6B8330F930FAB019310AB7D
:102D6000009311AB13AA4549204613F009FC002833
:102D70000FDDBDF83C30109ABDF844109DF84C00B2
:102D8000FEF7A2FB03463E4A29463046FEF7ACFD5D
:102D9000D8E601233A4A29463046FEF7A5FDD1E69A
:102DA00013904FF47A7311936423109340F6B83361
:102DB0000F930FAB019310AB009311AB13AA3149E2
:102DC000204613F0DDFB00280FDDBDF83C30109AE3
:102DD000BDF844109DF84C00FEF79AFB03462A4AC2
:102DE00029463046FEF780FDACE60123264A2946F7
:102DF0003046FEF779FDA5E64C9301085C96010884
:102E000014980108DC930108609601086C9601088B
:102E1000789601088C960108A0960108C0960108D2
:102E2000CC960108D8960108049701082C97010850
:102E3000509701085C970108789701089897010856
:102E4000B4970108D4970108F8970108049801087D
:102E5000109801081C980108289801083498010866
:102E6000409801084C980108589801086898010892
:102E700078980108A4950108E49301087C9601085C
:102E8000E8930108909601081894010864231093B0
:102E900040F6B8330F930FAB039310AB029307AB1D
:102EA000019306AB009305AB04AAB249204613F088
:102EB00067FB032815DDBDF83C300193109B0093A0
:102EC000BDF81C309DF81820BDF814109DF81000B6
:102ED000FEF742FB0346A84A29463046FEF704FDAA
:102EE00030E60123A44A29463046FEF7FDFC29E6D8
:102EF00029463046FEF798FC24E600F017FF002331
:102F00009E4A29463046FEF7EFFC1BE6FEF79AF98B
:102F100090B10AAB01930DAB00930EAB13AA984985
:102F2000204613F02DFB04280DD00123934A294697
:102F30003046FEF7D9FC05E60223904A2946304682
:102F4000FEF7D2FCFEE50A9BBDF83420BDF8381030
:102F50009DF84C0000F040FE0346884A2946304662
:102F6000FEF7C2FCEEE5FEF76DF980B10AAB009307
:102F70000BAB0CAA8349204613F002FB03280DD0AB
:102F800001237E4A29463046FEF7AEFCDAE50223ED
:102F90007A4A29463046FEF7A7FCD3E50A9ABDF8DF
:102FA0002C10BDF8300000F087FE0346734A294616
:102FB0003046FEF799FCC5E5FEF744F990B10AAB3F
:102FC00001930BAB00930CAB13AA6F49204613F08F
:102FD000D7FA04280DD00123684A29463046FEF767
:102FE00083FCAFE50223654A29463046FEF77CFCA8
:102FF000A8E50A9BBDF82C20BDF830109DF84C00C8
:1030000000F01AFE03465D4A29463046FEF76CFC86
:1030100098E529463046FEF727FC93E5FEF712F9BE
:1030200070B109AB13AA5949204613F0A9FA022836
:103030000DD00123564A29463046FEF755FC81E55E
:103040000223534A29463046FEF74EFC7AE5BDF985
:1030500024109DF84C0000F0FFFC03464C4A294622
:103060003046FEF741FC6DE5FEF7ECF880B108ABA9
:10307000009311AB13AA4749204613F081FA0328A5
:103080000DD00123424A29463046FEF72DFC59E572
:1030900002233F4A29463046FEF726FC52E5BDF89A
:1030A0002020BDF844109DF84C00FEF7E9F90346D6
:1030B000374A29463046FEF717FC43E5FEF7C2F8CB
:1030C00078B113AA3449204613F05AFA01280FD0D8
:1030D00000F0E8FC00232E4A29463046FEF704FCA7
:1030E00030E502232A4A29463046FEF7FDFB29E552
:1030F0009DF84C0000F0D0FC0346254A2946304696
:10310000FEF7F2FB1EE512AA2449204613F038FA16
:10311000012806D00123224A29463046FEF7E4FB67
:1031200010E5BDF84800FEF758FC03461C4A294646
:103130003046FEF7D9FB05E5FEF784F890B10AABFF
:1031400001930DAB00930EAB13AA1649204613F062
:1031500017FA042828D00123114A29463046FEF7E1
:10316000C3FBEFE402230E4A29463046FEF7BCFBC0
:10317000E8E400BFA89601082C9401085C940108BB
:10318000E896010814970108389701086897010824
:10319000C494010884970108A4970108C497010802
:1031A0002C950108E09701080A9BBDF83420BDF872
:1031B00038109DF84C0000F00FFD0346574A294691
:1031C0003046FEF791FBBDE429463046FEF758FC39
:1031D000B8E42046FFF7EAFB0346514A2946304649
:1031E000FEF782FBAEE429463046FEF71DFDA9E45A
:1031F000FDF7ACFE00234B4A29463046FEF774FB30
:10320000A0E42046FFF71AFC0346464A294630460A
:10321000FEF76AFB29463046FEF706FD92E420469B
:10322000FFF74CFC03463F4A29463046FEF75CFB5D
:1032300029463046FEF7F8FC84E429463046FEF77E
:1032400031FB7FE438492046FDF72AF8D8B13749E9
:103250002046FDF725F8F8B109223549204613F03C
:1032600008FBF0B105223349204613F002FB70B38E
:103270002378002B3FF466AC23462F4A294630467C
:10328000FEF794F95EE4FDF7CFFF00232B4A2946B1
:103290003046FEF729FB55E429463046FEF7B2FDDD
:1032A00050E44FF48033079307AA2549204613F0D2
:1032B00067F9079800F0DEFF0346224A29463046A8
:1032C000FEF712FB29463046FEF79CFD3AE4FDF777
:1032D000B9FF88B100F02AFD13AA1B49204613F05C
:1032E0004FF901280FD000F009FB0346114A294687
:1032F0003046FEF7F9FA25E402230E4A2946304605
:10330000FEF7F2FA1EE49DF84C0000F0B5FA034611
:10331000084A29463046FEF7E7FA13E42C950108DF
:1033200044950108689501088C9801089C9801084B
:10333000A898010820980108C4980108A4950108DC
:10334000B4980108C4950108A897010838B50C463F
:103350001546FDF795FF30B102787B2A04D02A4646
:103360002146FFF7DDFB38BD2A462146FEF7AEFDBC
:10337000F9E7000008B50146014812F0ABFF08BDAF
:10338000DC8E010808B5034B00221A80024813F0B6
:1033900009F808BD98020020D898010830B583B01C
:1033A000002403E0184B1B88D3B901341F2C28D804
:1033B000002301220DF10701144805F089FE00BB2E
:1033C0009DF807300A2B18BF0D2BEBD00E4A128840
:1033D0009E2A0FD8501C0C4908800D498B54E4E7F5
:1033E0000B480025C5542A460A49FFF7AFFF064B94
:1033F0001D80DAE7044B00221A80074812F0D2FF42
:10340000D3E703B030BD00BF980200207C0100204C
:103410009C020020753300081499010889B130B569
:1034200083B00C685CB1054648B1FCF743FF024627
:103430000023009301232946204609F02DFD03B007
:1034400030BD704700B583B00B46019001AA034917
:103450001846FFF77BFF03B000BD00BF1D34000816
:10346000F0B5C7B006460025009501235522204936
:1034700009F012FD34E095B90134A4B2BDF80E3064
:10348000A3421DD9049B1B5D0A2B18BF0D2BF2D044
:10349000FE2D0CD86A1C05A94B5595B2ECE705A981
:1034A00000274F553046FFF7CDFF3D46E4E70025A6
:1034B0000095012326220F49304609F0EDFCDBE799
:1034C00045980AF046FE002807DB0DF10E0204A91C
:1034D00045980AF025FE0024D0E745980AF010FE32
:1034E00045A9304609F002FE0028EED047B0F0BDF5
:1034F0002C9901088499010810B582B00022114668
:10350000102009F0B1FB88B1044641F2883223490A
:1035100009F028FC024670B141F28831204812F0CF
:10352000D9FE204609F00EFC08F0C6F81D4812F03E
:1035300039FF08F0C1F8FF21204609F02BFC0146B5
:1035400038B1194812F0C6FE204609F0FBFB08F01E
:10355000B3F841F28831154812F0BCFE02E0642055
:1035600008F0AFF80023019301A9204609F0B5FC4B
:103570000028F4D1019B002BF1D00D4812F012FF6E
:103580000198FFF76DFF019809F092FC019809F08E
:10359000D9FB084812F006FFE4E700BF6CC1010840
:1035A000C8990108AC990108E8990108089A01082E
:1035B000349A01084C9A010808B5064B1B6803B100
:1035C00008BD054A1946054808F015F8014B186072
:1035D000F6E700BF3C03002064BF0108F93400088F
:1035E0000138C0B20C2801D8012070470020704774
:1035F000A0F5FA7080B241F29413984201D80120EC
:1036000070470020704700000138094B33F9103033
:103610001944B1F5FA7F05D341F28833994204D8B1
:1036200088B270474FF4FA70704741F288307047A3
:103630008804002001380B494FEA001C01EB0012FE
:10364000002301F80C305380938093609381064AE5
:1036500042F82030054A42F820304FF00002044B77
:103660001A547047B8030020840300205003002040
:1036700040030020884210D009D9431A002A18BFFD
:10368000934209D9884204D3821A90B270470B1A28
:10369000F4E7104480B270470846704741F2873320
:1036A000984209D8C0EB004000F6C410044BA3FBBD
:1036B0000030C0F30F3070474FF6FF70704700BF07
:1036C0005917B7D1F8B504460E461546FFF788FFDF
:1036D000E8B13046FFF78CFF10B901231F4618E010
:1036E00031462046FFF790FFFFF7D8FF0146631EE3
:1036F000D8B200F085FF074658B9601E064B23F884
:1037000010600DB92F4604E000F000FF01E0012336
:103710001F463846F8BD00BFA404002038B5054652
:103720000122FFF7CFFF044608B1204638BD2846E6
:10373000FFF780FFF9E738B50546FFF759FFA0B15D
:1037400001240D2C0CD8002229462046FFF7BAFF91
:10375000034640B92046FFF76DFF0134E4B2F0E7BD
:1037600000F0D4FE0023184638BD0123FBE708B55E
:10377000FFF7E1FF08BD00002DE9F84F054682463E
:103780000C460F4616469846BDF828309946FFF776
:1037900027FF002849D02046FFF72AFF002849D0FC
:1037A0006C1E2301264AD35C7BB9264B33F81430B8
:1037B00035461E46BB4228BF012D3ED0BB4298BFB6
:1037C000022D07D101231D4631E01D4B03EB0413ED
:1037D0009B88EDE703F08CF883461949220101EB41
:1037E00004138D545F809E80C3F808804946A3F877
:1037F0000C90154B43F824000023144A42F824305F
:10380000134A135511B100231D4610E00122394619
:103810005046FFF757FF054618B90C4B43F824B044
:1038200005E05046FFF706FF01E001231D4628464C
:10383000BDE8F88F01231D46F9E701231D46F6E791
:10384000B8030020A40400208403002050030020BB
:103850004003002000B583B0009313460122FFF718
:103860008BFF03B000BD00B583B000931346022266
:10387000FFF782FF03B000BD38B504460546FFF7E9
:10388000AFFE88B12046631E1A0109498C5C64B101
:1038900001EB031301229988FFF714FF044620B9B6
:1038A0002846FFF7C7FE00E00124204638BD00BFD0
:1038B000B80300202DE9F0411D46BDF81C309042B0
:1038C00018BFA94204D801231F463846BDE8F0813D
:1038D000804614461E46069AFFF7BCFF074600289E
:1038E000F3D13346069A29462046FFF7BCFF074628
:1038F0000028EAD04046FFF7BFFFE6E710B50124F5
:103900000D2C07D82046FFF7B7FF034618B901343E
:10391000E4B2F5E70023184610BD00002DE9F041A0
:103920000646012500271CE0464901EB04114988A1
:1039300033E01A463EE0444B43F82460434B1B5DA2
:103940002BB9404A02EB04125288424548D02BB1B1
:103950003C4B03EB04139B8843454AD001270135B8
:10396000EDB20D2D68D86C1EE4B22301354AD35C4C
:10397000002BF4D0344B53F8243013B9324B43F8B6
:103980002460314B53F82420B21A304B1B5D002BBE
:10399000CAD02C4901EB041189882D4830F8140055
:1039A00088422AD0274B03EB04139B89002BC0D0FD
:1039B00003FB02F20BB1002AD1D041F288339A42C4
:1039C00000D91A46FFF756FE8046002201462846D7
:1039D000FFF778FE07460028ADD03846BDE8F081F5
:1039E0001C4A52F82420002AB1D11A4A42F8246015
:1039F000ADE72846FFF71EFEB0E7134A42F8246001
:103A0000B3B9144B53F8243013B9124B43F8246064
:103A10000C4B03EB04139B68002BA0D00D4A52F80B
:103A20002420B21A93429AD8084B01221A5596E7DD
:103A30002846FFF7FFFD92E7002FCED000F066FD8D
:103A40000027CAE7B80300208403002040030020B9
:103A5000A40400205003002038B505460C46FFF7AB
:103A6000BFFD98B104F5FA739BB2B3F57A7F01D923
:103A700001200CE028466B1E054A22F81340012263
:103A8000044931F81310FFF71DFE00E0012038BD96
:103A900088040020A404002008B50021FFF7DCFF03
:103AA00008BD000010B501240CE0631E0022084987
:103AB00021F81320074931F813102046FFF702FEC2
:103AC0000134E4B20D2CF0D900F020FD10BD00BF90
:103AD00088040020A404002010B50446FFF780FDF0
:103AE00018B1601E014B33F9100010BD880400208E
:103AF00010B50446FFF774FD18B1601E014B33F892
:103B0000100010BDA404002030B585B004460D4659
:103B1000002300930193029303930846FFF760FD8F
:103B200048B1691E064B03EB01130FCB84E80F006D
:103B3000204605B030BD20606060A060E060F7E71F
:103B4000B80300200023184601E00133DBB20C2B40
:103B500007D81A0103498A5C002AF6D00130C0B2A6
:103B6000F3E77047B8030020012803D0022803D1EF
:103B7000024870470248704702487047BC840108F9
:103B8000B8840108C88401080138C0B20C2801D8E3
:103B90000120704700207047A0F5FA7080B241F212
:103BA0009413984201D8012070470020704700000C
:103BB00008B502F09DFE054B18600020044B1880EC
:103BC000044B01225A70188208BD00BFC0040020B7
:103BD000BE040020C4040020F8B507460C46154674
:103BE0001E46FFF7D1FFE0B12046FFF7D5FFD0B169
:103BF0002846FFF7D1FFC0B1012E8CBF002301235F
:103C00002046AC4213D293B90A4B01221A709F701E
:103C10009880DD8000221A815A81DE60FFF7C8FF9C
:103C200000E00120F8BD0120FCE70120FAE70120B7
:103C3000F8E700BFC40400202DE9F8430C46154600
:103C40009946914229D98B1A984666190746FFF77B
:103C50009BFF28B32046FFF79FFF20B3B8F5FA7FFC
:103C60002CBF0022012205B3FAB9494601298CBFB5
:103C70000022012241F288339E4218D8BAB90D4B76
:103C800002221A709F7000229A80DA801C815D8166
:103C9000C3F80C90FFF78CFF03E000239846D4E7AD
:103CA0000120BDE8F8830120FBE70120F9E70120AE
:103CB000F7E700BFC40400202DE9F04104460D469B
:103CC0009046884226D9431A1F4666192046FFF7B8
:103CD00063FF10B33B46B7F5FA7F2CBF00230123E7
:103CE000F5B1EBB9414601298CBF0022012241F216
:103CF00088339E4216D8AAB90B4B03221A700022B1
:103D00009A709A80DA801C815D81C3F80C80FFF77D
:103D10004FFF03E000231F46D7E70120BDE8F081F5
:103D20000120FBE70120F9E7C4040020024B002238
:103D30005A701A70704700BFC404002003462E4A10
:103D40005078002856D010B52C4A1068181A2A4A04
:103D5000D368B0FBF3F103FB11001278012A2DD0D8
:103D6000911EC9B2012941D88001B0FBF3F0DFF800
:103D700088C0BCF80A30224931F9101001FB03F366
:103D8000204981FB03011944DB17C3EBA133BCF8C5
:103D9000081011FA83F39BB21C461B4B1B8821466B
:103DA000A34225D0032A14D0134B9878FFF7B6FC12
:103DB000C0B9154B1C80104B1C8210BDB0EB530FCB
:103DC00003D20D4B9B881C46E7E70B4BDB881C4658
:103DD000E3E72046FFF7AFFC0028EAD0FFF7A6FF95
:103DE0000120EAE7FFF7A2FF0120E6E70020E4E771
:103DF0000020E2E7704700BFC4040020C004002098
:103E000088BF010803000180BE04002010B50446ED
:103E10008446DFF818E0BEE80F00ACE80F00DEF8DB
:103E20000030CCF80030204610BD00BFC404002094
:103E3000022805D0032805D0012805D10348704782
:103E4000034870470348704703487047749401085B
:103E500088940108AC940108709A010870470428FE
:103E600011D009D8022810D003D8C8B101280ED12A
:103E7000704703280DD1704706280CD007280CD0B6
:103E800005280CD170470420704702207047082095
:103E900070470820704706207047072070470820A9
:103EA0007047042811D009D8022810D003D8C8B10F
:103EB00001280ED1704703280DD1704706280CD079
:103EC00007280CD005280CD1704704207047022029
:103ED0007047082070470820704706207047072069
:103EE000704708207047000010B58AB002AC20224D
:103EF0000021204612F0A7FC02230493012305931E
:103F000021460F4811F0FAFD10B101200AB010BD92
:103F10004FF0804302930390069007902146084893
:103F200011F0ECFD08B10120F0E7012300930246F7
:103F30000146034811F026FE0028E7D00120E5E7FE
:103F4000DC81002010B524220021104812F07BFCF7
:103F5000FFF7CAFF38B10D4AD3680133D36001239C
:103F60001C46204610BD0A4811F025FE044630B11B
:103F7000064AD3680133D36001231C46F1E7034BA3
:103F800001221A70034812F00DFAEAE7D804002063
:103F9000DC810020789A0108F0B58DB006460F4606
:103FA00015461C462422002103A812F04CFC0023D5
:103FB00001930293234B1B785BB3082C29D8231E53
:103FC00018BF0123002D18BF002313BBB6F5006FE7
:103FD00028BF002F24D03B1E18BF0123B6F1005F7D
:103FE00038BF0023E3B90CBB03963B460FB14FF03B
:103FF000804304932046FFF732FF069001AA03A9ED
:10400000114811F0F1FDB8B90E4A536801335360FD
:1040100004E00C4AD3680133D36001200DB0F0BD39
:10402000084AD3680133D3600120F7E722462946C6
:1040300001A812F0BAFCD7E7024AD3680133D36073
:104040000120EBE7D8040020DC810020414B1B78E5
:10405000002B7DD02DE9F04192B024E03D4AD36899
:104060000133D36012B0BDE8F0814FF001084AE09F
:10407000394967E0394A3A4812F02CF90134E4B280
:10408000AC4209D204F148036B4413F8441C631C8E
:104090009D42EFD0334AEEE7334812F083F92D4BBF
:1040A0001B78002BDED04021304811F0D7FE0028CD
:1040B000D8D008AC28220021204612F0C4FB01AB66
:1040C000002201925A60039204920592069207928E
:1040D00022464021254811F0C1FD04460028BDD1EB
:1040E0000B98FFF7DEFE05461A4FBB680133BB6035
:1040F000089B3B6102F0FCFB06467861099BB3F12B
:10410000804FB2D0A046134880F81880457601AFA2
:104110002A4639461A3012F048FC089B039304964D
:104120008DF814808DF815502A4639460DF1160089
:1041300012F03BFC03A8FCF7D1FF099BB3F1804FC1
:1041400096D00B492B46089A0A4812F0C3F897E715
:10415000704700BFD80400209890010850870108DC
:10416000D88E01083C9801083C9C0108DC810020A5
:104170009C900108B89A010810B504468446DFF8FF
:1041800020E0BEE80F00ACE80F00BEE80F00ACE88E
:104190000F00DEF80030CCF80030204610BD00BF24
:1041A000D804002000F140504000054B58611984AC
:1041B0005A84012283F82420DA690132DA617047D7
:1041C000FC04002008B58446002304E05A0002F1F4
:1041D000C042118001336345F8D3BFF34F8F0020F5
:1041E00000E0013060450AD2430003F1C0431A8861
:1041F00092B28A42F5D0FFF7D5FF012000E00020FF
:1042000008BD08B58446002208E0510001F1C04114
:104210004AF2A55353409BB20B8001326245F4D35E
:10422000BFF34F8F002000E0013060450ED283B213
:104230004AF2A5515940430003F1C0431A8892B293
:104240009142F1D0FFF7AEFF012000E0002008BD51
:1042500010B5074C28220021204612F0F4FA4FF046
:10426000C04323604FF4801363601023237210BD9A
:10427000FC04002070B530B10346B0F5801F04D9AE
:104280004FF4801404E04FF4803333F001042AD05B
:10429000184DEC6002F02CFB286100236B612B842D
:1042A0006B84022385F8243064082046FFF7A9FFB9
:1042B0000646D8B9054600E00135032D0AD80E4B55
:1042C00033F815102046FFF77DFF0028F4D00123B6
:1042D0001E4606E0074B002283F824209A6901322B
:1042E0009A61304670BD01231E46FAE701231E463F
:1042F000F7E700BFFC04002008C0010810B5044621
:104300008446DFF820E0BEE80F00ACE80F00BEE80E
:104310000F00ACE80F009EE803008CE80300204685
:1043200010BD00BFFC040020022809D004D848B109
:10433000012809D106487047032807D1054870476E
:10434000054870470548704705487047044870475E
:10435000B48D0108E49A0108DC9A01085CA1010807
:10436000EC9A01080B4B1B6803B1704710B507F0BE
:10437000FDF80446074B1B681BB1204607F00BF9FC
:1043800010BD184607F0ADF9024B1860BFF34F8F10
:10439000F3E700BF2405002008B507F0B1F80228B4
:1043A00001D0002008BDFFF7DDFF054B186828B1DC
:1043B000044B196807F0E5F90028F3D00320F1E772
:1043C000240500200000002008B507F099F8022815
:1043D00000D008BD034B18680028FAD007F002FA95
:1043E000F7E700BF2405002070B5002918BF00289A
:1043F00003D101231E46304670BD05460C46FFF72B
:10440000CBFF06460028F6D102461021094802F0EB
:10441000FAF9094B1B6822462946084803F0A4FC18
:10442000064601221021034802F0EDF9FFF7CCFF08
:10443000E1E700BF0000025800000020F400002067
:10444000F0B583B0002918BF002821D014460646D5
:104450000D4612B901231F461CE0FFF79DFF0746DA
:10446000C0B9024610210D4802F0CDF90C4B1B6873
:10447000009323462A4631460A4803F0D5FD0746F5
:1044800001221021054802F0BEF9FFF79DFF01E06F
:1044900001231F46384603B0F0BD00BF000002589C
:1044A00000000020F400002008B502460821024860
:1044B00002F0A9F908BD00BF000C025808B50020A1
:1044C000FFF7F2FF0A2002F019FA0120FFF7ECFFD4
:1044D0000A2002F013FA08BD08B50246402102483E
:1044E00002F091F908BD00BF000C025808B5012286
:1044F0001021054802F087F90120FFF7D5FF0120C0
:10450000FFF7EAFF08BD00BF0000025808B5002011
:10451000FFF7E2FF012002F0F1F90120FFF7DCFFD5
:1045200008BD000008B50421034802F065F9012820
:1045300000D0002008BD00BF000C02580A2809D88E
:1045400009280FD202280FD9042801D00020704773
:10455000012070470C2809D00E2801D00020704798
:1045600001207047012070470120704701207047EB
:1045700000F00F0040EA001343EA002343EA003052
:10458000704700F0C00001F03F01084342EA0040DC
:104590007047000000B583B03F280BD9C020FFF75B
:1045A000F0FF0190012101A8FFF71EFF024B1870D8
:1045B00003B000BD0020F2E72805002000B585B05B
:1045C0000023009301933F2800D8C0200022FFF76A
:1045D000D8FF0290002211461046FFF7D2FF039049
:1045E0000222694602A8FFF72BFF044B187018B986
:1045F000BDF8040005B000BD0020FBE72805002041
:1046000008B50F2803D90120054B187008BD1030DC
:104610000A46C1B20020FFF7BDFF014B1870F5E755
:104620002805002010B504460421C020FFF7C6FF6E
:104630000246094B187848B94CB122F4804292B234
:1046400004210020FFF7A6FF034B187010BD42F4B1
:10465000804292B2F4E700BF2805002038B5044636
:10466000FFF76CFF98B12046FFF782FF0546002454
:10467000032C10D804F10A012A46C9B20020FFF722
:1046800089FF064B187040B90134E4B2F0E701200D
:10469000024B187001E0014B187838BD2805002046
:1046A00008B50020FFF7DAFF08BD000008B5024694
:1046B00009210020FFF76EFF014B187008BD00BFF5
:1046C0002805002008B5FFF711FFFFF7F7FE40F6B9
:1046D000842203210020FFF75DFF0C4B187000B10E
:1046E00008BD0120FFF79EFF084B18700028F7D186
:1046F000012002F003F9FFF7D3FF044B18700028E4
:10470000EED1FFF7D3FF014B1870E9E72805002031
:10471000002807DB00F01F02400901239340024AF2
:1047200042F82030704700BF00E100E0002804DBC1
:104730000901C9B2044B1954704700F00F00090178
:10474000C9B2024B1954704700E400E014ED00E0D8
:1047500000B500F00700A0F1030CBCF1040F07D86E
:10476000C0F1070E0430062806D84FF0000C03E015
:104770004FF0040E4FF0000C4FF0FF3303FA0EF031
:1047800021EA000101FA0CF103FA0CF322EA030218
:1047900041EA020000BD00000649CB6823F4E06353
:1047A0001B041B0C000200F4E0600343024A1A439E
:1047B000CA60704700ED00E00000FA0510B504463D
:1047C000054BD868C0F30220FFF7C2FF0146204620
:1047D000FFF7ACFF10BD00BF00ED00E008B5FFF72C
:1047E00097FF08BDBFF35F8F044B5A6A22F48032F3
:1047F0005A620022C3F89420704700BF00ED00E029
:1048000040F00100054BC3F894005A6A42F480322C
:104810005A62BFF34F8FBFF36F8F704700ED00E018
:104820004378144AC2F89830D2F8A03023F001033C
:10483000C2F8A0304368C2F89C30017BC37A1B06E3
:1048400043EA0173817A43EAC143417B43EA8143EE
:10485000817B43EA4143C17B43EA0143417A43EA16
:104860000123017A43EA410301780B43C2F8A030E7
:10487000704700BF00ED00E0002800F03A8338B533
:104880000446036813F0010F25D0944A136903F01E
:104890003803926A102B15D0182B0FD06368B3F52C
:1048A000803F3FD0002B53D18C4B1A6822F48032CA
:1048B0001A601A6822F480221A6038E002F00302BB
:1048C000022AEBD1854B1B6813F4003F03D06368C9
:1048D000002B00F01083236813F0020F00F0A1807A
:1048E0007E4A1369926A13F038035AD0182B55D0B8
:1048F000E368002B00F0DE8078490A6822F0190294
:1049000013430B6001F0F4FF0546744B1B6813F072
:10491000040F40F0AD8001F0EBFF401B0228F4D9FA
:104920000320EFE26D4A136843F480331360636839
:104930002BB301F0DDFF0546684B1B6813F4003F05
:10494000C9D101F0D5FF401B6428F5D90320D9E275
:10495000B3F5A02F09D0614B1A6822F480321A6097
:104960001A6822F480221A60E1E75C4B1A6842F46C
:1049700080221A601A6842F480321A60D7E701F088
:10498000B7FF0546554B1B6813F4003FA3D001F059
:10499000AFFF401B6428F5D90320B3E212F0030FE8
:1049A000A6D14E4B1B6813F0040F03D0E368002B15
:1049B00000F0A382494A136823F01903E1680B430E
:1049C000136001F095FF0546444B1B6813F0040F7C
:1049D00006D101F08DFF401B0228F5D9032091E29A
:1049E00001F0A0FF41F20303984212D82269402A45
:1049F00007D03A494B6823F47C3343EA02334B60D7
:104A00000FE0364A536823F47C3343F40033536099
:104A100007E0324A536823F0FE43216943EA016309
:104A20005360236813F0100F00F088802B4A13693D
:104A300003F03803926A082B56D0182B50D0E36944
:104A4000002B00F0B880254A136843F08003136000
:104A500001F04EFF0546214B1B6813F4807F40F0A8
:104A6000888001F045FF401B0228F4D9032049E269
:104A700001F058FF41F20303984212D82269402AFC
:104A800007D016494B6823F47C3343EA02334B606A
:104A9000C7E7124A536823F47C3343F4003353606E
:104AA000BFE70E4A536823F0FE43216943EA0163DE
:104AB0005360B6E7094A136823F00103136001F05D
:104AC00017FF0546054B1B6813F0040FA9D001F032
:104AD0000FFF401B0228F5D9032013E200440258BF
:104AE00002F00302012AAAD1994B1B6813F4807FBC
:104AF00003D0E369802B40F0028201F013FF41F202
:104B00000303984212D8226A202A07D090494B68A2
:104B100023F0F84343EA82634B600FE08C4A53680A
:104B200023F0F84343F08043536007E0884AD3689A
:104B300023F07C53216A43EA0163D360236813F0B6
:104B4000080F60D06369002B49D0814A536F43F04E
:104B50000103536701F0CCFE05467D4B5B6F13F0FC
:104B6000020F50D101F0C4FE401B0228F5D90320EA
:104B7000C8E101F0D7FE41F20303984212D8226A3D
:104B8000202A07D072494B6823F0F84343EA826336
:104B90004B60D3E76E4A536823F0F84343F08043F9
:104BA0005360CBE76A4AD36823F07C53216A43EA17
:104BB0000163D360C2E7664A136823F08003136081
:104BC00001F096FE0546624B1B6813F4807FB5D05A
:104BD00001F08EFE401B0228F5D9032092E15C4AC9
:104BE000536F23F00103536701F082FE0546584BD3
:104BF0005B6F13F0020F06D001F07AFE401B022813
:104C0000F5D903207EE1236813F0200F29D0A36992
:104C10009BB14F4A136843F48053136001F068FE60
:104C200005464B4B1B6813F4005F1AD101F060FE80
:104C3000401B0228F5D9032064E1454A136823F498
:104C40008053136001F054FE0546414B1B6813F47A
:104C5000005F06D001F04CFE401B0228F5D903206E
:104C600050E1236813F0040F21D1636A002B00F098
:104C70004881374A126902F03802182A00F0EF80A2
:104C8000022B7AD0324A136823F08073136001F04C
:104C90002FFE04462E4B1B6813F0007F00F0DD80D2
:104CA00001F026FE001B0228F4D903202AE1294A3C
:104CB000136843F48073136001F01AFE0546254B18
:104CC0001B6813F4807F06D101F012FE401B64289C
:104CD000F5D9032016E1A368012B0AD00BBB1C4BAE
:104CE0001A6F22F001021A671A6F22F004021A6783
:104CF00004E0174A136F43F001031367A3685BB323
:104D000001F0F6FD0546124B1B6F13F0020FACD1FC
:104D100001F0EEFD401B41F288339842F3D90320A5
:104D2000F0E0052B09D00A4B1A6F22F001021A6736
:104D30001A6F22F004021A67E0E7054B1A6F42F07F
:104D400004021A671A6F42F001021A67D6E700BF21
:104D5000004402580048025801F0CAFD0546714B54
:104D60001B6F13F0020F80D001F0C2FD401B41F217
:104D700088339842F3D90320C4E06A4A136823F0C9
:104D80008073136001F0B4FD0546664B1B6813F099
:104D9000007F06D001F0ACFD401B0228F5D90320AE
:104DA000B0E0604B996A604A0A40A16AE06A41EA51
:104DB00000110A439A62226B013AC2F30802616B46
:104DC0000139490289B20A43A16B0139090401F48E
:104DD000FE010A43E16B0139090601F0FE410A4375
:104DE0001A63DA6A22F00102DA625A6B6FF3CF02B9
:104DF000A16C42EAC1025A63DA6A22F00C02216C09
:104E00000A43DA62DA6A22F00202616C0A43DA6269
:104E1000DA6A42F48032DA62DA6A42F40032DA6242
:104E2000DA6A42F48022DA62DA6A42F00102DA6275
:104E30001A6842F080721A6001F05AFD0446394B3C
:104E40001B6813F0007F06D101F052FD001B022801
:104E5000F5D9032056E0002054E0002052E0314A0A
:104E6000916A106B012B4ED001F00303A26A9342AA
:104E70004BD1C1F30511E36A994248D1C0F308024E
:104E8000236B013B9A4244D1C0F34622636B013B42
:104E90009A4240D1C0F30642A36B013B9A423CD1F7
:104EA000C0F30660E36B013B984238D11D4B5B6B4E
:104EB000C3F3CC03A26C9A4201D1002022E0194A2C
:104EC000D36A23F00103D36201F012FD054601F01D
:104ED0000FFDA842FBD0134A536B6FF3CF03A16CB5
:104EE00043EAC1035363D36A43F00103D362002052
:104EF00008E001207047012004E0012002E00120C9
:104F000000E0184638BD0120FCE70120FAE7012047
:104F1000F8E70120F6E70120F4E70120F2E701209D
:104F2000F0E700BF004402580CFCFFFF744B1B6904
:104F300003F03803102B00F0DD80182B0FD0002B6E
:104F400040F0DA806E4B1B6813F0200F00F0D68023
:104F50006B4B1B68C3F3C1036A48D8407047684B6A
:104F60009A6A02F00302D3F828C0CCF30510D96A7C
:104F700001F001015B6BC3F3CC0301FB03F307EE0C
:104F8000903AF8EE677A1CF47C7F00F0B880012A32
:104F90004AD0022A74D0002A40F08F80584B1B68F8
:104FA00013F0200F23D056490A68C2F3C102554BB3
:104FB000D34007EE103AF8EE476A07EE100AB8EE53
:104FC000476A86EE867A0B6BC3F3080306EE903AC7
:104FD000F8EE666A9FED4C6A67EE867A76EEA77AFF
:104FE000F7EE006A77EEA67A27EE277A38E007EE2A
:104FF000100AF8EE476A9FED456A86EE267A404B26
:105000001B6BC3F3080306EE903AF8EE666A9FED59
:105010003E6A67EE867A76EEA77AF7EE006A77EE5A
:10502000A67A27EE277A1BE007EE100AF8EE476A09
:105030009FED376A86EE267A314B1B6BC3F308036C
:1050400006EE903AF8EE666A9FED2F6A67EE867A72
:1050500076EEA77AF7EE006A77EEA67A27EE277A41
:10506000274B1B6BC3F34623013307EE903AF8EE50
:10507000677AC7EE276AFCEEE67A17EE900A704769
:1050800007EE100AF8EE476A9FED226A86EE267A4E
:105090001B4B1B6BC3F3080306EE903AF8EE666AEF
:1050A0009FED196A67EE867A76EEA77AF7EE006AC8
:1050B00077EEA67A27EE277AD2E707EE100AF8EE07
:1050C000476A9FED136A86EE267A0D4B1B6BC3F37E
:1050D000080306EE903AF8EE666A9FED0B6A67EEFB
:1050E000867A76EEA77AF7EE006A77EEA67A27EE52
:1050F000277AB5E708487047084870470148704765
:10510000004402580090D003000000390024744C81
:105110000024744A0024F44A00127A0000093D0079
:10512000002800F0328170B50D4604469B4B1B6889
:1051300003F00F038B420BD2984A136823F00F033E
:105140000B431360136803F00F038B4240F01F8181
:10515000236813F0040F0CD02269914B9B6903F074
:1051600070039A4205D98E498B6923F070031A4364
:105170008A61236813F0080F0CD06269884BDB69E1
:1051800003F070039A4205D98549CB6923F0700377
:105190001A43CA61236813F0100F0CD0A269804B28
:1051A000DB6903F4E0639A4205D97D49CB6923F4B6
:1051B000E0631A43CA61236813F0200F0CD0E26940
:1051C000774B1B6A03F070039A4205D974490B6A46
:1051D00023F070031A430A62236813F0020F0CD005
:1051E000E2686F4B9B6903F00F039A4205D96C4943
:1051F0008B6923F00F031A438A61236813F0010FB0
:1052000041D0674A936923F47063A1680B439361AB
:105210006368022B0AD0032B27D0012B2CD0604AC5
:10522000126812F0040F06D10120ADE0126812F4EA
:10523000003F00F0AE805A490A6922F0070213438A
:105240000B6101F055FB0646554B1B6903F0380313
:105250006268B3EBC20F16D001F04AFB801B41F22B
:1052600088339842F0D903208EE04D4A126812F03C
:10527000007FE0D1012087E0494A126812F4807F64
:10528000D9D1012080E0236813F0020F0CD0E2682E
:10529000434B9B6903F00F039A4205D240498B6947
:1052A00023F00F031A438A613C4B1B6803F00F0382
:1052B000AB420AD9394A136823F00F032B4313601A
:1052C000136803F00F03AB4265D1236813F0040F9A
:1052D0000CD02269324B9B6903F070039A4205D2CD
:1052E0002F498B6923F070031A438A61236813F0F6
:1052F000080F0CD062692A4BDB6903F070039A42F5
:1053000005D22749CB6923F070031A43CA61236889
:1053100013F0100F0CD0A269214BDB6903F4E0639A
:105320009A4205D21E49CB6923F4E0631A43CA614D
:10533000236813F0200F0CD0E269194B1B6A03F0AD
:1053400070039A4205D216490B6A23F070031A4380
:105350000A62FFF7EBFD12498B69C3F30323114A7D
:10536000D35C03F01F03D8408B6903F00F03D35CB9
:1053700003F01F0320FA03F30B4A13600B4B186072
:105380000B4B186806F09CFF70BD01207047012090
:10539000FAE70120F8E70120F6E700BF00200052FD
:1053A0000044025838C001080C0000201000002002
:1053B0000800002008B5FFF7B9FD0B4A9369C3F355
:1053C00003230A49CB5C03F01F0320FA03F392691D
:1053D00002F00F02885C00F01F0023FA00F0044A7C
:1053E0001060044A136008BD0044025838C0010828
:1053F0000C0000201000002008B5FFF7DBFF054B74
:10540000DB69C3F30213044AD35C03F01F03D840E3
:1054100008BD00BF0044025838C0010808B5FFF7B6
:10542000C9FF054BDB69C3F30223044AD35C03F0D5
:105430001F03D84008BD00BF0044025838C001080F
:105440003F230360114B1A6902F0070242609A6918
:1054500002F4706282609A6902F00F02C2609A6977
:1054600002F070020261DA6902F070024261DA69E8
:1054700002F4E06282611B6A03F07003C361044BB3
:105480001B6803F00F030B60704700BF0044025815
:1054900000200052404B9B6A03F00303032B79D09A
:1054A00070B505460E463C4A136823F080631360CE
:1054B00001F01EFA0446384B1B6813F0006F06D04B
:1054C00001F016FA031B022BF5D9032070BD324BF5
:1054D0009A6A22F47C32296842EA01329A626A6846
:1054E000013AC2F30802A9680139490289B20A43A4
:1054F000E9680139090401F4FE010A432969013907
:10550000090601F0FE410A439A63DA6A22F0C002FA
:1055100069690A43DA62DA6A22F02002A9690A4359
:10552000DA62DA6A22F01002DA62DA6B6FF3CF0223
:10553000E96942EAC102DA63DA6A42F01002DA6229
:10554000C6B9154AD36A43F40023D362124A1368DA
:1055500043F08063136001F0CBF904460E4B1B68E7
:1055600013F0006F14D101F0C3F9001B0228F5D924
:105570000320ABE7012E05D0074AD36A43F400139A
:10558000D362E3E7044AD36A43F48013D362DDE7CE
:1055900000209BE70120704700440258404B9B6A63
:1055A00003F00303032B79D070B505460E463C4A41
:1055B000136823F08053136001F09AF90446384BC6
:1055C0001B6813F0005F06D001F092F9031B022B59
:1055D000F5D9032070BD324B9A6A22F07C7229689B
:1055E00042EA01529A626A68013AC2F30802A96863
:1055F0000139490289B20A43E9680139090401F411
:10560000FE010A4329690139090601F0FE410A43F6
:105610001A64DA6A22F4406269690A43DA62DA6A71
:1056200022F40072A9690A43DA62DA6A22F480720B
:10563000DA625A6C6FF3CF02E96942EAC1025A6436
:10564000DA6A42F48072DA62C6B9154AD36A43F460
:105650008003D362124A136843F08053136001F051
:1056600047F904460E4B1B6813F0005F14D101F09C
:105670003FF9001B0228F5D90320ABE7012E05D026
:10568000074AD36A43F08073D362E3E7044AD36ADC
:1056900043F40003D362DDE700209BE7012070475D
:1056A00000440258F8B50446036813F0006F30D088
:1056B000836EB3F5001F26D00ED8ABB1B3F5801FB3
:1056C00007D102210830FFF7E5FE054695B12E46C9
:1056D00021E0012635461EE0B3F5401F01D100252B
:1056E00008E00126354616E09B4AD36A43F40033AE
:1056F000D3620025984A136D23F44013A16E0B4327
:105700001365002607E002212830FFF747FF054612
:10571000DCE700263546236813F4807F1BD0A36D99
:10572000022B30D00CD843B3012B06D1002104F159
:105730000800FFF7AFFE054605E0012635460AE002
:10574000033B012B26D845BB834A136D23F0070387
:10575000A16D0B431365236813F4007F37D0E36D0D
:10576000802B49D01ED82BB3402B18D1002104F137
:105770000800FFF78FFE054621E0774AD36A43F41D
:105780000033D362DFE7002104F12800FFF706FFB2
:105790000546D8E701263546DDE72E46DBE701263C
:1057A000354614E0C02B0AD0B3F5807F07D0012620
:1057B00035460CE0684AD36A43F40033D36215BB24
:1057C000654A136D23F4E073E16D0B4313652368A1
:1057D00013F4806F3CD0D4F8A830B3F5800F2FD0ED
:1057E00016D8F3B1B3F5001F0FD1002104F1080062
:1057F000FFF750FE054619E0002104F12800FFF7ED
:10580000CDFE0546DBE72E46E1E7012635461FE0E3
:10581000B3F5C00F0AD0B3F5000F07D00126354607
:1058200016E04D4AD36A43F40033D3627DB94A4A45
:10583000936D23F46003D4F8A8100B43936507E03D
:10584000002104F12800FFF7A9FE0546EEE72E46E9
:10585000236813F4006F2BD0D4F8AC30B3F1007F81
:1058600053D00DD8ABB1B3F1807F06D1002104F144
:105870000800FFF70FFE054610E00126354617E049
:10588000B3F1407F0AD0B3F1806F07D001263546CF
:105890000EE0314AD36A43F40033D362002D3BD18A
:1058A0002D4A936D23F0E063D4F8AC100B4393655D
:1058B000236813F0007F13D0E36C202B36D030D850
:1058C00033B1102B2AD1244AD36A43F40033D36274
:1058D0009DBB214AD36C23F03003E16C0B43D364AE
:1058E000236813F4805F47D0236EB3F5005F00F0A8
:1058F0008E8027D893B3B3F5805F20D1002104F1C7
:105900000800FFF7C7FD05462DE0002104F128003F
:10591000FFF744FE0546C1E72E46C9E70126354696
:10592000DEE7302BD4D001263546D9E7022104F139
:105930000800FFF7AFFD0546CAE72E46D0E701266F
:10594000354619E0B3F5405F0DD0B3F5804F0AD06E
:105950000126354610E000BF00440258484AD36A89
:1059600043F40033D362002D58D1454A136D23F41C
:10597000E043216E0B431365236813F4005F17D0D7
:10598000636EB3F5003F5AD04DD843B1B3F5803FB5
:1059900046D1012104F10800FFF77CFD0546002DEA
:1059A00054D1374A136D23F4E023616E0B43136522
:1059B000236813F4804F19D0D4F8B030B3F1005FEE
:1059C00055D048D843B1B3F1805F41D1012104F1F2
:1059D0000800FFF75FFD0546002D4FD1284A936D63
:1059E00023F0E043D4F8B0100B439365236813F41D
:1059F000004F56D0236FB3F1805F43D0B3F1005F07
:105A000000F07A81002B42D00126354649E0002182
:105A100004F12800FFF7C2FD0546A4E72E46ABE7D8
:105A200001263546C4E7B3F5802FB8D0B3F5A02FD3
:105A3000B5D0B3F5403FB2D001263546B8E70121D5
:105A400004F12800FFF7AAFD0546A8E72E46AFE7B8
:105A500001263546CAE7B3F1804FBDD0B3F1A04F60
:105A6000BAD0B3F1405FB7D001263546BEE7012179
:105A700004F12800FFF792FD0546ADE72E46B5E795
:105A800000440258AA4AD36A43F40033D362002D7B
:105A900040F03981A64A136D23F04053216F0B4328
:105AA0001365236813F0807F18D0A36C022B00F0DD
:105AB000358100F22D813BB1012B40F026819C4ABB
:105AC000D36A43F40033D362002D40F02E81984A0C
:105AD000D36C23F00303A16C0B43D364236813F44A
