:020000040800F2
:100000000000022041400108690C00086B0C000848
:100010006D0C00086F0C0008710C00080000000057
:1000200000000000000000000000000001A5000822
:10003000730C000800000000A1A50008AD9A00089C
:100040009540010895400108954001089540010838
:100050009540010895400108954001089540010828
:100060009540010895400108954001089540010818
:100070009540010895400108954001089540010808
:1000800095400108954001089540010895400108F8
:1000900095400108954001089540010895400108E8
:1000A00095400108750C000895400108954001082D
:1000B00095400108954001089540010895400108C8
:1000C00095400108954001089540010895400108B8
:1000D00095400108954001089540010895400108A8
:1000E0009540010895400108000000009540010876
:1000F0009540010895400108954001089540010888
:100100009540010895400108954001089540010877
:100110009540010895400108954001089540010867
:100120009540010895400108954001089540010857
:100130009540010895400108954001089540010847
:1001400000000000000000000000000000000000AF
:100150009540010895400108954001089540010827
:100160009540010895400108954001089540010817
:1001700095400108954001089540010800000000E5
:1001800095400108954001089540010895400108F7
:1001900095400108954001089540010895400108E7
:1001A00095400108954001089540010895400108D7
:1001B00095400108954001089540010895400108C7
:1001C00095400108954001089540010895400108B7
:1001D00095400108954001089540010895400108A7
:1001E0009540010895400108954001089540010897
:1001F0009540010895400108954001089540010887
:100200009540010895400108954001089540010876
:100210009540010895400108954001089540010866
:100220009540010895400108954001080000000034
:100230009540010895400108000000009540010824
:100240009540010895400108954001089540010836
:100250009540010895400108954001089540010826
:100260009540010895400108954001089540010816
:1002700095400108954001089540010800000000E4
:1002800095400108954001089540010800000000D4
:08029000000000009540010888
:1002A00010F8012B11F8013B012A28BF9A42F7D020
:1002B000D01A7047034613F8012B002AFBD1181AF5
:1002C000013870470000000000000000000000003E
:1002D00001F0FF01102A2BDB10F0070F08D010F8F7
:1002E000013B013A8B422DD010F0070F42B3F6D1FB
:1002F000F0B441EA012141EA014122F007047FF014
:1003000000070023F0E80256083C85EA010586EA6A
:10031000010685FA47F5A3FA87F586FA47F6A5FAA6
:1003200087F68EB9EED1F0BC01F0FF0102F00702B2
:1003300032B110F8013B013A83EA010313B1F8D15D
:100340000020704701387047002D06BF354603383E
:10035000073815F0010F07D1013015F4807F02BF77
:10036000013015F4C03F0130F0BC0138704700BFC8
:1003700053B94AB9002908BF00281CBF4FF0FF310C
:100380004FF0FF3000F00CB8ADF1080C6DE904CE71
:1003900015F0A0FEDDF804E0DDE9022304B07047AB
:1003A000704700BF0348044B834202D0034B03B1A4
:1003B00018477047800000208000002000000000E7
:1003C0000548064B1B1AD90F01EBA301491002D0B7
:1003D000034B03B1184770478000002080000020C5
:1003E0000000000010B5064C237843B9FFF7DAFF90
:1003F000044B13B10448AFF300800123237010BDF8
:100400008000002000000000F463010808B5054BDF
:100410001BB105490548AFF30080BDE80840FFF770
:10042000CFBF00BF0000000084000020F46301087B
:1004300030B585B00024009401940294039402F036
:10044000D3FC01238DF800308DF8014001941F2268
:100450008DF8082087228DF809208DF80A408DF844
:100460000B408DF80C308DF80D308DF80E408DF866
:100470000F40684602F0D6FC042002F0C3FC05B031
:1004800030BD000010B582B004468DF807004FF073
:10049000FF3301220DF10701024807F0A2F82046C0
:1004A00002B010BD7801002008B50268034B9A42E3
:1004B00000D008BD04F00CFDFBE700BF00000140C8
:1004C00072B6FEE700B59DB04C22002109A814F0D9
:1004D0009EFA2022002101A814F099FA022004F0CB
:1004E0009DFC00230093244BDA6A22F00102DA62B9
:1004F000DB6A03F001030093204B9A6942F4404207
:100500009A619B6903F440430093009B1B4B9B69DA
:1005100013F4005FFAD0012209924FF480330A935A
:1005200002231293139314926422159216930422B9
:10053000179218930C23199300231A931B9309A85D
:1005400002F09CFCA0B93F23019303230293039084
:10055000082304934023059306934FF48062079287
:100560000893022101A803F0DDF818B91DB000BD01
:10057000FFF7A6FFFFF7A4FF000400580048025849
:1005800000B583B0FFF754FF04F072FCFFF79AFF49
:1005900000F056F800F012FA00F050FA00F0E4FA19
:1005A00013F090FA1F4B1868002302221946806846
:1005B00013F0E4FF1C4813F0D9FF02F0B9FF064620
:1005C00003F0FAF9054603F019FA044603F028FA95
:1005D000009023462A463146144813F05FFF02F08C
:1005E00073FB20B1124813F0C1FFFFF769FF1148F8
:1005F00013F0BCFF4FF4486001F07FFE20B10E48BD
:1006000013F0B4FFFFF75CFF4FF448610B4813F0A1
:1006100045FF01F07DFC09F055FA00F041F909F0C1
:100620007DFAFEE730000020646401087C64010864
:10063000BC640108DC640108146501083C6501081C
:100640002DE9F04F8FB009AD002409940A940B9462
:100650000C940D946A4BD3F8E02042F00402C3F8E6
:10066000E020D3F8E02002F004020192019AD3F8CE
:10067000E02042F02002C3F8E020D3F8E02002F0AE
:1006800020020292029AD3F8E02042F08002C3F8DE
:10069000E020D3F8E02002F080020392039AD3F81E
:1006A000E02042F00102C3F8E020D3F8E02002F09D
:1006B00001020492049AD3F8E02042F04002C3F809
:1006C000E020D3F8E02002F040020592059AD3F82A
:1006D000E02042F01002C3F8E020D3F8E02002F05E
:1006E00010020692069AD3F8E02042F00202C3F804
:1006F000E020D3F8E02002F002020792079AD3F834
:10070000E02042F00802C3F8E020D3F8E03003F024
:1007100008030893089BDFF8F8A001221021504637
:1007200004F06CFBDFF8EC9022464821484604F0C8
:1007300065FBDFF8E4802246E021404604F05EFBE2
:10074000224603212F4804F059FB4FF0100BCDF83F
:1007500024B001260A960B9403270C97294650468D
:1007600004F02CFA4BF6C06309930A940B942946C3
:10077000254804F023FA4FF4507309930A940B941C
:100780002946224804F01AFA4FF4807309930A9418
:100790000B942946504604F011FA042309930A9455
:1007A0000B962946484604F009FA482309930A960D
:1007B0000B940C972946484604F000FA1823099335
:1007C0000A940B942946404604F0F8F9E023099373
:1007D0000A960B940C972946404604F0EFF90997C6
:1007E0000A960B940C942946064804F0E7F95846FB
:1007F00004F0A4FB202004F0A1FB0FB0BDE8F08FB3
:10080000004402580010025800180258000802580C
:1008100000000258000C025800040258F8B50AF013
:10082000B3FB1A4813F0A2FE01F08CFC00263546FB
:100830001DE0204602F00EF820BB01F075FBA31B63
:10084000B3F57A7F10D3124E0121304604F0DCFA62
:100850000221304604F0D8FA6F1C224629460D4882
:1008600013F01CFE26463D46012009F026FA04F04E
:100870003BFB044601F018FE0028DAD0064813F0CE
:1008800075FED6E7054813F071FED6E774650108DA
:1008900000100258E865010890650108BC65010870
:1008A00008B5044A0021044809F0A1F9034B186077
:1008B00008BD00BFB89401081D0800089C00002076
:1008C000F0B5B9B00023339334933593369337930F
:1008D000334B1B680BB139B0F0BD314B01221A60AC
:1008E00002ACC0220021204614F091F84FF0807233
:1008F0000023CDE90223204603F0D6F900284BD18E
:10090000284BD3F8D42042F48052C3F8D420D3F833
:10091000D43003F480530193019B4FF23F03339390
:100920000227349700263596032536950C233793F6
:1009300033AC21461C4804F041F93F2333933497EC
:10094000359636950C2337932146184804F036F92E
:100950004FF6807333933497359636950C2337933F
:100960002146134804F02AF94FF633733393349732
:10097000359636950C23379321460E4804F01EF920
:100980008023339334973596369509233793214640
:10099000094804F013F99EE7FFF792FDB0E700BFA6
:1009A000A000002000440258001402580018025809
:1009B00000100258000C02580008025800B589B017
:1009C00001A9002201924A608A60CA600A614A61F4
:1009D0008A611648164B036003F582734360826098
:1009E000C26002614FF0100CC0F814C08261C26195
:1009F000026242628262C262026342638263C263D3
:100A000002640F23019302934FF03C0ECDF80CE0EB
:100A10000493CDF814C01123069305F015FB08B913
:100A200009B000BDFFF74CFDFAE700BFA4000020AD
:100A30000040005208B5FFF743FF08BD08B5154850
:100A4000154B03604FF4800343600023836007224B
:100A5000C26003614FF0807242614FF08062826138
:100A60004FF08052C261036243628362C3624FF0FF
:100A7000804242638363C363036443648364C364E7
:100A800003654365836505F0A3FB00B908BDFFF767
:100A900017FDFBE7F00000200030014070B5BAB050
:100AA0000446002135913691379138913991C02211
:100AB00004A813F0ACFF2268274B9A4201D03AB049
:100AC00070BD4FF480520023CDE9042304A803F045
:100AD000EBF800283CD1214BD3F8F02042F48052AF
:100AE000C3F8F020D3F8F02002F480520192019A6A
:100AF000D3F8E02042F00102C3F8E020D3F8E02070
:100B000002F001020292029AD3F8E02042F00802B9
:100B1000C3F8E020D3F8E03003F008030393039B0D
:100B200060233593022536950024379438940526A2
:100B3000399635A90A4804F041F880233593369553
:100B400037943894399635A9064804F037F8B6E753
:100B5000FFF7B6FCBFE700BF003001400044025879
:100B600000000258000C025808B51748174B0360E4
:100B70004FF4E133436000238360C36003610C22C0
:100B800042618361C36103624362836206F095FE42
:100B900070B900210C4806F00CFF60B900210A482A
:100BA00006F02CFF50B9084806F0E4FE48B908BD2D
:100BB000FFF786FCEDE7FFF783FCEFE7FFF780FC2C
:100BC000F1E7FFF77DFCF2E778010020001001401B
:100BD00010B5B8B004460021339134913591369167
:100BE0003791C02202A813F012FF22681B4B9A42D1
:100BF00001D038B010BD01220023CDE9022302A8A4
:100C000003F052F838BB164BD3F8F02042F0100234
:100C1000C3F8F020D3F8F02002F010020092009AFE
:100C2000D3F8E02042F00102C3F8E020D3F8E0302E
:100C300003F001030193019B4FF4C063339302233C
:100C400034930023359336930723379333A905480C
:100C500003F0B4FFCDE7FFF733FCD4E70010014009
:100C60000044025800000258FEE7FEE7FEE7FEE7F8
:100C7000FEE7704708B5024805F068FF08BD00BFF1
:100C8000A84D002000B583B00A4BD3F8F42042F001
:100C90000202C3F8F420D3F8F43003F00203019306
:100CA000019B00220F216FF0010002F089F803B0D0
:100CB00000BD00BF0044025800B58DB0002307936B
:100CC000089309930A930B930268384B9A4201D018
:100CD0000DB000BD364BD3F8D82042F40042C3F823
:100CE000D820D3F8D82002F400420192019AD3F818
:100CF000D82042F48032C3F8D820D3F8D82002F4A8
:100D000080320292029AD3F8D82042F40032C3F81B
:100D1000D820D3F8D82002F400320392039AD3F8F3
:100D2000E02042F00102C3F8E020D3F8E02002F016
:100D300001020492049AD3F8E02042F00202C3F8C0
:100D4000E020D3F8E02002F002020592059AD3F8E1
:100D5000E02042F00402C3F8E020D3F8E03003F0D2
:100D600004030693069B8623079302230893032319
:100D70000A930B230B9307A90E4803F01FFF32239E
:100D8000079307A90C4803F019FF4FF4605307932A
:100D900007A90A4803F012FF002205213D2002F0B6
:100DA0000FF83D2002F01CF892E700BF00800240DF
:100DB000004402580000025800080258000402587B
:100DC000002818BF002A04D008B5034610469847EB
:100DD00008BD704700E0013010B10378202BFAD035
:100DE0007047000038B504460D46314AFFF7E8FF6A
:100DF000304A29462046FFF7E3FF2F4A294620467E
:100E0000FFF7DEFF2D4A29462046FFF7D9FF2C4A7F
:100E100029462046FFF7D4FF2A4A29462046FFF7F5
:100E2000CFFF294A29462046FFF7CAFF274A29460D
:100E30002046FFF7C5FF264A29462046FFF7C0FF98
:100E4000244A29462046FFF7BBFF234A294620466D
:100E5000FFF7B6FF214A29462046FFF7B1FF204A97
:100E600029462046FFF7ACFF1E4A29462046FFF7D9
:100E7000A7FF1D4A29462046FFF7A2FF1B4A294625
:100E80002046FFF79DFF1A4A29462046FFF798FFA4
:100E9000184A29462046FFF793FF174A294620465D
:100EA000FFF78EFF154A29462046FFF789FF38BD18
:100EB0001466010824660108306601083C660108D2
:100EC0004C6601086066010894660108C86601085E
:100ED0001C6701082C6701083C670108746701085A
:100EE000B0670108C0670108E067010810680108E1
:100EF00028680108406801087468010888680108CA
:100F000070B506460D46144601F0ACFB2946014477
:100F1000091B01F5FA73B3F57A7F01D9012070BD81
:100F200009B2304601F05EFBF9E738B505460C46DC
:100F300001F088FC2146284601F0B6F938BDF8B525
:100F400007460E4615461C4601F07CFC23462A4601
:100F50003146384601F044FAF8BDF8B507460E466A
:100F600015461C4601F06EFC23462A46314638469B
:100F700001F03FFAF8BDF0B583B007460E461546BE
:100F80001C4601F05FFCBDF824300193089B0093E0
:100F900023462A463146384601F052FA03B0F0BDE6
:100FA0000CB470B5B2B006460D4636AB53F8042B00
:100FB000019302ACC021204613F060FC2246294672
:100FC0003046FFF7FDFE32B0BDE8704002B070471A
:100FD0002DE9F04393B0074688460DA801F092FC36
:100FE00001F076FB04469DF835509DF8340001F081
:100FF0009BFC9DF83630BDF844200492109A039271
:1010000002930190009523461F4A41463846FFF758
:10101000C7FF012424E0DFF87C90204601F02EFB7E
:101020000546204601F01EFB06469DF8240001F00F
:1010300061FBBDF82630BDF82820BDF830100791BF
:101040000B990691059204930390029601950094E2
:101050004B460E4A41463846FFF7A2FF0134E4B240
:101060000D2C08D8214609A801F014FB012CD2D080
:10107000DFF82490D1E7064A41463846FFF7A0FE44
:1010800013B0BDE8F08300BFFC6801087069010877
:10109000E46901083C680108F868010800B583B0FC
:1010A00033B9044B0092044AFFF77AFF03B000BD46
:1010B000024BF7E7EC690108FC690108F4690108D3
:1010C00070B588B005460E4601F002FB0346234A80
:1010D00031462846FFF764FF012410E0204601F066
:1010E000C1FA03461E4A31462846FFF759FF1BE066
:1010F0001C4A31462846FFF763FE0134E4B20D2C4A
:101100002AD8214604A801F0C5FA204601F0B6FA13
:1011100000902346144A31462846FFF741FF2046F7
:1011200001F0A0FA0028D9D19DF810000028DFD0E6
:1011300001F0E0FA0346BDF81220BDF81410BDF826
:101140001C0003900698029001910092074A3146D4
:101150002846FFF725FFCBE708B070BD146A0108E9
:10116000446A0108DC670108346A0108506A010812
:1011700070B58AB006460D4605A801F0C3FB9DF880
:1011800015409DF8140001F0CFFB9DF81630BDF816
:1011900024200392089A0292019300902346034A66
:1011A00029463046FFF7FCFE0AB070BD906A010880
:1011B00070B582B006460D460A4AFFF701FE0124CB
:1011C0000BE0204601F04EFA00902346064A2946DD
:1011D0003046FFF7E5FE0134E4B20D2CF1D902B040
:1011E00070BD00BFCC6A0108D86A010800B583B0A1
:1011F0003BB9054B00931346044AFFF7D1FE03B0F9
:1012000000BD034BF6E700BFD4760108F46A01087D
:10121000F06A010830B589B005460B46054A202121
:10122000684613F05FFA6946284613F018FC09B0C7
:1012300030BD00BF046B010810B51446FFF7EAFF8C
:10124000002C18BF002810D03A2113F0E8FB58B149
:1012500001300378202B01D10130FAE70A22002166
:1012600012F0D4FF2060012010BD0020FCE738B54B
:1012700014461D46FFF7CEFF002C18BF002828D0CB
:101280004DB33A2113F0CBFB014618B3013100E016
:10129000013108782028FBD022281ED101314FF0DF
:1012A000000C04E0013104F80C000CF1010C08788A
:1012B000002818BF222802D06B1E6345F2D80023F5
:1012C00004F80C300B78222B01D0002002E0012022
:1012D00000E0002038BD2846FCE70020FAE710B502
:1012E000044601F0AFFA204600F0EBFF10BD10B548
:1012F0001446FFF78FFF002C18BF002810D03A21AA
:1013000013F08DFB58B101300378202B01D101304F
:10131000FAE70A22002112F0F3FF2060012010BD3D
:101320000020FCE700B583B0019201AAFFF7DFFFC0
:10133000019803B000BD0000F0B595B004460E461C
:101340001746102310AA9949FFF791FF00282AD0C9
:10135000974910A8FEF7A4FF00282AD0954910A8A5
:10136000FEF79EFF50B3944910A8FEF799FF58B3BB
:10137000924910A8FEF794FF002838D0904910A891
:10138000FEF78EFF28B18F4910A8FEF789FF0028CD
:1013900064D10BAA8C492046FFF7A9FF002840D151
:1013A00001231C461BE0894A39463046FFF708FDF9
:1013B0001BE039463046FFF70BFE16E0844A3946FB
:1013C0003046FFF7FDFC10E04FF4486281492046AB
:1013D000FFF7A8FF0A9080B2FFF781FF044623467B
:1013E00010AA39463046FFF759FE15B0F0BD0BAADA
:1013F00075492046FFF77BFF10B901231C46EEE735
:101400000AAA74492046FFF772FF10B901231C464F
:10141000E5E7BDF828109DF82C00FFF786FD04468F
:10142000DDE741F294126B492046FFF77BFF0A90FB
:10143000642269492046FFF775FF054640F6B83239
:1014400066492046FFF76EFF83B22A46BDF8281092
:101450009DF82C00FFF773FD0446C0E7604910A813
:10146000FEF71EFF20B15F4910A8FEF719FF28BB49
:101470000BAA55492046FFF73AFF10B901231C4635
:10148000ADE74FF47A7253492046FFF74BFF0A90BD
:10149000642251492046FFF745FF054640F6B83221
:1014A0004E492046FFF73EFF83B22A46BDF828107A
:1014B0009DF82C00FFF751FD044690E74A4910A81B
:1014C000FEF7EEFE002832D0484910A8FEF7E8FEED
:1014D000002800F09D80464910A8FEF7E1FE002894
:1014E00000F01081434910A8FEF7DAFE002800F052
:1014F0000E81414910A8FEF7D3FE002800F0A38119
:101500003E4910A8FEF7CCFE002840F0258201F0ED
:1015100099F90BAA2C492046FFF7E9FE002800F0B4
:1015200017829DF82C0000F06DFF044657E703AAD0
:1015300033492046FFF7DBFE10B901231C464EE776
:1015400004AA30492046FFF7D2FE10B901231C46F9
:1015500045E705AA2C492046FFF7C9FE10B901232B
:101560001C463CE706AA29492046FFF7C0FE10B9F1
:1015700001231C4633E7642217492046FFF7D2FEB9
:10158000054640F6B83215492046FFF7CBFE80B23B
:1015900001900095BDF818309DF81420BDF810108A
:1015A0009DF80C00FFF7E7FC044618E70C6B0108F8
:1015B000006E0108386B0108AC6B0108B46B0108C0
:1015C000B86B0108BC6B01081C6C0108106B0108AA
:1015D000406B0108286C0108CC6B0108D86B01082E
:1015E000E86B0108EC6B0108FC6B01082C6C01082E
:1015F0007C6C0108886C0108F06C0108486E0108D9
:10160000046C0108106C0108186C0108246C0108B6
:1016100010230CAA9F492046FFF729FE002800F05E
:10162000A1819D490CA8FEF73BFE70B19B490CA817
:10163000FEF736FE002834D099490CA8FEF730FE9C
:1016400000285AD001231C46C9E60BAA954920461A
:10165000FFF74DFE10B901231C46C0E605AA9249CA
:101660002046FFF744FE10B901231C46B7E606AA40
:101670008E492046FFF73BFE10B901231C46AEE61B
:101680004FF47A728A492046FFF74CFE0346BDF8B4
:101690001820BDF814109DF82C0001F063F80446E2
:1016A0009DE60BAA7F492046FFF721FE10B90123D2
:1016B0001C4694E605AA7F492046FFF718FE10B99C
:1016C00001231C468BE606AA7B492046FFF70FFE46
:1016D00010B901231C4682E64FF47A727449204601
:1016E000FFF720FE0346BDF81820BDF814109DF842
:1016F0002C0001F067F8044671E601F0A3F800231E
:101700001C466CE601F09EF800231C4667E6102399
:1017100006AA6A492046FFF7AAFD002800F090803B
:10172000674906A8FEF7BCFDA0B1664906A8FEF70A
:10173000B7FD002835D0644906A8FEF7B1FD0028A2
:1017400049D0624906A8FEF7ABFD002868D0012306
:101750001C4644E65E4A39463046FFF731FB01231A
:101760001A4611E05B4B1D461446104600F07AFF06
:10177000019000942B46584A39463046FFF710FC3A
:1017800023460133DBB21A460D2A04D8012AE9D0D8
:10179000524B1D46E8E7524A39463046FFF710FBE8
:1017A00023E60BAA3F492046FFF7A1FD10B901230C
:1017B0001C4614E605AA3F492046FFF73DFD10B937
:1017C00001231C460BE6BDF914109DF82C0000F017
:1017D00009FF044603E60BAA32492046FFF787FDBE
:1017E00010B901231C46FAE504AA3E492046FFF73A
:1017F0007EFD10B901231C46F1E505AA3A492046B1
:10180000FFF775FD10B901231C46E8E5BDF814206B
:10181000BDF810109DF82C00FFF772FB0446DEE5C2
:101820000BAA20492046FFF762FD044628B19DF827
:101830002C0000F0F7FE0446D1E500F0F9FECEE5FD
:1018400001231C46CBE510230CAA12492046FFF7C2
:101850000EFD002800F0898024490CA8FEF720FD29
:1018600040B123490CA8FEF71BFD002844D00123FA
:101870001C46B4E50AAA1F492046FFF738FD10B9F7
:1018800001231C46ABE5BDF82800FFF728FD044600
:10189000A5E500BF346C01083C6C0108506C0108E0
:1018A000746C01081C6C0108246C0108106C0108A0
:1018B000446C0108586C0108646C01088C6C0108C8
:1018C000006E0108B46B0108D06C0108486E010875
:1018D000946C01083C680108B06C0108F8680108C4
:1018E000E4690108D86C0108E46C0108F86C01088F
:1018F000006D0108286C01080BAA1D492046FFF75E
:10190000F6FC10B901231C4669E505AA19492046D1
:10191000FFF7EDFC10B901231C4660E506AA164945
:101920002046FFF7E4FC10B901231C4657E54FF4AD
:101930007A7212492046FFF7F5FC0346BDF81820DD
:10194000BDF814109DF82C0000F00CFF044646E58D
:1019500000F09AFD044642E5094A39463046FFF751
:101960002FFA42E501231C4639E501231C4636E5E2
:101970001C6C0108246C0108106C0108446C0108FF
:10198000086D010870B594B004460D461646AB4983
:10199000FEF786FC20B1AA492046FEF781FC28B953
:1019A00031462846FFF71EFA14B070BDA5492046FF
:1019B000FEF776FCC0B10622A349204613F03DF89D
:1019C000B8B94FF44863129312AAA049204612F006
:1019D000BBFEBDF84800FFF782FC03469A4A314639
:1019E0002846FFF703FCDFE731462846FFF768FB90
:1019F000DAE712AB13AA9649204612F0A5FE022898
:101A000076D003229349204613F017F800287CD0A3
:101A100003229149204613F010F8002800F0A1801D
:101A200005228E49204613F008F8002800F0C580F2
:101A30008B492046FEF734FC002800F0F0808949ED
:101A40002046FEF72DFC002800F0EE800C2286498F
:101A5000204612F0F2FF002800F02A810A22834972
:101A6000204612F0EAFF002800F045818049204618
:101A7000FEF716FC002800F0618108227D4920460F
:101A800012F0DBFF002800F05E8109227A4920462F
:101A900012F0D3FF002800F0728109227749204616
:101AA00012F0CBFF002800F08A810C2274492046F6
:101AB00012F0C3FF002800F09D810A2271492046E0
:101AC00012F0BBFF002800F0AE8105226E492046CF
:101AD00012F0B3FF002800F0C9812378002B3FF4F7
:101AE00063AF2346694A31462846FFF759FA5BE758
:101AF000BDF848109DF84C00FFF717FA0346644AFA
:101B000031462846FFF772FB4EE7139041F29413DB
:101B100011936423109340F6B8330F930FAB0193E6
:101B200010AB009311AB13AA5A49204612F00CFED9
:101B300000280FDDBDF83C30109ABDF844109DF828
:101B40004C00FFF7FCF90346534A31462846FFF79D
:101B50004DFB29E70123504A31462846FFF746FB53
:101B600022E713904FF47A7311936423109340F695
:101B7000B8330F930FAB019310AB009311AB13AAC3
:101B80004649204612F0E0FD00280FDDBDF83C304C
:101B9000109ABDF844109DF84C00FFF7DEF903469B
:101BA0003F4A31462846FFF721FBFDE601233C4A28
:101BB00031462846FFF71AFBF6E66423109340F6F9
:101BC000B8330F930FAB039310AB029307AB0193A2
:101BD00006AB009305AB04AA3249204612F0B4FDCF
:101BE000032815DDBDF83C300193109B0093BDF830
:101BF0001C309DF81820BDF814109DF81000FFF758
:101C0000BAF90346284A31462846FFF7EFFACBE6F1
:101C10000123254A31462846FFF7E8FAC4E6314653
:101C20002846FFF7A5FABFE600F00CFE00231F4A86
:101C300031462846FFF7DAFAB6E600BF386B0108EE
:101C4000306D0108006E0108AC6B0108346D0108AD
:101C5000406D01084C6D0108606D0108746D01084C
:101C6000946D0108A06D0108AC6D0108D86D0108E4
:101C7000FC6D0108086E0108246E0108446E01081D
:101C8000606E0108806E0108486E0108A46E0108AC
:101C9000B46B0108506D0108B86B0108646D010850
:101CA000E86B01087C6D0108FC6B01082C6C0108D5
:101CB0000AAB01930DAB00930EAB13AA7A492046F1
:101CC00012F042FD042806D00123784A3146284606
:101CD000FFF78CFA68E60A9BBDF83420BDF838108F
:101CE0009DF84C0000F03EFD0346704A3146284600
:101CF000FFF77CFA58E60AAB01930BAB00930CABF1
:101D000013AA6B49204612F01FFD042806D00123B8
:101D1000664A31462846FFF769FA45E60A9BBDF850
:101D20002C20BDF830109DF84C0000F04BFD034610
:101D30005E4A31462846FFF759FA35E631462846CD
:101D4000FFF736FA30E609AB13AA5A49204612F0DB
:101D5000FBFC022806D00123574A31462846FFF7EC
:101D600045FA21E6BDF924109DF84C0000F03AFC3C
:101D70000346514A31462846FFF738FA14E608ABC5
:101D8000009311AB13AA4D49204612F0DDFC032845
:101D900006D00123484A31462846FFF727FA03E6D2
:101DA000BDF82020BDF844109DF84C00FFF7A8F8BE
:101DB0000346414A31462846FFF718FAF4E513AACC
:101DC0003F49204612F0C0FC012808D000F030FC4A
:101DD0000023394A31462846FFF708FAE4E59DF822
:101DE0004C0000F01FFC0346334A31462846FFF7FB
:101DF000FDF9D9E512AA3349204612F0A5FC0128C5
:101E000006D00123304A31462846FFF7EFF9CBE5EB
:101E1000BDF84800FFF763FA03462B4A31462846CF
:101E2000FFF7E4F9C0E50AAB01930DAB00930EABED
:101E300013AA2649204612F087FC042806D0012365
:101E4000214A31462846FFF7D1F9ADE50A9BBDF896
:101E50003420BDF838109DF84C0000F083FC034698
:101E6000194A31462846FFF7C1F99DE500F0EAFC22
:101E700013AA1749204612F067FC012808D000F089
:101E800003FB0346134A31462846FFF7AFF98BE5BB
:101E90009DF84C0000F0B6FA03460E4A314628463B
:101EA000FFF7A4F980E500BFBC6D01082C6C0108A8
:101EB000E46D0108146E0108886C0108306E010899
:101EC000506E0108706E0108F06C01088C6E0108FC
:101ED000546E0108486E010838B50C461546FEF7E9
:101EE00079FF30B102787B2A04D02A462146FFF7D9
:101EF00049FD38BD2A462146FFF71EFAF9E70000E2
:101F000008B50146014812F0C9FA08BDB86E0108CB
:101F100008B5034B00221A80024812F027FB08BDC7
:101F20000C020020BC6E010830B583B0002403E031
:101F3000184B1B88D3B901341F2C28D80023012249
:101F40000DF10701144805F0BFFB00BB9DF80730F9
:101F50000A2B18BF0D2BEBD00E4A12889E2A0FD8E1
:101F6000501C0C4908800D498B54E4E70B480025B0
:101F7000C5542A460A49FFF7AFFF064B1D80DAE732
:101F8000044B00221A80074812F0F0FAD3E703B09E
:101F900030BD00BF0C02002078010020100200209C
:101FA000011F0008F86E010889B130B583B00C68D4
:101FB0005CB1054648B1FEF77DF902460023009367
:101FC00001232946204609F05FFA03B030BD70476F
:101FD00000B583B00B46019001AA03491846FFF7EC
:101FE0007BFF03B000BD00BFA91F0008F0B5C7B05C
:101FF00006460025009501235522204909F044FAA0
:1020000034E095B90134A4B2BDF80E30A3421DD915
:10201000049B1B5D0A2B18BF0D2BF2D0FE2D0CD894
:102020006A1C05A94B5595B2ECE705A900274F5549
:102030003046FFF7CDFF3D46E4E70025009501233C
:1020400026220F49304609F01FFADBE745980AF0CF
:1020500078FB002807DB0DF10E0204A945980AF071
:1020600057FB0024D0E745980AF042FB45A93046CB
:1020700009F034FB0028EED047B0F0BD106F010826
:10208000686F010810B582B000221146102009F0D7
:10209000E3F888B1044641F28832234909F05AF93D
:1020A000024670B141F28831204812F0F7F920461B
:1020B00009F040F907F0FCFD1D4812F057FA07F04F
:1020C000F7FDFF21204609F05DF9014638B11948B6
:1020D00012F0E4F9204609F02DF907F0E9FD41F28C
:1020E0008831154812F0DAF902E0642007F0E5FDC6
:1020F0000023019301A9204609F0E7F90028F4D153
:10210000019B002BF1D00D4812F030FA0198FFF737
:102110006DFF019809F0C4F9019809F00BF908481E
:1021200012F024FAE4E700BFDC960108AC6F010866
:10213000906F0108CC6F0108EC6F0108187001085E
:102140003070010808B5064B1B6803B108BD054A8D
:102150001946054807F04BFD014B1860F6E700BF34
:10216000B0020020DC940108852000080138C0B2CC
:102170000C2801D80120704700207047A0F5FA70A4
:1021800080B241F29413984201D801207047002098
:10219000704700000138094B33F910301944B1F58C
:1021A000FA7F05D341F28833994204D888B2704748
:1021B0004FF4FA70704741F288307047FC030020FA
:1021C00001380B494FEA001C01EB0012002301F813
:1021D0000C305380938093609381064A42F82030FC
:1021E000054A42F820304FF00002044B1A54704761
:1021F0002C030020F8020020C4020020B4020020BA
:10220000884210D009D9431A002A18BF934209D92D
:10221000884204D3821A90B270470B1AF4E7104434
:1022200080B270470846704741F28733984209D818
:10223000C0EB004000F6C410044BA3FB0030C0F319
:102240000F3070474FF6FF70704700BF5917B7D176
:10225000F8B504460E461546FFF788FFE8B130464C
:10226000FFF78CFF10B901231F4618E031462046C6
:10227000FFF790FFFFF7D8FF0146631ED8B200F0CA
:10228000C1FC074658B9601E064B23F810600DB913
:102290002F4604E000F02CFC01E001231F463846E5
:1022A000F8BD00BF1804002038B505460122FFF72D
:1022B000CFFF044608B1204638BD2846FFF780FF0F
:1022C000F9E738B50546FFF759FFA0B101240D2CF9
:1022D0000CD8002229462046FFF7BAFF034640B932
:1022E0002046FFF76DFF0134E4B2F0E700F000FC98
:1022F0000023184638BD0123FBE708B5FFF7E1FFCF
:1023000008BD00002DE9F84F054682460C460F46F1
:1023100016469846BDF828309946FFF727FF002853
:1023200049D02046FFF72AFF002849D06C1E230120
:10233000264AD35C7BB9264B33F8143035461E460B
:10234000BB4228BF012D3ED0BB4298BF022D07D112
:1023500001231D4631E01D4B03EB04139B88EDE781
:1023600002F0C2FD83461949220101EB04138D548A
:102370005F809E80C3F808804946A3F80C90154BF7
:1023800043F824000023144A42F82430134A13551A
:1023900011B100231D4610E0012239465046FFF7D7
:1023A00057FF054618B90C4B43F824B005E05046DA
:1023B000FFF706FF01E001231D462846BDE8F88F20
:1023C00001231D46F9E701231D46F6E72C030020F3
:1023D00018040020F8020020C4020020B4020020EB
:1023E00000B583B0009313460122FFF78BFF03B0C3
:1023F00000BD00B583B0009313460222FFF782FFB1
:1024000003B000BD38B504460546FFF7AFFE88B1FE
:102410002046631E1A0109498C5C64B101EB031369
:1024200001229988FFF714FF044620B92846FFF7D8
:10243000C7FE00E00124204638BD00BF2C03002069
:102440002DE9F0411D46BDF81C30904218BFA9424D
:1024500004D801231F463846BDE8F0818046144663
:102460001E46069AFFF7BCFF07460028F3D1334605
:10247000069A29462046FFF7BCFF07460028EAD007
:102480004046FFF7BFFFE6E710B501240D2C07D843
:102490002046FFF7B7FF034618B90134E4B2F5E769
:1024A0000023184610BD00002DE9F0410646012525
:1024B00000271CE0464901EB0411498833E01A4625
:1024C0003EE0444B43F82460434B1B5D2BB9404A2C
:1024D00002EB04125288424548D02BB13C4B03EB2F
:1024E00004139B8843454AD001270135EDB20D2DD9
:1024F00068D86C1EE4B22301354AD35C002BF4D0BB
:10250000344B53F8243013B9324B43F82460314B29
:1025100053F82420B21A304B1B5D002BCAD02C4933
:1025200001EB041189882D4830F8140088422AD024
:10253000274B03EB04139B89002BC0D003FB02F253
:102540000BB1002AD1D041F288339A4200D91A4601
:10255000FFF756FE8046002201462846FFF778FE28
:1025600007460028ADD03846BDE8F0811C4A52F835
:102570002420002AB1D11A4A42F82460ADE7284647
:10258000FFF71EFEB0E7134A42F82460B3B9144BBC
:1025900053F8243013B9124B43F824600C4B03EB6F
:1025A00004139B68002BA0D00D4A52F82420B21AC5
:1025B00093429AD8084B01221A5596E72846FFF70E
:1025C000FFFD92E7002FCED000F092FA0027CAE775
:1025D0002C030020F8020020B40200201804002080
:1025E000C402002038B505460C46FFF7BFFD98B180
:1025F00004F5FA739BB2B3F57A7F01D901200CE0A0
:1026000028466B1E054A22F813400122044931F87E
:102610001310FFF71DFE00E0012038BDFC03002071
:102620001804002008B50021FFF7DCFF08BD0000FA
:1026300010B501240CE0631E0022084921F8132084
:10264000074931F813102046FFF702FE0134E4B2C7
:102650000D2CF0D900F04CFA10BD00BFFC03002097
:102660001804002010B50446FFF780FD18B1601E65
:10267000014B33F9100010BDFC03002010B50446D7
:10268000FFF774FD18B1601E014B33F8100010BD48
:102690001804002030B585B004460D460023009391
:1026A0000193029303930846FFF760FD48B1691E4A
:1026B000064B03EB01130FCB84E80F00204605B057
:1026C00030BD20606060A060E060F7E72C03002070
:1026D0000023184601E00133DBB20C2B07D81A01A6
:1026E00003498A5C002AF6D00130C0B2F3E7704794
:1026F0002C030020012803D0022803D10248704790
:102700000248704702487047587001085470010829
:102710005C7001080138C0B20C2801D80120704754
:1027200000207047A0F5FA7080B241F294139842ED
:1027300001D80120704700207047000008B502F062
:10274000D3FB054B18600020044B1880044B01227A
:102750005A70188208BD00BF3404002032040020E3
:1027600038040020F8B507460C4615461E46FFF70C
:10277000D1FFE0B12046FFF7D5FFD0B12846FFF7E3
:10278000D1FFC0B1012E8CBF002301232046AC42F3
:1027900013D293B90A4B01221A709F709880DD8082
:1027A00000221A815A81DE60FFF7C8FF00E0012095
:1027B000F8BD0120FCE70120FAE70120F8E700BF9F
:1027C000380400202DE9F8430C46154699469142FD
:1027D00029D98B1A984666190746FFF79BFF28B33D
:1027E0002046FFF79FFF20B3B8F5FA7F2CBF0022E9
:1027F000012205B3FAB9494601298CBF0022012202
:1028000041F288339E4218D8BAB90D4B02221A7091
:102810009F7000229A80DA801C815D81C3F80C9041
:10282000FFF78CFF03E000239846D4E70120BDE8C2
:10283000F8830120FBE70120F9E70120F7E700BF5B
:1028400038040020024B00225A701A70704700BFF3
:10285000380400200346264A5078002846D010B598
:10286000244A1068181A224AD368B0FBF3F103FB1C
:1028700011001278012A26D0022A33D18001B0FB40
:10288000F3F01B494B891C4A32F9102002FB03F379
:102890001A4A82FB03021A44DB17C3EBA2330A89EC
:1028A00012FA83F39BB21C46154B1B88A3421BD024
:1028B00021460F4B9878FFF7F7FC78B9104B1C8036
:1028C0000B4B1C8210BDB0EB530F03D2084B9B88FF
:1028D0001C46E9E7064BDB881C46E5E7FFF7B2FF3D
:1028E0000120EFE70020EDE70020EBE7704700BF95
:1028F0003804002034040020009501080300018002
:102900003204002010B504468446DFF818E0BEE823
:102910000F00ACE80F00DEF80030CCF800302046A5
:1029200010BD00BF38040020012803D0022803D1C5
:10293000024870470248704702487047506C0108CF
:102940003C6C010864700108704700000A4B1B686A
:1029500003B1704710B507F005F90446064B1B6834
:102960001BB1204607F013F910BD184607F0B5F962
:10297000014B1860F5E700BF4C04002008B507F0D4
:10298000BBF8022801D0002008BDFFF7DFFF054B90
:10299000186828B1044B196807F0EFF90028F3D044
:1029A0000320F1E74C0400200000002008B507F0E8
:1029B000A3F8022800D008BD034B18680028FAD0FD
:1029C00007F00CFAF7E700BF4C04002070B50029AF
:1029D00018BF002803D101231E46304670BD0546AE
:1029E0000C46FFF7CBFF06460028F6D10246102121
:1029F000094802F003FA094B1B6822462946084899
:102A000003F0AEFC064601221021034802F0F6F95D
:102A1000FFF7CCFFE1E700BF0000025800000020F4
:102A2000F0000020F0B583B0002918BF002821D0A5
:102A3000144606460D4612B901231F461CE0FFF757
:102A40009DFF0746C0B9024610210D4802F0D6F995
:102A50000C4B1B68009323462A4631460A4803F074
:102A6000DFFD074601221021054802F0C7F9FFF7F4
:102A70009DFF01E001231F46384603B0F0BD00BFB3
:102A80000000025800000020F000002008B50246B7
:102A90000821024802F0B2F908BD00BF000C02583C
:102AA00008B50020FFF7F2FF012002F023FA012011
:102AB000FFF7ECFF012002F01DFA08BD08B5024641
:102AC0004021024802F09AF908BD00BF000C0258EC
:102AD00008B501221021054802F090F90120FFF706
:102AE000D5FF0120FFF7EAFF08BD00BF0000025834
:102AF00000B583B00020FFF7E1FF0023019303E05E
:102B000000BF019B01330193019BC72BF8D9012022
:102B1000FFF7D4FF03B000BD0A2809D809280FD257
:102B200002280FD9042801D00020704701207047E7
:102B30000C2809D00E2801D00020704701207047D2
:102B400001207047012070470120704700F00F00FE
:102B500040EA001343EA002343EA0030704700F0E4
:102B6000800001F03F0108431870110A59709A70F3
:102B70007047000010B582B001AC234600F0800021
:102B8000FFF7EDFF03212046FFF720FF014B1870F0
:102B900002B010BD5004002010B582B00023ADF883
:102BA00000304FF000028DF8022010F0800F00D1AD
:102BB000802001AC23460022FFF7D1FF03226946A3
:102BC0002046FFF72FFF0E4B187010B1002002B007
:102BD00010BD234602460146FFF7C1FF03226946A6
:102BE0002046FFF71FFF064B187030B99DF80130E3
:102BF0009DF8020040EA0320E9E70020E7E700BF74
:102C00005004002008B50F2803D90120054B187087
:102C100008BD10300A46C1B20020FFF7ABFF014BE0
:102C20001870F5E75004002010B5044604218020F8
:102C3000FFF7B2FF0246094B187848B94CB122F4AD
:102C4000804292B204210020FFF794FF034B1870DA
:102C500010BD42F4804292B2F4E700BF500400205D
:102C600038B50446FFF758FF98B12046FFF76EFFCE
:102C700005460024032C10D804F10A012A46C9B2E3
:102C80000020FFF777FF064B187040B90134E4B21B
:102C9000F0E70120024B187001E0014B187838BDB5
:102CA0005004002008B50020FFF7DAFF08BD00003F
:102CB00008B5024609210020FFF75CFF014B1870A0
:102CC00008BD00BF5004002008B5FFF701FFFFF763
:102CD000E7FE40F6842203210020FFF74BFF0C4B58
:102CE000187000B108BD0120FFF79EFF084B187057
:102CF0000028F7D1012002F0FDF8FFF7D3FF044BC5
:102D000018700028EED1FFF7D3FF014B1870E9E7E8
:102D100050040020002807DB00F01F0240090123B7
:102D20009340024A42F82030704700BF00E100E0C3
:102D3000002804DB0901C9B2044B1954704700F0A4
:102D40000F000901C9B2024B1954704700E400E0BA
:102D500014ED00E000B500F00700A0F1030CBCF199
:102D6000040F07D8C0F1070E0430062806D84FF02C
:102D7000000C03E04FF0040E4FF0000C4FF0FF3357
:102D800003FA0EF021EA000101FA0CF103FA0CF348
:102D900022EA030241EA020000BD00000649CB68B6
:102DA00023F4E0631B041B0C000200F4E060034307
:102DB000024A1A43CA60704700ED00E00000FA05BD
:102DC00010B50446054BD868C0F30220FFF7C2FFD8
:102DD00001462046FFF7ACFF10BD00BF00ED00E04C
:102DE00008B5FFF797FF08BDBFF35F8F044B5A6A22
:102DF00022F480325A620022C3F89420704700BF48
:102E000000ED00E040F00100054BC3F894005A6A61
:102E100042F480325A62BFF34F8FBFF36F8F704717
:102E200000ED00E04378144AC2F89830D2F8A030A0
:102E300023F00103C2F8A0304368C2F89C30017B44
:102E4000C37A1B0643EA0173817A43EAC143417B9B
:102E500043EA8143817B43EA4143C17B43EA014327
:102E6000417A43EA0123017A43EA410301780B43A3
:102E7000C2F8A030704700BF00ED00E0002800F06D
:102E80003A8338B50446036813F0010F25D0944AFD
:102E9000136903F03803926A102B15D0182B0FD04A
:102EA0006368B3F5803F3FD0002B53D18C4B1A6839
:102EB00022F480321A601A6822F480221A6038E004
:102EC00002F00302022AEBD1854B1B6813F4003F8A
:102ED00003D06368002B00F01083236813F0020F07
:102EE00000F0A1807E4A1369926A13F038035AD029
:102EF000182B55D0E368002B00F0DE8078490A6873
:102F000022F0190213430B6001F0EEFF0546744BEB
:102F10001B6813F0040F40F0AD8001F0E5FF401B8B
:102F20000228F4D90320EFE26D4A136843F480339A
:102F3000136063682BB301F0D7FF0546684B1B682D
:102F400013F4003FC9D101F0CFFF401B6428F5D92D
:102F50000320D9E2B3F5A02F09D0614B1A6822F4FF
:102F600080321A601A6822F480221A60E1E75C4B12
:102F70001A6842F480221A601A6842F480321A6099
:102F8000D7E701F0B1FF0546554B1B6813F4003F2E
:102F9000A3D001F0A9FF401B6428F5D90320B3E2B8
:102FA00012F0030FA6D14E4B1B6813F0040F03D091
:102FB000E368002B00F0A382494A136823F0190349
:102FC000E1680B43136001F08FFF0546444B1B681B
:102FD00013F0040F06D101F087FF401B0228F5D93A
:102FE000032091E201F09AFF41F20303984212D8C4
:102FF0002269402A07D03A494B6823F47C3343EADC
:1030000002334B600FE0364A536823F47C3343F4B9
:103010000033536007E0324A536823F0FE432169CE
:1030200043EA01635360236813F0100F00F08880B7
:103030002B4A136903F03803926A082B56D0182BD9
:1030400050D0E369002B00F0B880254A136843F0A4
:103050008003136001F048FF0546214B1B6813F401
:10306000807F40F0888001F03FFF401B0228F4D9A8
:10307000032049E201F052FF41F20303984212D8C3
:103080002269402A07D016494B6823F47C3343EA6F
:1030900002334B60C7E7124A536823F47C3343F48E
:1030A00000335360BFE70E4A536823F0FE432169A3
:1030B00043EA01635360B6E7094A136823F001034A
:1030C000136001F011FF0546054B1B6813F0040F58
:1030D000A9D001F009FF401B0228F5D9032013E213
:1030E0000044025802F00302012AAAD1994B1B683E
:1030F00013F4807F03D0E369802B40F0028201F05B
:103100000DFF41F20303984212D8226A202A07D009
:1031100090494B6823F0F84343EA82634B600FE029
:103120008C4A536823F0F84343F08043536007E030
:10313000884AD36823F07C53216A43EA0163D36051
:10314000236813F0080F60D06369002B49D0814ACF
:10315000536F43F00103536701F0C6FE05467D4BF4
:103160005B6F13F0020F50D101F0BEFE401B02282E
:10317000F5D90320C8E101F0D1FE41F203039842E2
:1031800012D8226A202A07D072494B6823F0F843EC
:1031900043EA82634B60D3E76E4A536823F0F843F7
:1031A00043F080435360CBE76A4AD36823F07C53F3
:1031B000216A43EA0163D360C2E7664A136823F0D9
:1031C0008003136001F090FE0546624B1B6813F408
:1031D000807FB5D001F088FE401B0228F5D903207E
:1031E00092E15C4A536F23F00103536701F07CFEC8
:1031F0000546584B5B6F13F0020F06D001F074FECA
:10320000401B0228F5D903207EE1236813F0200F2C
:1032100029D0A3699BB14F4A136843F480531360CC
:1032200001F062FE05464B4B1B6813F4005F1AD198
:1032300001F05AFE401B0228F5D9032064E1454AFB
:10324000136823F48053136001F04EFE0546414B92
:103250001B6813F4005F06D001F046FE401B0228F5
:10326000F5D9032050E1236813F0040F21D1636ADC
:10327000002B00F04881374A126902F03802182A00
:1032800000F0EF80022B7AD0324A136823F080736B
:10329000136001F029FE04462E4B1B6813F0007FDB
:1032A00000F0DD8001F020FE001B0228F4D903208D
:1032B0002AE1294A136843F48073136001F014FE75
:1032C0000546254B1B6813F4807F06D101F00CFEE8
:1032D000401B6428F5D9032016E1A368012B0AD00E
:1032E0000BBB1C4B1A6F22F001021A671A6F22F0F7
:1032F00004021A6704E0174A136F43F001031367CF
:10330000A3685BB301F0F0FD0546124B1B6F13F091
:10331000020FACD101F0E8FD401B41F28833984226
:10332000F3D90320F0E0052B09D00A4B1A6F22F0E5
:1033300001021A671A6F22F004021A67E0E7054BD0
:103340001A6F42F004021A671A6F42F001021A67FC
:10335000D6E700BF004402580048025801F0C4FDFF
:103360000546714B1B6F13F0020F80D001F0BCFDBE
:10337000401B41F288339842F3D90320C4E06A4AE3
:10338000136823F08073136001F0AEFD0546664BB1
:103390001B6813F0007F06D001F0A6FD401B022839
:1033A000F5D90320B0E0604B996A604A0A40A16AEF
:1033B000E06A41EA00110A439A62226B013AC2F3C1
:1033C0000802616B0139490289B20A43A16B0139D4
:1033D000090401F4FE010A43E16B0139090601F019
:1033E000FE410A431A63DA6A22F00102DA625A6B7A
:1033F0006FF3CF02A16C42EAC1025A63DA6A22F08B
:103400000C02216C0A43DA62DA6A22F00202616C71
:103410000A43DA62DA6A42F48032DA62DA6A42F441
:103420000032DA62DA6A42F48022DA62DA6A42F060
:103430000102DA621A6842F080721A6001F054FDEB
:103440000446394B1B6813F0007F06D101F04CFD98
:10345000001B0228F5D9032056E0002054E000208C
:1034600052E0314A916A106B012B4ED001F00303F8
:10347000A26A93424BD1C1F30511E36A994248D144
:10348000C0F30802236B013B9A4244D1C0F34622A9
:10349000636B013B9A4240D1C0F30642A36B013BF0
:1034A0009A423CD1C0F30660E36B013B984238D1AD
:1034B0001D4B5B6BC3F3CC03A26C9A4201D100207D
:1034C00022E0194AD36A23F00103D36201F00CFD14
:1034D000054601F009FDA842FBD0134A536B6FF378
:1034E000CF03A16C43EAC1035363D36A43F00103E2
:1034F000D362002008E001207047012004E0012091
:1035000002E0012000E0184638BD0120FCE7012060
:10351000FAE70120F8E70120F6E70120F4E70120AF
:10352000F2E70120F0E700BF004402580CFCFFFF67
:10353000744B1B6903F03803102B00F0DD80182B4F
:103540000FD0002B40F0DA806E4B1B6813F0200F79
:1035500000F0D6806B4B1B68C3F3C1036A48D840A8
:103560007047684B9A6A02F00302D3F828C0CCF384
:103570000510D96A01F001015B6BC3F3CC0301FBB9
:1035800003F307EE903AF8EE677A1CF47C7F00F0C4
:10359000B880012A4AD0022A74D0002A40F08F80D5
:1035A000584B1B6813F0200F23D056490A68C2F30A
:1035B000C102554BD34007EE103AF8EE476A07EECA
:1035C000100AB8EE476A86EE867A0B6BC3F30803DF
:1035D00006EE903AF8EE666A9FED4C6A67EE867AE0
:1035E00076EEA77AF7EE006A77EEA67A27EE277ACC
:1035F00038E007EE100AF8EE476A9FED456A86EE5E
:10360000267A404B1B6BC3F3080306EE903AF8EEA4
:10361000666A9FED3E6A67EE867A76EEA77AF7EEE7
:10362000006A77EEA67A27EE277A1BE007EE100AEB
:10363000F8EE476A9FED376A86EE267A314B1B6BB0
:10364000C3F3080306EE903AF8EE666A9FED2F6A20
:1036500067EE867A76EEA77AF7EE006A77EEA67ABC
:1036600027EE277A274B1B6BC3F34623013307EE64
:10367000903AF8EE677AC7EE276AFCEEE67A17EE24
:10368000900A704707EE100AF8EE476A9FED226A2B
:1036900086EE267A1B4B1B6BC3F3080306EE903AAB
:1036A000F8EE666A9FED196A67EE867A76EEA77A7B
:1036B000F7EE006A77EEA67A27EE277AD2E707EED2
:1036C000100AF8EE476A9FED136A86EE267A0D4BD4
:1036D0001B6BC3F3080306EE903AF8EE666A9FEDA3
:1036E0000B6A67EE867A76EEA77AF7EE006A77EED7
:1036F000A67A27EE277AB5E708487047084870474A
:1037000001487047004402580090D003000000397F
:103710000024744C0024744A0024F44A00127A00F5
:1037200000093D00002800F0328170B50D460446C6
:103730009B4B1B6803F00F038B420BD2984A136814
:1037400023F00F030B431360136803F00F038B4246
:1037500040F01F81236813F0040F0CD02269914BB5
:103760009B6903F070039A4205D98E498B6923F057
:1037700070031A438A61236813F0080F0CD0626942
:10378000884BDB6903F070039A4205D98549CB6900
:1037900023F070031A43CA61236813F0100F0CD092
:1037A000A269804BDB6903F4E0639A4205D97D4945
:1037B000CB6923F4E0631A43CA61236813F0200F36
:1037C0000CD0E269774B1B6A03F070039A4205D96B
:1037D00074490B6A23F070031A430A62236813F0DA
:1037E000020F0CD0E2686F4B9B6903F00F039A4203
:1037F00005D96C498B6923F00F031A438A6123684A
:1038000013F0010F41D0674A936923F47063A168F4
:103810000B4393616368022B0AD0032B27D0012B43
:103820002CD0604A126812F0040F06D10120ADE0DE
:10383000126812F4003F00F0AE805A490A6922F083
:10384000070213430B6101F04FFB0646554B1B6902
:1038500003F038036268B3EBC20F16D001F044FBEB
:10386000801B41F288339842F0D903208EE04D4A04
:10387000126812F0007FE0D1012087E0494A126807
:1038800012F4807FD9D1012080E0236813F0020F69
:103890000CD0E268434B9B6903F00F039A4205D2B8
:1038A00040498B6923F00F031A438A613C4B1B6824
:1038B00003F00F03AB420AD9394A136823F00F0310
:1038C0002B431360136803F00F03AB4265D12368E9
:1038D00013F0040F0CD02269324B9B6903F0700384
:1038E0009A4205D22F498B6923F070031A438A61EB
:1038F000236813F0080F0CD062692A4BDB6903F0D0
:1039000070039A4205D22749CB6923F070031A430A
:10391000CA61236813F0100F0CD0A269214BDB6938
:1039200003F4E0639A4205D21E49CB6923F4E063B5
:103930001A43CA61236813F0200F0CD0E269194BB7
:103940001B6A03F070039A4205D216490B6A23F0F2
:1039500070031A430A62FFF7EBFD12498B69C3F348
:103960000323114AD35C03F01F03D8408B6903F093
:103970000F03D35C03F01F0320FA03F30B4A136019
:103980000B4B18600B4B186806F09AFF70BD0120B6
:1039900070470120FAE70120F8E70120F6E700BFB1
:1039A0000020005200440258A89501080C00002095
:1039B000100000200800002008B5FFF7B9FD0B4AF1
:1039C0009369C3F303230A49CB5C03F01F0320FA76
:1039D00003F3926902F00F02885C00F01F0023FAE3
:1039E00000F0044A1060044A136008BD0044025805
:1039F000A89501080C0000201000002008B5FFF772
:103A0000DBFF054BDB69C3F30213044AD35C03F00D
:103A10001F03D84008BD00BF00440258A895010804
:103A200008B5FFF7C9FF054BDB69C3F30223044A5E
:103A3000D35C03F01F03D84008BD00BF0044025808
:103A4000A89501083F230360114B1A6902F0070291
:103A500042609A6902F4706282609A6902F00F0211
:103A6000C2609A6902F070020261DA6902F07002C3
:103A70004261DA6902F4E06282611B6A03F070035A
:103A8000C361044B1B6803F00F030B60704700BF5A
:103A90000044025800200052404B9B6A03F003038D
:103AA000032B79D070B505460E463C4A136823F0C7
:103AB0008063136001F018FA0446384B1B6813F05A
:103AC000006F06D001F010FA031B022BF5D903207A
:103AD00070BD324B9A6A22F47C32296842EA013284
:103AE0009A626A68013AC2F30802A9680139490278
:103AF00089B20A43E9680139090401F4FE010A4365
:103B000029690139090601F0FE410A439A63DA6A1C
:103B100022F0C00269690A43DA62DA6A22F02002FE
:103B2000A9690A43DA62DA6A22F01002DA62DA6B11
:103B30006FF3CF02E96942EAC102DA63DA6A42F05E
:103B40001002DA62C6B9154AD36A43F40023D3627D
:103B5000124A136843F08063136001F0C5F904460C
:103B60000E4B1B6813F0006F14D101F0BDF9001B60
:103B70000228F5D90320ABE7012E05D0074AD36A06
:103B800043F40013D362E3E7044AD36A43F4801397
:103B9000D362DDE700209BE7012070470044025814
:103BA000404B9B6A03F00303032B79D070B50546A5
:103BB0000E463C4A136823F08053136001F094F9D9
:103BC0000446384B1B6813F0005F06D001F08CF9F7
:103BD000031B022BF5D9032070BD324B9A6A22F0E9
:103BE0007C72296842EA01529A626A68013AC2F319
:103BF0000802A9680139490289B20A43E968013912
:103C0000090401F4FE010A4329690139090601F09A
:103C1000FE410A431A64DA6A22F4406269690A437F
:103C2000DA62DA6A22F40072A9690A43DA62DA6AAD
:103C300022F48072DA625A6C6FF3CF02E96942EAC9
:103C4000C1025A64DA6A42F48072DA62C6B9154A6D
:103C5000D36A43F48003D362124A136843F080535B
:103C6000136001F041F904460E4B1B6813F0005F2E
:103C700014D101F039F9001B0228F5D90320ABE774
:103C8000012E05D0074AD36A43F08073D362E3E77D
:103C9000044AD36A43F40003D362DDE700209BE7C4
:103CA0000120704700440258F8B50446036813F039
:103CB000006F30D0836EB3F5001F26D00ED8ABB1A5
:103CC000B3F5801F07D102210830FFF7E5FE054656
:103CD00095B12E4621E0012635461EE0B3F5401F82
:103CE00001D1002508E00126354616E09B4AD36A3B
:103CF00043F40033D3620025984A136D23F4401334
:103D0000A16E0B431365002607E002212830FFF760
:103D100047FF0546DCE700263546236813F4807F1D
:103D20001BD0A36D022B30D00CD843B3012B06D18E
:103D3000002104F10800FFF7AFFE054605E001266B
:103D400035460AE0033B012B26D845BB834A136D59
:103D500023F00703A16D0B431365236813F4007F61
:103D600037D0E36D802B49D01ED82BB3402B18D110
:103D7000002104F10800FFF78FFE054621E0774A95
:103D8000D36A43F40033D362DFE7002104F1280053
:103D9000FFF706FF0546D8E701263546DDE72E4644
:103DA000DBE70126354614E0C02B0AD0B3F5807F4F
:103DB00007D0012635460CE0684AD36A43F4003345
:103DC000D36215BB654A136D23F4E073E16D0B43B9
:103DD0001365236813F4806F3CD0D4F8A830B3F592
:103DE000800F2FD016D8F3B1B3F5001F0FD10021EB
:103DF00004F10800FFF750FE054619E0002104F128
:103E00002800FFF7CDFE0546DBE72E46E1E7012659
:103E100035461FE0B3F5C00F0AD0B3F5000F07D049
:103E20000126354616E04D4AD36A43F40033D36287
:103E30007DB94A4A936D23F46003D4F8A8100B436C
:103E4000936507E0002104F12800FFF7A9FE05466D
:103E5000EEE72E46236813F4006F2BD0D4F8AC3075
:103E6000B3F1007F53D00DD8ABB1B3F1807F06D151
:103E7000002104F10800FFF70FFE054610E00126BF
:103E8000354617E0B3F1407F0AD0B3F1806F07D019
:103E9000012635460EE0314AD36A43F40033D3623B
:103EA000002D3BD12D4A936D23F0E063D4F8AC1084
:103EB0000B439365236813F0007F13D0E36C202B32
:103EC00036D030D833B1102B2AD1244AD36A43F4E8
:103ED0000033D3629DBB214AD36C23F03003E16CE5
:103EE0000B43D364236813F4805F47D0236EB3F58C
:103EF000005F00F08E8027D893B3B3F5805F20D1A8
:103F0000002104F10800FFF7C7FD05462DE0002160
:103F100004F12800FFF744FE0546C1E72E46C9E735
:103F200001263546DEE7302BD4D001263546D9E7C9
:103F3000022104F10800FFF7AFFD0546CAE72E464F
:103F4000D0E70126354619E0B3F5405F0DD0B3F553
:103F5000804F0AD00126354610E000BF00440258C9
:103F6000484AD36A43F40033D362002D58D1454AFE
:103F7000136D23F4E043216E0B431365236813F4A0
:103F8000005F17D0636EB3F5003F5AD04DD843B1F0
:103F9000B3F5803F46D1012104F10800FFF77CFD15
:103FA0000546002D54D1374A136D23F4E023616E8A
:103FB0000B431365236813F4804F19D0D4F8B03045
:103FC000B3F1005F55D048D843B1B3F1805F41D120
:103FD000012104F10800FFF75FFD0546002D4FD1D8
:103FE000284A936D23F0E043D4F8B0100B43936557
:103FF000236813F4004F56D0236FB3F1805F43D092
:10400000B3F1005F00F07A81002B42D001263546E3
:1040100049E0002104F12800FFF7C2FD0546A4E7AE
:104020002E46ABE701263546C4E7B3F5802FB8D05E
:10403000B3F5A02FB5D0B3F5403FB2D00126354639
:10404000B8E7012104F12800FFF7AAFD0546A8E71B
:104050002E46AFE701263546CAE7B3F1804FBDD003
:10406000B3F1A04FBAD0B3F1405FB7D001263546C7
:10407000BEE7012104F12800FFF792FD0546ADE7F8
:104080002E46B5E700440258AA4AD36A43F40033E7
:10409000D362002D40F03981A64A136D23F04053BE
:1040A000216F0B431365236813F0807F18D0A36C36
:1040B000022B00F0358100F22D813BB1012B40F045
:1040C00026819C4AD36A43F40033D362002D40F02A
:1040D0002E81984AD36C23F00303A16C0B43D36465
:1040E000236813F4800F40F02781236813F0010F39
:1040F00019D0E36F102B00F0928100F2848143B15C
:10410000082B40F07D81012104F10800FFF7C4FC79
:104110000546002D40F08A81864A536D23F038030E
:10412000E16F0B435365236813F0020F19D0A36F9F
:10413000022B00F0878100F27E8143B1012B40F019
:104140007781012104F10800FFF7A6FC0546002D48
:1041500040F07F81774A536D23F00703A16F0B4333
:104160005365236813F0040F1BD0D4F89430022B4E
:1041700000F07B8100F2728143B1012B40F06B8132
:10418000012104F10800FFF787FC0546002D40F0EF
:104190007381684A936D23F00703D4F894100B439E
:1041A0009365236813F0200F1DD0D4F89030B3F13D
:1041B000005F00F0758100F264814BB1B3F1805F64
:1041C00040F05C81002104F10800FFF765FC054622
:1041D000002D40F06C81574A536D23F0E043D4F832
:1041E00090100B435365236813F0400F1DD0D4F893
:1041F0009C30B3F5006F00F06E8100F25D814BB131
:10420000B3F5806F40F05581002104F10800FFF7FD
:1042100043FC0546002D40F06581464A936D23F42A
:10422000E053D4F89C100B439365236813F0800F80
:104230001DD0D4F8A030B3F5804F00F0678100F2B4
:1042400056814BB1B3F5005F40F04E81002104F17F
:104250000800FFF721FC0546002D40F05E81354A3D
:10426000936D23F46043D4F8A0100B439365236847
:1042700013F0080F0DD0D4F88430B3F5805F00F050
:104280004E812C4A536D23F44053D4F884100B43D1
:104290005365236813F0100F0DD0D4F89830B3F5A0
:1042A000807F00F04681234A936D23F44073D4F855
:1042B00098100B439365236813F4002F00F04E8190
:1042C000D4F8A430B3F5803F00F03D81B3F5003F52
:1042D00008D0002B40F03E81194604F10800FFF79A
:1042E000DBFB0546002D40F03881124A936D23F424
:1042F0004033D4F8A4100B4393652FE1012104F15E
:104300000800FFF7C9FB0546C3E62E46CBE60126AB
:104310003546E5E6032B3FF4D9AE01263546DFE608
:10432000022104F10800FFF7B7FB0546CEE62E4652
:10433000D6E600BF00440258AD4A136843F48073C8
:10434000136000F0D1FD0746A94B1B6813F4807F72
:1043500005D100F0C9FDC01B6428F5D90325002D47
:104360004AD1A44B1B6FD4F8B420534013F4407FC0
:104370000CD0A04B1A6F22F44072196F41F48031B7
:104380001967196F21F4803119671A67D4F8B430AE
:10439000B3F5807F15D08DBBD4F8B43003F44072F0
:1043A000B2F5407F1ED0934A136923F47C53136106
:1043B00090490B6FD4F8B420C2F30B0213430B6780
:1043C00093E600F091FD07468A4B1B6F13F0020F36
:1043D000E1D100F089FDC01B41F288339842F3D946
:1043E0000325D8E78348026922F47C52824901EA16
:1043F000131313430361DBE72E4676E62E4674E67D
:10440000012635468FE6202B3FF483AE282B3FF460
:1044100080AE182B3FF47DAE0126354683E60121A0
:1044200004F12800FFF7BCFB054672E62E467AE64B
:104430000126354695E6033B022B7FF688AE012622
:1044400035468EE6012104F12800FFF7A9FB054659
:104450007DE62E4685E601263546A2E6033B022B85
:104460007FF694AE012635469BE6012104F1280033
:10447000FFF796FB054689E62E4692E6012635466D
:10448000B1E6B3F1804F3FF4A3AEB3F1A04F3FF4D8
:104490009FAEB3F1405F3FF49BAE01263546A2E6E6
:1044A000022104F12800FFF77BFB054690E62E462B
:1044B00099E601263546B8E6B3F5805F3FF4AAAE2B
:1044C000B3F5A05F3FF4A6AEB3F5406F3FF4A2AEE4
:1044D00001263546A9E6022104F12800FFF760FB1A
:1044E000054697E62E46A0E601263546BFE6B3F51B
:1044F000004F3FF4B1AEB3F5204F3FF4ADAEB3F58E
:10450000C04F3FF4A9AE01263546B0E6022104F1C2
:104510002800FFF745FB05469EE62E46A7E602214A
:1045200004F12800FFF73CFB00283FF4AAAE012667
:10453000A7E6022104F12800FFF732FB00283FF430
:10454000B2AE0126AFE6022104F12800FFF728FBF6
:104550000546C7E60126354600E02E46236813F4DB
:10456000802F18D0D4F88830B3F5001F1FD0B3F5D2
:10457000401F07D0B3F5801F20D11E4AD36A43F4F1
:104580000033D362EDB91B4A536D23F44013D4F8C2
:1045900088100B435365236813F4803F2FD0236D9D
:1045A0008BB1B3F5803F1CD00126354627E00121B1
:1045B00004F12800FFF7F4FA0546E3E70126354643
:1045C000E9E72E46E7E70B4AD36A43F40033D362A8
:1045D000A5B9084AD36C23F48033216D0B43D3640F
:1045E0000DE0022104F10800FFF756FA0546EFE757
:1045F0000048025800440258CFFFFF002E462368AF
:1046000013F0005F11D1236813F4003F28D0D4F8D1
:104610008030B3F5807F14D010D9B3F5007F15D06A
:10462000B3F5407F12D001261AE0022104F12800E0
:10463000FFF7B6FA0028E6D00126E4E733B10126F9
:104640000EE0544AD36A43F40033D362002D69D19B
:10465000504A536D23F44073D4F880100B435365D4
:10466000236813F4801F06D04A4A136D23F00043D9
:10467000616F0B431365236813F0805F07D0454AD1
:10468000136923F48043D4F8B8100B4313612368F3
:1046900013F4001F06D03F4A136D23F08073E16EC0
:1046A0000B431365236813F0804F09D0394B1A6907
:1046B00022F400421A611A69D4F8BC100A431A6144
:1046C0002368002B06DA334AD36C23F04053616D24
:1046D0000B43D364236813F4000F07D02D4A536DA6
:1046E00023F44003D4F88C100B435365636813F034
:1046F000010F19D1636813F0020F1ED1636813F024
:10470000040F23D1636813F0080F28D1636813F0F6
:10471000100F2DD1636813F0200F32D106B101269E
:104720003046F8BD2E469BE7002104F10800FFF754
:10473000B3F90028DED00646DCE7012104F10800C9
:10474000FFF7AAF90028D9D00646D7E7022104F1DD
:104750000800FFF7A1F90028D4D00646D2E70021CF
:1047600004F12800FFF71CFA0028CFD00646CDE759
:10477000012104F12800FFF713FA0028CAD00646E9
:10478000C8E7022104F12800FFF70AFA0028C5D083
:104790000126C5E70044025808B5FFF70DF9054B9F
:1047A0001B6AC3F30213044AD35C03F01F03D8400F
:1047B00008BD00BF00440258A895010800B5794B18
:1047C0009A6AD3F828C0CCF3053ED96AC1F3001128
:1047D000DB6BC3F3CC0301FB03F31CF47C3F00F061
:1047E000DB8002F0030207EE903AF8EE677A012AC6
:1047F0004BD0022A00F09680002A40F0B080694B2E
:104800001B6813F0200F23D066490A68C2F3C10267
:10481000654BD34007EE103AF8EE476A07EE10EA10
:10482000B8EE476A86EE867A8B6BC3F3080306EE12
:10483000903AF8EE666A9FED5D6A67EE867A76EEEC
:10484000A77AF7EE006A77EEA67A27EE277A38E0A5
:1048500007EE10EAF8EE476A9FED556A86EE267A73
:10486000504B9B6BC3F3080306EE903AF8EE666A72
:104870009FED4E6A67EE867A76EEA77AF7EE006ACB
:1048800077EEA67A27EE277A1BE007EE10EAF8EE1D
:10489000476A9FED486A86EE267A424B9B6BC3F3CC
:1048A000080306EE903AF8EE666A9FED406A67EEFE
:1048B000867A76EEA77AF7EE006A77EEA67A27EE8A
:1048C000277A384A936BC3F3462307EE903AF8EE03
:1048D000677AF7EE006A77EEA67A87EE276ABCEE73
:1048E000C66A80ED006A936BC3F3064307EE903A05
:1048F000F8EE677A77EEA67A87EE276ABCEEC66A8C
:1049000080ED016A936BC3F3066307EE903AF8EE0D
:10491000677A77EEA67AC7EE276AFCEEE66AC0ED04
:10492000026A00BD07EE10EAF8EE476A9FED226AC0
:1049300086EE267A1B4B9B6BC3F3080306EE903A78
:10494000F8EE666A9FED196A67EE867A76EEA77AC8
:10495000F7EE006A77EEA67A27EE277AB1E707EE40
:1049600010EAF8EE476A9FED136A86EE267A0D4B41
:104970009B6BC3F3080306EE903AF8EE666A9FED70
:104980000B6A67EE867A76EEA77AF7EE006A77EE24
:10499000A67A27EE277A94E70023036043608360BA
:1049A000BFE700BF004402580090D0030000003968
:1049B0000024744C0024744A0024F44A00B5794B56
:1049C0009A6AD3F828C0CCF3055ED96AC1F30021F6
:1049D0005B6CC3F3CC0301FB03F31CF07C7F00F0A2
:1049E000DB8002F0030207EE903AF8EE677A012AC4
:1049F0004BD0022A00F09680002A40F0B080694B2C
:104A00001B6813F0200F23D066490A68C2F3C10265
:104A1000654BD34007EE103AF8EE476A07EE10EA0E
:104A2000B8EE476A86EE867A0B6CC3F3080306EE8F
:104A3000903AF8EE666A9FED5D6A67EE867A76EEEA
:104A4000A77AF7EE006A77EEA67A27EE277A38E0A3
:104A500007EE10EAF8EE476A9FED556A86EE267A71
:104A6000504B1B6CC3F3080306EE903AF8EE666AEF
:104A70009FED4E6A67EE867A76EEA77AF7EE006AC9
:104A800077EEA67A27EE277A1BE007EE10EAF8EE1B
:104A9000476A9FED486A86EE267A424B1B6CC3F349
:104AA000080306EE903AF8EE666A9FED406A67EEFC
:104AB000867A76EEA77AF7EE006A77EEA67A27EE88
:104AC000277A384A136CC3F3462307EE903AF8EE80
:104AD000677AF7EE006A77EEA67A87EE276ABCEE71
:104AE000C66A80ED006A136CC3F3064307EE903A82
:104AF000F8EE677A77EEA67A87EE276ABCEEC66A8A
:104B000080ED016A136CC3F3066307EE903AF8EE8A
:104B1000677A77EEA67AC7EE276AFCEEE66AC0ED02
:104B2000026A00BD07EE10EAF8EE476A9FED226ABE
:104B300086EE267A1B4B1B6CC3F3080306EE903AF5
:104B4000F8EE666A9FED196A67EE867A76EEA77AC6
:104B5000F7EE006A77EEA67A27EE277AB1E707EE3E
:104B600010EAF8EE476A9FED136A86EE267A0D4B3F
:104B70001B6CC3F3080306EE903AF8EE666A9FEDED
:104B80000B6A67EE867A76EEA77AF7EE006A77EE22
:104B9000A67A27EE277A94E70023036043608360B8
:104BA000BFE700BF004402580090D0030000003966
:104BB0000024744C0024744A0024F44A70B582B076
:104BC000002376E085684FEA430E032404FA0EF4CE
:104BD00025EA0405CC6804FA0EF42C43846044688A
:104BE00024EA0C044D68C5F3001C0CFA03FC4CEAE3
:104BF0000404446072E08C68012C75D182E0DD0809
:104C0000083550F8254003F0070C4FEA8C0C4FF0A4
:104C10000F0E0EFA0CFE24EA0E0E0C6904FA0CF4C8
:104C200044EA0E0440F8254073E0092400E0002423
:104C300004FA0EF42C430CF1020C6D4D45F82C4097
:104C40004FF0B04424686FEA020C24EA02054E6873
:104C500016F4801F01D042EA04054FF0B0442560ED
:104C600064680CEA04054E6816F4001F01D042EA9D
:104C700004054FF0B0446560D4F884400CEA0405A4
:104C80004E6816F4003F01D042EA04054FF0B044EC
:104C9000C4F88450D4F880400CEA04054E6816F439
:104CA000803F01D042EA04054FF0B042C2F8805084
:104CB00001330A6832FA03F400F097804FF0010CD8
:104CC0000CFA03FC1CEA0202F2D04C6804F0030E5A
:104CD0000EF1FF3EBEF1010F7FF674AF4C6804F099
:104CE000030CBCF1030F86D0C5685C004FF0030CC9
:104CF0000CFA04FC25EA0C0E8D6805FA04FC4CEA5B
:104D00000E04C4604C6804F0030CBCF1020F3FF4C5
:104D100076AF05685C004FF0030C0CFA04FC25EA42
:104D20000C0E4D6805F0030C0CFA04FC4CEA0E0462
:104D300004604C6814F4403FBAD02E4CD4F8F450C0
:104D400045F00205C4F8F450D4F8F44004F002042D
:104D50000194019C4FEA930C0CF10205244C54F889
:104D6000255003F0030E4FEA8E0E0F2404FA0EF4C2
:104D700025EA0405204CA0423FF459AF04F58064B5
:104D8000A04222D004F58064A04220D004F58064C3
:104D9000A0421ED004F58064A0421CD004F58064BB
:104DA000A0421AD004F58064A04218D004F58064B3
:104DB000A04216D004F58064A04214D004F58064AB
:104DC000A0423FF432AF0A2432E7012430E7022444
:104DD0002EE703242CE704242AE7052428E70624E9
:104DE00026E7072424E7082422E702B070BD00BFAD
:104DF0000004005800440258000002580AB18161C2
:104E00007047090481617047436901EA030221EA9E
:104E1000030141EA0241816170470000134BDB68E6
:104E200013F0040F07D1114BDB6803F00703834233
:104E30001AD00120704710B50C4AD36823F007033D
:104E40000343D36000F050F80446084B5B6813F44A
:104E5000005F07D100F048F8001BB0F57A7FF4D965
:104E6000012000E0002010BD0020704700480258DB
:104E700010B50320FDF792FFFEF75AFB10498B692E
:104E8000C3F303230F4AD35C03F01F03D8408B699D
:104E900003F00F03D35C03F01F0320FA03F30A4A65
:104EA00013600A4B18600F2005F00AFD18B10123AA
:104EB0001C46204610BD0446FBF7E4FEF9E700BFA0
:104EC00000440258A89501080C00002010000020A2
:104ED000034B1B78034A11680B441360704700BFF3
:104EE0000400002054040020014B1868704700BFE4
:104EF0005404002038B50446FFF7F6FF0546B4F128
:104F0000FF3F02D0044B1B781C44FFF7EDFF401B12
:104F1000A042FAD338BD00BF04000020014B18683E
:104F2000000C70470010005C034A536823F46003D0
:104F300003435360704700BF0004005882B0094B20
:104F4000D3F8F42042F00202C3F8F420D3F8F4308E
:104F500003F002030193019B034A53680343536028
:104F600002B0704700440258000400582DE9F04197
:104F700082B0074600230193D0F8688008F112033D
:104F800050F82340C56E012613E001A805F0A0FFEC
:104F9000019B13B12361236011E01E460FE04FF027
:104FA0000143E36013E003F1120257F82240013D90
:104FB00098469DB196B12369002BE6D02360002E60
:104FC000F7D0BB6D002BEAD04FF04143E36008F10E
:104FD0000103032BE7D9A8F10303E4E7FB6EAB421F
:104FE00012D008F1030303F00303BFF35F8F3A69A4
:104FF00003EB430302EBC3023B6803F58053C3F8A2
:105000002821C7F86880FD6602B0BDE8F081000085
:1050100010B58B680A6813430A7943EAC2630A7BB6
:1050200043EAC2534A7B43EA82538A7B43EA4253B0
:10503000CA7B43EA02530A7C002A40F0BD804FF449
:10504000002213434A7C002A40F0B8804FF400321B
:1050500013438A7C43EA02434A6913438A69134330
:105060000A7F43EA02334A7F43EAC2238A7F002A47
:1050700040F0A6804FF480621343CA7F43EA422384
:1050800091F82020002A40F09D804FF48072134355
:105090004A6A134391F8282043EA0213CA6A134369
:1050A000D0F800C0DCF8002022F07F4222F47B021E
:1050B00022F4FE4222F07C021343CCF80030CA6B8B
:1050C00091F838301B0643EA426391F8302043EAF6
:1050D000824391F8312043EA424391F83220002A7A
:1050E00072D14FF4803213434A6B1343D0F800C09F
:1050F000DCF8042022F07C5222F4EF2222F4FF623A
:1051000022F007021343CCF8043091F840204B6C96
:1051100043EA0222D0F800C0DCF80CE02D4B0EEA86
:1051200003031343CCF80C3091F854200B6D43EA81
:10513000420391F84C20002A48D1802213438A6C04
:1051400043EA0243D0F800C0DCF8702022F0F202FB
:105150001204120C1343CCF8703091F8562091F8D9
:10516000553042EA4302D0F800C0DCF8903023F01A
:1051700003031343CCF890300268D2F8003D23F0CB
:1051800072038C6D2343C2F8003DCB6D91F8602013
:10519000F2B94022134391F8612043EA021391F8D7
:1051A000622043EAC2030168D1F8302D22F07B026D
:1051B0001343C1F8303D10BD002242E7002247E70B
:1051C000002259E7002262E700228CE70022B5E7BF
:1051D0000022DFE7F0FEFFFF10B5026802F5805203
:1051E000D2F800C0244B0CEA03030C68234313607D
:1051F0000A798B6843EA02330A7B43EAC2320368C6
:1052000003F5805CDCF804E01C4B0EEA0303134357
:10521000CCF804304A7B0B6A43EA024C026802F580
:105220008052D2F800E1164B0EEA030343EA0C0366
:10523000C2F800310B690A7D43EA02134A7F43EA50
:105240000232036803F5805CDCF804E10D4B0EEAE2
:1052500003031343CCF804310B7F896941EAC3711E
:10526000026802F58052D2F80801074B03400B4355
:10527000C2F8083110BD00BFFD87FFFFFE2FFFFF02
:1052800000C0FEFFEFEFC0FFFFFFC07F70B5A2B010
:10529000064601258DF83350002412948DF84140C4
:1052A0008DF843408DF828508DF856508DF83250C7
:1052B0008DF84C408DF884504FF400530F938DF8C7
:1052C0005C4018948DF885408DF886404FF4C36398
:1052D00016938DF830400B948DF835508DF836408C
:1052E0008DF840401D941B9414948DF864408DF803
:1052F0007A408DF84250202320938DF844508DF849
:1053000055404FF0405309934FF480430E938DF86E
:10531000314002231F938DF878408DF879408DF845
:1053200054408DF834501A948DF8705009A9FFF745
:105330006FFE8DF80450029500948DF81C408DF896
:105340000D408DF80C404FF4001306938DF8144077
:1053500004938DF81D404FF4067308936946304658
:10536000FFF73AFF22B070BD00B5002211E0D0F87F
:105370000CC002EB42034FEAC30E0CEBC303002147
:105380004CF80E1059609960D960911D40F8213099
:105390000132032AEBD900238362036803F58053AB
:1053A0000322C3F82C21C268036803F58053C3F8B5
:1053B0001421C268036803F58053C3F8202100BD9F
:1053C00000B5002114E0D0F810C001EB41034FEA12
:1053D000C30E0CEBC30300224CF80E205A609A60F7
:1053E000DA601A615A6101F1120240F8223001318B
:1053F0000329E8D90023C36503668366C366836512
:10540000036803F580530322C3F83021026903685F
:1054100003F58053C3F81C21036903F148020368B4
:1054200003F58053C3F8282100BD2DE9F0419046D3
:10543000846A00EB84039B698F68DA68002AC0F2F3
:105440008481221D00EB8202D269002A40F07F8114
:105450000A6812F0040F2CD0DA686FF30F024D6A5D
:105460002A43DA60DA6842F48032DA6005682A6E2C
:1054700042F480122A660A6812F0080F19D09A685E
:1054800092B2CD6A42EA05429A60DA6842F400328A
:10549000DA60DA6822F440220D6B2A43DA6005688C
:1054A0006A6E42F480126A6605682A6D42F0806274
:1054B0002A650A6812F0100F09D09A686FF30D027E
:1054C0008D692A439A60DA6842F08062DA600A687D
:1054D00012F0040F02D112F0100E6FD0DA6842F011
:1054E0008042DA60BFF35F8FDA6842F00042DA6030
:1054F000661C032E00D9E61E00EB86039B69DA6862
:10550000002A50DB4FF0010E0EF1010E3A681A60CE
:105510009A686FF30D027D682A439A60BA68002A80
:105520004ED015685D609F686FF31D47556847EA68
:1055300005459D600D6815F0100F48D0DF6827F411
:10554000F0070D6A47EAC545DD60DF686FF31107B4
:10555000CD693D43DD60DD6845F48025DD600D6883
:1055600015F0040F05D09F6827F440478D6A3D432E
:105570009D60DD6845F00055DD60DD6825F0804503
:10558000DD60BFF35F8FDD6845F00045DD600D68CD
:1055900015F0020F05D0DF6827F06077CD683D4336
:1055A000DD6000256AE000EB8404A269BFF35F8F31
:1055B000D36823F00043D3600220C9E02646A3E766
:1055C0005A609A686FF31D429A603A46B2E7DF6804
:1055D0006FF30E074D683D43DD600D6815F0010F58
:1055E00005D0DF6827F440374D693D43DD600D6825
:1055F00015F0200FB3D0DF6827F040670D693D43F9
:10560000DD60ACE700EB84039969002204E000EB65
:105610008301896901321C4672450AD2BFF35F8F4C
:10562000CB6823F00043CB60631C032BEFD9E31E50
:10563000EDE702208CE05A609A686FF31D429A6091
:105640003A4651E0DE686FF30E064F683E43DE6077
:105650000E6816F0010F05D0DE6826F440364F695B
:105660003E43DE600135BFF35F8FDE6846F00046E3
:10567000DE60DE6826F08046DE6066469768002FB2
:1056800041D0DF6827F08057DF6006F1010CBCF1E4
:10569000030F01D9A6F1030C00EB8C039B69DE68B4
:1056A00026F00056DE60DE68002EABDB0CF104064F
:1056B00000EB8606F669002EA4D10EF1010E976864
:1056C0003A681A609E686FF30D067A6832439A60F2
:1056D000BA68002AAFD016685E609E686FF31D46F8
:1056E000576846EA07469E600E6816F0100FA9D06C
:1056F000DE686FF31106CF693E43DE60DE6846F474
:105700008026DE60AEE74246D2B19A6842F000429F
:105710009A60DA6842F08052DA60C26B331D00EBA7
:105720008303DA618662EFF31082012383F310882A
:10573000036C2B440133036482F31088002007E0DC
:105740009A6822F000429A60E3E7022000E002201B
:10575000BDE8F081D0F88430102B01D001207047D3
:1057600010B504462023C0F8843001238365042348
:10577000C366FFF7FBFB236803F58053D3F80421CE
:1057800042F00102C3F80421236803F58053D3F8E3
:10579000082142F00102C3F80821236803F5805371
:1057A000D3F8602142F48172C3F860212268D2F8F4
:1057B000003D43F00103C2F8003D2268136843F046
:1057C000020313602268136843F001031360236827
:1057D00003F58053D3F834114DF2C1020A43C3F8E4
:1057E00034214023C4F88430002010BDD0F8843028
:1057F000402B01D0012070472023C0F8843003687B
:1058000003F58053D3F834111D4A0A40C3F83421FC
:10581000036803F58053D3F8042122F00102C3F892
:105820000421036803F58053D3F8082122F0010214
:10583000C3F808210268136823F0010313600268AB
:10584000D2F8003D43F00103C2F8003D026813683E
:1058500023F002031360002308E003F1120250F862
:105860002210CA6822F08042CA600133032BF4D9A7
:10587000002383651022C0F884201846704700BFBB
:105880003E2FFFFF10B5044629B1D4F88430402BD9
:1058900009D0012010BDD0F8883043F00103C0F8D2
:1058A00088300120F6E74B6BE36301222046FFF7C7
:1058B000BCFD38B1D4F8883043F00203C4F8883016
:1058C0000120E7E7BFF34F8FA36A5A1CA262032AA5
:1058D00001D9033BA362A26A2368063254F822204E
:1058E00003F58053C3F820210020D3E72DE9F84FBA
:1058F000044691B18B46D0F88430402B40F085802F
:10590000D0F85C8008F1120350F82350C36EC3F145
:10591000040A4FF000094F4625E0D0F8883043F0E4
:105920000103C0F88830012070E04FF00109B3B2E4
:105930002A6904F1800104F17C0005F0EDFA236E80
:1059400001332366636E3344636600232B6108F1E1
:105950000103032B01D9A8F1030303F1120254F848
:10596000225001379846EB68002B39DB89F00103A0
:10597000574535D2002B33D0EB6813F0005F02D1CE
:10598000E36F002BE3D0EB6813F0005F02D000233D
:1059900023666366EE68C6F30E06636EF61AEB685E
:1059A00013F0805FC3D0EB6823676B6813F4804FFC
:1059B000BBD008F10103032B01D9A8F10303123373
:1059C00054F82330DA6812F0804F06D05A68A26784
:1059D0001B6863674FF00109A9E74FF00109A6E7CB
:1059E000E36E3B44E36633B9C4F85C80B9F1000F61
:1059F00005D101200AE02046FFF7B8FAF4E7E36F8B
:105A0000CBF800300020E06700E00120BDE8F88F0F
:105A1000F8B50646056C446C012712E0631C032BA5
:105A200022D9033C0DE005F0A9FA231D06EB830300
:105A30000022DA61631C032B00D9E31E3564736412
:105A40001C469DB197B1013D231D06EB8303D86928
:105A50000028E3D0F36804EB440203EBC203DB68E5
:105A6000002BE0DA0027ECE71C46EAE70020F8BD4F
:105A700070B504461E460068D0F8003213F0010FDE
:105A800001D0012070BDD0F8003223F0787343EAD2
:105A9000415121F4F81343EA024242F00D02C0F8EA
:105AA0000022FFF721FA05462268D2F8001211F011
:105AB000010F07D0FFF718FA421BB2F57A7FF3D92E
:105AC0000120DFE7D2F804329BB233600020D9E72F
:105AD00038B504460068D0F8005215F0010F01D027
