:020000040800F2
:1000000000000220C18A0108190E00081B0E00081A
:100010001D0E00081F0E0008210E00080000000041
:1000200000000000000000000000000011EB0008CC
:10003000230E000800000000B1EB0008C5E0000836
:10004000158B0108158B0108158B0108158B01080C
:10005000158B0108158B0108158B0108158B0108FC
:10006000158B0108158B0108158B0108158B0108EC
:10007000158B0108158B0108250E0008158B01084A
:10008000158B0108158B0108158B0108158B0108CC
:10009000158B0108158B0108158B0108158B0108BC
:1000A000158B0108350E0008158B0108158B01080A
:1000B000158B0108450E0008158B0108158B0108EA
:1000C000158B0108158B0108158B0108550E0008CA
:1000D000158B0108158B0108158B0108158B01087C
:1000E000158B0108158B010800000000158B010815
:1000F000158B0108158B0108158B0108158B01085C
:10010000158B0108158B0108158B0108158B01084B
:10011000158B0108158B0108158B0108158B01083B
:10012000158B0108158B0108158B0108158B01082B
:10013000158B0108158B0108158B0108158B01081B
:1001400000000000000000000000000000000000AF
:10015000158B0108158B0108158B0108158B0108FB
:10016000158B0108158B0108158B0108158B0108EB
:10017000158B0108158B0108158B01080000000084
:10018000158B0108158B0108158B0108158B0108CB
:10019000158B0108158B0108158B0108158B0108BB
:1001A000158B0108158B0108158B0108158B0108AB
:1001B000158B0108158B0108158B0108158B01089B
:1001C000158B0108158B0108158B0108158B01088B
:1001D000158B0108158B0108158B0108158B01087B
:1001E000158B0108158B0108158B0108158B01086B
:1001F000158B0108158B0108158B0108158B01085B
:10020000158B0108158B0108158B0108158B01084A
:10021000158B0108158B0108158B0108158B01083A
:10022000158B0108158B0108158B010800000000D3
:10023000158B0108158B010800000000158B0108C3
:10024000158B0108158B0108158B0108158B01080A
:10025000158B0108158B0108158B0108158B0108FA
:10026000158B0108158B0108158B0108158B0108EA
:10027000158B0108158B0108158B01080000000083
:10028000158B0108158B0108158B01080000000073
:0802900000000000158B0108BD
:1002A00010F8012B11F8013B012A28BF9A42F7D020
:1002B000D01A7047034613F8012B002AFBD1181AF5
:1002C000013870470000000000000000000000003E
:1002D00001F0FF01102A2BDB10F0070F08D010F8F7
:1002E000013B013A8B422DD010F0070F42B3F6D1FB
:1002F000F0B441EA012141EA014122F007047FF014
:1003000000070023F0E80256083C85EA010586EA6A
:10031000010685FA47F5A3FA87F586FA47F6A5FAA6
:1003200087F68EB9EED1F0BC01F0FF0102F00702B2
:1003300032B110F8013B013A83EA010313B1F8D15D
:100340000020704701387047002D06BF354603383E
:10035000073815F0010F07D1013015F4807F02BF77
:10036000013015F4C03F0130F0BC0138704700BFC8
:1003700053B94AB9002908BF00281CBF4FF0FF310C
:100380004FF0FF3000F00CB8ADF1080C6DE904CE71
:100390001BF0D6FADDF804E0DDE9022304B0704773
:1003A000704700BF0348044B834202D0034B03B1A4
:1003B00018477047800000208000002000000000E7
:1003C0000548064B1B1AD90F01EBA301491002D0B7
:1003D000034B03B1184770478000002080000020C5
:1003E0000000000010B5064C237843B9FFF7DAFF90
:1003F000044B13B10448AFF300800123237010BDF8
:10040000800000200000000060BC010808B5054B1A
:100410001BB105490548AFF30080BDE80840FFF770
:10042000CFBF00BF000000008400002060BC0108B6
:1004300030B585B00024009401940294039404F034
:1004400017FF01238DF800308DF8014001941F2221
:100450008DF8082087228DF809208DF80A408DF844
:100460000B408DF80C308DF80D308DF80E408DF866
:100470000F40684604F01AFF042004F007FF05B09F
:1004800030BD000010B582B004468DF807000DF0B5
:100490003FFE022813D10F4B186880B14FF0FF3197
:1004A0000DF077FF4FF0FF3301220DF107010A48ED
:1004B0000BF0A3FB074B18680DF09CFF07E04FF013
:1004C000FF3301220DF1070103480BF096FB204694
:1004D00002B010BD9C0000204002002010B5044670
:1004E0000268074B9A4204D02268064B9A4203D016
:1004F00010BD08F0CBFBF7E704F062F9F8E700BFA6
:10050000000001400004004072B6FEE700B59DB057
:100510004C22002109A818F0BAFF2022002101A8CE
:1005200018F0B5FF022008F057FB00230093244B7E
:10053000DA6A22F00102DA62DB6A03F00103009357
:10054000204B9A6942F440429A619B6903F440430C
:100550000093009B1B4B9B6913F4005FFAD00122B0
:1005600009924FF480330A93022312931393149247
:100570006422159216930422179218930C23199350
:1005800000231A931B9309A804F0BCFEA0B93F23D3
:1005900001930323029303900823049340230593BC
:1005A00006934FF4806207920893022101A805F098
:1005B000FDFA18B91DB000BDFFF7A6FFFFF7A4FFB5
:1005C000000400580048025800B583B0FFF730FF20
:1005D00008F02CFBFFF79AFF00F076F818F054FAB9
:1005E00000F040FA00F07EFA00F096FB17F082FD72
:1005F00000F038FB2B4B1868002302221946806854
:1006000018F0FCFC284818F0F1FC05F0D5F9064676
:1006100005F016FC054605F035FC044605F044FCE3
:10062000009023462A463146204818F077FC04F013
:1006300055FB10234FF480124FF0C0411C4818F0B6
:100640006DFC04F085FD20B11A4818F0CFFCFFF7CF
:100650005BFF194818F0CAFC4FF4486003F009FA30
:1006600020B1164818F0C2FCFFF74EFF4FF4486166
:10067000134818F053FC4FF4486000F0FBFD03F002
:100680005BFF04F0A5F940B902F0FEFF0DF026FD76
:1006900000F050F90DF04EFDFEE70A4818F0A6FCF8
:1006A000F2E700BF30000020D0BC0108E8BC010820
:1006B00028BD010870BD010890BD0108C8BD010832
:1006C000F0BD010828BE01082DE9F04F8FB009AD3B
:1006D000002409940A940B940C940D946A4BD3F85B
:1006E000E02042F00402C3F8E020D3F8E02002F05A
:1006F00004020192019AD3F8E02042F02002C3F8EC
:10070000E020D3F8E02002F020020292029AD3F80F
:10071000E02042F08002C3F8E020D3F8E02002F0AD
:1007200080020392039AD3F8E02042F00102C3F85A
:10073000E020D3F8E02002F001020492049AD3F8FA
:10074000E02042F04002C3F8E020D3F8E02002F0BD
:1007500040020592059AD3F8E02042F01002C3F857
:10076000E020D3F8E02002F010020692069AD3F8B7
:10077000E02042F00202C3F8E020D3F8E02002F0CB
:1007800002020792079AD3F8E02042F00802C3F869
:10079000E020D3F8E03003F008030893089BDFF86B
:1007A000F8A001221021504606F073FDDFF8EC900E
:1007B00022464821484606F06CFDDFF8E4802246D8
:1007C000E021404606F065FD224603212F4806F051
:1007D00060FD4FF0100BCDF824B001260A960B9463
:1007E00003270C972946504606F02CFC4BF6C063B5
:1007F00009930A940B942946254806F023FC4FF4EC
:10080000507309930A940B942946224806F01AFC67
:100810004FF4807309930A940B942946504606F0CE
:1008200011FC042309930A940B962946484606F0C6
:1008300009FC482309930A960B940C9729464846CD
:1008400006F000FC182309930A940B9429464046AD
:1008500006F0F8FBE02309930A960B940C972946BF
:10086000404606F0EFFB09970A960B940C94294634
:10087000064806F0E7FB584608F03EFA202008F04C
:100880003BFA0FB0BDE8F08F004402580010025848
:10089000001802580008025800000258000C0258C4
:1008A00000040258F8B50EF087FE1D4818F09EFBB4
:1008B00003F004F80026354622E0204603F0C0FB92
:1008C00048BB204600F012FD02F0EAFE04F004F9F5
:1008D000A31BB3F57A7F10D3124E0121304606F0E8
:1008E000DEFC0221304606F0DAFC6F1C2246294667
:1008F0000D4818F013FB26463D4601200DF0E9FC9B
:1009000008F0D0F9044603F08BF90028D5D0074849
:1009100018F06CFBD1E7064818F068FBD1E700BF80
:100920004CBE010800100258C0BE010868BE010894
:1009300094BE010808B5084B1B683BB1074A00216B
:1009400007480DF060FC074B186008BD18460DF015
:10095000D0FC014B1860F1E79C000020B8FA0108B8
:10096000A5080008A0000020F0B5B9B0002333931B
:100970003493359336933793334B1B680BB139B0AF
:10098000F0BD314B01221A6002ACC022002120468A
:1009900018F07DFD4FF080720023CDE90223204640
:1009A00005F0C6FB00284BD1284BD3F8D42042F4E5
:1009B0008052C3F8D420D3F8D43003F48053019389
:1009C000019B4FF23F03339302273497002635965D
:1009D000032536950C23379333AC21461C4806F08B
:1009E00031FB3F2333933497359636950C23379359
:1009F0002146184806F026FB4FF680733393349750
:100A0000359636950C2337932146134806F01AFB8A
:100A10004FF6337333933497359636950C233793CB
:100A200021460E4806F00EFB80233393349735960B
:100A30003695092337932146094806F003FB9EE7C4
:100A4000FFF762FDB0E700BFA40000200044025899
:100A5000001402580018025800100258000C0258E6
:100A60000008025800B589B001A9002201924A602D
:100A70008A60CA600A614A618A611648164B03603F
:100A800003F5827343608260C26002614FF0100C14
:100A9000C0F814C08261C261026242628262C262B4
:100AA000026342638263C26302640F230193029371
:100AB0004FF03C0ECDF80CE00493CDF814C0112398
:100AC000069309F09FF908B909B000BDFFF71CFDB6
:100AD000FAE700BFA80000200040005208B5FFF769
:100AE00043FF08BD08B51448144B03604FF480035E
:100AF0004360002383601722C26003614FF080725D
:100B000042614FF0806282614FF08052C2610362A5
:100B100043628362C36243638363C3630364436466
:100B20008364C36403654365836509F02FFA00B9E4
:100B300008BDFFF7E9FCFBE76C0100200030014035
:100B4000F0B5BBB00446002135913691379138910C
:100B50003991C02204A818F09AFC22683B4B9A42B3
:100B600001D03BB0F0BD4FF480520023CDE9042307
:100B700004A805F0DDFA002862D1354BD3F8F02047
:100B800042F48052C3F8F020D3F8F02002F48052EF
:100B90000192019AD3F8E02042F00102C3F8E0206C
:100BA000D3F8E02002F001020292029AD3F8E0208A
:100BB00042F00802C3F8E020D3F8E03003F0080365
:100BC0000393039B602335930226369600253795C1
:100BD000032738970523399335A91E4806F032FAC2
:100BE000802335933696379538970523399335A961
:100BF000194806F027FA1948194B03602623436069
:100C000040238360C5604FF4806303614FF48053D9
:100C100043614FF480438361C5614FF40033036245
:100C2000456206F07BFD70B90C4BA3679C63002204
:100C30000521232004F008FB232004F015FB90E796
:100C4000FFF762FC99E7FFF75FFCEDE7003001403A
:100C50000044025800000258000C0258F400002022
:100C60005800024000B589B0002304930593069311
:100C700007930193029303931448154A026043605B
:100C8000836040F2E732C2600361802383610AF02F
:100C9000C1FA90B94FF48053049304A90B480AF0A9
:100CA000F5FA68B9202301930023039301A90748AB
:100CB0000AF088FB38B909B000BDFFF725FCE9E769
:100CC000FFF722FCEEE7FFF71FFCF4E7F40100203A
:100CD0000004004002680E4B9A4200D0704700B5F5
:100CE00083B00C4BD3F8E82042F00202C3F8E820AE
:100CF000D3F8E83003F002030193019B00220521A1
:100D00001D2004F0A1FA1D2004F0AEFA03B000BDCE
:100D1000000400400044025808B51748174B036010
:100D20004FF4E133436000238360C36003610C220E
:100D300042618361C3610362436283620BF0C9F85D
:100D400070B900210C480BF040F960B900210A4845
:100D50000BF060F950B908480BF018F948B908BD14
:100D6000FFF7D2FBEDE7FFF7CFFBEFE7FFF7CCFB99
:100D7000F1E7FFF7C9FBF2E7400200200010014055
:100D800010B5B8B0044600213391349135913691B5
:100D90003791C02202A818F07AFB22681B4B9A42B6
:100DA00001D038B010BD01220023CDE9022302A8F2
:100DB00005F0BEF938BB164BD3F8F02042F0100214
:100DC000C3F8F020D3F8F02002F010020092009A4D
:100DD000D3F8E02042F00102C3F8E020D3F8E0307D
:100DE00003F001030193019B4FF4C063339302238B
:100DF00034930023359336930723379333A905485B
:100E000006F020F9CDE7FFF77FFBD4E700100140A3
:100E10000044025800000258FEE7FEE7FEE7FEE746
:100E2000FEE7704708B5024807F03AFB08BD00BF6F
:100E3000F400002008B502480AF099F808BD00BF88
:100E40007C4F002008B502480AF091F808BD00BFA9
:100E5000F401002008B5024809F030FE08BD00BFCB
:100E60006C01002000B583B00A4BD3F8F42042F0A7
:100E70000202C3F8F420D3F8F43003F00203019324
:100E8000019B00220F216FF0010004F0DDF903B097
:100E900000BD00BF0044025800B58DB00023079389
:100EA000089309930A930B930268384B9A4201D036
:100EB0000DB000BD364BD3F8D82042F40042C3F841
:100EC000D820D3F8D82002F400420192019AD3F836
:100ED000D82042F48032C3F8D820D3F8D82002F4C6
:100EE00080320292029AD3F8D82042F40032C3F83A
:100EF000D820D3F8D82002F400320392039AD3F812
:100F0000E02042F00102C3F8E020D3F8E02002F034
:100F100001020492049AD3F8E02042F00202C3F8DE
:100F2000E020D3F8E02002F002020592059AD3F8FF
:100F3000E02042F00402C3F8E020D3F8E03003F0F0
:100F400004030693069B8623079302230893032337
:100F50000A930B230B9307A90E4806F073F832236C
:100F6000079307A90C4806F06DF84FF460530793F8
:100F700007A90A4806F066F8002205213D2004F082
:100F800063F93D2004F070F992E700BF0080024051
:100F90000044025800000258000802580004025899
:100FA0001A4B1B7953B3027A184B5B799A4227D1BB
:100FB0000368164A9168D2684B40134222D1427AA4
:100FC000124B1B7C9A421FD3002301E00133DBB29A
:100FD000072B11D80D4A1A44527C002AF6D0C118AA
:100FE000897ADFF828C09C449CF819C081EA0C017A
:100FF0000A42EBD000207047012070470120704763
:10100000002070470020704700207047F402002045
:101010002DE9F04180460F4616461D46114C5422DC
:101020000021204618F033FA04F1040CDFF838E010
:10103000BEE80F00ACE80F009EE80F008CE80F0040
:101040000123237084F8248084F8257084F82650C6
:101050002685BDF81830638507F024FEE062BDE800
:10106000F08100BFF4020020D402002010B588B047
:101070006C46DFF838C0BCE80F000FC49CE80F00D6
:1010800084E80F00084C54220021204618F0FFF994
:1010900004F1040C6C460FCCACE80F0094E80F0090
:1010A0008CE80F0008B010BDF4020020D40200202C
:1010B00010B504465422024918F09BFA204610BD90
:1010C000F4020020022805D0032805D0012805D10C
:1010D0000348704703487047034870470348704708
:1010E000ECBE0108F0BE0108F4BE0108FCBE010818
:1010F0008C46D1B940F2FF718B4298BF8A4222D808
:101100001349087000B5124981F801C04A608B602C
:10111000DFF840E08C46BCE80F00AEE80F009CE82A
:101120000F008EE80F00002000BD6FF060418B4281
:1011300098BF8A4209D806490870BCF1000FE1D077
:101140004FF0010CDEE7012070470120704700BF1F
:10115000D4020020F802002000B5074B00221A70CC
:10116000DFF818E09C46BCE80F00AEE80F009CE8F2
:101170000F008EE80F0000BDD4020020F80200200E
:1011800007281BD800B50E4B034459735A7539B163
:10119000431C0B4A127B934202D91846084B187322
:1011A000DFF820C0DFF818E0BEE80F00ACE80F0061
:1011B0009EE80F008CE80F00002000BD0120704762
:1011C000D4020020F802002000B50A4B00221A6069
:1011D0005A609A60DA60A3F10D0C03F8012CDFF875
:1011E00018E0BCE80F00AEE80F009CE80F008EE8A6
:1011F0000F0000BDE1020020F802002050B310B53E
:101200000446154B1B786BB1134B1A6B01321A63F2
:1012100093F8383033B9FFF7C3FE20B90E4A536B49
:101220000133536310BD0C48012380F83830214648
:101230006368C363C26A9B1A036423684364237AA6
:1012400080F84830627A80F849200A314A3018F034
:10125000D0F9E7E7704700BFF4020020A0F5FA706C
:1012600080B241F29413984201D8012070470020C7
:101270007047000038B50546FFF7F0FF10B94FF48E
:1012800048631D46054CA58103F092FE607018B9B5
:101290000122024B9A7038BD0022FAE74C0300206D
:1012A00038B504460546FFF7D9FF18B901231C4697
:1012B000204638BD0A4B9C8101221A7002F0B8FE0C
:1012C00002F09EFC204602F0B8FB044620B92946F5
:1012D000044817F023FEEBE7034817F087FEE7E723
:1012E0004C03002030BF010804BF010838B5134B80
:1012F0001B68C31A312B00D838BD05460F4B186048
:1013000003F056FE0146B0B901230D4A51709370A7
:10131000002BF1D0D378002BEED10123D37053688A
:101320000133536014469560064817F05FFEA089AC
:10133000FFF7B6FFE0E70023E7E700BF4803002020
:101340004C0300205CBF010808B5044B00221A7052
:10135000DA70034817F04AFE08BD00BF4C030020B6
:1013600090BF0108034B1B780BB901207047002088
:10137000704700BF4C0300208446034B0FCB8CE822
:101380000F006046704700BF4C030020002818BFC4
:10139000002A04D008B503461046984708BD704798
:1013A00000E0013010B10378202BFAD07047000024
:1013B00038B504460D46594AFFF7E8FF584A294612
:1013C0002046FFF7E3FF574A29462046FFF7DEFF96
:1013D000554A29462046FFF7D9FF544A2946204658
:1013E000FFF7D4FF524A29462046FFF7CFFF514A64
:1013F00029462046FFF7CAFF4F4A29462046FFF7F5
:10140000C5FF4E4A29462046FFF7C0FF4C4A2946F1
:101410002046FFF7BBFF4B4A29462046FFF7B6FFA1
:10142000494A29462046FFF7B1FF484A2946204647
:10143000FFF7ACFF464A29462046FFF7A7FF454A7B
:1014400029462046FFF7A2FF434A29462046FFF7D8
:101450009DFF424A29462046FFF798FF404A294609
:101460002046FFF793FF3F4A29462046FFF78EFFAD
:101470003D4A29462046FFF789FF3C4A2946204637
:10148000FFF784FF3A4A29462046FFF77FFF394A93
:1014900029462046FFF77AFF374A29462046FFF7BC
:1014A00075FF364A29462046FFF770FF344A294621
:1014B0002046FFF76BFF334A29462046FFF766FFB9
:1014C000314A29462046FFF761FF304A2946204627
:1014D000FFF75CFF2E4A29462046FFF757FF2D4AAB
:1014E00029462046FFF752FF2B4A29462046FFF7A0
:1014F0004DFF2A4A29462046FFF748FF284A294639
:101500002046FFF743FF274A29462046FFF73EFFC4
:10151000254A29462046FFF739FF38BDB0BF0108EC
:10152000C0BF0108CCBF0108D8BF0108E8BF01084F
:10153000FCBF010830C0010864C00108B8C0010840
:10154000C8C00108D8C0010810C101084CC1010879
:1015500088C10108C8C10108D8C10108F8C1010843
:1015600028C2010840C2010858C201088CC2010803
:101570009CC20108CCC20108DCC20108ECC201080F
:101580001CC3010830C301085CC3010870C3010813
:1015900080C3010898C30108ACC30108CCC301088B
:1015A000DCC30108F4C3010808C4010870B506468D
:1015B0000D46144602F012FC29460144091B01F5B0
:1015C000FA73B3F57A7F01D9012070BD09B23046B4
:1015D00002F0C4FBF9E70CB470B5ADF5027D064628
:1015E0000D4686AB53F8042B019302AC4FF4007107
:1015F000204617F083FE224629463046FFF7C6FEF6
:101600000DF5027DBDE8704002B070472DE9F0474E
:101610009AB004460D4615A802F07AFD11A8FFF70E
:10162000ABFE02F011FC82469DF84460BDF850709C
:101630009DF846909DF84780129A0A929DF85510A1
:101640000B919DF8540002F075FD9DF85630BDF8E1
:1016500064200992189A0892079306900B990591B5
:101660000A9A0492CDF80C80CDF808900197009664
:101670005346204A29462046FFF7ADFF012625E0C4
:10168000DFF87C90304602F0B5FB0746304602F0AA
:10169000A5FB80469DF8340002F0E8FBBDF836302B
:1016A000BDF83820BDF8401007910F9906910592BA
:1016B00004930390CDF80880019700964B460E4A9C
:1016C00029462046FFF787FF0136F6B20D2E08D8CF
:1016D00031460DA802F09AFB012ED1D0DFF82490FC
:1016E000D0E7064A29462046FFF750FE1AB0BDE86B
:1016F000F08700BF78C401084CC50108C0C50108C7
:1017000084C1010808CC010870B58AB006460D46B0
:1017100006A8FFF731FEBDF824309DF819209DF88A
:101720001A109DF81B00089C0594079C04940390D4
:101730000291019200939DF81830034A29463046E1
:10174000FFF749FF0AB070BDC8C5010800B583B0F6
:1017500033B9044B0092044AFFF73DFF03B000BDCC
:10176000024BF7E758C6010868C6010860C60108C1
:1017700070B58CB005460E4608A8FFF7FDFD02F0D7
:1017800063FB03462C4A31462846FFF724FFBDF889
:101790002C309DF822209DF8231009980390029187
:1017A000019200939DF82030244A31462846FFF7E5
:1017B00012FF012410E0204602F010FB0346204AED
:1017C00031462846FFF707FF1BE01E4A31462846F0
:1017D000FFF7DCFD0134E4B20D2C2AD8214604A821
:1017E00002F014FB204602F005FB00902346164A47
:1017F00031462846FFF7EFFE204602F0EFFA0028B8
:10180000D9D19DF810000028DFD002F02FFB03464D
:10181000BDF81220BDF81410BDF81C000390069806
:10182000029001910092094A31462846FFF7D3FE03
:10183000CBE70CB070BD00BF80C60108A0C6010890
:1018400004C70108F4C10108F4C6010810C7010863
:1018500070B582B006460D460A4AFFF797FD01248F
:101860000BE0204602F0BAFA00902346064A2946C9
:101870003046FFF7B0FE0134E4B20D2CF1D902B0CE
:1018800070BD00BF50C701085CC7010870B58AB0C1
:1018900006460D4606A8FFF76FFDBDF824309DF8FB
:1018A00019209DF81A109DF81B00089C0594079CB0
:1018B000049403900291019200939DF81830034A1A
:1018C00029463046FFF787FE0AB070BD74C701088D
:1018D00000B583B03BB9054B00931346044AFFF7AC
:1018E0007AFE03B000BD034BF6E700BFD4DC01086D
:1018F000F0C70108ECC7010830B589B005460B46B2
:10190000054A2021684617F02DFC6946284617F045
:10191000E6FD09B030BD00BF00C8010810B514468F
:10192000FFF7EAFF002C18BF002810D03A2117F06B
:10193000B6FD58B101300378202B01D10130FAE710
:101940000A22002117F0A2F92060012010BD00201A
:10195000FCE738B514461D46FFF7CEFF002C18BF34
:10196000002828D04DB33A2117F099FD014618B34D
:10197000013100E0013108782028FBD022281ED157
:1019800001314FF0000C04E0013104F80C000CF1BF
:10199000010C0878002818BF222802D06B1E63456E
:1019A000F2D8002304F80C300B78222B01D0002051
:1019B00002E0012000E0002038BD2846FCE70020BE
:1019C000FAE70000F0B593B005460E4609A803F00B
:1019D00019F90D9B9DF83C209DF83D700E990791DB
:1019E00006970592049303930C9B02930B9B019320
:1019F0000A9B00939DF82430104A31462846FFF791
:101A0000EAFD00240DE00E4B04F148026A4412F88E
:101A10000A2C00920B4A31462846FFF7DCFD0134C0
:101A2000E4B2A74203D9002CEDD0074BECE7074AFC
:101A300031462846FFF7AAFC13B0F0BD08C80108DC
:101A400084C10108A4C8010808CC0108ACC8010879
:101A5000F0B591B006460F4607A803F0D3F89DF8FD
:101A600035500C9B059304950B9B03930A9B0293A3
:101A7000099B0193089B00939DF81C30114A39463D
:101A80003046FFF7A8FD002408E00F4A00920F4AF5
:101A900039463046FFF79FFD0134E4B2A54209D92B
:101AA00004F140036B4413F80A3C621CAA42ECD0D8
:101AB000074AEBE7074A39463046FFF767FC11B0A3
:101AC000F0BD00BFB4C8010884C1010810C90108F5
:101AD00038D30108F4C10108F0B59BB005460E46A5
:101AE00005A8FFF7E5FA9DF814409DF83800FFF7C8
:101AF000E9FA109B019300902346344A3146284668
:101B0000FFF769FDBDF83C309DF83A20BDF83E1066
:101B10000291019200939DF839302D4A31462846B2
:101B2000FFF759FD9DF84C300193129B0093119BD8
:101B3000284A31462846FFF74EFD9DF81920079B9D
:101B40000293019300929DF81830234A31462846AB
:101B5000FFF741FD089B9DF82420019200931F4A46
:101B600031462846FFF737FD169B02930193159BDC
:101B70000093149B1A4A31462846FFF72CFD9DF826
:101B80005D7000979DF85C30164A31462846FFF795
:101B900022FD00240DE0144B04F168026A4412F89F
:101BA0000A2C0092114A31462846FFF714FD0134F1
:101BB000E4B2A74203D9002CEDD00D4BECE70D4A5F
:101BC00031462846FFF7E2FB1BB0F0BD18C90108FB
:101BD00058C90108A4C90108D8C9010818CA0108D0
:101BE00048CA010898CA010884C10108A4C80108AC
:101BF00008CC0108ACC80108F0B5A1B005460E46F6
:101C00000BA8FFF755FA9DF82C409DF85000FFF700
:101C100059FA9DF851C0BDF854209DF85210BDF8F6
:101C200056E09DF864700897189B0793179B0693DE
:101C3000CDF814E004910392CDF808C0169B0193EF
:101C400000902346304A31462846FFF7C4FC9DF8F1
:101C500030309DF831207AB12C499DF83C20039218
:101C60000E9A02920D9A01920091294A3146284615
:101C7000FFF7B1FC002412E02649EEE7264B04F101
:101C800080026A4412F83B1C12F8432C0192009126
:101C9000224A31462846FFF79EFC0134E4B2072C65
:101CA00003D8002CEAD01E4BE9E737B91D4A31466C
:101CB0002846FFF76BFB21B0F0BD9DF874309DF80E
:101CC0007570039702931C9B01931B9B00931A9BB7
:101CD000154A31462846FFF77EFC002408E00E4AEC
:101CE0000092124A31462846FFF775FC0134E4B2EF
:101CF000A742DBD904F180036B4413F80A3C621C51
:101D0000BA42ECD0064AEBE7D8CA0108D0CA0108AB
:101D100050CB0108D4CA010884C1010898CB01083E
:101D200038D30108F4C10108A4CB010810C9010887
:101D3000F0B58FB004460D46164604A803F024F80B
:101D4000002E37D11C4B049A019200921B4A29465F
:101D50002046FFF740FC059B1F469DF818609DF844
:101D6000340003F027F8019000963B46144A2946B8
:101D70002046FFF730FC089B02930B9B01930A9BC4
:101D80000093079B0F4A29462046FFF724FC099B36
:101D900000930D4A29462046FFF71DFCBDF832305E
:101DA0000093BDF83030094A29462046FFF713FC5E
:101DB0000FB0F0BD064BC6E758C60108D8CB0108E6
:101DC0000CCC010840CC010874CC0108A0CC01085F
:101DD00060C601082DE9F04393B08146884608A803
:101DE00002F0D2FF089F099D9DF828609DF84440AD
:101DF000204602F0DFFF0C9B06930F9B05930E9B82
:101E000004930B9B03930290019600953B460E4A68
:101E100041464846FFF7DFFB012C07D00B4A4146FD
:101E20004846FFF7B3FA13B0BDE8F083BDF8403081
:101E3000BDF84220019200930D9B054A4146484659
:101E4000FFF7C9FBEAE700BFC0CC0108F4C10108F5
:101E500024CD010808B502F0EFFB02F0E9F808BD57
:101E600038B505460C46FFF77DFA30B1FFF7F2FFB3
:101E70002146284601F0D4FD38BD0220FCE72DE9BB
:101E8000F04182B005460C46884617461E46FFF7CD
:101E900069FAA8B1FFF7DEFF33463A4621462846E5
:101EA00001F05AFE044618B1204602B0BDE8F081A8
:101EB00003460090424629460120FFF7A9F8F3E7C0
:101EC00002231C46F0E72DE9F04182B005460C469E
:101ED000884617461E46FFF745FAA8B1FFF7BAFF36
:101EE00033463A462146284601F03FFE044618B1E3
:101EF000204602B0BDE8F0810346009042462946E4
:101F00000220FFF785F8F3E702231C46F0E72DE9EE
:101F1000F04182B007460E4615461C469846FFF72C
:101F200021FAD8B1FFF796FFBDF824300193089B42
:101F3000009323462A463146384601F03DFE0446CA
:101F400018B1204602B0BDE8F081CDF800802B46E4
:101F5000324639460320FFF75BF8F2E702231C46BE
:101F6000EFE710B50446FFF7FDF928B1FFF772FF60
:101F7000204601F062FD10BD0220FCE710B51446BA
:101F8000FFF7BAFC002C18BF002810D03A2117F038
:101F900086FA58B101300378202B01D10130FAE7DD
:101FA0000A22002116F0ECFE2060012010BD002066
:101FB000FCE700B583B0019201AAFFF7DFFF0198AB
:101FC00003B000BD2DE9F0419CB004460E46174613
:101FD000102318AAA349FFF7BCFC00282AD0A24965
:101FE00018A8FEF75DF900282AD0A04918A8FEF726
:101FF00057F950B39E4918A8FEF752F958B39D49B6
:1020000018A8FEF74DF9002839D09B4918A8FEF70B
:1020100047F928B1994918A8FEF742F9002865D177
:1020200013AA97492046FFF7A9FF002841D10123B1
:102030001C461BE0934A39463046FFF7A7F91BE0E0
:1020400039463046FFF7E2FA16E08F4A3946304605
:10205000FFF79CF910E04FF448628C492046FFF7E7
:10206000A8FF129080B2FFF77CFF0446234618AA0F
:1020700039463046FFF76AFB1CB0BDE8F08113AA71
:102080007F492046FFF77AFF10B901231C46EDE790
:1020900012AA7E492046FFF771FF10B901231C46A2
:1020A000E4E7BDF848109DF84C00FFF7D9FE044660
:1020B000DCE741F2941275492046FFF77AFF12904F
:1020C000642273492046FFF774FF054640F6B83294
:1020D00070492046FFF76DFF83B22A46BDF84810CD
:1020E0009DF84C00FFF7CBFE0446BFE76A4918A8ED
:1020F000FEF7D6F820B1694918A8FEF7D1F828BB39
:1021000013AA5F492046FFF739FF10B901231C4687
:10211000ACE74FF47A725D492046FFF74AFF129010
:1021200064225B492046FFF744FF054640F6B8327B
:1021300058492046FFF73DFF83B22A46BDF84810B4
:102140009DF84C00FFF7BFFE04468FE7544918A8DE
:10215000FEF7A6F8002846D0524918A8FEF7A0F8C6
:10216000002800F0B980504918A8FEF799F8002817
:1021700000F0BF814D4918A8FEF792F8002800F042
:10218000BD814B4918A8FEF78BF8002800F08D821E
:10219000484918A8FEF784F8002800F0DD82464977
:1021A00018A8FEF77DF8002800F07083434918A8AE
:1021B000FEF776F8002800F02B84414918A8FEF7B6
:1021C0006FF8002800F063843E4918A8FEF768F80D
:1021D000002840F09B84FFF7C5F8002840F0828477
:1021E00002231C4642E705AA37492046FFF7C6FEF0
:1021F00010B901231C4639E706AA34492046FFF7E7
:10220000BDFE10B901231C4630E708AA304920461C
:10221000FFF7B4FE10B901231C4627E70AAA2D498F
:102220002046FFF7ABFE10B901231C461EE76422CF
:1022300017492046FFF7BDFE054640F6B83215495E
:102240002046FFF7B6FE80B201900095BDF8283019
:102250009DF82020BDF818109DF81400FFF757FED8
:10226000044603E758CD010810D3010884CD0108C6
:1022700014CE01081CCE010820CE010824CE01088E
:1022800084CE01085CCD01088CCD010890CE0108F8
:1022900034CE010840CE010850CE010854CE0108CA
:1022A00064CE010894CE010808CF010814CF0108BC
:1022B0007CCF010894CF0108B8CF0108F4CF010802
:1022C00014D001081CD301086CCE010878CE010897
:1022D00080CE01088CCE0108102314AA9D49204607
:1022E000FFF737FB002800F018849B4914A8FDF77E
:1022F000D7FF08BB994914A8FDF7D2FF18B3984936
:1023000014A8FDF7CDFF00284CD0964914A8FDF77E
:10231000C7FF002875D0944914A8FDF7C1FF002815
:1023200000F093808C4914A8FDF7BAFF002800F054
:10233000DB8001231C4699E6FFF714F80028D9D169
:1023400002231C4692E613AA88492046FFF716FE90
:1023500010B901231C4689E608AA85492046FFF7E3
:102360000DFE10B901231C4680E60AAA81492046C9
:10237000FFF704FE10B901231C4677E64FF47A728A
:102380007D492046FFF715FE044602F055F9234625
:10239000BDF82820BDF820109DF84C0001F09EFDEE
:1023A000044663E613AA71492046FFF7E7FD10B91A
:1023B00001231C465AE608AA70492046FFF7DEFDB5
:1023C00010B901231C4651E60AAA6D492046FFF7C1
:1023D000D5FD10B901231C4648E64FF47A726649D0
:1023E0002046FFF7E6FD044602F026F92346BDF835
:1023F0002820BDF820109DF84C0001F09FFD0446F8
:1024000034E608AA5D492046FFF7B8FD10B901235C
:102410001C462BE60AAA5A492046FFF7AFFD10B921
:1024200001231C4622E64FF47A7253492046FFF7F7
:10243000C0FD044602F000F92246BDF82810BDF8A0
:10244000200001F0BBFD044610E613AA47492046D0
:10245000FFF794FD10B901231C4607E604AA494979
:102460002046FFF78BFD10B901231C46FEE505AAA7
:1024700045492046FFF782FD10B901231C46F5E5CA
:1024800006AA3F492046FFF779FD10B901231C46F3
:10249000ECE508AA39492046FFF770FD10B9012381
:1024A0001C46E3E5202200210AA816F0F0FF0123D4
:1024B0008DF828308DF829309DF84C208DF82A2091
:1024C0000599049A01FB02F20E920F911093BDF848
:1024D0001830ADF84430BDF82030ADF846300AA8C9
:1024E00002F0C2F80446C1E5FFF7B4FC00231C4625
:1024F000BCE5FFF7AFFC00231C46B7E510230AAA92
:1025000022492046FFF725FA002800F0CB80204919
:102510000AA8FDF7C5FEA8B11E490AA8FDF7C0FE2E
:1025200000285ED01C490AA8FDF7BAFE002878D022
:102530001A490AA8FDF7B4FE002800F09D80012387
:102540001C4693E5164A39463046FEF71FFF012325
:102550001A4639E09CCE0108A4CE0108ACCE010891
:10256000C0CE0108E4CE0108F0CE010884CE0108F7
:102570008CCE010878CE0108B4CE0108C8CE01087F
:10258000D4CE0108F8CE010800CF010818CF010809
:1025900010D301081CCE01085CCF01081CD3010830
:1025A00020CF01089E4B1D461446104601F016FC34
:1025B000019000942B469B4A39463046FFF70BF8B2
:1025C00023460133DBB21A460D2A04D8012AE9D08A
:1025D000954B1D46E8E7954A39463046FEF7D6FE4C
:1025E0004AE5FEF7BFFE10B902231C463EE513AADA
:1025F0008F492046FFF7C2FC10B901231C4635E580
:1026000008AA8C492046FFF789F910B901231C4616
:102610002CE5BDF920109DF84C0001F09FFB04460D
:1026200024E5FEF79FFE10B902231C461EE513AAFF
:102630007F492046FFF7A2FC10B901231C4615E58F
:1026400006AA7D492046FFF799FC10B901231C46D4
:102650000CE508AA79492046FFF790FC10B9012340
:102660001C4603E5BDF82020BDF818109DF84C006D
:10267000FEF79CFF0446F9E4FEF774FE10B902234E
:102680001C46F3E413AA6A492046FFF777FC044688
:1026900028B19DF84C0001F081FB0446E6E401F00E
:1026A00083FBE3E401231C46E0E4102314AA6449FD
:1026B0002046FFF74EF9002800F03382614914A844
:1026C000FDF7EEFD38B1604914A8FDF7E9FD88B1CA
:1026D00001231C46CAE412AA5C492046FFF74EFCBF
:1026E00010B901231C46C1E4BDF84800FFF739FCCE
:1026F0000446BBE4FEF736FE10B902231C46B5E4DF
:1027000013AA4B492046FFF739FC10B901231C4698
:10271000ACE408AA4E492046FFF730FC10B901236B
:102720001C46A3E40AAA4B492046FFF727FC10B930
:1027300001231C469AE44FF47A7247492046FFF77A
:1027400038FC0346BDF82820BDF820109DF84C0049
:1027500001F0C4FB044689E410230AAA3F4920463D
:10276000FFF7F7F8002800F08D803D490AA8FDF733
:1027700097FD38B13B490AA8FDF792FD38B1012316
:102780001C4673E439463046FFF71CF974E40690A2
:10279000079003AA34492046FFF7F0FB10B9012344
:1027A0001C4663E404AA31492046FFF7E7FB0028F2
:1027B00064D0049B082B02D901231C4656E4002256
:1027C0002B492046FFF7F5FB804600231D46049B5E
:1027D0009D421AD22B46274A082108A816F0C2FCAF
:1027E00005AA08A92046FFF7C9FB58B1059BFF2B96
:1027F00008D805F170026A4402F8583C6B1CDBB241
:102800001D46E4E701231C4630E4039842469AB390
:102810000121DBB206AA02F005F9044626E400BF56
:1028200084C101083CCF010808CC0108C0C50108DB
:1028300084CE0108C8CE010864CF010870CF01081A
:102840009CCE010884CF01088CCF010890CE0108EE
:102850008CCE010878CE0108B4CE010818CF01084B
:1028600010D3010898CF0108A0CF0108A4CF010818
:10287000A8CF0108B4CF01084146CAE701231C468E
:10288000FFF7F4BB01231C46FFF7F0BB10230AAA95
:10289000A6492046FFF75DF8002800F0B580A4495E
:1028A0000AA8FDF7FDFCD0B1A2490AA8FDF7F8FC83
:1028B000D8B1A1490AA8FDF7F3FCE0B19F490AA8E5
:1028C000FDF7EEFC00286DD09D490AA8FDF7E8FC55
:1028D000002800F0918001231C46FFF7C7BB394652
:1028E0003046FFF7F9F8FFF7C7BBFEF7BFFB002341
:1028F0001C46FFF7BBBB082308AA92492046FFF7F6
:1029000028F808B3904908A8FDF7CAFC20B38F49FE
:1029100008A8FDF7C5FC38B38D4908A8FDF7C0FC31
:1029200060BB6FF060428B492046FFF742FB0546D3
:102930000123984606AA88492046FFF71FFB28BBBB
:1029400001231C46FFF792BB012318AA39463046E3
:10295000FEF7FCFEFFF790BBFEF7FEFB3946304664
:10296000FFF7BAF8FFF788BB40F2FF7279492046BB
:10297000FFF71FFB054600239846DBE7012318AA53
:1029800039463046FEF7E2FEFFF776BB2B46069A45
:1029900041460120FEF7ACFB39463046FFF79CF874
:1029A000FFF76ABB05AA6D492046FFF7E7FA18B999
:1029B00001231C46FFF75ABB06AA66492046FFF7CB
:1029C000DDFA0028F4D008AA65492046FFF7D6FAB8
:1029D0000028EDD00699FF29EAD8089AFF2AE7D8FF
:1029E000D2B2C9B29DF81400FEF7CAFB3946304690
:1029F000FFF772F8FFF740BBFEF7E6FB39463046BB
:102A0000FFF76AF8FFF738BB01231C46FFF72EBB20
:102A100010230AAA45492046FEF79BFF98B3444974
:102A20000AA8FDF73DFCC8B14E490AA8FDF738FCDD
:102A300020B14D490AA8FDF733FCA8B94FF448620C
:102A40004A492046FFF7B5FA1290FFF703FABDF89E
:102A50004800FEF725FC0446FFF708BB3946304620
:102A6000FEF752FEFFF708BB41490AA8FDF718FC24
:102A700018B101231C46FFF7F9BAFEF765FC0023E5
:102A80001C46FFF7F3BA01231C46FFF7EFBA1023E9
:102A90000AAA26492046FEF75CFF48B124490AA845
:102AA000FDF7FEFB40B133490AA8FDF7F9FB50B131
:102AB00001231C46FFF7DABA024639463046FFF7D3
:102AC00037F9FFF7D9BA4FF480322B492046FFF788
:102AD00070FA02F015F9024639463046FFF728F938
:102AE000FFF7CABAFFF7B6F913AA24492046FFF741
:102AF00045FA30B19DF84C0001F040F80446FFF76C
:102B0000B5BA01F07DF80446FFF7B0BA1C4A394661
:102B10003046FEF73BFCFFF7AFBA01231C46FFF738
:102B2000A5BA01231C46FFF7A1BA00BF18CF0108C0
:102B300010D301081CD30108BCCF0108D0CF010875
:102B4000E8CF01089CCE0108C4CF0108D4CA01080F
:102B5000D0CA0108C8CF0108A0CF0108D8CF01080A
:102B6000E0CF0108A4CE0108FCCF010890CE0108F7
:102B70000CD001087CCF01081CD0010884CE0108CC
:102B800024D0010830B589B004460023059303938F
:102B9000049305AB009306AB07AA1D4916F014FB7E
:102BA00001282DDD079BB3F5006F2CD2069B082B67
:102BB0002BD8059BE018002406E004F120026A44AB
:102BC00002F8143C0134E4B2069B9C4211D2FEF799
:102BD000E7FB054658B103784BB1102202A916F065
:102BE000CFF803460298A84201D0FF2BE5D9012077
:102BF00007E0DBB203AA0021079801F013FF00E011
:102C0000012009B030BD0120FBE70120F9E700BF3A
:102C10004CD0010810B586B004461A49FDF740FBB8
:102C2000D8B140F2FF73029302AB009303AB04AA46
:102C30001549204616F0C8FA044601281EDD13493E
:102C400004A8FDF72DFB88B1114904A8FDF728FB66
:102C5000B0B9022C05D0012109E0FEF77DFA002071
:102C60000AE06FF060430293012100E00146029BFD
:102C7000039A0120FEF73CFA06B010BD0120FBE7E5
:102C80000120F9E760D0010870D00108D4CA01081A
:102C9000D0CA010810B586B004461549FDF700FBFF
:102CA000A0B103AB009304AB05AA1249204616F06D
:102CB0008BFA032815D10598072814D80499FF2901
:102CC00013D8039AFF2A06D9012002E0FEF77CFA06
:102CD000002006B010BDD2B2C9B2C0B2FEF750FAA1
:102CE000F7E70120F5E70120F3E70120F1E700BF56
:102CF00088D0010898D0010870B58CB005460E4602
:102D000007A801F005FA04A801F050FD9DF81D4048
:102D10009DF81C0001F00EFA9DF81E30BDF82C2025
:102D200003920A9A02920193009023460A4A31467E
:102D30002846FEF750FC9DF810309DF811200699AA
:102D40000291059901910092044A31462846FEF706
:102D500042FC0CB070BD00BFACD00108E8D0010847
:102D600070B59CB004460E461546A249FDF798FA88
:102D700020B1A1492046FDF793FA28B929463046EB
:102D8000FEF716FB1CB070BD9C492046FDF788FA83
:102D9000C0B106229A49204616F08FFBB8B94FF40D
:102DA00048631A931AAA9749204616F00DFABDF8FF
:102DB0006800FFF7D6F80346914A29463046FEF7E9
:102DC00087FDDFE729463046FEF7D2FCDAE71AAB8B
:102DD0001BAA8D49204616F0F7F9022800F0D18091
:102DE00003228A49204616F068FB002800F0D680AE
:102DF00003228749204616F060FB002800F042813C
:102E000005228449204616F058FB002800F0668110
:102E100081492046FDF744FA002800F091817F495E
:102E20002046FDF73DFA002800F08F810A227C49F8
:102E3000204616F042FB002800F090810C227949D0
:102E4000204616F03AFB002800F0CF810E2276498A
:102E5000204616F032FB002800F0F6810A22734962
:102E6000204616F02AFB002800F0198270492046FF
:102E7000FDF716FA002800F0418208226D4920462D
:102E800016F01BFB002800F03E8209226A4920460A
:102E900016F013FB002800F07582092267492046CE
:102EA00016F00BFB002800F097820C2264492046A4
:102EB00016F003FB002800F0B4820A226149204684
:102EC00016F0FBFA002800F0C5825F492046FDF7A6
:102ED000E7F9002800F0EB8209225C49204616F051
:102EE000ECFA002800F0E88259492046FDF7D8F9AD
:102EF000002800F0EB8257492046FDF7D1F9002861
:102F000000F0E9820B225449204616F0D6FA002838
:102F100000F0EA8209225149204616F0CEFA002834
:102F200000F0F0824E492046FDF7BAF9002800F083
:102F3000F78209224B49204616F0BFFA38B10E221B
:102F40004949204616F0B9FA002840F0EE824FF4C5
:102F500048631A931AAA4549204616F035F91AAA69
:102F60004349204616F030F9FEF774FFBDF86800BB
:102F7000FEF796F903463F4A29463046FEF7A8FC7D
:102F800000E7BDF868109DF86C00FEF769FF034686
:102F9000394A29463046FEF79BFCF3E61B9041F286
:102FA000941319936423189340F6B833179317AB0F
:102FB000019318AB009319AB1BAA3049204616F0B9
:102FC00003F900280FDDBDF85C30189ABDF86410D5
:102FD0009DF86C00FEF753FF0346294A2946304608
:102FE000FEF776FCCEE60123254A29463046FEF759
:102FF0006FFCC7E684CD010824D1010810D3010875
:1030000014CE010828D1010834D1010840D10108AB
:1030100054D1010868D1010888D1010894D1010870
:10302000A0D10108D4D1010800D2010828D201089A
:103030004CD2010858D2010874D2010894D2010878
:10304000B0D20108D0D20108F4D2010800D301089F
:103050000CD3010818D3010824D3010830D3010888
:103060003CD3010848D3010854D3010864D30108B4
:1030700074D30108F4CF01081CCE010844D1010823
:1030800020CE01081B904FF47A7319936423189390
:1030900040F6B833179317AB019318AB009319ABF5
:1030A0001BAAAC49204616F08FF800280FDDBDF8AA
:1030B0005C30189ABDF864109DF86C00FEF703FFB1
:1030C0000346A54A29463046FEF702FC5AE601238C
:1030D000A14A29463046FEF7FBFB53E664231893CA
:1030E00040F6B833179317AB039318AB029308ABB2
:1030F000019307AB009306AB05AA9849204616F04A
:1031000063F8032815DDBDF85C300193189B00932C
:10311000BDF820309DF81C20BDF818109DF8140053
:10312000FEF7F5FE03468E4A29463046FEF7D0FBF1
:1031300028E601238A4A29463046FEF7C9FB21E6E4
:1031400029463046FFF7D8FD1CE6FEF783FE002334
:10315000844A29463046FEF7BBFB13E6FEF702F928
:10316000A0B114AB029313AB019307AB009306AB72
:103170001BAA7D49204616F027F805280DD001230B
:103180007A4A29463046FEF7A3FBFBE50223774A3D
:1031900029463046FEF79CFBF4E5202200210DEB8A
:1031A000020016F074F901238DF820308DF82130DB
:1031B0009DF86C208DF822200799069A01FB02F2F7
:1031C0000C920D910E93BDF84C30ADF83C30BDF82B
:1031D0005030ADF83E3008A801F046FA0346634A85
:1031E00029463046FEF774FBCCE5FEF7BBF890B1FC
:1031F00012AB019315AB009316AB1BAA5C4920469A
:1032000015F0E2FF04280DD00123564A2946304626
:10321000FEF75EFBB6E50223524A29463046FEF72A
:1032200057FBAFE501F008FA129BBDF85420BDF83A
:1032300058109DF86C0000F051FE0346494A29469B
:103240003046FEF745FB9DE5FEF78CF880B112ABEA
:10325000009313AB14AA4749204615F0B5FF032885
:103260000DD001233F4A29463046FEF731FB89E560
:1032700002233C4A29463046FEF72AFB82E501F04C
:10328000DBF9129ABDF84C10BDF8500000F096FE24
:103290000346344A29463046FEF71AFB72E5FEF72C
:1032A00061F890B112AB019313AB009314AB1BAA5E
:1032B0003149204615F088FF04280DD00123294A02
:1032C00029463046FEF704FB5CE50223254A2946E1
:1032D0003046FEF7FDFA55E501F0AEF9129BBDF858
:1032E0004C20BDF850109DF86C0000F027FE0346FE
:1032F0001C4A29463046FEF7EBFA43E5294630469C
:10330000FEF7A6FA3EE5FEF72DF870B111AB1BAA49
:103310001A49204615F058FF02280DD00123184AFB
:1033200029463046FEF7D4FA2CE50223144A2946F2
:103330003046FEF7CDFA25E5BDF944109DF86C0046
:1033400000F00CFD03460E4A29463046FEF7C0FA4F
:1033500018E500BF58D1010850CE010870D101080E
:1033600064CE010894CE0108B8D10108ACD101089F
:10337000E4D1010810D2010834D2010864D2010856
:1033800014CF0108FDF7EEFF80B110AB009319AB2D
:103390001BAA9E49204615F017FF03280DD00123D4
:1033A0009B4A29463046FEF793FAEBE40223984AFB
:1033B00029463046FEF78CFAE4E4BDF84020BDF81B
:1033C00064109DF86C00FEF7F1F80346904A294618
:1033D0003046FEF77DFAD5E4FDF7C4FF78B11BAAAD
:1033E0008C49204615F0F0FE01280FD000F0DCFCDF
:1033F0000023874A29463046FEF76AFAC2E40223D0
:10340000834A29463046FEF763FABBE49DF86C0018
:1034100000F0C4FC03467E4A29463046FEF758FABF
:10342000B0E41AAA7C49204615F0CEFE012806D049
:1034300001237A4A29463046FEF74AFAA2E4BDF84B
:103440006800FEF78EFD0346744A29463046FEF7B3
:103450003FFA97E4FDF786FF90B112AB019315ABED
:10346000009316AB1BAA6E49204615F0ADFE04284A
:103470000DD00123694A29463046FEF729FA81E436
:103480000223664A29463046FEF722FA7AE4129B66
:10349000BDF85420BDF858109DF86C0000F01EFDDA
:1034A00003465E4A29463046FEF712FA6AE4294688
:1034B0003046FEF7CDFA65E42046FFF763FB03468E
:1034C000584A29463046FEF703FA5BE4294630465F
:1034D000FEF792FB56E4FDF7C9FD0023524A294648
:1034E0003046FEF7F5F94DE42046FFF793FB03461F
:1034F0004D4A29463046FEF7EBF929463046FEF79D
:103500007BFB3FE42046FFF7C5FB0346464A2946BE
:103510003046FEF7DDF929463046FEF76DFB31E413
:1035200029463046FEF7B2F92CE440492046FCF724
:10353000B7FED8B13E492046FCF7B2FEF8B10922E9
:103540003C49204615F0B9FFF8B105223A4920461A
:1035500015F0B3FF80B32378002B3FF413AC234660
:10356000364A29463046FEF736F80BE4FDF7ECFE06
:103570000023334A29463046FEF7AAF902E42946D9
:103580003046FEF727FCFFF7FDBB4FF4803308936E
:1035900008AA2C49204615F017FE089801F0B0FB48
:1035A0000346294A29463046FEF792F92946304615
:1035B000FEF710FCFFF7E6BBFDF7D4FE90B1FEF777
:1035C00049FC1BAA2149204615F0FEFD012811D017
:1035D00000F016FB0346184A29463046FEF778F9F4
:1035E000FFF7D0BB0223144A29463046FEF770F994
:1035F000FFF7C8BB9DF86C0000F0C0FA03460E4A06
:1036000029463046FEF764F9FFF7BCBB80D20108BB
:1036100014CF0108A0D20108C0D201087CCF010854
:10362000DCD2010894CF0108B8CF010888D3010883
:1036300098D30108A4D301081CD30108C0D3010802
:10364000F4CF0108B0D3010814D00108A4D20108B6
:1036500038B50C461546FDF7A3FE30B102787B2A3B
:1036600004D02A462146FFF77BFB38BD2A46214677
:10367000FEF7A8FCF9E7000008B50146014815F07F
:103680004DFC08BD14C9010808B5034B00221A807F
:10369000024815F0ABFC08BD5C030020D4D3010840
:1036A00030B583B0002403E0184B1B88D3B9013434
:1036B0001F2C28D8002301220DF10701144808F01F
:1036C0000FFB00BB9DF807300A2B18BF0D2BEBD06A
:1036D0000E4A12889E2A0FD8501C0C4908800D49AA
:1036E0008B54E4E70B480025C5542A460A49FFF7E6
:1036F000AFFF064B1D80DAE7044B00221A80074813
:1037000015F074FCD3E703B030BD00BF5C030020AC
:1037100040020020600300207936000810D4010820
:1037200089B130B583B00C685CB1054648B1FCF78F
:10373000C1FD0246002300930123294620460CF0D8
:10374000BBF903B030BD704700B583B00B460190A4
:1037500001AA03491846FFF77BFF03B000BD00BF75
:1037600021370008F0B5C7B00646002500950123B3
:10377000552220490CF0A0F934E095B90134A4B2E7
:10378000BDF80E30A3421DD9049B1B5D0A2B18BF48
:103790000D2BF2D0FE2D0CD86A1C05A94B5595B205
:1037A000ECE705A900274F553046FFF7CDFF3D4612
:1037B000E4E700250095012326220F4930460CF04E
:1037C0007BF9DBE745980DF0D4FA002807DB0DF113
:1037D0000E0204A945980DF0B3FA0024D0E74598ED
:1037E0000DF09EFA45A930460CF090FA0028EED074
:1037F00047B0F0BD28D4010880D4010810B582B0CC
:103800000022114610200CF03FF888B1044641F226
:10381000883223490CF0B6F8024670B141F2883183
:10382000204815F07BFB20460CF09CF80AF04CFD7C
:103830001D4815F0DBFB0AF047FDFF2120460CF088
:10384000B9F8014638B1194815F068FB20460CF06C
:1038500089F80AF039FD41F28831154815F05EFB10
:1038600002E064200AF035FD0023019301A92046FF
:103870000CF043F90028F4D1019B002BF1D00D4846
:1038800015F0B4FB0198FFF76DFF01980CF020F9DB
:1038900001980CF067F8084815F0A8FBE4E700BFB2
:1038A000ECFC0108C4D40108A8D40108E4D4010840
:1038B00004D5010830D5010848D5010808B5064BE4
:1038C0001B6803B108BD054A194605480AF09BFC70
:1038D000014B1860F6E700BF00040020DCFA010885
:1038E000FD3700080138C0B20C2801D8012070470C
:1038F00000207047A0F5FA7080B241F2941398420C
:1039000001D8012070470020704700000138094BA2
:1039100033F910301944B1F5FA7F05D341F28833F9
:10392000994204D888B270474FF4FA70704741F258
:10393000883070474C05002001380B494FEA001CC5
:1039400001EB0012002301F80C3053809380936048
:103950009381064A42F82030054A42F820304FF061
:103960000002044B1A5470477C04002048040020D5
:103970001404002004040020884210D009D9431AFE
:10398000002A18BF934209D9884204D3821A90B200
:1039900070470B1AF4E7104480B27047084670472E
:1039A00041F28733984209D8C0EB004000F6C410BA
:1039B000044BA3FB0030C0F30F3070474FF6FF708D
:1039C000704700BF5917B7D1F8B504460E461546E3
:1039D000FFF788FFE8B13046FFF78CFF10B90123ED
:1039E0001F4618E031462046FFF790FFFFF7D8FF4B
:1039F0000146631ED8B201F049FB074658B9601E64
:103A0000064B23F810600DB92F4604E001F0C4FA0C
:103A100001E001231F463846F8BD00BF68050020BD
:103A200038B505460122FFF7CFFF044608B120460E
:103A300038BD2846FFF780FFF9E738B50546FFF7A0
:103A400059FFA0B101240D2C0CD800222946204694
:103A5000FFF7BAFF034640B92046FFF76DFF013478
:103A6000E4B2F0E701F098FA0023184638BD0123CC
:103A7000FBE708B5FFF7E1FF08BD00002DE9F84FAF
:103A8000054682460C460F4616469846BDF8283035
:103A90009946FFF727FF002849D02046FFF72AFF65
:103AA000002849D06C1E2301264AD35C7BB9264BE3
:103AB00033F8143035461E46BB4228BF012D3ED098
:103AC000BB4298BF022D07D101231D4631E01D4B9B
:103AD00003EB04139B88EDE705F0E4F883461949EE
:103AE000220101EB04138D545F809E80C3F808808F
:103AF0004946A3F80C90154B43F824000023144AC0
:103B000042F82430134A135511B100231D4610E02A
:103B1000012239465046FFF757FF054618B90C4BAE
:103B200043F824B005E05046FFF706FF01E001230B
:103B30001D462846BDE8F88F01231D46F9E70123FD
:103B40001D46F6E77C04002068050020480400209C
:103B5000140400200404002000B583B00093134631
:103B60000122FFF78BFF03B000BD00B583B00093C7
:103B700013460222FFF782FF03B000BD38B50446AA
:103B80000546FFF7AFFE88B12046631E1A010949BA
:103B90008C5C64B101EB031301229988FFF714FFD9
:103BA000044620B92846FFF7C7FE00E0012420465E
:103BB00038BD00BF7C0400202DE9F0411D46BDF852
:103BC0001C30904218BFA94204D801231F46384632
:103BD000BDE8F081804614461E46069AFFF7BCFFFA
:103BE00007460028F3D13346069A29462046FFF7B8
:103BF000BCFF07460028EAD04046FFF7BFFFE6E7D4
:103C000010B501240D2C07D82046FFF7B7FF034657
:103C100018B90134E4B2F5E70023184610BD0000DE
:103C20002DE9F0410646012500271CE0464901EB3D
:103C30000411498833E01A463EE0444B43F82460BF
:103C4000434B1B5D2BB9404A02EB0412528842459C
:103C500048D02BB13C4B03EB04139B8843454AD01F
:103C600001270135EDB20D2D68D86C1EE4B2230199
:103C7000354AD35C002BF4D0344B53F8243013B9BD
:103C8000324B43F82460314B53F82420B21A304BA6
:103C90001B5D002BCAD02C4901EB041189882D48EB
:103CA00030F8140088422AD0274B03EB04139B8979
:103CB000002BC0D003FB02F20BB1002AD1D041F29D
:103CC00088339A4200D91A46FFF756FE80460022F2
:103CD00001462846FFF778FE07460028ADD0384653
:103CE000BDE8F0811C4A52F82420002AB1D11A4ABA
:103CF00042F82460ADE72846FFF71EFEB0E7134AFE
:103D000042F82460B3B9144B53F8243013B9124B62
:103D100043F824600C4B03EB04139B68002BA0D0EA
:103D20000D4A52F82420B21A93429AD8084B012225
:103D30001A5596E72846FFF7FFFD92E7002FCED0F1
:103D400001F02AF90027CAE77C040020480400207B
:103D500004040020680500201404002038B505463E
:103D60000C46FFF7BFFD98B104F5FA739BB2B3F5AB
:103D70007A7F01D901200CE028466B1E054A22F803
:103D800013400122044931F81310FFF71DFE00E033
:103D9000012038BD4C0500206805002008B5002131
:103DA000FFF7DCFF08BD000010B501240CE0631E26
:103DB0000022084921F81320074931F81310204642
:103DC000FFF702FE0134E4B20D2CF0D901F0E4F863
:103DD00010BD00BF4C0500206805002010B504464A
:103DE000FFF780FD18B1601E014B33F9100010BDC4
:103DF0004C05002010B50446FFF774FD18B1601E95
:103E0000014B33F8100010BD6805002030B585B0B7
:103E100004460D4600230093019302930393084642
:103E2000FFF760FD48B1691E064B03EB01130FCB92
:103E300084E80F00204605B030BD20606060A060BF
:103E4000E060F7E77C0400200023184601E001331E
:103E5000DBB20C2B07D81A0103498A5C002AF6D082
:103E60000130C0B2F3E770477C040020012803D082
:103E7000022803D102487047024870470248704741
:103E8000F0BE0108ECBE0108FCBE01080138C0B25A
:103E90000C2801D80120704700207047A0F5FA7067
:103EA00080B241F29413984201D80120704700205B
:103EB0007047000008B504F0F5FE054B18600020BF
:103EC000044B1880044B01225A70188208BD00BFB1
:103ED000840500208205002088050020F8B50746EB
:103EE0000C4615461E46FFF7D1FFE0B12046FFF70E
:103EF000D5FFD0B12846FFF7D1FFC0B1012E8CBF4E
:103F0000002301232046AC4213D293B90A4B01226D
:103F10001A709F709880DD8000221A815A81DE60BD
:103F2000FFF7C8FF00E00120F8BD0120FCE70120F9
:103F3000FAE70120F8E700BF880500202DE9F843E3
:103F40000C4615469946914229D98B1A984666190E
:103F50000746FFF79BFF28B32046FFF79FFF20B3DC
:103F6000B8F5FA7F2CBF0022012205B3FAB9494601
:103F700001298CBF0022012241F288339E4218D8C9
:103F8000BAB90D4B02221A709F7000229A80DA8013
:103F90001C815D81C3F80C90FFF78CFF03E00023C8
:103FA0009846D4E70120BDE8F8830120FBE7012013
:103FB000F9E70120F7E700BF880500202DE9F0416F
:103FC00004460D469046884226D9431A1F46661974
:103FD0002046FFF763FF10B33B46B7F5FA7F2CBFCF
:103FE00000230123F5B1EBB9414601298CBF002222
:103FF000012241F288339E4216D8AAB90B4B032204
:104000001A7000229A709A80DA801C815D81C3F850
:104010000C80FFF74FFF03E000231F46D7E7012086
:10402000BDE8F0810120FBE70120F9E788050020C9
:10403000024B00225A701A70704700BF880500209A
:1040400003462E4A5078002856D010B52C4A1068E6
:10405000181A2A4AD368B0FBF3F103FB1100127857
:10406000012A2DD0911EC9B2012941D88001B0FB8F
:10407000F3F0DFF888C0BCF80A30224931F910109B
:1040800001FB03F3204981FB03011944DB17C3EB58
:10409000A133BCF8081011FA83F39BB21C461B4BEA
:1040A0001B882146A34225D0032A14D0134B9878AD
:1040B000FFF7B6FCC0B9154B1C80104B1C8210BD1D
:1040C000B0EB530F03D20D4B9B881C46E7E70B4B1D
:1040D000DB881C46E3E72046FFF7AFFC0028EAD068
:1040E000FFF7A6FF0120EAE7FFF7A2FF0120E6E7BE
:1040F0000020E4E70020E2E7704700BF88050020C9
:104100008405002000FB01080300018082050020D7
:1041100010B504468446DFF818E0BEE80F00ACE8AE
:104120000F00DEF80030CCF80030204610BD00BF94
:1041300088050020022805D0032805D0012805D1D4
:104140000348704703487047034870470348704767
:10415000ACCE0108C0CE0108E4CE01086CD5010840
:104160000346002918BF00281AD00E4A526912F4DB
:10417000803F15D020F01F020B441F3323F01F0394
:104180009B1A002B0CDDBFF34F8F0649C1F8682244
:104190002032203B002BF8DCBFF34F8FBFF36F8F33
:1041A000704700BF00ED00E0034668B30269F2B15A
:1041B0004269F2B1B2F5806F1DD8407820B30D2866
:1041C0001BD8998BD9B100FB02F2013AB2F5006F0E
:1041D00017D20021884208D95A189278013AD2B2EF
:1041E0000C2A10D80131C9B2F4E7012070471046FB
:1041F00070471046704700207047002070470846FF
:10420000704700207047002070470F3000F03F00DB
:1042100041EA004070470000044B01225A705A687E
:104220000349096802EB51025A607047C805002033
:10423000A4050020054B00225A705A6804490968F9
:10424000013102EB51025A60704700BFC8050020DF
:10425000A405002008B501F015FE034BDB6913F03F
:10426000700F00D0400008BD0044025808B901207A
:10427000704738B50446FFF7EDFF054684423BD84A
:10428000230C2204801843F10001013841F1FF3171
:10429000FCF76EF8024618B1421EB2F5803F2DD2EF
:1042A00002FB0443B5FBF3F3013BB3F5803F27D298
:1042B00015490868D0F820C014490CEA010151B929
:1042C000D0F820C040F244411CEA010F03D101683C
:1042D00021F0010101600C4801688A62CB62C36071
:1042E00000234B62012106F029FE58B9064B1B68DA
:1042F0006FF001021A6100E0012038BD0120FCE7E7
:104300000120FAE70120F8E7F40100201111110063
:1043100008B5002000F026FE002301E000BF0133B5
:104320000F2BFBD9012000F01DFE08BD70B506461D
:104330000D46134C204603F007FE204603F0BCFB5D
:10434000104B236066604023A3600023E3604FF4BA
:10435000806222614FF4805262614FF48042A26118
:10436000E5614FF4003222626362204603F0D6F921
:1043700018B9054A9467A26370BD0120FCE700BF2D
:10438000F4000020580002406C01002038B5364B84
:104390005C78012C02D00124204638BD4FF4807196
:1043A0001B20FFF7C3FF0028F6D1304B304A1364BF
:1043B000304BD363304BD3641065304D296889008E
:1043C0004FF0C040FFF7CCFE2D4A11680B6823F474
:1043D00000730B601368996821F400419960596873
:1043E0006FF30F015960196841F0010119601268FB
:1043F0002B6820324FF0C0411D4803F047FC0028D5
:10440000CAD100F0AFFD002210211E4802F041FF8A
:104410001B4B1A68136843F4007313601A48026850
:10442000D36843F48073D36006F0CEFC20B9174AFA
:10443000022111700446AFE7134B1A68D36823F4C6
:104440008073D3600A4803F07FFD012210210D48DC
:1044500002F01FFF012000F085FD094B1A68136868
:1044600023F40073136097E7A805002019420008A1
:10447000F40000203542000879480008A405002017
:104480006C01002000000258F40100209C0500206F
:1044900008B500212620FFF749FF08B1012008BD1B
:1044A000034B01221A70034806F0E6FCF7E700BF51
:1044B0009C050020F401002010B5194C204606F0A0
:1044C00023FD204606F0C2FC2268D36823F48073E3
:1044D000D360144B1B78022B14D0134806F0A4FAB7
:1044E00001221021114802F0D4FE012000F03AFD13
:1044F00000240F4B1C7021462620FFF717FF094BA5
:104500001C7010BD0B4803F01FFD074B1B689A6819
:1045100022F400429A601A6822F400721A60DFE7FF
:10452000F40100209C0500206C01002000000258CE
:104530009D050020F400002010B5094B00241C60EC
:104540005C609C6020222146064814F0A0FF064BC8
:104550001C60064B1C60064B1C70064B1C7010BD8B
:10456000C8050020A8050020A4050020A005002003
:104570009D0500209C050020002918BF002848D078
:1045800070B52DED068B0AEE102A0AEE903A06461B
:104590000D46B1F5806F3ED800240BE09FED207BE7
:1045A000BCEEC77B17EE103A98B2FFF7F9F926F880
:1045B00014000134AC4228D207EE904AB8EE677B73
:1045C0009FED196B27EE067B06EE905AB8EE660B50
:1045D000B8EE6A8BB8EE4A9B87EE000B16F0BCFA79
:1045E000B0EE487B09EE007B9FED0D6BB4EEC67B11
:1045F000F1EE10FAD2D49FED0E6BB4EEC67BF1EE65
:1046000010FACDDD9FED0A7BCAE70020BDEC068BDA
:1046100070BD012070470120F8E700BFAFF30080B4
:104620000000000000407F40182D4454FB21194039
:10463000000000000088B34008B5084B1B7803B9A0
:1046400008BDFFF739FF0022054B1A70034B1A70A3
:104650009A685968034814F061FCF1E7C805002026
:10466000A805002074D501082DE9F041ADF6080D2C
:1046700000287ED0064683690BB90123836130464A
:10468000FFF792FD002876D03F4B1B7863B9FFF708
:10469000CFFCF38BB28B716902A8FFF76DFF8046E8
:1046A00000286ED1074615E0FFF7C6FFEFE707FBCE
:1046B0000354A40004F1C044731902AA32F817107D
:1046C0009878FFF7A2FD20600135EDB27378AB4218
:1046D000EDD801377369BB4201D94546F6E7306929
:1046E000FFF7C4FD044608B1012445E0274F3D46CD
:1046F00030687168B268F3680FC530697169B26972
:10470000F3690FC5012139707A69214B1A600023C2
:10471000204A1360204A13701B4A11705370536073
:1047200093607B788B4213D0FFF7B2FE003818BF3E
:10473000012098B9154B19695A695B7817480078B8
:10474000022814D016480090164814F0E7FB13E036
:10475000FFF71CFE003818BF0120EAE7FFF7ACFEA8
:1047600000230A4A1370084A1370012404E00E481B
:10477000E9E7012400E0012420460DF6080DBDE81C
:10478000F0810124F8E700BFC8050020A80500203B
:10479000A4050020A00500209D0500209C05002008
:1047A000ACD50108B4D50108A4D501080346034AD5
:1047B00007CA83E807001846704700BFC8050020F5
:1047C00038B51D4B1B7853B11C4B1B78012B06D100
:1047D0001B4B1B7823B1184A93680133936038BD93
:1047E000184C6178184B1B6803FB01F31D4600222F
:1047F0001021164802F04DFDA900627801F1C04178
:10480000134806F033F868B90D4B01221A700E4AAE
:104810001368013313600F4A12689342DFD30A4BC7
:104820001860DCE701221021084802F032FD024A3C
:10483000936801339360D2E7C80500209C050020EF
:104840009D050020A8050020A005002000000258BA
:104850006C010020A405002010B5054CA3680133AD
:10486000A360FFF729FE0023024A1370237010BDD6
:10487000C8050020A805002008B5FFF7EDFF08BD1A
:1048800008B502680D4B9A4200D008BD0C4B1B784E
:10489000002BFAD00B4B1B78012BF6D101221021F3
:1048A000094802F0F6FCFFF733FD084B00221A70AE
:1048B000034A536801335360E7E700BF003001400B
:1048C000C80500209C050020000002589D0500201E
:1048D00008B50268034B9A4200D008BDFFF7BCFF41
:1048E000FBE700BF003001407047042811D009D811
:1048F000022810D003D8C8B101280ED17047032870
:104900000DD1704706280CD007280CD005280CD1F3
:104910007047042070470220704708207047082025
:10492000704706207047072070470820704704280A
:1049300011D009D8022810D003D8C8B101280ED14F
:10494000704703280DD1704706280CD007280CD0DB
:1049500005280CD1704704207047022070470820BA
:1049600070470820704706207047072070470820CE
:104970007047000010B58AB002AC2022002120460A
:1049800014F085FD022304930123059321460F486B
:1049900013F0BCFE10B101200AB010BD4FF08043EF
:1049A00002930390069007902146084813F0AEFE4C
:1049B00008B10120F0E701230093024601460348B5
:1049C00013F0E8FE0028E7D00120E5E7DC820020B4
:1049D00010B524220021104814F059FDFFF7CAFF3A
:1049E00038B10D4AD3680133D36001231C462046F9
:1049F00010BD0A4813F0E7FE044630B1064AD368FA
:104A00000133D36001231C46F1E7034B01221A70E6
:104A1000034814F0EBFAEAE7D4050020DC8200201A
:104A2000F0D50108F0B58DB006460F4615461C4678
:104A30002422002103A814F02AFD002301930293ED
:104A4000234B1B785BB3082C29D8231E18BF0123E6
:104A5000002D18BF002313BBB6F5006F28BF002F31
:104A600024D03B1E18BF0123B6F1005F38BF0023DE
:104A7000E3B90CBB03963B460FB14FF08043049360
:104A80002046FFF732FF069001AA03A9114813F050
:104A9000B3FEB8B90E4A53680133536004E00C4AC0
:104AA000D3680133D36001200DB0F0BD084AD3684C
:104AB0000133D3600120F7E72246294601A814F00C
:104AC00098FDD7E7024AD3680133D3600120EBE7B2
:104AD000D4050020DC820020414B1B78002B7DD0C8
:104AE0002DE9F04192B024E03D4AD3680133D36010
:104AF00012B0BDE8F0814FF001084AE0394967E0A3
:104B0000394A3A4814F00AFA0134E4B2AC4209D204
:104B100004F148036B4413F8441C631C9D42EFD01E
:104B2000334AEEE7334814F061FA2D4B1B78002B23
:104B3000DED04021304813F099FF0028D8D008ACCF
:104B400028220021204614F0A2FC01AB0022019291
:104B50005A600392049205920692079222464021DF
:104B6000254813F083FE04460028BDD10B98FFF7BB
:104B7000DEFE05461A4FBB680133BB60089B3B61F4
:104B800004F090F806467861099BB3F1804FB2D0EB
:104B9000A046134880F81880457601AF2A4639466A
:104BA0001A3014F026FD089B039304968DF81480A8
:104BB0008DF815502A4639460DF1160014F019FDEE
:104BC00003A8FCF71BFB099BB3F1804F96D00B4960
:104BD0002B46089A0A4814F0A1F997E7704700BFDE
:104BE000D4050020D0CA010884C1010810C90108F9
:104BF00038D30108B4D70108DC820020D4CA0108E8
:104C000030D6010810B504468446DFF820E0BEE83F
:104C10000F00ACE80F00BEE80F00ACE80F00DEF8B4
:104C20000030CCF80030204610BD00BFD405002075
:104C300000F140504000054B586119845A8401220C
:104C400083F82420DA690132DA617047F805002020
:104C500008B58446002304E05A0002F1C0421180E6
:104C600001336345F8D3BFF34F8F002000E00130DC
:104C700060450AD2430003F1C0431A8892B28A42C7
:104C8000F5D0FFF7D5FF012000E0002008BD08B5F2
:104C90008446002208E0510001F1C0414AF2A553C8
:104CA00053409BB20B8001326245F4D3BFF34F8F68
:104CB000002000E0013060450ED283B24AF2A551D7
:104CC0005940430003F1C0431A8892B29142F1D097
:104CD000FFF7AEFF012000E0002008BD10B5074C33
:104CE00028220021204614F0D2FB4FF0C04323605D
:104CF0004FF4801363601023237210BDF805002069
:104D000070B530B10346B0F5801F04D94FF480145C
:104D100004E04FF4803333F001042AD0184DEC60E6
:104D200003F0C0FF286100236B612B846B84022396
:104D300085F8243064082046FFF7A9FF0646D8B955
:104D4000054600E00135032D0AD80E4B33F8151047
:104D50002046FFF77DFF0028F4D001231E4606E021
:104D6000074B002283F824209A6901329A61304669
:104D700070BD01231E46FAE701231E46F7E700BF78
:104D8000F805002080FB010810B504468446DFF8D2
:104D900020E0BEE80F00ACE80F00BEE80F00ACE872
:104DA0000F009EE803008CE80300204610BD00BF02
:104DB000F8050020022809D004D848B1012809D1FB
:104DC00006487047032807D10548704705487047D3
:104DD000054870470548704704487047ECC701080C
:104DE0005CD6010854D60108D4DC010864D6010859
:104DF0000B4B1B6803B1704710B509F0BFF90446AF
:104E0000074B1B681BB1204609F0CDF910BD1846B1
:104E100009F06FFA024B1860BFF34F8FF3E700BF42
:104E20002006002008B509F073F9022801D00020FF
:104E300008BDFFF7DDFF054B186828B1044B196862
:104E400009F0A7FA0028F3D00320F1E7200600209C
:104E50000000002008B509F05BF9022800D008BD69
:104E6000034B18680028FAD009F0C4FAF7E700BF2E
:104E70002006002070B5002918BF002803D10123A7
:104E80001E46304670BD05460C46FFF7CBFF064672
:104E90000028F6D102461021094802F0FAF9094B20
:104EA0001B6822462946084805F038F906460122C3
:104EB0001021034802F0EDF9FFF7CCFFE1E700BF56
:104EC00000000258000000206C010020F0B583B003
:104ED000002918BF002821D0144606460D4612B9F5
:104EE00001231F461CE0FFF79DFF0746C0B902469D
:104EF00010210D4802F0CDF90C4B1B68009323469E
:104F00002A4631460A4805F069FA0746012210216F
:104F1000054802F0BEF9FFF79DFF01E001231F469F
:104F2000384603B0F0BD00BF00000258000000206A
:104F30006C01002008B502460821024802F0A9F9D8
:104F400008BD00BF000C025808B50020FFF7F2FFB3
:104F50000A2003F0ADFE0120FFF7ECFF0A2003F06A
:104F6000A7FE08BD08B502464021024802F091F9AB
:104F700008BD00BF000C025808B5012210210548E9
:104F800002F087F90120FFF7D5FF0120FFF7EAFFC4
:104F900008BD00BF0000025808B50020FFF7E2FF7F
:104FA000012003F085FE0120FFF7DCFF08BD0000B3
:104FB00008B50421034802F065F9012800D000205B
:104FC00008BD00BF000C02580A2809D809280FD2D2
:104FD00002280FD9042801D0002070470120704713
:104FE0000C2809D00E2801D00020704701207047FE
:104FF00001207047012070470120704700F00F002A
:1050000040EA001343EA002343EA0030704700F00F
:10501000C00001F03F01084342EA00407047000031
:1050200000B583B03F280BD9C020FFF7F0FF0190F7
:10503000012101A8FFF71EFF024B187003B000BD4D
:105040000020F2E72406002000B585B0002300937D
:1050500001933F2800D8C0200022FFF7D8FF02901C
:10506000002211461046FFF7D2FF03900222694644
:1050700002A8FFF72BFF044B187018B9BDF8040005
:1050800005B000BD0020FBE72406002008B50F286E
:1050900003D90120054B187008BD10300A46C1B273
:1050A0000020FFF7BDFF014B1870F5E72406002034
:1050B00010B504460421C020FFF7C6FF0246094B85
:1050C000187848B94CB122F4804292B204210020F1
:1050D000FFF7A6FF034B187010BD42F4804292B256
:1050E000F4E700BF2406002038B50446FFF76CFF44
:1050F00098B12046FFF782FF05460024032C10D804
:1051000004F10A012A46C9B20020FFF789FF064BC5
:10511000187040B90134E4B2F0E70120024B187076
:1051200001E0014B187838BD2406002008B50020A6
:10513000FFF7DAFF08BD000008B50246092100208C
:10514000FFF76EFF014B187008BD00BF240600205A
:1051500008B5FFF711FFFFF7F7FE40F684220321A1
:105160000020FFF75DFF0C4B187000B108BD012057
:10517000FFF79EFF084B18700028F7D1012003F0BD
:1051800097FDFFF7D3FF044B18700028EED1FFF70F
:10519000D3FF014B1870E9E724060020002807DB45
:1051A00000F01F02400901239340024A42F82030D8
:1051B000704700BF00E100E0002804DB0901C9B22C
:1051C000044B1954704700F00F000901C9B2024B9B
:1051D0001954704700E400E014ED00E000B500F061
:1051E0000700A0F1030CBCF1040F07D8C0F1070EB3
:1051F0000430062806D84FF0000C03E04FF0040EF0
:105200004FF0000C4FF0FF3303FA0EF021EA0001DB
:1052100001FA0CF103FA0CF322EA030241EA02005C
:1052200000BD00000649CB6823F4E0631B041B0C9F
:10523000000200F4E0600343024A1A43CA60704768
:1052400000ED00E00000FA0510B50446054BD868F3
:10525000C0F30220FFF7C2FF01462046FFF7ACFF74
:1052600010BD00BF00ED00E008B5FFF797FF08BDD7
:10527000BFF35F8F044B5A6A22F480325A620022D5
:10528000C3F89420704700BF00ED00E040F001003B
:10529000054BC3F894005A6A42F480325A62BFF355
:1052A0004F8FBFF36F8F704700ED00E04378144AD3
:1052B000C2F89830D2F8A03023F00103C2F8A03031
:1052C0004368C2F89C30017BC37A1B0643EA017332
:1052D000817A43EAC143417B43EA8143817B43EACC
:1052E0004143C17B43EA0143417A43EA0123017A06
:1052F00043EA410301780B43C2F8A030704700BF76
:1053000000ED00E0002800F03A8338B50446036859
:1053100013F0010F25D0944A136903F03803926A01
:10532000102B15D0182B0FD06368B3F5803F3FD0FA
:10533000002B53D18C4B1A6822F480321A601A6801
:1053400022F480221A6038E002F00302022AEBD134
:10535000854B1B6813F4003F03D06368002B00F0FB
:105360001083236813F0020F00F0A1807E4A1369B6
:10537000926A13F038035AD0182B55D0E368002BEB
:1053800000F0DE8078490A6822F0190213430B60AE
:1053900003F088FC0546744B1B6813F0040F40F0C3
:1053A000AD8003F07FFC401B0228F4D90320EFE21C
:1053B0006D4A136843F48033136063682BB303F0C2
:1053C00071FC0546684B1B6813F4003FC9D103F01C
:1053D00069FC401B6428F5D90320D9E2B3F5A02F5E
:1053E00009D0614B1A6822F480321A601A6822F4DC
:1053F00080221A60E1E75C4B1A6842F480221A604E
:105400001A6842F480321A60D7E703F04BFC054675
:10541000554B1B6813F4003FA3D003F043FC401B23
:105420006428F5D90320B3E212F0030FA6D14E4B46
:105430001B6813F0040F03D0E368002B00F0A38275
:10544000494A136823F01903E1680B43136003F022
:1054500029FC0546444B1B6813F0040F06D103F0EA
:1054600021FC401B0228F5D9032091E203F034FC13
:1054700041F20303984212D82269402A07D03A49E0
:105480004B6823F47C3343EA02334B600FE0364A27
:10549000536823F47C3343F40033536007E0324A0B
:1054A000536823F0FE43216943EA01635360236894
:1054B00013F0100F00F088802B4A136903F03803B3
:1054C000926A082B56D0182B50D0E369002B00F0BD
:1054D000B880254A136843F08003136003F0E2FBB1
:1054E0000546214B1B6813F4807F40F0888003F051
:1054F000D9FB401B0228F4D9032049E203F0ECFB5E
:1055000041F20303984212D82269402A07D0164973
:105510004B6823F47C3343EA02334B60C7E7124AFB
:10552000536823F47C3343F400335360BFE70E4ADF
:10553000536823F0FE43216943EA01635360B6E7F1
:10554000094A136823F00103136003F0ABFB05461F
:10555000054B1B6813F0040FA9D003F0A3FB401BFD
:105560000228F5D9032013E20044025802F0030296
:10557000012AAAD1994B1B6813F4807F03D0E369F9
:10558000802B40F0028203F0A7FB41F20303984214
:1055900012D8226A202A07D090494B6823F0F8439A
:1055A00043EA82634B600FE08C4A536823F0F84370
:1055B00043F08043536007E0884AD36823F07C536C
:1055C000216A43EA0163D360236813F0080F60D0B7
:1055D0006369002B49D0814A536F43F0010353673D
:1055E00003F060FB05467D4B5B6F13F0020F50D15B
:1055F00003F058FB401B0228F5D90320C8E103F053
:105600006BFB41F20303984212D8226A202A07D08A
:1056100072494B6823F0F84343EA82634B60D3E757
:105620006E4A536823F0F84343F080435360CBE75E
:105630006A4AD36823F07C53216A43EA0163D3604A
:10564000C2E7664A136823F08003136003F02AFB65
:105650000546624B1B6813F4807FB5D003F022FB34
:10566000401B0228F5D9032092E15C4A536F23F0D6
:105670000103536703F016FB0546584B5B6F13F0AD
:10568000020F06D003F00EFB401B0228F5D90320C1
:105690007EE1236813F0200F29D0A3699BB14F4A04
:1056A000136843F48053136003F0FCFA05464B4B38
:1056B0001B6813F4005F1AD103F0F4FA401B0228B0
:1056C000F5D9032064E1454A136823F4805313603D
:1056D00003F0E8FA0546414B1B6813F4005F06D05F
:1056E00003F0E0FA401B0228F5D9032050E12368BB
:1056F00013F0040F21D1636A002B00F04881374A70
:10570000126902F03802182A00F0EF80022B7AD0DA
:10571000324A136823F08073136003F0C3FA04461F
:105720002E4B1B6813F0007F00F0DD8003F0BAFA07
:10573000001B0228F4D903202AE1294A136843F404
:105740008073136003F0AEFA0546254B1B6813F413
:10575000807F06D103F0A6FA401B6428F5D9032008
:1057600016E1A368012B0AD00BBB1C4B1A6F22F069
:1057700001021A671A6F22F004021A6704E0174A3E
:10578000136F43F001031367A3685BB303F08AFA56
:105790000546124B1B6F13F0020FACD103F082FAD7
:1057A000401B41F288339842F3D90320F0E0052BE7
:1057B00009D00A4B1A6F22F001021A671A6F22F001
:1057C00004021A67E0E7054B1A6F42F004021A67F9
:1057D0001A6F42F001021A67D6E700BF0044025870
:1057E0000048025803F05EFA0546714B1B6F13F038
:1057F000020F80D003F056FA401B41F288339842E2
:10580000F3D90320C4E06A4A136823F0807313605D
:1058100003F048FA0546664B1B6813F0007F06D07C
:1058200003F040FA401B0228F5D90320B0E0604B9A
:10583000996A604A0A40A16AE06A41EA00110A4393
:105840009A62226B013AC2F30802616B0139490284
:1058500089B20A43A16B0139090401F4FE010A432C
:10586000E16B0139090601F0FE410A431A63DA6A65
:1058700022F00102DA625A6B6FF3CF02A16C42EAA6
:10588000C1025A63DA6A22F00C02216C0A43DA621E
:10589000DA6A22F00202616C0A43DA62DA6A42F4DE
:1058A0008032DA62DA6A42F40032DA62DA6A42F4A8
:1058B0008022DA62DA6A42F00102DA621A6842F0A1
:1058C00080721A6003F0EEF90446394B1B6813F03E
:1058D000007F06D103F0E6F9001B0228F5D903206A
:1058E00056E0002054E0002052E0314A916A106BEB
:1058F000012B4ED001F00303A26A93424BD1C1F3B6
:105900000511E36A994248D1C0F30802236B013BB9
:105910009A4244D1C0F34622636B013B9A4240D184
:10592000C0F30642A36B013B9A423CD1C0F3066030
:10593000E36B013B984238D11D4B5B6BC3F3CC0347
:10594000A26C9A4201D1002022E0194AD36A23F0C6
:105950000103D36203F0A6F9054603F0A3F9A842B8
:10596000FBD0134A536B6FF3CF03A16C43EAC1031F
:105970005363D36A43F00103D362002008E001209F
:105980007047012004E0012002E0012000E01846F9
:1059900038BD0120FCE70120FAE70120F8E70120EB
:1059A000F6E70120F4E70120F2E70120F0E700BF6D
:1059B000004402580CFCFFFF744B1B6903F03803D2
:1059C000102B00F0DD80182B0FD0002B40F0DA8078
:1059D0006E4B1B6813F0200F00F0D6806B4B1B68DA
:1059E000C3F3C1036A48D8407047684B9A6A02F013
:1059F0000302D3F828C0CCF30510D96A01F00101E5
:105A00005B6BC3F3CC0301FB03F307EE903AF8EEB4
:105A1000677A1CF47C7F00F0B880012A4AD0022A01
:105A200074D0002A40F08F80584B1B6813F0200F71
:105A300023D056490A68C2F3C102554BD34007EE42
:105A4000103AF8EE476A07EE100AB8EE476A86EE9B
:105A5000867A0B6BC3F3080306EE903AF8EE666A9B
:105A60009FED4C6A67EE867A76EEA77AF7EE006ACB
:105A700077EEA67A27EE277A38E007EE100AF8EEDE
:105A8000476A9FED456A86EE267A404B1B6BC3F34F
:105A9000080306EE903AF8EE666A9FED3E6A67EEFE
:105AA000867A76EEA77AF7EE006A77EEA67A27EE88
:105AB000277A1BE007EE100AF8EE476A9FED376A77
:105AC00086EE267A314B1B6BC3F3080306EE903A41
:105AD000F8EE666A9FED2F6A67EE867A76EEA77A11
