:020000040800F2
:100000000000022011900108E90E0008EB0E000824
:10001000ED0E0008EF0E0008F10E000800000000D1
:1000200000000000000000000000000061F0000877
:10003000F30E00080000000001F1000811E60008BE
:1000400065900108659001086590010865900108B8
:1000500065900108659001086590010865900108A8
:100060006590010865900108659001086590010898
:100070006590010865900108F50E0008659001087B
:100080006590010865900108659001086590010878
:100090006590010865900108659001086590010868
:1000A00065900108050F000865900108659001083A
:1000B00065900108150F000865900108659001081A
:1000C000659001086590010865900108250F0008FA
:1000D0006590010865900108659001086590010828
:1000E000659001086590010800000000350F0008C8
:1000F0006590010865900108659001086590010808
:1001000065900108659001086590010865900108F7
:1001100065900108659001086590010865900108E7
:1001200065900108659001086590010865900108D7
:1001300065900108659001086590010865900108C7
:1001400000000000000000000000000000000000AF
:1001500065900108659001086590010865900108A7
:100160006590010865900108659001086590010897
:100170006590010865900108659001080000000085
:100180006590010865900108659001086590010877
:100190006590010865900108659001086590010867
:1001A0006590010865900108659001086590010857
:1001B0006590010865900108659001086590010847
:1001C0006590010865900108659001086590010837
:1001D0006590010865900108659001086590010827
:1001E0006590010865900108659001086590010817
:1001F0006590010865900108659001086590010807
:1002000065900108659001086590010865900108F6
:1002100065900108659001086590010865900108E6
:1002200065900108659001086590010800000000D4
:1002300065900108659001080000000065900108C4
:1002400065900108659001086590010865900108B6
:1002500065900108659001086590010865900108A6
:100260006590010865900108659001086590010896
:100270006590010865900108659001080000000084
:100280006590010865900108659001080000000074
:08029000000000006590010868
:1002A00010F8012B11F8013B012A28BF9A42F7D020
:1002B000D01A7047034613F8012B002AFBD1181AF5
:1002C000013870470000000000000000000000003E
:1002D00001F0FF01102A2BDB10F0070F08D010F8F7
:1002E000013B013A8B422DD010F0070F42B3F6D1FB
:1002F000F0B441EA012141EA014122F007047FF014
:1003000000070023F0E80256083C85EA010586EA6A
:10031000010685FA47F5A3FA87F586FA47F6A5FAA6
:1003200087F68EB9EED1F0BC01F0FF0102F00702B2
:1003300032B110F8013B013A83EA010313B1F8D15D
:100340000020704701387047002D06BF354603383E
:10035000073815F0010F07D1013015F4807F02BF77
:10036000013015F4C03F0130F0BC0138704700BFC8
:1003700053B94AB9002908BF00281CBF4FF0FF310C
:100380004FF0FF3000F00CB8ADF1080C6DE904CE71
:100390001BF07EFDDDF804E0DDE9022304B07047C8
:1003A000704700BF0348044B834202D0034B03B1A4
:1003B00018477047800000208000002000000000E7
:1003C0000548064B1B1AD90F01EBA301491002D0B7
:1003D000034B03B1184770478000002080000020C5
:1003E0000000000010B5064C237843B9FFF7DAFF90
:1003F000044B13B10448AFF300800123237010BDF8
:100400008000002000000000B0C1010808B5054BC5
:100410001BB105490548AFF30080BDE80840FFF770
:10042000CFBF00BF0000000084000020B0C1010861
:1004300030B585B00024009401940294039404F034
:1004400087FF01238DF800308DF8014001941F22B1
:100450008DF8082087228DF809208DF80A408DF844
:100460000B408DF80C308DF80D308DF80E408DF866
:100470000F40684604F08AFF042004F077FF05B0BF
:1004800030BD000010B582B004468DF807000EF0B4
:10049000E5F8022813D10F4B186880B14FF0FF31F7
:1004A0000EF01DFA4FF0FF3301220DF107010A484B
:1004B0000BF049FE074B18680EF042FA07E04FF0C8
:1004C000FF3301220DF1070103480BF03CFE2046EB
:1004D00002B010BD9C0000208C02002010B5044624
:1004E0000268074B9A4204D02268064B9A4203D016
:1004F00010BD08F03BFCF7E704F0D2F9F8E700BFC5
:10050000000001400004004072B6FEE700B59DB057
:100510004C22002109A819F062FA2022002101A82A
:1005200019F05DFA022008F0C7FB00230093244B6A
:10053000DA6A22F00102DA62DB6A03F00103009357
:10054000204B9A6942F440429A619B6903F440430C
:100550000093009B1B4B9B6913F4005FFAD00122B0
:1005600009924FF480330A93022312931393149247
:100570006422159216930422179218930C23199350
:1005800000231A931B9309A804F02CFFA0B93F2362
:1005900001930323029303900823049340230593BC
:1005A00006934FF4806207920893022101A805F098
:1005B0006DFB18B91DB000BDFFF7A6FFFFF7A4FF44
:1005C000000400580048025800B583B0FFF730FF20
:1005D00008F09CFBFFF79AFF00F078F818F0FCFC9D
:1005E00000F042FA00F080FA00F0FEFB18F02AF862
:1005F00000F034FB00F084FB2B4B18680023022230
:100600001946806818F0A2FF284818F097FF05F0F7
:1006100043FA064605F084FC054605F0A3FC0446B3
:1006200005F0B2FC009023462A463146204818F0D7
:100630001DFF04F0C3FB10234FF480124FF0C041A4
:100640001C4818F013FF04F0F3FD20B11A4818F00D
:1006500075FFFFF759FF194818F070FF4FF4486015
:1006600003F077FA20B1164818F068FFFFF74CFF47
:100670004FF44861134818F0F9FE4FF4486000F059
:1006800069FE03F0C9FF04F013FA40B903F06CF8F7
:100690000DF0CAFF00F050F90DF0F2FFFEE70A4836
:1006A00018F04CFFF2E700BF3000002020C2010824
:1006B00038C2010878C20108C0C20108E0C20108BE
:1006C00018C3010840C3010878C301082DE9F04FA1
:1006D0008FB009AD002409940A940B940C940D94E6
:1006E0006A4BD3F8E02042F00402C3F8E020D3F8CC
:1006F000E02002F004020192019AD3F8E02042F0D7
:100700002002C3F8E020D3F8E02002F02002029299
:10071000029AD3F8E02042F08002C3F8E020D3F838
:10072000E02002F080020392039AD3F8E02042F026
:100730000102C3F8E020D3F8E02002F001020492A5
:10074000049AD3F8E02042F04002C3F8E020D3F846
:10075000E02002F040020592059AD3F8E02042F032
:100760001002C3F8E020D3F8E02002F01002069255
:10077000069AD3F8E02042F00202C3F8E020D3F852
:10078000E02002F002020792079AD3F8E02042F03C
:100790000802C3F8E020D3F8E03003F00803089320
:1007A000089BDFF8F8A001221021504606F0E1FD79
:1007B000DFF8EC9022464821484606F0DAFDDFF8E3
:1007C000E4802246E021404606F0D3FD2246032184
:1007D0002F4806F0CEFD4FF0100BCDF824B00126C7
:1007E0000A960B9403270C972946504606F09AFC6C
:1007F0004BF6C06309930A940B942946254806F0EA
:1008000091FC4FF4507309930A940B9429462248A3
:1008100006F088FC4FF4807309930A940B942946E0
:10082000504606F07FFC042309930A940B96294650
:10083000484606F077FC482309930A960B940C97D8
:100840002946484606F06EFC182309930A940B9437
:100850002946404606F066FCE02309930A960B946D
:100860000C972946404606F05DFC09970A960B94C2
:100870000C942946064806F055FC584608F0ACFA98
:10088000202008F0A9FA0FB0BDE8F08F004402580C
:1008900000100258001802580008025800000258C0
:1008A000000C025800040258F8B50FF02DF91D484D
:1008B00018F044FE03F072F80026354622E0204688
:1008C00003F02EFC48BB204600F080FD02F058FFEC
:1008D00004F072F9A31BB3F57A7F10D3124E0121F5
:1008E000304606F04CFD0221304606F048FD6F1CF4
:1008F000224629460D4818F0B9FD26463D460120FE
:100900000DF08DFF08F03EFA044603F0F9F90028D7
:10091000D5D0074818F012FED1E7064818F00EFEB1
:10092000D1E700BF9CC301080010025810C40108A1
:10093000B8C30108E4C3010808B5084B1B683BB104
:10094000074A002107480DF004FF074B186008BD57
:1009500018460DF074FF014B1860F1E79C00002071
:1009600008000208A9080008A0000020F0B5B9B0EE
:10097000002333933493359336933793334B1B686B
:100980000BB139B0F0BD314B01221A6002ACC0226C
:100990000021204619F023F84FF080720023CDE9A2
:1009A0000223204605F034FC00284BD1284BD3F815
:1009B000D42042F48052C3F8D420D3F8D43003F4C6
:1009C00080530193019B4FF23F03339302273497E7
:1009D00000263596032536950C23379333AC2146F4
:1009E0001C4806F09FFB3F2333933497359636958A
:1009F0000C2337932146184806F094FB4FF680737A
:100A000033933497359636950C2337932146134804
:100A100006F088FB4FF6337333933497359636954B
:100A20000C23379321460E4806F07CFB802333933A
:100A3000349735963695092337932146094806F0B1
:100A400071FB9EE7FFF760FDB0E700BFA400002048
:100A500000440258001402580018025800100258AE
:100A6000000C02580008025800B589B001A9002204
:100A700001924A608A60CA600A614A618A611648C6
:100A8000164B036003F5827343608260C2600261AB
:100A90004FF0100CC0F814C08261C2610262426261
:100AA0008262C262026342638263C26302640F2392
:100AB000019302934FF03C0ECDF80CE00493CDF877
:100AC00014C01123069309F00DFA08B909B000BD4E
:100AD000FFF71AFDFAE700BFA8000020004000520F
:100AE00008B5FFF743FF08BD08B51548154B03606F
:100AF0004FF480034360002383601722C2600361C8
:100B00004FF0807242614FF0806282614FF08052FC
:100B1000C261036243628362C3624FF080424263F8
:100B20008363C363036443648364C364036543658D
:100B3000836509F09BFA00B908BDFFF7E5FCFBE708
:100B40006C01002000300140F0B5BBB0044600212C
:100B500035913691379138913991C02204A818F017
:100B60003EFF2268374B9A4201D03BB0F0BD4FF4B4
:100B700080520023CDE9042304A805F049FB002896
:100B80005AD1314BD3F8F02042F48052C3F8F02010
:100B9000D3F8F02002F480520192019AD3F8E020B9
:100BA00042F00102C3F8E020D3F8E02002F0010295
:100BB0000292029AD3F8E02042F00802C3F8E02043
:100BC000D3F8E03003F008030393039B60233593CD
:100BD000022636960025379538950527399735A989
:100BE0001A4806F09FFA8023359336963795389544
:100BF000399735A9164806F095FA1648164B036042
:100C00002623436040238360C5604FF48063036103
:100C100045618561C5610562456206F0EFFD70B909
:100C20000C4BA3679C6300220521232004F07CFB6E
:100C3000232004F089FB98E7FFF766FCA1E7FFF7A4
:100C400063FCEDE700300140004402580000025808
:100C5000000C0258F40000205800024000B58FB08C
:100C600000230A930B930C930D9307930893099316
:100C700000930193029303930493059306931E48F4
:100C80001E4A0260436083604FF6FF72C2600361D8
:100C900083610AF0A9FCF8B94FF480530A930AA9BA
:100CA00015480AF099FDD0B913480AF0CDFCC8B92F
:100CB00000230793099307A90F480AF029FEA0B95A
:100CC0000022009201920292049269460A480AF0B8
:100CD0003BFD68B90FB000BDFFF716FCDCE7FFF77E
:100CE00013FCE1E7FFF710FCE2E7FFF70DFCE7E795
:100CF000FFF70AFCEEE700BF4002002000040040BE
:100D000000B589B0002304930593069307930193DC
:100D1000029303931348144A0260436083604FF6C2
:100D2000FF72C260036183610AF05EFC88B94FF410
:100D30008053049304A90B480AF04EFD60B90023C8
:100D40000193039301A907480AF0E2FD38B909B0FD
:100D500000BDFFF7D9FBEAE7FFF7D6FBEFE7FFF7A8
:100D6000D3FBF4E7F40100200018004000B583B085
:100D700003681A4A934204D0194A934217D003B029
:100D800000BD184BD3F8E82042F00202C3F8E82077
:100D9000D3F8E83003F002030093009B0022052102
:100DA0001D2004F0C1FA1D2004F0CEFAE7E70D4B38
:100DB000D3F8E82042F04002C3F8E820D3F8E83046
:100DC00003F040030193019B002205212B2004F036
:100DD000ABFA2B2004F0B8FAD1E700BF00040040C2
:100DE000001800400044025808B51748174B03602C
:100DF0004FF4E133436000238360C36003610C223E
:100E000042618361C3610362436283620BF007FB4B
:100E100070B900210C480BF07EFB60B900210A4834
:100E20000BF09EFB50B908480BF056FB48B908BDC3
:100E3000FFF76AFBEDE7FFF767FBEFE7FFF764FB00
:100E4000F1E7FFF761FBF2E78C02002000100140A0
:100E500010B5B8B0044600213391349135913691E4
:100E60003791C02202A818F0BAFD22681B4B9A42A3
:100E700001D038B010BD01220023CDE9022302A821
:100E800005F0C6F938BB164BD3F8F02042F010023B
:100E9000C3F8F020D3F8F02002F010020092009A7C
:100EA000D3F8E02042F00102C3F8E020D3F8E030AC
:100EB00003F001030193019B4FF4C06333930223BA
:100EC00034930023359336930723379333A905488A
:100ED00006F028F9CDE7FFF717FBD4E70010014033
:100EE0000044025800000258FEE7FEE7FEE7FEE776
:100EF000FEE7704708B5024807F042FB08BD00BF97
:100F0000F400002008B502480AF01CFA08BD00BF32
:100F1000C84F002008B502480AF014FA08BD00BF07
:100F20004002002008B5024809F038FE08BD00BFA5
:100F30006C01002008B502480AF004FA08BD00BFA1
:100F4000F401002000B583B00A4BD3F8F42042F03E
:100F50000202C3F8F420D3F8F43003F00203019343
:100F6000019B00220F216FF0010004F0DDF903B0B6
:100F700000BD00BF0044025800B58DB000230793A8
:100F8000089309930A930B930268384B9A4201D055
:100F90000DB000BD364BD3F8D82042F40042C3F860
:100FA000D820D3F8D82002F400420192019AD3F855
:100FB000D82042F48032C3F8D820D3F8D82002F4E5
:100FC00080320292029AD3F8D82042F40032C3F859
:100FD000D820D3F8D82002F400320392039AD3F831
:100FE000E02042F00102C3F8E020D3F8E02002F054
:100FF00001020492049AD3F8E02042F00202C3F8FE
:10100000E020D3F8E02002F002020592059AD3F81E
:10101000E02042F00402C3F8E020D3F8E03003F00F
:1010200004030693069B8623079302230893032356
:101030000A930B230B9307A90E4806F073F832238B
:10104000079307A90C4806F06DF84FF46053079317
:1010500007A90A4806F066F8002205213D2004F0A1
:1010600063F93D2004F070F992E700BF0080024070
:1010700000440258000002580008025800040258B8
:101080001A4B1B7953B3027A184B5B799A4227D1DA
:101090000368164A9168D2684B40134222D1427AC3
:1010A000124B1B7C9A421FD3002301E00133DBB2B9
:1010B000072B11D80D4A1A44527C002AF6D0C118C9
:1010C000897ADFF828C09C449CF819C081EA0C0199
:1010D0000A42EBD000207047012070470120704782
:1010E0000020704700207047002070474003002018
:1010F0002DE9F04180460F4616461D46114C5422FC
:101100000021204618F06BFC04F1040CDFF838E0F5
:10111000BEE80F00ACE80F009EE80F008CE80F005F
:101120000123237084F8248084F8257084F82650E5
:101130002685BDF81830638507F024FEE062BDE81F
:10114000F08100BF400300202003002010B588B0CC
:101150006C46DFF838C0BCE80F000FC49CE80F00F5
:1011600084E80F00084C54220021204618F037FC78
:1011700004F1040C6C460FCCACE80F0094E80F00AF
:101180008CE80F0008B010BD4003002020030020B1
:1011900010B504465422024918F0D3FC204610BD75
:1011A00040030020022805D0032805D0012805D1DE
:1011B0000348704703487047034870470348704727
:1011C0003CC4010840C4010844C401084CC40108DF
:1011D0008C46D1B940F2FF718B4298BF8A4222D827
:1011E0001349087000B5124981F801C04A608B604C
:1011F000DFF840E08C46BCE80F00AEE80F009CE84A
:101200000F008EE80F00002000BD6FF060418B42A0
:1012100098BF8A4209D806490870BCF1000FE1D096
:101220004FF0010CDEE7012070470120704700BF3E
:10123000200300204403002000B5074B00221A7051
:10124000DFF818E09C46BCE80F00AEE80F009CE811
:101250000F008EE80F0000BD200300204403002093
:1012600007281BD800B50E4B034459735A7539B182
:10127000431C0B4A127B934202D91846084B187341
:10128000DFF820C0DFF818E0BEE80F00ACE80F0080
:101290009EE80F008CE80F00002000BD0120704781
:1012A000200300204403002000B50A4B00221A60EE
:1012B0005A609A60DA60A3F10D0C03F8012CDFF894
:1012C00018E0BCE80F00AEE80F009CE80F008EE8C5
:1012D0000F0000BD2D0300204403002050B310B5C3
:1012E0000446154B1B786BB1134B1A6B01321A6312
:1012F00093F8383033B9FFF7C3FE20B90E4A536B69
:101300000133536310BD0C48012380F83830214667
:101310006368C363C26A9B1A036423684364237AC5
:1013200080F84830627A80F849200A314A3018F053
:1013300008FCE7E7704700BF40030020A0F5FA7003
:1013400080B241F29413984201D8012070470020E6
:101350007047000038B50546FFF7F0FF10B94FF4AD
:1013600048631D46054CA58103F092FE607018B9D4
:101370000122024B9A7038BD0022FAE79803002040
:1013800038B504460546FFF7D9FF18B901231C46B6
:10139000204638BD0A4B9C8101221A7002F0B8FE2B
:1013A00002F09EFC204602F0B8FB044620B9294614
:1013B000044818F05BF8EBE7034818F0BFF8E7E7DC
:1013C0009803002080C4010854C4010838B5134BA9
:1013D0001B68C31A312B00D838BD05460F4B186067
:1013E00003F056FE0146B0B901230D4A51709370C7
:1013F000002BF1D0D378002BEED10123D3705368AA
:101400000133536014469560064818F097F8A08998
:10141000FFF7B6FFE0E70023E7E700BF94030020F3
:1014200098030020ACC4010808B5044B00221A70D0
:10143000DA70034818F082F808BD00BF9803002056
:10144000E0C40108034B1B780BB901207047002052
:10145000704700BF980300208446034B0FCB8CE8F5
:101460000F006046704700BF98030020002818BF97
:10147000002A04D008B503461046984708BD7047B7
:1014800000E0013010B10378202BFAD07047000043
:1014900038B504460D46594AFFF7E8FF584A294631
:1014A0002046FFF7E3FF574A29462046FFF7DEFFB5
:1014B000554A29462046FFF7D9FF544A2946204677
:1014C000FFF7D4FF524A29462046FFF7CFFF514A83
:1014D00029462046FFF7CAFF4F4A29462046FFF714
:1014E000C5FF4E4A29462046FFF7C0FF4C4A294611
:1014F0002046FFF7BBFF4B4A29462046FFF7B6FFC1
:10150000494A29462046FFF7B1FF484A2946204666
:10151000FFF7ACFF464A29462046FFF7A7FF454A9A
:1015200029462046FFF7A2FF434A29462046FFF7F7
:101530009DFF424A29462046FFF798FF404A294628
:101540002046FFF793FF3F4A29462046FFF78EFFCC
:101550003D4A29462046FFF789FF3C4A2946204656
:10156000FFF784FF3A4A29462046FFF77FFF394AB2
:1015700029462046FFF77AFF374A29462046FFF7DB
:1015800075FF364A29462046FFF770FF344A294640
:101590002046FFF76BFF334A29462046FFF766FFD8
:1015A000314A29462046FFF761FF304A2946204646
:1015B000FFF75CFF2E4A29462046FFF757FF2D4ACA
:1015C00029462046FFF752FF2B4A29462046FFF7BF
:1015D0004DFF2A4A29462046FFF748FF284A294658
:1015E0002046FFF743FF274A29462046FFF73EFFE4
:1015F000254A29462046FFF739FF38BD00C50108B6
:1016000010C501081CC5010828C5010838C5010816
:101610004CC5010880C50108B4C5010808C6010809
:1016200018C6010828C6010860C601089CC6010842
:10163000D8C6010818C7010828C7010848C701080B
:1016400078C7010890C70108A8C70108DCC70108CE
:10165000ECC701081CC801082CC801083CC80108D7
:101660006CC8010880C80108ACC80108C0C80108DE
:10167000D0C80108E8C80108FCC801081CC9010855
:101680002CC9010844C9010858C9010870B50646AB
:101690000D46144602F012FC29460144091B01F5CF
:1016A000FA73B3F57A7F01D9012070BD09B23046D3
:1016B00002F0C4FBF9E70CB470B5ADF5027D064647
:1016C0000D4686AB53F8042B019302AC4FF4007126
:1016D000204618F0BBF8224629463046FFF7C6FEE2
:1016E0000DF5027DBDE8704002B070472DE9F0476E
:1016F0009AB004460D4615A802F07AFD11A8FFF72E
:10170000ABFE02F011FC82469DF84460BDF85070BB
:101710009DF846909DF84780129A0A929DF85510C0
:101720000B919DF8540002F075FD9DF85630BDF800
:1017300064200992189A0892079306900B990591D4
:101740000A9A0492CDF80C80CDF808900197009683
:101750005346204A29462046FFF7ADFF012625E0E3
:10176000DFF87C90304602F0B5FB0746304602F0C9
:10177000A5FB80469DF8340002F0E8FBBDF836304A
:10178000BDF83820BDF8401007910F9906910592D9
:1017900004930390CDF80880019700964B460E4ABB
:1017A00029462046FFF787FF0136F6B20D2E08D8EE
:1017B00031460DA802F09AFB012ED1D0DFF824901B
:1017C000D0E7064A29462046FFF750FE1AB0BDE88A
:1017D000F08700BFC8C901089CCA010810CB0108E6
:1017E000D4C6010858D1010870B58AB006460D4626
:1017F00006A8FFF731FEBDF824309DF819209DF8AA
:101800001A109DF81B00089C0594079C04940390F3
:101810000291019200939DF81830034A2946304600
:10182000FFF749FF0AB070BD18CB010800B583B0BF
:1018300033B9044B0092044AFFF73DFF03B000BDEB
:10184000024BF7E7A8CB0108B8CB0108B0CB0108E1
:1018500070B58CB005460E4608A8FFF7FDFD02F0F6
:1018600063FB03462C4A31462846FFF724FFBDF8A8
:101870002C309DF822209DF82310099803900291A6
:10188000019200939DF82030244A31462846FFF704
:1018900012FF012410E0204602F010FB0346204A0C
:1018A00031462846FFF707FF1BE01E4A314628460F
:1018B000FFF7DCFD0134E4B20D2C2AD8214604A840
:1018C00002F014FB204602F005FB00902346164A66
:1018D00031462846FFF7EFFE204602F0EFFA0028D7
:1018E000D9D19DF810000028DFD002F02FFB03466D
:1018F000BDF81220BDF81410BDF81C000390069826
:10190000029001910092094A31462846FFF7D3FE22
:10191000CBE70CB070BD00BFD0CB0108F0CB010805
:1019200054CC010844C7010844CC010860CC01082C
:1019300070B582B006460D460A4AFFF797FD0124AE
:101940000BE0204602F0BAFA00902346064A2946E8
:101950003046FFF7B0FE0134E4B20D2CF1D902B0ED
:1019600070BD00BFA0CC0108ACCC010870B58AB036
:1019700006460D4606A8FFF76FFDBDF824309DF81A
:1019800019209DF81A109DF81B00089C0594079CCF
:10199000049403900291019200939DF81830034A39
:1019A00029463046FFF787FE0AB070BDC4CC010857
:1019B00000B583B03BB9054B00931346044AFFF7CB
:1019C0007AFE03B000BD034BF6E700BF24E2010836
:1019D00040CD01083CCD010830B589B005460B4625
:1019E000054A2021684617F065FE6946284618F02A
:1019F0001EF809B030BD00BF50CD010810B5144627
:101A0000FFF7EAFF002C18BF002810D03A2117F08A
:101A1000EEFF58B101300378202B01D10130FAE7F5
:101A20000A22002117F0DAFB2060012010BD0020FF
:101A3000FCE738B514461D46FFF7CEFF002C18BF53
:101A4000002828D04DB33A2117F0D1FF014618B332
:101A5000013100E0013108782028FBD022281ED176
:101A600001314FF0000C04E0013104F80C000CF1DE
:101A7000010C0878002818BF222802D06B1E63458D
:101A8000F2D8002304F80C300B78222B01D0002070
:101A900002E0012000E0002038BD2846FCE70020DD
:101AA000FAE70000F0B593B005460E4609A803F02A
:101AB00019F90D9B9DF83C209DF83D700E990791FA
:101AC00006970592049303930C9B02930B9B01933F
:101AD0000A9B00939DF82430104A31462846FFF7B0
:101AE000EAFD00240DE00E4B04F148026A4412F8AE
:101AF0000A2C00920B4A31462846FFF7DCFD0134E0
:101B0000E4B2A74203D9002CEDD0074BECE7074A1B
:101B100031462846FFF7AAFC13B0F0BD58CD0108A6
:101B2000D4C60108F4CD010858D10108FCCD010844
:101B3000F0B591B006460F4607A803F0D3F89DF81C
:101B400035500C9B059304950B9B03930A9B0293C2
:101B5000099B0193089B00939DF81C30114A39465C
:101B60003046FFF7A8FD002408E00F4A00920F4A14
:101B700039463046FFF79FFD0134E4B2A54209D94A
:101B800004F140036B4413F80A3C621CAA42ECD0F7
:101B9000074AEBE7074A39463046FFF767FC11B0C2
:101BA000F0BD00BF04CE0108D4C6010860CE010814
:101BB00088D8010844C70108F0B59BB005460E4619
:101BC00005A8FFF7E5FA9DF814409DF83800FFF7E7
:101BD000E9FA109B019300902346344A3146284687
:101BE000FFF769FDBDF83C309DF83A20BDF83E1086
:101BF0000291019200939DF839302D4A31462846D2
:101C0000FFF759FD9DF84C300193129B0093119BF7
:101C1000284A31462846FFF74EFD9DF81920079BBC
:101C20000293019300929DF81830234A31462846CA
:101C3000FFF741FD089B9DF82420019200931F4A65
:101C400031462846FFF737FD169B02930193159BFB
:101C50000093149B1A4A31462846FFF72CFD9DF845
:101C60005D7000979DF85C30164A31462846FFF7B4
:101C700022FD00240DE0144B04F168026A4412F8BE
:101C80000A2C0092114A31462846FFF714FD013410
:101C9000E4B2A74203D9002CEDD00D4BECE70D4A7E
:101CA00031462846FFF7E2FB1BB0F0BD68CE0108C5
:101CB000A8CE0108F4CE010828CF010868CF01089A
:101CC00098CF0108E8CF0108D4C60108F4CD010877
:101CD00058D10108FCCD0108F0B5A1B005460E466B
:101CE0000BA8FFF755FA9DF82C409DF85000FFF720
:101CF00059FA9DF851C0BDF854209DF85210BDF816
:101D000056E09DF864700897189B0793179B0693FD
:101D1000CDF814E004910392CDF808C0169B01930E
:101D200000902346304A31462846FFF7C4FC9DF810
:101D300030309DF831207AB12C499DF83C20039237
:101D40000E9A02920D9A01920091294A3146284634
:101D5000FFF7B1FC002412E02649EEE7264B04F120
:101D600080026A4412F83B1C12F8432C0192009145
:101D7000224A31462846FFF79EFC0134E4B2072C84
:101D800003D8002CEAD01E4BE9E737B91D4A31468B
:101D90002846FFF76BFB21B0F0BD9DF874309DF82D
:101DA0007570039702931C9B01931B9B00931A9BD6
:101DB000154A31462846FFF77EFC002408E00E4A0B
:101DC0000092124A31462846FFF775FC0134E4B20E
:101DD000A742DBD904F180036B4413F80A3C621C70
:101DE000BA42ECD0064AEBE728D0010820D001081F
:101DF000A0D0010824D00108D4C60108E8D0010809
:101E000088D8010844C70108F4D0010860CE010851
:101E1000F0B58FB004460D46164604A803F024F82A
:101E2000002E37D11C4B049A019200921B4A29467E
:101E30002046FFF740FC059B1F469DF818609DF863
:101E4000340003F027F8019000963B46144A2946D7
:101E50002046FFF730FC089B02930B9B01930A9BE3
:101E60000093079B0F4A29462046FFF724FC099B55
:101E700000930D4A29462046FFF71DFCBDF832307D
:101E80000093BDF83030094A29462046FFF713FC7D
:101E90000FB0F0BD064BC6E7A8CB010828D101085A
:101EA0005CD1010890D10108C4D10108F0D101082A
:101EB000B0CB01082DE9F04393B08146884608A8CD
:101EC00002F0D2FF089F099D9DF828609DF84440CC
:101ED000204602F0DFFF0C9B06930F9B05930E9BA1
:101EE00004930B9B03930290019600953B460E4A88
:101EF00041464846FFF7DFFB012C07D00B4A41461D
:101F00004846FFF7B3FA13B0BDE8F083BDF84030A0
:101F1000BDF84220019200930D9B054A4146484678
:101F2000FFF7C9FBEAE700BF10D2010844C7010868
:101F300074D2010808B502F0EFFB02F0E9F808BD21
:101F400038B505460C46FFF77DFA30B1FFF7F2FFD2
:101F50002146284601F0D4FD38BD0220FCE72DE9DA
:101F6000F04182B005460C46884617461E46FFF7EC
:101F700069FAA8B1FFF7DEFF33463A462146284604
:101F800001F05AFE044618B1204602B0BDE8F081C7
:101F900003460090424629460120FFF7A9F8F3E7DF
:101FA00002231C46F0E72DE9F04182B005460C46BD
:101FB000884617461E46FFF745FAA8B1FFF7BAFF55
:101FC00033463A462146284601F03FFE044618B102
:101FD000204602B0BDE8F081034600904246294603
:101FE0000220FFF785F8F3E702231C46F0E72DE90E
:101FF000F04182B007460E4615461C469846FFF74C
:1020000021FAD8B1FFF796FFBDF824300193089B61
:10201000009323462A463146384601F03DFE0446E9
:1020200018B1204602B0BDE8F081CDF800802B4603
:10203000324639460320FFF75BF8F2E702231C46DD
:10204000EFE710B50446FFF7FDF928B1FFF772FF7F
:10205000204601F062FD10BD0220FCE710B51446D9
:10206000FFF7BAFC002C18BF002810D03A2117F057
:10207000BEFC58B101300378202B01D10130FAE7C2
:102080000A22002117F024F92060012010BD002051
:10209000FCE700B583B0019201AAFFF7DFFF0198CA
:1020A00003B000BD2DE9F0419CB004460E46174632
:1020B000102318AAA349FFF7BCFC00282AD0A24984
:1020C00018A8FEF7EDF800282AD0A04918A8FEF7B6
:1020D000E7F850B39E4918A8FEF7E2F858B39D49B7
:1020E00018A8FEF7DDF8002839D09B4918A8FEF79C
:1020F000D7F828B1994918A8FEF7D2F8002865D179
:1021000013AA97492046FFF7A9FF002841D10123D0
:102110001C461BE0934A39463046FFF7A7F91BE0FF
:1021200039463046FFF7E2FA16E08F4A3946304624
:10213000FFF79CF910E04FF448628C492046FFF706
:10214000A8FF129080B2FFF77CFF0446234618AA2E
:1021500039463046FFF76AFB1CB0BDE8F08113AA90
:102160007F492046FFF77AFF10B901231C46EDE7AF
:1021700012AA7E492046FFF771FF10B901231C46C1
:10218000E4E7BDF848109DF84C00FFF7D9FE04467F
:10219000DCE741F2941275492046FFF77AFF12906E
:1021A000642273492046FFF774FF054640F6B832B3
:1021B00070492046FFF76DFF83B22A46BDF84810EC
:1021C0009DF84C00FFF7CBFE0446BFE76A4918A80C
:1021D000FEF766F820B1694918A8FEF761F828BB38
:1021E00013AA5F492046FFF739FF10B901231C46A7
:1021F000ACE74FF47A725D492046FFF74AFF129030
:1022000064225B492046FFF744FF054640F6B8329A
:1022100058492046FFF73DFF83B22A46BDF84810D3
:102220009DF84C00FFF7BFFE04468FE7544918A8FD
:10223000FEF736F8002846D0524918A8FEF730F8C5
:10224000002800F0B980504918A8FEF729F80028A6
:1022500000F0BF814D4918A8FEF722F8002800F0D1
:10226000BD814B4918A8FEF71BF8002800F08D82AD
:10227000484918A8FEF714F8002800F0DD82464906
:1022800018A8FEF70DF8002800F07083434918A83D
:10229000FEF706F8002800F02B84414918A8FDF746
:1022A000FFFF002800F063843E4918A8FDF7F8FFFF
:1022B000002840F09B84FFF7C5F8002840F0828496
:1022C00002231C4642E705AA37492046FFF7C6FE0F
:1022D00010B901231C4639E706AA34492046FFF706
:1022E000BDFE10B901231C4630E708AA304920463C
:1022F000FFF7B4FE10B901231C4627E70AAA2D49AF
:102300002046FFF7ABFE10B901231C461EE76422EE
:1023100017492046FFF7BDFE054640F6B83215497D
:102320002046FFF7B6FE80B201900095BDF8283038
:102330009DF82020BDF818109DF81400FFF757FEF7
:10234000044603E7A8D2010860D80108D4D20108E6
:1023500064D301086CD3010870D3010874D3010859
:10236000D4D30108ACD20108DCD20108E0D30108C3
:1023700084D3010890D30108A0D30108A4D3010895
:10238000B4D30108E4D3010858D4010864D4010887
:10239000CCD40108E4D4010808D5010844D50108CB
:1023A00064D501086CD80108BCD30108C8D3010862
:1023B000D0D30108DCD30108102314AA9D4920467C
:1023C000FFF737FB002800F018849B4914A8FDF79D
:1023D00067FF08BB994914A8FDF762FF18B3984935
:1023E00014A8FDF75DFF00284CD0964914A8FDF70E
:1023F00057FF002875D0944914A8FDF751FF002815
:1024000000F093808C4914A8FDF74AFF002800F0E3
:10241000DB8001231C4699E6FFF714F80028D9D188
:1024200002231C4692E613AA88492046FFF716FEAF
:1024300010B901231C4689E608AA85492046FFF702
:102440000DFE10B901231C4680E60AAA81492046E8
:10245000FFF704FE10B901231C4677E64FF47A72A9
:102460007D492046FFF715FE044602F055F9234644
:10247000BDF82820BDF820109DF84C0001F09EFD0D
:10248000044663E613AA71492046FFF7E7FD10B939
:1024900001231C465AE608AA70492046FFF7DEFDD4
:1024A00010B901231C4651E60AAA6D492046FFF7E0
:1024B000D5FD10B901231C4648E64FF47A726649EF
:1024C0002046FFF7E6FD044602F026F92346BDF854
:1024D0002820BDF820109DF84C0001F09FFD044617
:1024E00034E608AA5D492046FFF7B8FD10B901237C
:1024F0001C462BE60AAA5A492046FFF7AFFD10B941
:1025000001231C4622E64FF47A7253492046FFF716
:10251000C0FD044602F000F92246BDF82810BDF8BF
:10252000200001F0BBFD044610E613AA47492046EF
:10253000FFF794FD10B901231C4607E604AA494998
:102540002046FFF78BFD10B901231C46FEE505AAC6
:1025500045492046FFF782FD10B901231C46F5E5E9
:1025600006AA3F492046FFF779FD10B901231C4612
:10257000ECE508AA39492046FFF770FD10B90123A0
:102580001C46E3E5202200210AA817F028FA0123BF
:102590008DF828308DF829309DF84C208DF82A20B0
:1025A0000599049A01FB02F20E920F911093BDF867
:1025B0001830ADF84430BDF82030ADF846300AA8E8
:1025C00002F0C2F80446C1E5FFF7B4FC00231C4644
:1025D000BCE5FFF7AFFC00231C46B7E510230AAAB1
:1025E00022492046FFF725FA002800F0CB80204939
:1025F0000AA8FDF755FEA8B11E490AA8FDF750FE2E
:1026000000285ED01C490AA8FDF74AFE002878D0B1
:102610001A490AA8FDF744FE002800F09D80012316
:102620001C4693E5164A39463046FEF71FFF012344
:102630001A4639E0ECD30108F4D30108FCD30108B1
:1026400010D4010834D4010840D40108D4D30108BF
:10265000DCD30108C8D3010804D4010818D4010848
:1026600024D4010848D4010850D4010868D40108D2
:1026700060D801086CD30108ACD401086CD80108FB
:1026800070D401089E4B1D461446104601F016FCFE
:10269000019000942B469B4A39463046FFF70BF8D1
:1026A00023460133DBB21A460D2A04D8012AE9D0A9
:1026B000954B1D46E8E7954A39463046FEF7D6FE6B
:1026C0004AE5FEF7BFFE10B902231C463EE513AAF9
:1026D0008F492046FFF7C2FC10B901231C4635E59F
:1026E00008AA8C492046FFF789F910B901231C4636
:1026F0002CE5BDF920109DF84C0001F09FFB04462D
:1027000024E5FEF79FFE10B902231C461EE513AA1E
:102710007F492046FFF7A2FC10B901231C4615E5AE
:1027200006AA7D492046FFF799FC10B901231C46F3
:102730000CE508AA79492046FFF790FC10B901235F
:102740001C4603E5BDF82020BDF818109DF84C008C
:10275000FEF79CFF0446F9E4FEF774FE10B902236D
:102760001C46F3E413AA6A492046FFF777FC0446A7
:1027700028B19DF84C0001F081FB0446E6E401F02D
:1027800083FBE3E401231C46E0E4102314AA64491C
:102790002046FFF74EF9002800F03382614914A863
:1027A000FDF77EFD38B1604914A8FDF779FD88B1C9
:1027B00001231C46CAE412AA5C492046FFF74EFCDE
:1027C00010B901231C46C1E4BDF84800FFF739FCED
:1027D0000446BBE4FEF736FE10B902231C46B5E4FE
:1027E00013AA4B492046FFF739FC10B901231C46B8
:1027F000ACE408AA4E492046FFF730FC10B901238B
:102800001C46A3E40AAA4B492046FFF727FC10B94F
:1028100001231C469AE44FF47A7247492046FFF799
:1028200038FC0346BDF82820BDF820109DF84C0068
:1028300001F0C4FB044689E410230AAA3F4920465C
:10284000FFF7F7F8002800F08D803D490AA8FDF752
:1028500027FD38B13B490AA8FDF722FD38B1012315
:102860001C4673E439463046FFF71CF974E40690C1
:10287000079003AA34492046FFF7F0FB10B9012363
:102880001C4663E404AA31492046FFF7E7FB002811
:1028900064D0049B082B02D901231C4656E4002275
:1028A0002B492046FFF7F5FB804600231D46049B7D
:1028B0009D421AD22B46274A082108A816F0FAFE94
:1028C00005AA08A92046FFF7C9FB58B1059BFF2BB5
:1028D00008D805F170026A4402F8583C6B1CDBB260
:1028E0001D46E4E701231C4630E4039842469AB3B0
:1028F0000121DBB206AA02F005F9044626E400BF76
:10290000D4C601088CD4010858D1010810CB0108A5
:10291000D4D3010818D40108B4D40108C0D40108E4
:10292000ECD30108D4D40108DCD40108E0D30108B9
:10293000DCD30108C8D3010804D4010868D4010815
:1029400060D80108E8D40108F0D40108F4D40108E3
:10295000F8D4010804D501084146CAE701231C4602
:10296000FFF7F4BB01231C46FFF7F0BB10230AAAB4
:10297000A6492046FFF75DF8002800F0B580A4497D
:102980000AA8FDF78DFCD0B1A2490AA8FDF788FC82
:10299000D8B1A1490AA8FDF783FCE0B19F490AA874
:1029A000FDF77EFC00286DD09D490AA8FDF778FC54
:1029B000002800F0918001231C46FFF7C7BB394671
:1029C0003046FFF7F9F8FFF7C7BBFEF7BFFB002360
:1029D0001C46FFF7BBBB082308AA92492046FFF715
:1029E00028F808B3904908A8FDF75AFC20B38F498E
:1029F00008A8FDF755FC38B38D4908A8FDF750FC31
:102A000060BB6FF060428B492046FFF742FB0546F2
:102A10000123984606AA88492046FFF71FFB28BBDA
:102A200001231C46FFF792BB012318AA3946304602
:102A3000FEF7FCFEFFF790BBFEF7FEFB3946304683
:102A4000FFF7BAF8FFF788BB40F2FF7279492046DA
:102A5000FFF71FFB054600239846DBE7012318AA72
:102A600039463046FEF7E2FEFFF776BB2B46069A64
:102A700041460120FEF7ACFB39463046FFF79CF893
:102A8000FFF76ABB05AA6D492046FFF7E7FA18B9B8
:102A900001231C46FFF75ABB06AA66492046FFF7EA
:102AA000DDFA0028F4D008AA65492046FFF7D6FAD7
:102AB0000028EDD00699FF29EAD8089AFF2AE7D81E
:102AC000D2B2C9B29DF81400FEF7CAFB39463046AF
:102AD000FFF772F8FFF740BBFEF7E6FB39463046DA
:102AE000FFF76AF8FFF738BB01231C46FFF72EBB40
:102AF00010230AAA45492046FEF79BFF98B3444994
:102B00000AA8FDF7CDFBC8B14E490AA8FDF7C8FBDE
:102B100020B14D490AA8FDF7C3FBA8B94FF448629C
:102B20004A492046FFF7B5FA1290FFF703FABDF8BD
:102B30004800FEF725FC0446FFF708BB394630463F
:102B4000FEF752FEFFF708BB41490AA8FDF7A8FBB4
:102B500018B101231C46FFF7F9BAFEF765FC002304
:102B60001C46FFF7F3BA01231C46FFF7EFBA102308
:102B70000AAA26492046FEF75CFF48B124490AA864
:102B8000FDF78EFB40B133490AA8FDF789FB50B130
:102B900001231C46FFF7DABA024639463046FFF7F2
:102BA00037F9FFF7D9BA4FF480322B492046FFF7A7
:102BB00070FA02F015F9024639463046FFF728F957
:102BC000FFF7CABAFFF7B6F913AA24492046FFF760
:102BD00045FA30B19DF84C0001F040F80446FFF78B
:102BE000B5BA01F07DF80446FFF7B0BA1C4A394681
:102BF0003046FEF73BFCFFF7AFBA01231C46FFF758
:102C0000A5BA01231C46FFF7A1BA00BF68D401088A
:102C100060D801086CD801080CD5010820D501083E
:102C200038D50108ECD3010814D5010824D00108D7
:102C300020D0010818D50108F0D4010828D50108D2
:102C400030D50108F4D301084CD50108E0D30108C0
:102C50005CD50108CCD401086CD50108D4D3010897
:102C600074D5010830B589B0044600230593039359
:102C7000049305AB009306AB07AA1D4916F04CFD63
:102C800001282DDD079BB3F5006F2CD2069B082B86
:102C90002BD8059BE018002406E004F120026A44CA
:102CA00002F8143C0134E4B2069B9C4211D2FEF7B8
:102CB000E7FB054658B103784BB1102202A916F084
:102CC00007FB03460298A84201D0FF2BE5D901205B
:102CD00007E0DBB203AA0021079801F013FF00E030
:102CE000012009B030BD0120FBE70120F9E700BF5A
:102CF0009CD5010810B586B004461A49FDF7D0FAF4
:102D0000D8B140F2FF73029302AB009303AB04AA65
:102D10001549204616F000FD044601281EDD134922
:102D200004A8FDF7BDFA88B1114904A8FDF7B8FA67
:102D3000B0B9022C05D0012109E0FEF77DFA002090
:102D40000AE06FF060430293012100E00146029B1C
:102D5000039A0120FEF73CFA06B010BD0120FBE704
:102D60000120F9E7B0D50108C0D5010824D0010839
:102D700020D0010810B586B004461549FDF790FA39
:102D8000A0B103AB009304AB05AA1249204616F08C
:102D9000C3FC032815D10598072814D80499FF29E6
:102DA00013D8039AFF2A06D9012002E0FEF77CFA25
:102DB000002006B010BDD2B2C9B2C0B2FEF750FAC0
:102DC000F7E70120F5E70120F3E70120F1E700BF75
:102DD000D8D50108E8D5010870B58CB005460E4677
:102DE00007A801F005FA04A801F050FD9DF81D4068
:102DF0009DF81C0001F00EFA9DF81E30BDF82C2045
:102E000003920A9A02920193009023460A4A31469D
:102E10002846FEF750FC9DF810309DF811200699C9
:102E20000291059901910092044A31462846FEF725
:102E300042FC0CB070BD00BFFCD5010838D60108BB
:102E400070B59CB004460E461546A249FDF728FA17
:102E500020B1A1492046FDF723FA28B9294630467A
:102E6000FEF716FB1CB070BD9C492046FDF718FA12
:102E7000C0B106229A49204616F0C7FDB8B94FF4F2
:102E800048631A931AAA9749204616F045FCBDF8E4
:102E90006800FFF7D6F80346914A29463046FEF708
:102EA00087FDDFE729463046FEF7D2FCDAE71AABAA
:102EB0001BAA8D49204616F02FFC022800F0D18075
:102EC00003228A49204616F0A0FD002800F0D68093
:102ED00003228749204616F098FD002800F0428121
:102EE00005228449204616F090FD002800F06681F6
:102EF00081492046FDF7D4F9002800F091817F49EF
:102F00002046FDF7CDF9002800F08F810A227C4988
:102F1000204616F07AFD002800F090810C227949B5
:102F2000204616F072FD002800F0CF810E2276496F
:102F3000204616F06AFD002800F0F6810A22734947
:102F4000204616F062FD002800F0198270492046E4
:102F5000FDF7A6F9002800F0418208226D492046BD
:102F600016F053FD002800F03E8209226A492046EF
:102F700016F04BFD002800F07582092267492046B3
:102F800016F043FD002800F097820C226449204689
:102F900016F03BFD002800F0B4820A226149204669
:102FA00016F033FD002800F0C5825F492046FDF78A
:102FB00077F9002800F0EB8209225C49204616F0E0
:102FC00024FD002800F0E88259492046FDF768F901
:102FD000002800F0EB8257492046FDF761F90028F0
:102FE00000F0E9820B225449204616F00EFD00281D
:102FF00000F0EA8209225149204616F006FD002819
:1030000000F0F0824E492046FDF74AF9002800F012
:10301000F78209224B49204616F0F7FC38B10E2200
:103020004949204616F0F1FC002840F0EE824FF4AA
:1030300048631A931AAA4549204616F06DFB1AAA4E
:103040004349204616F068FBFEF774FFBDF86800A0
:10305000FEF796F903463F4A29463046FEF7A8FC9C
:1030600000E7BDF868109DF86C00FEF769FF0346A5
:10307000394A29463046FEF79BFCF3E61B9041F2A5
:10308000941319936423189340F6B833179317AB2E
:10309000019318AB009319AB1BAA3049204616F0D8
:1030A0003BFB00280FDDBDF85C30189ABDF86410BA
:1030B0009DF86C00FEF753FF0346294A2946304627
:1030C000FEF776FCCEE60123254A29463046FEF778
:1030D0006FFCC7E6D4D2010874D6010860D8010895
:1030E00064D3010878D6010884D6010890D6010877
:1030F000A4D60108B8D60108D8D60108E4D601083C
:10310000F0D6010824D7010850D7010878D7010864
:103110009CD70108A8D70108C4D70108E4D7010843
:1031200000D8010820D8010844D8010850D8010867
:103130005CD8010868D8010874D8010880D8010853
:103140008CD8010898D80108A4D80108B4D801087F
:10315000C4D8010844D501086CD3010894D60108ED
:1031600070D301081B904FF47A731993642318935A
:1031700040F6B833179317AB019318AB009319AB14
:103180001BAAAC49204616F0C7FA00280FDDBDF88F
:103190005C30189ABDF864109DF86C00FEF703FFD0
:1031A0000346A54A29463046FEF702FC5AE60123AB
:1031B000A14A29463046FEF7FBFB53E664231893E9
:1031C00040F6B833179317AB039318AB029308ABD1
:1031D000019307AB009306AB05AA9849204616F069
:1031E0009BFA032815DDBDF85C300193189B009312
:1031F000BDF820309DF81C20BDF818109DF8140073
:10320000FEF7F5FE03468E4A29463046FEF7D0FB10
:1032100028E601238A4A29463046FEF7C9FB21E603
:1032200029463046FFF7D8FD1CE6FEF783FE002353
:10323000844A29463046FEF7BBFB13E6FEF702F947
:10324000A0B114AB029313AB019307AB009306AB91
:103250001BAA7D49204616F05FFA05280DD00123F0
:103260007A4A29463046FEF7A3FBFBE50223774A5C
:1032700029463046FEF79CFBF4E5202200210DEBA9
:10328000020016F0ACFB01238DF820308DF82130C0
:103290009DF86C208DF822200799069A01FB02F216
:1032A0000C920D910E93BDF84C30ADF83C30BDF84A
:1032B0005030ADF83E3008A801F046FA0346634AA4
:1032C00029463046FEF774FBCCE5FEF7BBF890B11B
:1032D00012AB019315AB009316AB1BAA5C492046B9
:1032E00016F01AFA04280DD00123564A2946304612
:1032F000FEF75EFBB6E50223524A29463046FEF74A
:1033000057FBAFE501F008FA129BBDF85420BDF859
:1033100058109DF86C0000F051FE0346494A2946BA
:103320003046FEF745FB9DE5FEF78CF880B112AB09
:10333000009313AB14AA4749204616F0EDF9032871
:103340000DD001233F4A29463046FEF731FB89E57F
:1033500002233C4A29463046FEF72AFB82E501F06B
:10336000DBF9129ABDF84C10BDF8500000F096FE43
:103370000346344A29463046FEF71AFB72E5FEF74B
:1033800061F890B112AB019313AB009314AB1BAA7D
:103390003149204616F0C0F904280DD00123294AEE
:1033A00029463046FEF704FB5CE50223254A294600
:1033B0003046FEF7FDFA55E501F0AEF9129BBDF877
:1033C0004C20BDF850109DF86C0000F027FE03461D
:1033D0001C4A29463046FEF7EBFA43E529463046BB
:1033E000FEF7A6FA3EE5FEF72DF870B111AB1BAA69
:1033F0001A49204616F090F902280DD00123184AE8
:1034000029463046FEF7D4FA2CE50223144A294611
:103410003046FEF7CDFA25E5BDF944109DF86C0065
:1034200000F00CFD03460E4A29463046FEF7C0FA6E
:1034300018E500BFA8D60108A0D30108C0D601082E
:10344000B4D30108E4D3010808D70108FCD6010869
:1034500034D7010860D7010884D70108B4D7010820
:1034600064D40108FDF7EEFF80B110AB009319ABF7
:103470001BAA9E49204616F04FF903280DD00123C0
:103480009B4A29463046FEF793FAEBE40223984A1A
:1034900029463046FEF78CFAE4E4BDF84020BDF83A
:1034A00064109DF86C00FEF7F1F80346904A294637
:1034B0003046FEF77DFAD5E4FDF7C4FF78B11BAACC
:1034C0008C49204616F028F901280FD000F0DCFCCA
:1034D0000023874A29463046FEF76AFAC2E40223EF
:1034E000834A29463046FEF763FABBE49DF86C0038
:1034F00000F0C4FC03467E4A29463046FEF758FADF
:10350000B0E41AAA7C49204616F006F9012806D034
:1035100001237A4A29463046FEF74AFAA2E4BDF86A
:103520006800FEF78EFD0346744A29463046FEF7D2
:103530003FFA97E4FDF786FF90B112AB019315AB0C
:10354000009316AB1BAA6E49204616F0E5F8042836
:103550000DD00123694A29463046FEF729FA81E455
:103560000223664A29463046FEF722FA7AE4129B85
:10357000BDF85420BDF858109DF86C0000F01EFDF9
:1035800003465E4A29463046FEF712FA6AE42946A7
:103590003046FEF7CDFA65E42046FFF763FB0346AD
:1035A000584A29463046FEF703FA5BE4294630467E
:1035B000FEF792FB56E4FDF7C9FD0023524A294667
:1035C0003046FEF7F5F94DE42046FFF793FB03463E
:1035D0004D4A29463046FEF7EBF929463046FEF7BC
:1035E0007BFB3FE42046FFF7C5FB0346464A2946DE
:1035F0003046FEF7DDF929463046FEF76DFB31E433
:1036000029463046FEF7B2F92CE440492046FCF743
:1036100047FED8B13E492046FCF742FEF8B10922E8
:103620003C49204616F0F1F9F8B105223A49204606
:1036300016F0EBF980B32378002B3FF413AC23464C
:10364000364A29463046FEF736F80BE4FDF7ECFE25
:103650000023334A29463046FEF7AAF902E42946F8
:103660003046FEF727FCFFF7FDBB4FF4803308938D
:1036700008AA2C49204616F04FF8089801F0B0FB34
:103680000346294A29463046FEF792F92946304634
:10369000FEF710FCFFF7E6BBFDF7D4FE90B1FEF796
:1036A00049FC1BAA2149204616F036F8012811D002
:1036B00000F016FB0346184A29463046FEF778F913
:1036C000FFF7D0BB0223144A29463046FEF770F9B3
:1036D000FFF7C8BB9DF86C0000F0C0FA03460E4A25
:1036E00029463046FEF764F9FFF7BCBBD0D7010886
:1036F00064D40108F0D7010810D80108CCD401081F
:103700002CD80108E4D4010808D50108D8D801084C
:10371000E8D80108F4D801086CD8010810D90108CC
:1037200044D5010800D9010864D50108F4D701087F
:1037300038B50C461546FDF7A3FE30B102787B2A5A
:1037400004D02A462146FFF77BFB38BD2A46214696
:10375000FEF7A8FCF9E7000008B50146014815F09E
:1037600085FE08BD64CE010808B5034B00221A800F
:10377000024815F0E3FE08BDA803002024D9010883
:1037800030B583B0002403E0184B1B88D3B9013453
:103790001F2C28D8002301220DF10701144808F03E
:1037A00045FD00BB9DF807300A2B18BF0D2BEBD051
:1037B0000E4A12889E2A0FD8501C0C4908800D49C9
:1037C0008B54E4E70B480025C5542A460A49FFF705
:1037D000AFFF064B1D80DAE7044B00221A80074832
:1037E00015F0ACFED3E703B030BD00BFA803002046
:1037F0008C020020AC0300205937000860D9010872
:1038000089B130B583B00C685CB1054648B1FCF7AE
:1038100051FD0246002300930123294620460CF067
:10382000F3FB03B030BD704700B583B00B46019089
:1038300001AA03491846FFF77BFF03B000BD00BF94
:1038400001380008F0B5C7B00646002500950123F1
:10385000552220490CF0D8FB34E095B90134A4B2CC
:10386000BDF80E30A3421DD9049B1B5D0A2B18BF67
:103870000D2BF2D0FE2D0CD86A1C05A94B5595B224
:10388000ECE705A900274F553046FFF7CDFF3D4631
:10389000E4E700250095012326220F4930460CF06D
:1038A000B3FBDBE745980DF00CFD002807DB0DF1BD
:1038B0000E0204A945980DF0EBFC0024D0E74598D2
:1038C0000DF0D6FC45A930460CF0C8FC0028EED01F
:1038D00047B0F0BD78D90108D0D9010810B582B041
:1038E0000022114610200CF077FA88B1044641F20C
:1038F000883223490CF0EEFA024670B141F2883169
:10390000204815F0B3FD20460CF0D4FA0AF082FFEF
:103910001D4815F013FE0AF07DFFFF2120460CF034
:10392000F1FA014638B1194815F0A0FD20460CF017
:10393000C1FA0AF06FFF41F28831154815F096FD83
:1039400002E064200AF06BFF0023019301A92046E6
:103950000CF07BFB0028F4D1019B002BF1D00D482B
:1039600015F0ECFD0198FFF76DFF01980CF058FB86
:1039700001980CF09FFA084815F0E0FDE4E700BF5D
:103980003C02020814DA0108F8D9010834DA010807
:1039900054DA010880DA010898DA010808B5064B04
:1039A0001B6803B108BD054A194605480AF0D1FE57
:1039B000014B1860F6E700BF4C0400202C00020801
:1039C000DD3800080138C0B20C2801D8012070474A
:1039D00000207047A0F5FA7080B241F2941398422B
:1039E00001D8012070470020704700000138094BC2
:1039F00033F910301944B1F5FA7F05D341F2883319
:103A0000994204D888B270474FF4FA70704741F277
:103A1000883070479805002001380B494FEA001C98
:103A200001EB0012002301F80C3053809380936067
:103A30009381064A42F82030054A42F820304FF080
:103A40000002044B1A547047C8040020940400205C
:103A50006004002050040020884210D009D9431A85
:103A6000002A18BF934209D9884204D3821A90B21F
:103A700070470B1AF4E7104480B27047084670474D
:103A800041F28733984209D8C0EB004000F6C410D9
:103A9000044BA3FB0030C0F30F3070474FF6FF70AC
:103AA000704700BF5917B7D1F8B504460E46154602
:103AB000FFF788FFE8B13046FFF78CFF10B901230C
:103AC0001F4618E031462046FFF790FFFFF7D8FF6A
:103AD0000146631ED8B201F049FB074658B9601E83
:103AE000064B23F810600DB92F4604E001F0C4FA2C
:103AF00001E001231F463846F8BD00BFB405002091
:103B000038B505460122FFF7CFFF044608B120462D
:103B100038BD2846FFF780FFF9E738B50546FFF7BF
:103B200059FFA0B101240D2C0CD8002229462046B3
:103B3000FFF7BAFF034640B92046FFF76DFF013497
:103B4000E4B2F0E701F098FA0023184638BD0123EB
:103B5000FBE708B5FFF7E1FF08BD00002DE9F84FCE
:103B6000054682460C460F4616469846BDF8283054
:103B70009946FFF727FF002849D02046FFF72AFF84
:103B8000002849D06C1E2301264AD35C7BB9264B02
:103B900033F8143035461E46BB4228BF012D3ED0B7
:103BA000BB4298BF022D07D101231D4631E01D4BBA
:103BB00003EB04139B88EDE705F0E4F8834619490D
:103BC000220101EB04138D545F809E80C3F80880AE
:103BD0004946A3F80C90154B43F824000023144ADF
:103BE00042F82430134A135511B100231D4610E04A
:103BF000012239465046FFF757FF054618B90C4BCE
:103C000043F824B005E05046FFF706FF01E001232A
:103C10001D462846BDE8F88F01231D46F9E701231C
:103C20001D46F6E7C8040020B405002094040020D7
:103C3000600400205004002000B583B000931346B8
:103C40000122FFF78BFF03B000BD00B583B00093E6
:103C500013460222FFF782FF03B000BD38B50446C9
:103C60000546FFF7AFFE88B12046631E1A010949D9
:103C70008C5C64B101EB031301229988FFF714FFF8
:103C8000044620B92846FFF7C7FE00E0012420467D
:103C900038BD00BFC80400202DE9F0411D46BDF825
:103CA0001C30904218BFA94204D801231F46384651
:103CB000BDE8F081804614461E46069AFFF7BCFF19
:103CC00007460028F3D13346069A29462046FFF7D7
:103CD000BCFF07460028EAD04046FFF7BFFFE6E7F3
:103CE00010B501240D2C07D82046FFF7B7FF034677
:103CF00018B90134E4B2F5E70023184610BD0000FE
:103D00002DE9F0410646012500271CE0464901EB5C
:103D10000411498833E01A463EE0444B43F82460DE
:103D2000434B1B5D2BB9404A02EB041252884245BB
:103D300048D02BB13C4B03EB04139B8843454AD03E
:103D400001270135EDB20D2D68D86C1EE4B22301B8
:103D5000354AD35C002BF4D0344B53F8243013B9DC
:103D6000324B43F82460314B53F82420B21A304BC5
:103D70001B5D002BCAD02C4901EB041189882D480A
:103D800030F8140088422AD0274B03EB04139B8998
:103D9000002BC0D003FB02F20BB1002AD1D041F2BC
:103DA00088339A4200D91A46FFF756FE8046002211
:103DB00001462846FFF778FE07460028ADD0384672
:103DC000BDE8F0811C4A52F82420002AB1D11A4AD9
:103DD00042F82460ADE72846FFF71EFEB0E7134A1D
:103DE00042F82460B3B9144B53F8243013B9124B82
:103DF00043F824600C4B03EB04139B68002BA0D00A
:103E00000D4A52F82420B21A93429AD8084B012244
:103E10001A5596E72846FFF7FFFD92E7002FCED010
:103E200001F02AF90027CAE7C80400209404002002
:103E300050040020B40500206004002038B5054679
:103E40000C46FFF7BFFD98B104F5FA739BB2B3F5CA
:103E50007A7F01D901200CE028466B1E054A22F822
:103E600013400122044931F81310FFF71DFE00E052
:103E7000012038BD98050020B405002008B50021B8
:103E8000FFF7DCFF08BD000010B501240CE0631E45
:103E90000022084921F81320074931F81310204661
:103EA000FFF702FE0134E4B20D2CF0D901F0E4F882
:103EB00010BD00BF98050020B405002010B50446D1
:103EC000FFF780FD18B1601E014B33F9100010BDE3
:103ED0009805002010B50446FFF774FD18B1601E68
:103EE000014B33F8100010BDB405002030B585B08B
:103EF00004460D4600230093019302930393084662
:103F0000FFF760FD48B1691E064B03EB01130FCBB1
:103F100084E80F00204605B030BD20606060A060DE
:103F2000E060F7E7C80400200023184601E00133F1
:103F3000DBB20C2B07D81A0103498A5C002AF6D0A1
:103F40000130C0B2F3E77047C8040020012803D055
:103F5000022803D102487047024870470248704760
:103F600040C401083CC401084CC401080138C0B277
:103F70000C2801D80120704700207047A0F5FA7086
:103F800080B241F29413984201D80120704700207A
:103F90007047000008B504F0F5FE054B18600020DE
:103FA000044B1880044B01225A70188208BD00BFD0
:103FB000D0050020CE050020D4050020F8B5074626
:103FC0000C4615461E46FFF7D1FFE0B12046FFF72D
:103FD000D5FFD0B12846FFF7D1FFC0B1012E8CBF6D
:103FE000002301232046AC4213D293B90A4B01228D
:103FF0001A709F709880DD8000221A815A81DE60DD
:10400000FFF7C8FF00E00120F8BD0120FCE7012018
:10401000FAE70120F8E700BFD40500202DE9F843B6
:104020000C4615469946914229D98B1A984666192D
:104030000746FFF79BFF28B32046FFF79FFF20B3FB
:10404000B8F5FA7F2CBF0022012205B3FAB9494620
:1040500001298CBF0022012241F288339E4218D8E8
:10406000BAB90D4B02221A709F7000229A80DA8032
:104070001C815D81C3F80C90FFF78CFF03E00023E7
:104080009846D4E70120BDE8F8830120FBE7012032
:10409000F9E70120F7E700BFD40500202DE9F04142
:1040A00004460D469046884226D9431A1F46661993
:1040B0002046FFF763FF10B33B46B7F5FA7F2CBFEE
:1040C00000230123F5B1EBB9414601298CBF002241
:1040D000012241F288339E4216D8AAB90B4B032223
:1040E0001A7000229A709A80DA801C815D81C3F870
:1040F0000C80FFF74FFF03E000231F46D7E70120A6
:10410000BDE8F0810120FBE70120F9E7D40500209C
:10411000024B00225A701A70704700BFD40500206D
:1041200003462E4A5078002856D010B52C4A106805
:10413000181A2A4AD368B0FBF3F103FB1100127876
:10414000012A2DD0911EC9B2012941D88001B0FBAE
:10415000F3F0DFF888C0BCF80A30224931F91010BA
:1041600001FB03F3204981FB03011944DB17C3EB77
:10417000A133BCF8081011FA83F39BB21C461B4B09
:104180001B882146A34225D0032A14D0134B9878CC
:10419000FFF7B6FCC0B9154B1C80104B1C8210BD3C
:1041A000B0EB530F03D20D4B9B881C46E7E70B4B3C
:1041B000DB881C46E3E72046FFF7AFFC0028EAD087
:1041C000FFF7A6FF0120EAE7FFF7A2FF0120E6E7DD
:1041D0000020E4E70020E2E7704700BFD40500209C
:1041E000D00500205000020803000180CE05002009
:1041F00010B504468446DFF818E0BEE80F00ACE8CE
:104200000F00DEF80030CCF80030204610BD00BFB3
:10421000D4050020022805D0032805D0012805D1A7
:104220000348704703487047034870470348704786
:10423000FCD3010810D4010834D40108BCDA010809
:104240000346002918BF00281AD00E4A526912F4FA
:10425000803F15D020F01F020B441F3323F01F03B3
:104260009B1A002B0CDDBFF34F8F0649C1F8682263
:104270002032203B002BF8DCBFF34F8FBFF36F8F52
:10428000704700BF00ED00E0034668B30269F2B179
:104290004269F2B1B2F5806F1DD8407820B30D2885
:1042A0001BD8998BD9B100FB02F2013AB2F5006F2D
:1042B00017D20021884208D95A189278013AD2B20E
:1042C0000C2A10D80131C9B2F4E70120704710461A
:1042D000704710467047002070470020704708461E
:1042E000704700207047002070470F3000F03F00FB
:1042F00041EA004070470000044B01225A705A689E
:104300000349096802EB51025A6070471406002005
:10431000F0050020054B00225A705A6804490968CC
:10432000013102EB51025A60704700BF14060020B1
:10433000F005002008B501F015FE034BDB6913F012
:10434000700F00D0400008BD0044025808B9012099
:10435000704738B50446FFF7EDFF054684423BD869
:10436000230C2204801843F10001013841F1FF3190
:10437000FBF7FEFF024618B1421EB2F5803F2DD278
:1043800002FB0443B5FBF3F3013BB3F5803F27D2B7
:1043900015490868D0F820C014490CEA010151B948
:1043A000D0F820C040F244411CEA010F03D101685B
:1043B00021F0010101600C4801688A62CB62C36090
:1043C00000234B62012106F0A4FF58B9064B1B687D
:1043D0006FF001021A6100E0012038BD0120FCE706
:1043E0000120FAE70120F8E7400200201111110036
:1043F00008B5002000F026FE002301E000BF0133D5
:104400000F2BFBD9012000F01DFE08BD70B506463C
:104410000D46134C204603F007FE204603F0BCFB7C
:10442000104B236066604023A3600023E3604FF4D9
:10443000806222614FF4805262614FF48042A26137
:10444000E5614FF4003222626362204603F0D6F940
:1044500018B9054A9467A26370BD0120FCE700BF4C
:10446000F4000020580002406C01002038B5364BA3
:104470005C78012C02D00124204638BD4FF48071B5
:104480001B20FFF7C3FF0028F6D1304B304A1364DE
:10449000304BD363304BD3641065304D29688900AD
:1044A0004FF0C040FFF7CCFE2D4A11680B6823F493
:1044B00000730B601368996821F400419960596892
:1044C0006FF30F015960196841F00101196012681A
:1044D0002B6820324FF0C0411D4803F047FC0028F4
:1044E000CAD100F0AFFD002210211E4802F041FFAA
:1044F0001B4B1A68136843F4007313601A48026870
:10450000D36843F48073D36006F048FE20B9174A9D
:10451000022111700446AFE7134B1A68D36823F4E5
:104520008073D3600A4803F07FFD012210210D48FB
:1045300002F01FFF012000F085FD094B1A68136887
:1045400023F40073136097E7F4050020F942000894
:10455000F40000201543000859490008F005002028
:104560006C0100200000025840020020E8050020F5
:1045700008B500212620FFF749FF08B1012008BD3A
:10458000034B01221A70034806F060FEF7E700BFF4
:10459000E80500204002002010B5194C204606F026
:1045A0009DFE204606F03CFE2268D36823F480730B
:1045B000D360144B1B78022B14D0134806F0A4FAD6
:1045C00001221021114802F0D4FE012000F03AFD32
:1045D00000240F4B1C7021462620FFF717FF094BC4
:1045E0001C7010BD0B4803F01FFD074B1B689A6839
:1045F00022F400429A601A6822F400721A60DFE71F
:1046000040020020E80500206C0100200000025854
:10461000E9050020F400002010B5094B00241C60BF
:104620005C609C6020222146064815F0D8F9064BB4
:104630001C60064B1C60064B1C70064B1C7010BDAA
:1046400014060020F4050020F0050020EC050020F1
:10465000E9050020E8050020002918BF002848D0FF
:1046600070B52DED068B0AEE102A0AEE903A06463A
:104670000D46B1F5806F3ED800240BE09FED207B06
:10468000BCEEC77B17EE103A98B2FFF7F9F926F89F
:1046900014000134AC4228D207EE904AB8EE677B92
:1046A0009FED196B27EE067B06EE905AB8EE660B6F
:1046B000B8EE6A8BB8EE4A9B87EE000B16F0F4FC5E
:1046C000B0EE487B09EE007B9FED0D6BB4EEC67B30
:1046D000F1EE10FAD2D49FED0E6BB4EEC67BF1EE84
:1046E00010FACDDD9FED0A7BCAE70020BDEC068BFA
:1046F00070BD012070470120F8E700BFAFF30080D4
:104700000000000000407F40182D4454FB21194058
:10471000000000000088B34008B5084B1B7803B9BF
:1047200008BDFFF739FF0022054B1A70034B1A70C2
:104730009A685968034814F099FEF1E714060020BE
:10474000F4050020C4DA01082DE9F041ADF6080DAA
:1047500000287ED0064683690BB901238361304669
:10476000FFF792FD002876D03F4B1B7863B9FFF727
:10477000CFFCF38BB28B716902A8FFF76DFF804607
:1047800000286ED1074615E0FFF7C6FFEFE707FBED
:104790000354A40004F1C044731902AA32F817109C
:1047A0009878FFF7A2FD20600135EDB27378AB4237
:1047B000EDD801377369BB4201D94546F6E7306948
:1047C000FFF7C4FD044608B1012445E0274F3D46EC
:1047D00030687168B268F3680FC530697169B26991
:1047E000F3690FC5012139707A69214B1A600023E2
:1047F000204A1360204A13701B4A11705370536093
:1048000093607B788B4213D0FFF7B2FE003818BF5D
:10481000012098B9154B19695A695B7817480078D7
:10482000022814D016480090164814F01FFE13E01A
:10483000FFF71CFE003818BF0120EAE7FFF7ACFEC7
:1048400000230A4A1370084A1370012404E00E483A
:10485000E9E7012400E0012420460DF6080DBDE83B
:10486000F0810124F8E700BF14060020F4050020C1
:10487000F0050020EC050020E9050020E8050020F7
:10488000FCDA010804DB0108F4DA01080346034AF4
:1048900007CA83E807001846704700BF14060020C7
:1048A00038B51D4B1B7853B11C4B1B78012B06D11F
:1048B0001B4B1B7823B1184A93680133936038BDB2
:1048C000184C6178184B1B6803FB01F31D4600224E
:1048D0001021164802F04DFDA900627801F1C04197
:1048E000134806F033F868B90D4B01221A700E4ACE
:1048F0001368013313600F4A12689342DFD30A4BE7
:104900001860DCE701221021084802F032FD024A5B
:10491000936801339360D2E714060020E805002075
:10492000E9050020F4050020EC05002000000258F5
:104930006C010020F005002010B5054CA368013380
:10494000A360FFF729FE0023024A1370237010BDF5
:1049500014060020F405002008B5FFF7EDFF08BDA0
:1049600008B502680D4B9A4200D008BD0C4B1B786D
:10497000002BFAD00B4B1B78012BF6D10122102112
:10498000094802F0F6FCFFF733FD084B00221A70CD
:10499000034A536801335360E7E700BF003001402A
:1049A00014060020E805002000000258E905002058
:1049B00008B50268034B9A4200D008BDFFF7BCFF60
:1049C000FBE700BF003001407047042811D009D830
:1049D000022810D003D8C8B101280ED1704703288F
:1049E0000DD1704706280CD007280CD005280CD113
:1049F0007047042070470220704708207047082045
:104A00007047062070470720704708207047042829
:104A100011D009D8022810D003D8C8B101280ED16E
:104A2000704703280DD1704706280CD007280CD0FA
:104A300005280CD1704704207047022070470820D9
:104A400070470820704706207047072070470820ED
:104A50007047000010B58AB002AC20220021204629
:104A600014F0BDFF022304930123059321460F4850
:104A700014F0F4F810B101200AB010BD4FF08043DB
:104A800002930390069007902146084814F0E6F838
:104A900008B10120F0E701230093024601460348D4
:104AA00014F020F90028E7D00120E5E72883002052
:104AB00010B524220021104814F091FFFFF7CAFF1F
:104AC00038B10D4AD3680133D36001231C46204618
:104AD00010BD0A4814F01FF9044630B1064AD368E5
:104AE0000133D36001231C46F1E7034B01221A7006
:104AF000034814F023FDEAE7200600202883002065
:104B000040DB0108F0B58DB006460F4615461C4641
:104B10002422002103A814F062FF002301930293D2
:104B2000234B1B785BB3082C29D8231E18BF012305
:104B3000002D18BF002313BBB6F5006F28BF002F50
:104B400024D03B1E18BF0123B6F1005F38BF0023FD
:104B5000E3B90CBB03963B460FB14FF0804304937F
:104B60002046FFF732FF069001AA03A9114814F06E
:104B7000EBF8B8B90E4A53680133536004E00C4AAD
:104B8000D3680133D36001200DB0F0BD084AD3686B
:104B90000133D3600120F7E72246294601A814F02B
:104BA000D0FFD7E7024AD3680133D3600120EBE797
:104BB0002006002028830020414B1B78002B7DD04D
:104BC0002DE9F04192B024E03D4AD3680133D3602F
:104BD00012B0BDE8F0814FF001084AE0394967E0C2
:104BE000394A3A4814F042FC0134E4B2AC4209D2EA
:104BF00004F148036B4413F8441C631C9D42EFD03E
:104C0000334AEEE7334814F099FC2D4B1B78002B08
:104C1000DED04021304814F0D1F90028D8D008ACBB
:104C200028220021204614F0DAFE01AB0022019276
:104C30005A600392049205920692079222464021FE
:104C4000254814F0BBF804460028BDD10B98FFF7A7
:104C5000DEFE05461A4FBB680133BB60089B3B6113
:104C600004F090F806467861099BB3F1804FB2D00A
:104C7000A046134880F81880457601AF2A46394689
:104C80001A3014F05EFF089B039304968DF814808D
:104C90008DF815502A4639460DF1160014F051FFD3
:104CA00003A8FCF71BFB099BB3F1804F96D00B497F
:104CB0002B46089A0A4814F0D9FB97E7704700BFC3
:104CC0002006002020D00108D4C6010860CE0108CB
:104CD00088D8010804DD01082883002024D00108B9
:104CE00080DB010810B504468446DFF820E0BEE80A
:104CF0000F00ACE80F00BEE80F00ACE80F00DEF8D4
:104D00000030CCF80030204610BD00BF2006002047
:104D100000F140504000054B586119845A8401222B
:104D200083F82420DA690132DA61704744060020F2
:104D300008B58446002304E05A0002F1C042118005
:104D400001336345F8D3BFF34F8F002000E00130FB
:104D500060450AD2430003F1C0431A8892B28A42E6
:104D6000F5D0FFF7D5FF012000E0002008BD08B511
:104D70008446002208E0510001F1C0414AF2A553E7
:104D800053409BB20B8001326245F4D3BFF34F8F87
:104D9000002000E0013060450ED283B24AF2A551F6
:104DA0005940430003F1C0431A8892B29142F1D0B6
:104DB000FFF7AEFF012000E0002008BD10B5074C52
:104DC00028220021204614F00AFE4FF0C043236041
:104DD0004FF4801363601023237210BD440600203B
:104DE00070B530B10346B0F5801F04D94FF480147C
:104DF00004E04FF4803333F001042AD0184DEC6006
:104E000003F0C0FF286100236B612B846B840223B5
:104E100085F8243064082046FFF7A9FF0646D8B974
:104E2000054600E00135032D0AD80E4B33F8151066
:104E30002046FFF77DFF0028F4D001231E4606E040
:104E4000074B002283F824209A6901329A61304688
:104E500070BD01231E46FAE701231E46F7E700BF97
:104E600044060020D000020810B504468446DFF84E
:104E700020E0BEE80F00ACE80F00BEE80F00ACE891
:104E80000F009EE803008CE80300204610BD00BF21
:104E900044060020022809D004D848B1012809D1CD
:104EA00006487047032807D10548704705487047F2
:104EB0000548704705487047044870473CCD0108D5
:104EC000ACDB0108A4DB010824E20108B4DB010823
:104ED0000B4B1B6803B1704710B509F0F5FB044696
:104EE000074B1B681BB1204609F003FC10BD184698
:104EF00009F0A5FC024B1860BFF34F8FF3E700BF2A
:104F00006C06002008B509F0A9FB022801D000209A
:104F100008BDFFF7DDFF054B186828B1044B196881
:104F200009F0DDFC0028F3D00320F1E76C06002037
:104F30000000002008B509F091FB022800D008BD50
:104F4000034B18680028FAD009F0FAFCF7E700BF15
:104F50006C06002070B5002918BF002803D101237A
:104F60001E46304670BD05460C46FFF7CBFF064691
:104F70000028F6D102461021094802F0FAF9094B3F
:104F80001B6822462946084805F038F906460122E2
:104F90001021034802F0EDF9FFF7CCFFE1E700BF75
:104FA00000000258000000206C010020F0B583B022
:104FB000002918BF002821D0144606460D4612B914
:104FC00001231F461CE0FFF79DFF0746C0B90246BC
:104FD00010210D4802F0CDF90C4B1B6800932346BD
:104FE0002A4631460A4805F069FA0746012210218F
:104FF000054802F0BEF9FFF79DFF01E001231F46BF
:10500000384603B0F0BD00BF000002580000002089
:105010006C01002008B502460821024802F0A9F9F7
:1050200008BD00BF000C025808B50020FFF7F2FFD2
:105030000A2003F0ADFE0120FFF7ECFF0A2003F089
:10504000A7FE08BD08B502464021024802F091F9CA
:1050500008BD00BF000C025808B501221021054808
:1050600002F087F90120FFF7D5FF0120FFF7EAFFE3
:1050700008BD00BF0000025808B50020FFF7E2FF9E
:10508000012003F085FE0120FFF7DCFF08BD0000D2
:1050900008B50421034802F065F9012800D000207A
:1050A00008BD00BF000C02580A2809D809280FD2F1
:1050B00002280FD9042801D0002070470120704732
:1050C0000C2809D00E2801D000207047012070471D
:1050D00001207047012070470120704700F00F0049
:1050E00040EA001343EA002343EA0030704700F02F
:1050F000C00001F03F01084342EA00407047000051
:1051000000B583B03F280BD9C020FFF7F0FF019016
:10511000012101A8FFF71EFF024B187003B000BD6C
:105120000020F2E77006002000B585B00023009350
:1051300001933F2800D8C0200022FFF7D8FF02903B
:10514000002211461046FFF7D2FF03900222694663
:1051500002A8FFF72BFF044B187018B9BDF8040024
:1051600005B000BD0020FBE77006002008B50F2841
:1051700003D90120054B187008BD10300A46C1B292
:105180000020FFF7BDFF014B1870F5E77006002007
:1051900010B504460421C020FFF7C6FF0246094BA4
:1051A000187848B94CB122F4804292B20421002010
:1051B000FFF7A6FF034B187010BD42F4804292B275
:1051C000F4E700BF7006002038B50446FFF76CFF17
:1051D00098B12046FFF782FF05460024032C10D823
:1051E00004F10A012A46C9B20020FFF789FF064BE5
:1051F000187040B90134E4B2F0E70120024B187096
:1052000001E0014B187838BD7006002008B5002079
:10521000FFF7DAFF08BD000008B5024609210020AB
:10522000FFF76EFF014B187008BD00BF700600202D
:1052300008B5FFF711FFFFF7F7FE40F684220321C0
:105240000020FFF75DFF0C4B187000B108BD012076
:10525000FFF79EFF084B18700028F7D1012003F0DC
:1052600097FDFFF7D3FF044B18700028EED1FFF72E
:10527000D3FF014B1870E9E770060020002807DB18
:1052800000F01F02400901239340024A42F82030F7
:10529000704700BF00E100E0002804DB0901C9B24B
:1052A000044B1954704700F00F000901C9B2024BBA
:1052B0001954704700E400E014ED00E000B500F080
:1052C0000700A0F1030CBCF1040F07D8C0F1070ED2
:1052D0000430062806D84FF0000C03E04FF0040E0F
:1052E0004FF0000C4FF0FF3303FA0EF021EA0001FB
:1052F00001FA0CF103FA0CF322EA030241EA02007C
:1053000000BD00000649CB6823F4E0631B041B0CBE
:10531000000200F4E0600343024A1A43CA60704787
:1053200000ED00E00000FA0510B50446054BD86812
:10533000C0F30220FFF7C2FF01462046FFF7ACFF93
:1053400010BD00BF00ED00E008B5FFF797FF08BDF6
:10535000BFF35F8F044B5A6A22F480325A620022F4
:10536000C3F89420704700BF00ED00E040F001005A
:10537000054BC3F894005A6A42F480325A62BFF374
:105380004F8FBFF36F8F704700ED00E04378144AF2
:10539000C2F89830D2F8A03023F00103C2F8A03050
:1053A0004368C2F89C30017BC37A1B0643EA017351
:1053B000817A43EAC143417B43EA8143817B43EAEB
:1053C0004143C17B43EA0143417A43EA0123017A25
:1053D00043EA410301780B43C2F8A030704700BF95
:1053E00000ED00E0002800F03A8338B50446036879
:1053F00013F0010F25D0944A136903F03803926A21
:10540000102B15D0182B0FD06368B3F5803F3FD019
:10541000002B53D18C4B1A6822F480321A601A6820
:1054200022F480221A6038E002F00302022AEBD153
:10543000854B1B6813F4003F03D06368002B00F01A
:105440001083236813F0020F00F0A1807E4A1369D5
:10545000926A13F038035AD0182B55D0E368002B0A
:1054600000F0DE8078490A6822F0190213430B60CD
:1054700003F088FC0546744B1B6813F0040F40F0E2
:10548000AD8003F07FFC401B0228F4D90320EFE23B
:105490006D4A136843F48033136063682BB303F0E1
:1054A00071FC0546684B1B6813F4003FC9D103F03B
:1054B00069FC401B6428F5D90320D9E2B3F5A02F7D
:1054C00009D0614B1A6822F480321A601A6822F4FB
:1054D00080221A60E1E75C4B1A6842F480221A606D
:1054E0001A6842F480321A60D7E703F04BFC054695
:1054F000554B1B6813F4003FA3D003F043FC401B43
:105500006428F5D90320B3E212F0030FA6D14E4B65
:105510001B6813F0040F03D0E368002B00F0A38294
:10552000494A136823F01903E1680B43136003F041
:1055300029FC0546444B1B6813F0040F06D103F009
:1055400021FC401B0228F5D9032091E203F034FC32
:1055500041F20303984212D82269402A07D03A49FF
:105560004B6823F47C3343EA02334B600FE0364A46
:10557000536823F47C3343F40033536007E0324A2A
:10558000536823F0FE43216943EA016353602368B3
:1055900013F0100F00F088802B4A136903F03803D2
:1055A000926A082B56D0182B50D0E369002B00F0DC
:1055B000B880254A136843F08003136003F0E2FBD0
:1055C0000546214B1B6813F4807F40F0888003F070
:1055D000D9FB401B0228F4D9032049E203F0ECFB7D
:1055E00041F20303984212D82269402A07D0164993
:1055F0004B6823F47C3343EA02334B60C7E7124A1B
:10560000536823F47C3343F400335360BFE70E4AFE
:10561000536823F0FE43216943EA01635360B6E710
:10562000094A136823F00103136003F0ABFB05463E
:10563000054B1B6813F0040FA9D003F0A3FB401B1C
:105640000228F5D9032013E20044025802F00302B5
:10565000012AAAD1994B1B6813F4807F03D0E36918
:10566000802B40F0028203F0A7FB41F20303984233
:1056700012D8226A202A07D090494B6823F0F843B9
:1056800043EA82634B600FE08C4A536823F0F8438F
:1056900043F08043536007E0884AD36823F07C538B
:1056A000216A43EA0163D360236813F0080F60D0D6
:1056B0006369002B49D0814A536F43F0010353675C
:1056C00003F060FB05467D4B5B6F13F0020F50D17A
:1056D00003F058FB401B0228F5D90320C8E103F072
:1056E0006BFB41F20303984212D8226A202A07D0AA
:1056F00072494B6823F0F84343EA82634B60D3E777
:105700006E4A536823F0F84343F080435360CBE77D
:105710006A4AD36823F07C53216A43EA0163D36069
:10572000C2E7664A136823F08003136003F02AFB84
:105730000546624B1B6813F4807FB5D003F022FB53
:10574000401B0228F5D9032092E15C4A536F23F0F5
:105750000103536703F016FB0546584B5B6F13F0CC
:10576000020F06D003F00EFB401B0228F5D90320E0
:105770007EE1236813F0200F29D0A3699BB14F4A23
:10578000136843F48053136003F0FCFA05464B4B57
:105790001B6813F4005F1AD103F0F4FA401B0228CF
:1057A000F5D9032064E1454A136823F4805313605C
:1057B00003F0E8FA0546414B1B6813F4005F06D07E
:1057C00003F0E0FA401B0228F5D9032050E12368DA
:1057D00013F0040F21D1636A002B00F04881374A8F
:1057E000126902F03802182A00F0EF80022B7AD0FA
:1057F000324A136823F08073136003F0C3FA04463F
:105800002E4B1B6813F0007F00F0DD8003F0BAFA26
:10581000001B0228F4D903202AE1294A136843F423
:105820008073136003F0AEFA0546254B1B6813F432
:10583000807F06D103F0A6FA401B6428F5D9032027
:1058400016E1A368012B0AD00BBB1C4B1A6F22F088
:1058500001021A671A6F22F004021A6704E0174A5D
:10586000136F43F001031367A3685BB303F08AFA75
:105870000546124B1B6F13F0020FACD103F082FAF6
:10588000401B41F288339842F3D90320F0E0052B06
:1058900009D00A4B1A6F22F001021A671A6F22F020
:1058A00004021A67E0E7054B1A6F42F004021A6718
:1058B0001A6F42F001021A67D6E700BF004402588F
:1058C0000048025803F05EFA0546714B1B6F13F057
:1058D000020F80D003F056FA401B41F28833984201
:1058E000F3D90320C4E06A4A136823F0807313607D
:1058F00003F048FA0546664B1B6813F0007F06D09C
:1059000003F040FA401B0228F5D90320B0E0604BB9
:10591000996A604A0A40A16AE06A41EA00110A43B2
:105920009A62226B013AC2F30802616B01394902A3
:1059300089B20A43A16B0139090401F4FE010A434B
:10594000E16B0139090601F0FE410A431A63DA6A84
:1059500022F00102DA625A6B6FF3CF02A16C42EAC5
:10596000C1025A63DA6A22F00C02216C0A43DA623D
:10597000DA6A22F00202616C0A43DA62DA6A42F4FD
:105980008032DA62DA6A42F40032DA62DA6A42F4C7
:105990008022DA62DA6A42F00102DA621A6842F0C0
:1059A00080721A6003F0EEF90446394B1B6813F05D
:1059B000007F06D103F0E6F9001B0228F5D9032089
:1059C00056E0002054E0002052E0314A916A106B0A
:1059D000012B4ED001F00303A26A93424BD1C1F3D5
:1059E0000511E36A994248D1C0F30802236B013BD9
:1059F0009A4244D1C0F34622636B013B9A4240D1A4
:105A0000C0F30642A36B013B9A423CD1C0F306604F
:105A1000E36B013B984238D11D4B5B6BC3F3CC0366
:105A2000A26C9A4201D1002022E0194AD36A23F0E5
:105A30000103D36203F0A6F9054603F0A3F9A842D7
:105A4000FBD0134A536B6FF3CF03A16C43EAC1033E
:105A50005363D36A43F00103D362002008E00120BE
:105A60007047012004E0012002E0012000E0184618
:105A700038BD0120FCE70120FAE70120F8E701200A
:105A8000F6E70120F4E70120F2E70120F0E700BF8C
:105A9000004402580CFCFFFF744B1B6903F03803F1
:105AA000102B00F0DD80182B0FD0002B40F0DA8097
:105AB0006E4B1B6813F0200F00F0D6806B4B1B68F9
:105AC000C3F3C1036A48D8407047684B9A6A02F032
:105AD0000302D3F828C0CCF30510D96A01F0010104
